:020000040800F2
:1000000058B4002061020008B9750008EB5E0008D2
:1000100061750008D110000831BB00080000000025
:10002000000000000000000000000000A101000826
:10003000C313000800000000FD01000893890008B8
:100040007B0200087B0200087B0200087B0200089C
:100050007B0200087B020008C51300087B02000831
:100060007B020008CF130008D91300087B020008A8
:10007000A91200087B0200087B0200087B0200082E
:100080007B0200087B0200087B0200087B0200085C
:100090007B0200087B0200087B020008E3130008D3
:1000A0007B0200087B0200087B0200087B0200083C
:1000B0007B0200087B0200087B0200087B0200082C
:1000C0007B0200087B0200087B0200087B0200081C
:1000D0007B020008CD9500087B020008DD95000832
:1000E0007B0200087B0200087B0200087B020008FC
:1000F0007B0200087B020008858A00087B0200085A
:100100007B0200087B0200087B0200087B020008DB
:100110007B0200087B020008758A00087B02000849
:100120007B0200087B0200087B0200087B020008BB
:100130007B0200087B0200087B0200087B020008AB
:100140007B0200087B0200087B020008BD750008E6
:100150007B0200087B0200087B0200087B0200088B
:100160007B0200087B0200087B0200087B0200087B
:100170007B0200087B0200087B02000800000000F0
:100180007B0200087B020008DFF810D000F026FC9C
:100190000048004759D20008AFF3008058B400204F
:1001A0002C4B19680868B0E8F04F80F30988BFF35A
:1001B0006F8F4FF0000080F311887047000000003F
:1001C00008480068006880F308884FF0000080F35A
:1001D000148862B661B6BFF34F8FBFF36F8F00DF35
:1001E00000BF00BF08ED00E0DFF80C00016841F43B
:1001F00070010160704700BF88ED00E0EFF30980F7
:10020000BFF36F8F134B1A681EF0100F08BF20ED5D
:10021000108A20E9F04F106009B44FF0500080F3CD
:100220001188BFF34F8FBFF36F8F0EF055FA4FF069
:10023000000080F3118809BC19680868B0E8F04F25
:100240001EF0100F08BFB0EC108A80F30988BFF3CE
:100250006F8F704728020020EFF305807047000081
:100260000648804706480047FEE7FEE7FEE7FEE750
:10027000FEE7FEE7FEE7FEE7FEE7FEE7618A00082D
:10028000890100082DE9F05F0546002092469B4653
:1002900088460646814640241BE02846414647469C
:1002A000224600F0F5F953465A46C01A914110D340
:1002B00011461846224600F0DCF92D1A67EB0108BA
:1002C0004F4622460120002100F0D3F917EB000928
:1002D0004E41201EA4F10104DFDC484631462A4687
:1002E0004346BDE8F09F40EA01039B0703D009E0C5
:1002F00008C9121F08C0042AFAD203E011F8013B12
:1003000000F8013B521EF9D27047D2B201E000F86A
:10031000012B491EFBD270470022F6E710B51346A9
:100320000A4604461946FFF7F0FF204610BD421C5E
:1003300010F8011B0029FBD1801A704730B5044624
:100340000020034600E05B1C934203D2E05CCD5CDE
:10035000401BF8D030BD2DE9FE4F804681EA0300F6
:10036000C00F0C46009021F0004123F00045B8EB8F
:100370000200A94105D24046214690461C460B4644
:10038000024623F00040104347D0270DC7F30A0070
:10039000C3F30A510290401A019040286BDAC3F36C
:1003A000130040F4801B0098924620B10023D2EB4A
:1003B000030A63EB0B0B01985946C0F1400250460B
:1003C00000F057F906460D4650465946019A00F08E
:1003D0006FF910EB08006141002487EA115284EAAA
:1003E000E7731A4340D0009A62B3019A012A4FEA98
:1003F000075215DC001B61EB02014FF0004202EADC
:100400000752CDE90042001C41F5801132462B46CF
:1004100000F0A6F903B0BDE8F08F40462146F9E7A9
:10042000001B61EB0201001C41F5801300185B41C9
:100430002018A2F5001747EB030140EAD570B61962
:100440006D4111E06D084FEA360645EAC0754FEA86
:100450000752001B61EB0201001C41F580114908A5
:100460004FEA30000019514132462B4603B0BDE837
:10047000F04F00F066B90098012240000023D0EB55
:10048000020263EBE073009821464FEAE074B8EB98
:10049000000061EB0401E9E783F000435BE781F0D2
:1004A000004158E72DE9FE4F81EA030404F00044BF
:1004B00021F0004100944FF0000B23F0004350EA7C
:1004C00001045ED052EA03045BD0C3F30A54C1F3C3
:1004D0000A552C44A4F2F3340194A0FB0254C1F356
:1004E000130141F48011C3F3130343F4801301FBA0
:1004F000024400FB034E840A970A44EA815447EA07
:100500008357A4FB076802958D0A05FB07854FEA10
:10051000932C04FB0C542705029D4FEA065847EA2A
:100520001637B5EB08056EEB070C870E920E47EAFF
:10053000811742EA8312A7FB0201B6EB0B0164EBC1
:1005400000042B0D43EA0C335E1844EB1C50DA46D2
:100550005146E7FB0201C5F313044FEA0B3343EAAC
:1005600014534FEA0432019C43EA0603A4F10C043D
:100570000294009CCDE900B400F0F2F803B0BDE8AD
:10058000F08F00200146F9E70EB5C10F80EAE07058
:100590000844CA07002140F233438DE80E000A46A2
:1005A0000B4600F0DDF803B000BD70B5C1F30A5290
:1005B00001F000450024C1F3130140F2FF3341F480
:1005C00080119A4201DA002070BD40F233439A4212
:1005D000A2F2334203DC524200F05AF800E09040AD
:1005E0002C43F1D0404270BD00F0004230F000409A
:1005F0000AD0C10D01F56071C0F3160042EA015145
:10060000C20840071143704700200146704701F0BF
:10061000004330B421F0004150EA010206D00A0D37
:10062000A2F56072C1F31301002A02DC30BC002085
:100630007047440F44EAC104C100E01830BC00EB2D
:10064000C25000F047B830B50B46014600202022CA
:10065000012409E021FA02F59D4205D303FA02F5CF
:10066000491B04FA02F52844151EA2F10102F1DC2F
:1006700030BD202A04DB203A00FA02F10020704746
:100680009140C2F1200320FA03F3194390407047D0
:10069000202A04DB203A21FA02F00021704721FAD7
:1006A00002F3D040C2F1200291400843194670473E
:1006B000202A06DBCB17203A41FA02F043EAE07326
:1006C00006E041FA02F3D040C2F120029140084313
:1006D000194670470029A8BF7047401C490008BF51
:1006E00020F00100704710B4B0FA80FC00FA0CF062
:1006F00050EA010404BF10BC704749B1CCF120049A
:1007000021FA04F411FA0CF118BF01212143084326
:10071000A3EB0C01CB1D4FEA00614FEA102042BF52
:10072000002010BC704700EBC35010440029A4BF48
:1007300010BC7047401C490008BF20F0010010BCED
:10074000704710B5141E73F1000408DA401C41F123
:10075000000192185B411A4301D120F0010010BD45
:100760002DE9F04D92469B4611B1B1FA81F202E0BB
:10077000B0FA80F220329046FFF77BFF04460F4626
:1007800040EA0A0041EA0B0153465A46084313D097
:10079000114653EA010019D0C8F140025046FFF754
:1007A00077FF05460E46504659464246FFF761FF21
:1007B000084305D0012004E020463946BDE8F08D0D
:1007C0000020054346EAE0762C4337430A98630548
:1007D000E40AA0EB08000022FD0A44EA47540A306C
:1007E00002D500200146E9E7010510196941DDE95C
:1007F000084500196941BDE8F04DA2E72DE9F04D2B
:1008000081EA030404F0004B21F0004514464FF048
:10081000000A23F0004150EA050220D054EA010208
:100820001DD0C5F30A570246C5F31303C1F31300E5
:10083000C1F30A5640F4801543F48013A7EB060871
:10084000101BD64608F2FD3873EB050002D308F101
:10085000010801E092185B41B8F1000F03DA0020B3
:100860000146BDE8F08D00204FF480110646844615
:100870000EE0171B73EB050705D3121B63EB050393
:1008800006434CEA010C49084FEA300092185B41DC
:1008900050EA0107EDD152EA030012D082EA0400C7
:1008A00083EA0501084305D0101BAB4106D20122A3
:1008B000002306E000224FF0004302E06FF0010247
:1008C00053101AEB06004CEB085110EB0A0041EBF9
:1008D0000B01BDE8F04DFFF734BF2DE9F04D0023CB
:1008E0001A461B1A8A4103DB00200146BDE8F08D41
:1008F000C1F30A52C1F3130141F480154FF0000B0C
:10090000D10702D100186D41521E0027044640F263
:10091000FF11384601EB620A3E468046024600203F
:100920004FF48011FFF7B4FEC2197141BB1846EBBA
:100930000100B4EB030C75EB000C04D3E41A65EB77
:10094000000517460E46241908F101006D41804646
:100950003428E3DDF91946EB0600091BA84103D250
:100960004FF0FF32134601E0002213461BEB070055
:1009700046EB0A51BDE8F04DFFF7E3BEC1F30A5262
:10098000C1F3130140F2FF3341F480119A4202DABD
:1009900000200146704740F233439A42A2F23342AC
:1009A00002DC5242FFF774BEFFF763BE30B5041E8F
:1009B00071F1000404DB4FF00044404264EB01019C
:1009C000141E73F1000405DB1C464FF00043524235
:1009D00063EB0403994208BF904230BD064C074DBB
:1009E00006E0E06840F0010394E8070098471034FF
:1009F000AC42F6D3FFF7CCFB78F7000898F7000875
:100A000070B58C1810F8015B15F0070301D110F8D0
:100A1000013B2A1106D110F8012B03E010F8016BFD
:100A200001F8016B5B1EF9D12B0705D40023521E80
:100A30000DD401F8013BFAE710F8013BCB1A921CE8
:100A400003E013F8015B01F8015B521EF9D5A142E6
:100A5000D8D3002070BD000055494A6822F44032C6
:100A60004A604A6843681A434A600268526822F43E
:100A7000807203685A6002685368026943EA02227E
:100A800003685A600268526822F0407203685A6034
:100A90000268526883681A4303685A600268926861
:100AA00022F4006203689A6002689268C3681A437D
:100AB00003689A603F4B826A9A4218D00268926833
:100AC00022F0706203689A6002689268836A1A432F
:100AD00003689A600268926822F0405203689A6044
:100AE00002689268C36A1A4303689A600BE002685E
:100AF000926822F0706203689A600268926822F03D
:100B0000405203689A600268926822F00202036809
:100B10009A6002689368027E43EA420203689A6020
:100B20002022125CA2B10268526842F4006203689B
:100B30005A600268526822F4604203685A60026890
:100B40005368426A521E43EA423203685A6005E023
:100B50000268526822F4006203685A600268D26A2E
:100B600022F470020368DA620268D36A828B521E32
:100B700043EA02520368DA620268926822F4007261
:100B800003689A600268936890F8302043EA422232
:100B900003689A600268926822F4806203689A602F
:100BA00002689368426943EA822203689A60704748
:100BB000002301400100000F70B504460D461646A3
:100BC000D6ED024AB0EE644AD6ED014AF0EE643A40
:100BD000D6ED004AB0EE643AD5ED024AF0EE642A52
:100BE000D5ED014AB0EE642AD5ED004AF0EE641A64
:100BF000D4ED024AB0EE641AD4ED014AF0EE640A74
:100C0000D4ED004AB0EE640A06F0BCF970BD0000F5
:100C100010B50024002210216B4801F03BFD80201C
:100C200007F0CCFDFF2007F0C9FDFF2007F0C6FD4F
:100C3000044601221021644801F02CFD012001F03E
:100C4000DBFB00221021604801F024FD802007F02A
:100C5000B5FDFF2007F0B2FDFF2007F0AFFD044611
:100C600001221021584801F015FD012001F0C4FBBC
:100C700000221021544801F00DFD7E2007F09EFD5A
:100C8000B62007F09BFD012210214F4801F002FD24
:100C9000502001F0B1FB002210214B4801F0FAFC7A
:100CA000802007F08BFDFF2007F088FDFF2007F074
:100CB00085FD044601221021434801F0EBFC012090
:100CC00001F09AFB002210213F4801F0E3FC802054
:100CD00007F074FDFF2007F071FDFF2007F06EFDA7
:100CE000044601221021384801F0D4FC1E2C05D006
:100CF000214636A00BF060F9012010BD0022102122
:100D0000314801F0C7FC7D2007F058FD042007F0B2
:100D100055FD012210212C4801F0BCFC4FF4E1707C
:100D200001F07EFB00221021274801F0B3FC7C205B
:100D300007F044FD002007F041FD01221021224868
:100D400001F0A8FC002210211F4801F0A3FC402064
:100D500007F034FDAB2007F031FD012210211A48C5
:100D600001F098FC00221021174801F093FC41206B
:100D700007F024FD002007F021FD01221021124878
:100D800001F088FC002210210F4801F083FC532061
:100D900007F014FD082007F011FD012210210A4878
:100DA00001F078FC00221021074801F073FC582064
:100DB00007F004FD042007F001FD01221021024884
:100DC00001F068FC002098E700000240424D4930E5
:100DD00038385F4143435F434849505F49445F5659
:100DE000414C55453A2564200A00000070B506467E
:100DF0000C461546002210210C4801F04BFC46F031
:100E0000800007F0DBFCFF2007F0D8FC06E0FF20A5
:100E100007F0D4FC2070641C681EC5B2002DF6D10A
:100E200001221021014801F035FC70BD0000024094
:100E300010B500241E2001F0DFFA00220121344801
:100E400001F028FC802007F0B9FCFF2007F0B6FC79
:100E50000446012211462E4801F01CFC0F2C05D03F
:100E600021462CA00BF0A8F8012010BD0022012182
:100E7000274801F00FFC0F2007F0A0FC002007F02E
:100E80009DFC01221146224801F004FC00220121B0
:100E90001F4801F0FFFB102007F090FC822007F0B4
:100EA0008DFC012211461A4801F0F4FB00220121B9
:100EB000174801F0EFFB152007F080FC802007F0B9
:100EC0007DFC01221146124801F0E4FB00220121C1
:100ED0000F4801F0DFFB162007F070FC002007F040
:100EE0006DFC012211460A4801F0D4FB00220121C9
:100EF000074801F0CFFB182007F060FC012007F045
:100F00005DFC01221146024801F0C4FB0020ACE761
:100F100000040240424D493038385F4759524F5F14
:100F2000434849505F49445F56414C55453A256412
:100F3000200A000070B506460C4615460022012125
:100F40000B4801F0A7FB46F0800007F037FC06E0F5
:100F5000FF2007F033FC2070641C681EC5B2002D12
:100F6000F6D101221146024801F094FB70BD000049
:100F70000004024010B5FFF74BFEFFF759FF10BD0C
:100F80002DE9FC4105460E461746002000900190D1
:100F9000062269461220FFF729FF9DF80100000292
:100FA00000B29DF8001040EA010400EE104AB8EECD
:100FB000C00A4548D0ED000A20EE200A86ED000A5E
:100FC0009DF80300000200B29DF8021040EA0104FF
:100FD00000EE104AB8EEC00A3B48D0ED000A20EE01
:100FE000200A86ED010A9DF80500000200B29DF876
:100FF000041040EA010400EE104AB8EEC00A32487C
:10100000D0ED000A20EE200A86ED020A022269468F
:101010002220FFF7EBFE9DF80000C0009DF80110B4
:1010200040EA6114B4F5806F02DBA4F5006004B2FD
:1010300000EE104AF8EEC00AB4EE001AB3EE070A4A
:1010400000EE810A87ED000A062269460220FFF7BA
:1010500071FF9DF80100000200B29DF8001040EA07
:10106000010400EE104AB8EEC00A1848D0ED000A9C
:1010700020EE200A85ED000A9DF80300000200B270
:101080009DF8021040EA010400EE104AB8EEC00AD2
:101090000E48D0ED000A20EE200A85ED010A9DF8E9
:1010A0000500000200B29DF8041040EA010400EEC1
:1010B000104AB8EEC00A0548D0ED000A20EE200A1A
:1010C00085ED020ABDE8FC81EC010020F001002062
:1010D00000BFFEE700B58BB00020019002900390A6
:1010E000049005900690079001200890099001A9AE
:1010F000034800F09FFC024800F004FF0BB000BD65
:10110000EC0B002010B504462146134800F036F8D9
:10111000A0F2412010B101281CD10DE0607900023D
:1011200000B2217908430D4908800846B0F9001043
:101130000BA00AF041FF0DE06079000200B22179B6
:1011400008430A4908800846B0F9001008A00AF0D0
:1011500033FF00BF00BF10BDEC0B0020D800002003
:1011600073706565645F4C3A25640A00DA000020FC
:1011700073706565645F523A25640A0070B5054670
:101180000C460B4B0B4A0021284600F0E5FC60B9E9
:10119000002004E00649095C2154411CC8B208281B
:1011A000F8DB0448008880B270BD0020FCE7000036
:1011B000D0000020005D002070B504460D462A4690
:1011C0002146024800F004F870BD0000EC0B00203E
:1011D00070B505460C4616460C48046000200B49C5
:1011E0008860C860082008610020087500BF284694
:1011F00000F06FFD0028FAD0054B3246034928461F
:1012000000F06CFB08B100F0F1F870BDE85C002064
:10121000CC0000200346042B15D007DC7BB1012B4A
:101220000ED0022B0DD0032B12D10BE0202B0BD0B4
:10123000212B0AD0222B09D0232B09D107E008E06B
:1012400007E006E005E004E003E002E001E000E082
:1012500000BF00BF002070470020704710B500227B
:101260000449054808F0D6FB0449034808F0C4FBCC
:10127000002010BD6843002060230020683B002050
:1012800070B504460D462146034808F0B5FB0248F8
:1012900008F082FB002070BD6023002010B50346DB
:1012A0000C460021084610BD10B5024800F0C4FEEF
:1012B00010BD0000001F00200146087810381823D8
:1012C000B0FBF3F20848805CC865032A05D90868BA
:1012D0006FF30900001D886503E008686FF30900DB
:1012E0008865886D70470000ACF600080146002054
:1012F0008A6A8B69CBB932B1012A0DD0022A03D098
:10130000032A10D10EE000BFCB6A03F08073B3F163
:10131000807F00D1012007E0CB6AB3F1C07F00D10C
:10132000012001E000E000BF34E08B69B3F5005F0D
:101330001AD132B1012A07D0022A03D0032A11D1CF
:101340000AE000BF01200EE0CB6A03F08073B3F126
:10135000807F00D1012006E0CB6AB3F1C07F00D1CD
:10136000012000E000BF15E032B1012A05D0022AB9
:1013700004D0032A0CD103E000BF00BF012008E025
:10138000CB6A03F08073B3F1807F00D1012000E0CD
:1013900000BF00BF704730B50468246824F480247F
:1013A00005682C60046863608468402C04D104687C
:1013B000A2600468E16003E00468A1600468E26080
:1013C00030BD704710B5012001F052F810BD10B5C6
:1013D000082001F04DF810BD10B5102001F048F8BC
:1013E00010BD10B5202001F043F810BD72B600BF4B
:1013F000FEE7000010B52C4454B1082205492046F0
:1014000005F066F9042203491031304605F060F911
:1014100010BD00004E00002038B5024600200090AC
:1014200000BF92F83C00012801D1022038BD012004
:1014300082F83C0000BF0868092816D91068C06807
:101440000C780A3C04EB44050724AC40A043146824
:10145000E0600C780A3C04EB44048868A0401468FF
:10146000E46820431468E06013E0106800690C78B9
:1014700004EB44050724AC40A043146820610C78B9
:1014800004EB44048868A04014682469204314686D
:1014900020614868072817D21068406B0C79641ED9
:1014A00004EB84051F24AC40A043146860630888E3
:1014B00080B20C79641E04EB8404A0401468646B51
:1014C00020431468606331E048680D2817D2106823
:1014D000006B0C79E41F04EB84051F24AC40A0438F
:1014E00014682063088880B20C79E41F04EB84043C
:1014F000A0401468246B20431468206316E0106831
:10150000C06A0C790D3C04EB84051F24AC40A04359
:101510001468E062088880B20C790D3C04EB840406
:10152000A0401468E46A20431468E062194B1A4C26
:101530001068A04206D10868122803D1586840F408
:1015400080005860144C1068A0421CD10868102814
:1015500002D00868112816D1586840F4000058607D
:10156000086810280FD10D4800680D4CB0FBF4F04E
:1015700000EB80004000009002E00098401E0090C8
:1015800000980028F9D100BF002082F83C0000BF7D
:1015900000BF4BE70023014000200140240200204F
:1015A00040420F0001460868C06C704770B50446A1
:1015B00000250CB9012070BD1549A06A884200D0F1
:1015C00000BF206C30B9204600F024F80020606491
:1015D00084F83C00206C00F0100088B9206C20F4E6
:1015E000885040F0020020642046FFF735FA0020C2
:1015F0006064206C20F0020040F00100206400E0F4
:10160000012500BF002084F83C0000BF2846D2E737
:101610000100000F10B586B00446142101A8FEF7A2
:101620007BFE2349206888420FD100BF0020009034
:101630002048006840F480701E4908600846006831
:1016400000F48070009000BF2FE01B4920688842A2
:101650002BD100BF002000901648006840F4806045
:10166000144908600846006800F48060009000BFDC
:1016700000BF00BF002000900E481438006840F002
:1016800020000C49143908600846006800F020006A
:10169000009000BF00BF08150190032002900020B9
:1016A000039001A9054800F0F1FE06B010BD00004E
:1016B0000020014044380240002201400014024052
:1016C00070B504460D4600262068806800F48060EE
:1016D000B0F5806F11D12068806800F48070B0F59B
:1016E000807F0AD1206C40F02000206400BF0020E1
:1016F00084F83C0000BF012070BD00F0D1FF064619
:1017000018E0681CB0B125B100F0CAFF801BA842E8
:1017100010D92068006800F0020002280AD0206C6E
:1017200040F00400206400BF002084F83C0000BFAB
:101730000320E1E72068006800F002000228E0D101
:101740006FF0120021680860206C40F40070206483
:101750002068806800F04050B8B9207EA8B92068A1
:10176000C06A00F4700020B12068806800F48060D6
:1017700058B9206C20F480702064206C00F48050F4
:1017800018B9206C40F0010020640020B4E700008C
:1017900008B501460020009000BF91F83C000128E8
:1017A00001D1022008BD012081F83C0000BF08687B
:1017B000806800F00100A0B90868806840F001006E
:1017C0000B6898603F4800683F4BB0FBF3F000EBBC
:1017D0004000009002E00098401E00900098002811
:1017E000F9D10868806800F00100002860D0086C1A
:1017F00040F20163984340F48070086408684068D0
:1018000000F4806028B1086C20F4005040F480504F
:101810000864086C00F48050B0F5805F04D1486C17
:1018200020F00600486401E00020486400BF00206A
:1018300081F83C0000BF254A6FF022000B68186059
:10184000506800F01F0018BB214B0868984213D065
:10185000204B0868984204D1101D006800F01F005A
:1018600050B11D4B086898422AD11848001D0068E5
:1018700000F01F00102823D20868806800F0405054
:10188000F0B90868806840F080400B68986017E005
:101890000F4B0868984213D10868806800F04050E8
:1018A00070B90868806840F080400B68986007E075
:1018B000086C40F010000864486C40F00100486477
:1018C00000206FE72402002040420F000023014067
:1018D000002001400021014000220140F0B50446F3
:1018E0000D461E4694F8207020688368A86800B9E9
:1018F00000E000BF012F01D0022F7CD103F08060F7
:1019000030B903F0006018B903F08050002873D09C
:10191000C3F30161022905D9606A40F400006062E6
:101920000120F0BD012088403060A86860B9B5F89A
:1019300000C0E86840EA4C5C206800F5C07000EB2D
:101940000110C0F800C00FE0D5E901C040EACC00AA
:10195000D5F80CC040EA0C00D4F800C00CF5C07CEF
:101960000CEB011CCCF80000D5F810C0206800F585
:10197000C07000EB0110C0F804C0287D01280ED112
:10198000206800F5C07000EB0110406840F4807CD6
:10199000206800F5C07000EB0110C0F804C0D079D9
:1019A000000692F806C040EA0C4092F805C040EAF2
:1019B0000C2C10794CEA000C206800F5C07000EB8C
:1019C0000110C0F80CC0D078000692F802C040EABE
:1019D0000C4092F801C040EA0C2092F800C040EAA6
:1019E0000C00D4F800C00CF5C07C0CEB011CCCF84A
:1019F0000800206801E016E00FE000F5C07000EB81
:101A00000110006840F0010C206800F5C07000EB88
:101A10000110C0F800C0002083E7606A40F40010A5
:101A2000606201207DE7606A40F4802060620120EE
:101A300077E70000F0B504460A46216894F8205084
:101A4000012D01D0022D7ED1424901F500710868B7
:101A500040F001000860086820F47C5008600868C5
:101A6000566A40EA06200860107D00F01F0601203B
:101A700000FA06F3C8699843C861A1F50071D069FE
:101A8000C8B9D1F80C029843C1F80C02908880B212
:101A9000968940EA064601F51070576940F83760AC
:101AA000108880B2168940EA064601F51070576921
:101AB00000EBC7004660D069012819D1D1F80C02AB
:101AC0001843C1F80C02908880B2168840EA064696
:101AD00001F51070576940F83760908980B2168917
:101AE00040EA064601F51070576900EBC7004660F2
:101AF000906928B9D1F804029843C1F8040204E0BF
:101B0000D1F804021843C1F80402106928B9D1F8C9
:101B100014029843C1F8140204E0D1F814021843E7
:101B2000C1F81402106A012804D1D1F81C0218432C
:101B3000C1F81C02D1F8000220F00100C1F8000237
:101B40000020F0BDFFE7606A40F480206062012061
:101B5000F7E700000064004070B5044694F8205098
:101B6000012D01D0022D7DD151B92068C06800F04F
:101B7000030080B9606A40F400106062012070BD0B
:101B80002068006900F0030028B9606A40F4001082
:101B900060620120F3E7206800F5D87000EB0110C7
:101BA000006800F004009060906840B9206800F57B
:101BB000D87000EB01100068400D106007E020684D
:101BC00000F5D87000EB01100068C0085060206874
:101BD00000F5D87000EB0110006800F00200D06042
:101BE000206800F5D87000EB0110406800F00F008D
:101BF0001061206800F5D87000EB0110406800F417
:101C00007F40000A9061206800F5D87000EB011059
:101C10004068000C5061206800F5D87000EB01109E
:101C200080681870206800F5D87000EB011080689B
:101C300000F47F40000A5870206800F5D87000EB6F
:101C40000110806800F47F00000C9870206800F597
:101C5000D87000EB01108068000ED870206800F585
:101C6000D87000E02FE000EB0110C0681871206808
:101C700000F5D87000EB0110C06800F47F40000A46
:101C80005871206800F5D87000EB0110C06800F4AE
:101C90007F00000C9871206800F5D87000EB0110EF
:101CA000C068000ED87131B92068C06840F02000CB
:101CB0002668F06005E02068006940F02000266892
:101CC000306100205BE7606A40F4802060620120A0
:101CD00055E70146002091F82020012A01D0022A70
:101CE00011D10B689B6803F0806303B1401C0B6843
:101CF0009B6803F0006303B1401C0B689B6803F012
:101D0000805303B1401C704770B504460CB90120E4
:101D100070BD94F8200010B9204600F0AFF820689C
:101D2000006840F001002168086000F0B9FC054639
:101D30000DE000F0B5FC401B0A2808D9606A40F4A9
:101D400000306062052084F820000120E0E7206870
:101D5000406800F001000028EBD02068006820F007
:101D600002002168086000F09BFC05460DE000F0D1
:101D700097FC401B0A2808D9606A40F40030606272
:101D8000052084F820000120C2E72068406800F0A8
:101D900002000028EBD1207E012806D120680068CF
:101DA00040F080002168086005E02068006820F0AD
:101DB000800021680860607E012806D120680068E4
:101DC00040F040002168086005E02068006820F0CD
:101DD000400021680860A07E012806D120680068C4
:101DE00040F020002168086005E02068006820F0CD
:101DF000200021680860E07E012806D12068006884
:101E000020F010002168086005E02068006840F0BC
:101E1000100021680860207F012806D12068006832
:101E200040F008002168086005E02068006820F0A4
:101E3000080021680860607F012806D120680068DA
:101E400040F004002168086005E02068006820F088
:101E5000040021680860D4E90201084321690843AD
:101E6000616908436168491E08432168C861002010
:101E70006062012084F82000002049E710B586B098
:101E80000446142101A8FEF747FA1B49206888423E
:101E90002FD100BF002000901848006840F000706B
:101EA000164908600846006800F00070009000BF06
:101EB00000BF00BF0020009010481038006840F0BC
:101EC00008000E49103908600846006800F0080054
:101ED000009000BF00BF032001900220029000206C
:101EE0000390032004900920059001A9044800F004
:101EF000CDFA06B010BD000000640040403802403A
:101F0000000C024070B5044694F82000012822D14C
:101F1000022084F820002068006820F00100216879
:101F2000086000F0BDFB05460DE000F0B9FB401B6A
:101F30000A2808D9606A40F400306062052084F8FD
:101F40002000012070BD2068406800F001000028DA
:101F5000EBD16062F6E7606A40F400206062012025
:101F6000F0E770B50446A56D00F09AFB064694F8BC
:101F70003500022808D08020606500BF002084F86A
:101F8000340000BF012070BD2068006820F01600FA
:101F9000216808602068406920F08000216848615D
:101FA000206C08B9A06C28B12068006820F00800F7
:101FB000216808602068006820F00100216808603E
:101FC00010E000F06DFB801B05280BD92020606518
:101FD000032084F8350000BF002084F8340000BFDF
:101FE0000320D0E72068006800F001000028E8D155
:101FF00094F85C103F208840A860012084F83500E8
:1020000000BF002084F8340000BF00BFBBE70146DA
:1020100091F83500022803D08020486501207047E0
:10202000052081F835000868006820F001000A6882
:1020300010600020F3E70000F8B50446002000908F
:102040008C4800684FF41651B0FBF1F7A56D2E686F
:1020500094F85C1008208840304098B120680068EF
:1020600000F0040070B12068006820F004002168CE
:10207000086094F85C1008208840A860606D40F00B
:102080000100606594F85C1001208840304068B120
:102090002068406900F0800040B194F85C10012095
:1020A0008840A860606D40F00200606594F85C10A4
:1020B00004208840304068B12068006800F00200C9
:1020C00040B194F85C1004208840A860606D40F036
:1020D0000400606594F85C1010208840304078B3AC
:1020E0002068006800F0080050B394F85C101020DD
:1020F0008840A8602068006800F4802080B12068D3
:10210000006800F4002028B9206CC8B12046216C7A
:10211000884715E0A06C98B12046A16C88470FE075
:102120002068006800F4807028B92068006820F0FA
:10213000080021680860206C10B12046216C884797
:1021400094F85C10202088403040002865D020683A
:10215000006800F0100000285FD094F85C10202088
:102160008840A86094F83500052828D120680068C8
:1021700020F01600216808602068406920F0800087
:1021800021684861206C08B9A06C28B120680068FB
:1021900020F008002168086094F85C103F20884017
:1021A000A860012084F8350000BF002084F83400C6
:1021B00000BF206D10B12046216D8847F8BD206812
:1021C000006800F4802080B12068006800F40020DE
:1021D00028B9606C10B12046616C88471DE0E06B47
:1021E000D8B12046E16B884717E02068006800F40A
:1021F000807068B92068006820F0100021680860CD
:10220000012084F8350000BF002084F8340000BFAE
:10221000E06B10B12046E16B8847606D38B3606DAC
:1022200000F00100F0B1052084F835002068006856
:1022300020F001002168086000BF0098401C009059
:10224000B84200D905E02068006800F001000028CD
:10225000F3D100BF012084F8350000BF002084F8CE
:10226000340000BFE06C10B12046E16C884700BF2D
:10227000A4E70000240200202DE9F04104460025D7
:1022800000F00EFA074614B90120BDE8F081606A3B
:1022900000B100BF022084F8350000BF002084F8A0
:1022A000340000BF2068006820F001002168086049
:1022B0000AE000F0F5F9C01B052805D9202060656B
:1022C000032084F83500E0E72068006800F0010092
:1022D0000028EED12068056821480540D4E90101B5
:1022E0000843E16808432169084361690843A1691B
:1022F0000843E1690843216A08430543606A0428EA
:1023000003D1D4E90B010843054320680560206828
:10231000456925F00705606A0543606A04280DD108
:10232000A06A0543E06A48B12046FEF7DFFF28B106
:1023300040206065012084F83500A6E720684561EB
:102340002046FEF7B9FF064694F85C103F2088400F
:10235000B06000206065012084F83500002094E71B
:102360003F8010F02DE9F04704460D4616461F4603
:102370004FF00008D4F8589000BF94F834000128BA
:1023800002D10220BDE8F087012084F8340000BFAC
:1023900094F83500012825D1022084F8350000206A
:1023A00060653B46324629462046FEF7F4FF94F826
:1023B0005C103F208840C9F808002068006840F0A1
:1023C000160021680860206C28B12068006840F081
:1023D0000800216808602068006840F0010021685A
:1023E000086006E000BF002084F8340000BF4FF012
:1023F00002084046C6E7000070B5044600F050F9F8
:1024000006462546681C10B104480078054400BF04
:1024100000F046F9801BA842FAD370BD20020020CC
:1024200070B50246A82102FB01F34FF0E0214D698F
:1024300088690EE04FF0E026B169814208D0814200
:1024400001D2441A01E06E1A34189C4200D301E014
:1024500000BFEFE700BF70BD10B50446202C04D1CB
:102460000121024800680AF061FF10BD140000203D
:1024700010B5044604480068204020B102480460BA
:102480002046FFF7E9FF10BD143C0140F8B50246B5
:102490000B460025002400200021D6E0012606FA84
:1024A00001F51E6806EA0504AC4274D11E7906F0F7
:1024B0000306012E04D01E7906F00306022E13D166
:1024C00090684F000326BE40B0434F00DE68BE4018
:1024D00030439060506801268E40B0431E79C6F3A9
:1024E00000168E40304350601E7906F00306032E1E
:1024F00009D0D0684F000326BE40B0434F009E680D
:10250000BE403043D0601E7906F00306022E13D180
:10251000CF0802F1200656F827004E07F70E0F26C7
:10252000BE40B0434F07FF0E1E69BE403043CF0888
:1025300002F1200646F8270010684F000326BE402F
:10254000B0431E7906F003064F00BE4030431060D2
:102550005E6806F44036002E76D000BF0026009656
:102560003C4E366846F480463A4F3E603E463668FA
:1025700006F48046009600BF00BF374E8F0856F81D
:1025800027008E07370F0F26BE40B043334EB242AE
:1025900002D1002624E057E0314EB24201D101269B
:1025A0001EE0304EB24201D1022619E02E4EB24258
:1025B00001D1032614E02D4EB24201D104260FE0D2
:1025C0002B4EB24201D105260AE02A4EB24201D179
:1025D000062605E0284EB24201D1072600E0082673
:1025E0008F073F0FBE4030431B4E8F0846F8270031
:1025F000224E3068A0435E6806F4801606B1204380
:102600001E4E3060361D3068A0435E6806F400162A
:1026100006B12043194E361D3060184E361F306803
:10262000A0435E6806F4003606B12043134E361F01
:102630003060361F3068A0435E6806F4803606B10D
:1026400020430E4E083E3060491C1029FFF426AF8F
:10265000F8BD000044380240083801400000024044
:102660000004024000080240000C0240001002403A
:102670000014024000180240001C0240083C0140C7
:1026800010B5426921EA020302EA010443EA044365
:10269000836110BD0AB1816101E00B048361704761
:1026A00001480068704700001802002070B5044619
:1026B0000CB9012070BD94F83D0028B9002084F8C1
:1026C0003C00204600F006FB242084F83D002068F2
:1026D000006820F00100216808602068006840F46C
:1026E0000040216808602068006820F400402168EC
:1026F000086001F079FC05465C496068884206D8AC
:102700005B48854201D2012007E0002005E05948DE
:10271000854201D2012000E00020012800D1C9E754
:102720005548B5FBF0F62068406820F03F00304384
:10273000216848604D496068884201D8701C07E0F4
:102740004FF4967070434FF47A71B0FBF1F0401C77
:102750002168096A21F03F01084321680862434962
:102760006068884214D8681E61684900B0FBF1F0C7
:10277000401CC0F30B00042801D204203DE0681E79
:1027800061684900B0FBF1F0401CC0F30B0034E07D
:10279000A06838B9681E616801EB4101B0FBF1F037
:1027A000401C0AE0681E616801EBC10202EB0111E6
:1027B000B0FBF1F0401C40F48040C0F30B0008B9BE
:1027C00001201AE0A06848B9681E616801EB410168
:1027D000B0FBF1F0401CC0F30B000CE0681E616818
:1027E00001EBC10202EB0111B0FBF1F0401CC0F3A0
:1027F0000B0040F4804040F400402168C9694CF669
:10280000FF72914308432168C861D4E90701084376
:102810002168096821F0C001084321680860D4E9F3
:10282000031008432168896848F2FF329143084346
:1028300021688860D4E9050108432168C96821F04E
:10284000FF0108432168C8602068006840F001006B
:102850002168086000202064202084F83D000020CA
:10286000206384F83E0000BF24E70000A08601003A
:1028700080841E0000093D0040420F002DE9FC5FEE
:1028800004460F4690469946DDE90CAB0E9EFFF7D5
:1028900007FF054694F83D00202870D11923012236
:1028A000B0492046009503F08FFC10B10220BDE82E
:1028B000FC9F00BF94F83C00012801D10220F6E7FC
:1028C000012084F83C0000BF2068006800F001008F
:1028D00028B92068006840F001002168086020687D
:1028E000006820F4006021680860222084F83D0020
:1028F000402084F83E0000202064C4F824A0A4F8FE
:102900002AB0608D20859848E0624B4642463946A1
:102910002046CDE9006503F009FB08B10120C6E7B8
:10292000208D88B900BF0020019020684069019087
:1029300020688069019000BF00BF2068006840F4F3
:1029400000702168086040E0208D012818D12068BF
:10295000006820F480602168086000BF00200190BA
:1029600020684069019020688069019000BF00BF25
:102970002068006840F400702168086025E0EFE0FE
:10298000208D022816D12068006820F4806021681C
:1029900008602068006840F400602168086000BF9B
:1029A00000200190206840690190206880690190B2
:1029B00000BF0AE000BF002001902068406901903C
:1029C00020688069019000BF00BFBAE0208D032815
:1029D0007ED8208D012815D12A463146204603F0A5
:1029E00098FC08B1012062E720680069616A0870FC
:1029F000606A401C6062208D401E2085608D401EF4
:102A000060859EE0208D02282AD133460022574956
:102A10002046009503F0D8FB08B1012047E7206865
:102A2000006840F400702168086020680069616AED
:102A30000870606A401C6062208D401E2085608D99
:102A4000401E608520680069616A0870606A401CE9
:102A50006062208D401E2085608D401E608570E084
:102A60003346002241492046009503F0ADFB08B1F2
:102A700001201CE72068006820F48060216808605D
:102A800020680069616A0870606A401C6062208D7D
:102A9000401E2085608D401E6085334600223349EC
:102AA0002046009503F090FB08B10120FFE6206866
:102AB000006840F400702168086020680069616A5D
:102AC0000870606A401C6062208D401E208500E016
:102AD00010E0608D401E608520680069616A0870A2
:102AE000606A401C6062208D401E2085608D401E03
:102AF000608526E02A463146204603F00AFC08B1EC
:102B00000120D4E620680069616A0870606A401C90
:102B10006062208D401E2085608D401E608520688B
:102B20004069C0F3800060B120680069616A087084
:102B3000606A401C6062208D401E2085608D401EB2
:102B40006085208D00287FF441AF202084F83D006F
:102B5000002084F83E0000BF84F83C0000BFA6E6D9
:102B60000220A4E6020010000000FFFF04000100A4
:102B70002DE9FC5F04460F4690469946DDE90CAB13
:102B80000E9EFFF78DFD054694F83D0020287DD16F
:102B9000192301224D492046009503F015FB10B181
:102BA0000220BDE8FC9F00BF94F83C00012801D141
:102BB0000220F6E7012084F83C0000BF206800688E
:102BC00000F0010028B92068006840F00100216889
:102BD00008602068006820F40060216808602120F7
:102BE00084F83D00402084F83E0000202064C4F8B2
:102BF00024A0A4F82AB0608D20853548E0624B46B9
:102C0000424639462046CDE9006503F03FFA08B157
:102C10000120C6E731E02A463146204603F0B9FBE1
:102C200050B1206C042805D12068006840F4007081
:102C3000216808600120B4E7606A007821680861B3
:102C4000606A401C6062208D401E2085608D401EA1
:102C5000608520684069C0F3800070B1208D60B14C
:102C6000606A007821680861606A401C6062208D9B
:102C7000401E2085608D401E6085208D0028CAD1B1
:102C80002A463146204603F071FA00E01CE050B1BC
:102C9000206C042805D12068006840F40070216889
:102CA000086001207DE72068006840F4007021681A
:102CB0000860202084F83D00002084F83E0000BF1A
:102CC00084F83C0000BF6CE702206AE702001000B5
:102CD0000000FFFF10B586B00446142101A8FDF7DF
:102CE0001BFB4449206888422FD100BF0020009080
:102CF0004148006840F020003F49086008460068ED
:102D000000F02000009000BF00BF032001901220BF
:102D1000029000200390032004900420059001A954
:102D20003648FFF7B3FB00BF002000903248103058
:102D3000006840F48000304910310860084600689F
:102D400000F48000009000BF51E02D4920688842C7
:102D50004DD100BF002000902748006840F00400DB
:102D6000254908600846006800F00400009000BF94
:102D700000BF00BF002000900846006840F001003E
:102D800008600846006800F00100009000BF00BF26
:102D90004815019012200290012003900320049016
:102DA0000420059001A91748FFF770FB4FF48070CD
:102DB000019012200290012003900320049004202F
:102DC000059001A91048FFF761FB00BF00200090AB
:102DD00009481030006840F40000074910310860CD
:102DE0000846006800F40000009000BF00BF06B075
:102DF00010BD00000058004030380240001402406E
:102E0000005C0040000802400000024003480068E7
:102E100003490978084401490860704718020020F6
:102E20002002002010B50D48006840F400700B49E6
:102E300008600846006840F4806008600846006842
:102E400040F480700860032000F0DCF80F2000F0F0
:102E500007F800F05FF8002010BD0000003C0240C1
:102E60002DE9F04188B004460027B84600BF002095
:102E700001902348006840F010002149086008468E
:102E8000006800F01000019000BF00BF02A903A875
:102E900001F082F8069F1FB901F0A6F8054602E08E
:102EA00001F0A2F845001748B5FBF0F0A0F10108C9
:102EB00015481649086040F2E7311448C160C0F86F
:102EC0000480002101618160816101F0C5FD064639
:102ED00096B90E4801F084FE06466EB9362000F021
:102EE00043F8102C07D200222146362000F04CF87F
:102EF0000748046000E00126304608B0BDE8F081D4
:102F00004038024040420F0000100040684B002053
:102F10001C02002008B500BF002000901148006886
:102F200040F480400F4908600846006800F4804083
:102F3000009000BF00BF00BF00200090081F006885
:102F400040F08050091F08600846006800F080507B
:102F5000009000BF00BF00220F21901E00F014F867
:102F600008BD00004438024001460846002809DB3D
:102F700000F01F0301229A4043099B0003F1E02364
:102F8000C3F8002100BF70472DE9F05F80460D4671
:102F90001646002709F034F8074639462A463346D4
:102FA00001F00700C0F1070ABAF1040F02D94FF08F
:102FB000040A01E0C0F1070AD14600F1040ABAF19F
:102FC000070F02D24FF0000A01E0A0F1030AD44635
:102FD0004FF0010A0AFA09FAAAF1010A0AEA020AFA
:102FE0000AFA0CFA4FF0010B0BFA0CFBABF1010BD8
:102FF0000BEA030B4AEA0B042146404609F008F8A5
:10300000BDE8F09F00BF00F00702064B19684FF6BD
:10301000FF031940044B0B4343EA0221014B1960A3
:1030200000BF70470CED00E00000FA057047024653
:103030001068416200207047F0B5034615461868D5
:10304000446A21B944EA05401E68B06219E0186874
:10305000806A04EB1044002208E0186800F58270D2
:1030600050F8220004EB1044501CC2B2481E90429B
:10307000F3D844EA0547186800F582704E1E40F800
:1030800026700020F0BD10B50446D4F8080507F0FE
:10309000D9F810BD70B504460D4605EBC50304F123
:1030A0003C0101EB83010A692946D4F8080506F0C2
:1030B000F3FF70BD70B504460D4605EBC50304F57E
:1030C0001F7101EB83010A692946D4F8080507F04E
:1030D00051F870BD10B50446D4F8080507F0B4F8EF
:1030E00010BD2DE9F04104460D4605F08000802812
:1030F00008D105F00F0000EBC00104F13C0000EB2B
:10310000810607E005F00F0000EBC00104F51F7019
:1031100000EB81063146206808F0C6FA07463846BB
:10312000BDE8F08170B504460E4606F080008028A8
:103130000AD106F00F0000EBC00104F13C0000EBE7
:1031400081050120687009E006F00F0000EBC00166
:1031500004F51F7000EB81050020687006F00F0079
:10316000287000BF94F8BC04012801D1022070BD72
:10317000012084F8BC0400BF2946206807F074FDD4
:1031800000BF002084F8BC0400BF00BFEFE770B5AB
:1031900004460E4606F00F006168884201D90120FE
:1031A00070BD06F0800080280AD106F00F0000EB09
:1031B000C00104F13C0000EB81050120687009E0CA
:1031C00006F00F0000EBC00104F51F7000EB810555
:1031D000002068700020A87006F00F00287000BF63
:1031E00094F8BC04012801D10220D9E7012084F819
:1031F000BC0400BF2946206808F01EF800BF00206C
:1032000084F8BC0400BF00BFCAE7024601F00F000B
:1032100000EBC00302F51F7000EB8300006A7047EB
:103220002DE9F04705460E4690461F464FF000092F
:1032300006F0800080280AD106F00F0000EBC001E4
:1032400005F13C0000EB81040120607009E006F00C
:103250000F0000EBC00105F51F7000EB810400209A
:10326000607006F00F002070C4F80C802771607841
:1032700008B120782081022F01D10020607100BFA9
:1032800095F8BC04012802D10220BDE8F087012096
:1032900085F8BC0400BF2146286807F0FBFB00BF8F
:1032A000002085F8BC0400BF4846EEE72DE9F04158
:1032B00004460E461746984606F00F0000EBC00184
:1032C00004F51F7000EB81052F61C5F81880002000
:1032D0002862687006F00F0028702069012800D16C
:1032E0006F6106F00F0028B9227C2946206807F09C
:1032F0007DFE04E0227C2946206808F031F8002099
:10330000BDE8F08170B504460D4605F00F00616818
:10331000884201D9012070BD05F0800080280AD1C3
:1033200005F00F0000EBC00104F13C0000EB81064A
:103330000120707007E005EBC50104F51F7000EB7C
:103340008106002070700120B07005F00F00307011
:1033500000BF94F8BC04012801D10220DBE7012062
:1033600084F8BC0400BF3146206807F0ACFF05F0CC
:103370000F0028B9217C04F2C442206807F024FF22
:1033800000BF002084F8BC0400BF00BFC3E72DE9E4
:10339000F04104460E461746984606F00F0000EB33
:1033A000C00104F13C0000EB81052F61C5F81880D5
:1033B000002028620120687006F00F002870206944
:1033C000012800D16F6106F00F0028B9227C294640
:1033D000206807F00BFE04E0227C2946206807F0F5
:1033E000BFFF0020BDE8F0812DE9FE4F0446D4F870
:1033F00000B05E46206808F03EFA002874D12068CC
:1034000008F078FA08B9BDE8FE8F40F60800805948
:10341000C0F30D20C4F8FC04206808F06BFA00F03B
:103420000200022805D12068406900F002002168EE
:103430004861206808F05EFA00F01000102845D1BD
:103440002068806920F0100021688861DBF82090F6
:1034500009F00F0000EBC00104F51F7000EB810ABA
:10346000C9F3434002281AD147F6F07009EA000078
:1034700030B3C9F30A125846DAF8101008F03FFAD0
:10348000C9F30A11DAF810000844CAF81000C9F3A9
:103490000A11DAF820000844CAF8200010E0C9F345
:1034A000434006280CD1082204F2C441584608F0D3
:1034B00026FAC9F30A11DAF820000844CAF82000F5
:1034C0002068806940F0100021688861206808F059
:1034D00011FA00F40020B0F5002F7BD10025206800
:1034E00008F0D8F9029072E0E1E2029800F00100E1
:1034F000002868D0E9B2206808F0EFF9804608F0AB
:10350000010048B1012106F5306000EB45108160F3
:103510002946204604F08CF808F00800082809D154
:10352000082106F5306000EB4510816029462046F1
:1035300004F04CF808F01000102805D1102106F511
:10354000306000EB4510816008F00200022824D1B1
:10355000DBF8140000F08000802807D140F604005A
:10356000805940F4806140F60400815105EBC501AB
:1035700004F51F7000EB810A9AF80300012806D1B8
:1035800000208AF80300E9B2204600F09BFA0221ED
:1035900006F5306000EB4510816008F0200020281F
:1035A00005D1202106F5306000EB4510816008F45C
:1035B0000050B0F5005F06D14FF4005106F53060C1
:1035C00000EB451081606D1C029840080290029843
:1035D00000288AD1206808F08DF900F48020B0F529
:1035E000802F7DD1206808F04BF9029000259AE0E9
:1035F000029800F00100002873D0E9B2206808F0BA
:1036000053F9804608F00100F0B305F00F010120E6
:103610008840019040F634008159019821EA000069
:1036200040F634018851012106F5106000EB451089
:1036300081602069012824D105EBC50104F13C001B
:1036400000EB810005EBC502016904F13C0000EBD1
:103650008200C068014405EBC50204F13C0000EBA8
:10366000820001616DB905EBC50104F13C0000EB7E
:103670008100806928B904F2C4420121206807F062
:10368000A3FDE9B2204600E001E0FFF703FD08F0EA
:103690000800082805D1082106F5106000EB451048
:1036A000816008F01000102805D1102106F5106087
:1036B00000EB4510816008F04000402805D1402112
:1036C00006F5106000EB4510816008F0020002284A
:1036D0001DD12946584608F08FF805EBC50101E0D9
:1036E00025E01CE004F13C0000EB810A9AF803009D
:1036F000012806D100208AF80300E9B2204600F034
:10370000D8F9022106F5106000EB4510816008F041
:103710008000802803D12946204604F02BF86D1C38
:10372000029840080290029800287FF461AF206858
:1037300008F0E0F800F00040B0F1004F1CD140F676
:103740000400805920F0010140F60400815194F8F2
:10375000F404012807D1002084F8F4040021204655
:10376000FFF764FC02E0204600F0E2FA20684069BE
:1037700000F0004021684861206808F0BBF800F4C0
:103780000060B0F5006F0ED140F60800805900F0DF
:10379000010010B1204600F023FB2068406900F4CE
:1037A000006021684861206808F0A4F800F48050A7
:1037B000B0F5805F7ED140F60400805920F0010111
:1037C00040F6040081511021206808F015F8002708
:1037D00032E04FF67F3106F5106000EB4710816054
:1037E00006F5106000EB4710006820F4001106F5A4
:1037F000106000EB471001604FF67F3106F5306036
:1038000000EB4710816006F5306000EB4710006860
:1038100020F4001106F5306000EB4710016006F55A
:10382000306000EB4710006840F0006106F5306042
:1038300000EB471001607F1C6068B842C9D840F6B1
:103840001C00805940F0011140F61C008151206B92
:1038500070B1D6F8840840F00B01C6F8841840F621
:103860004400805940F00B0140F6440081510FE0C4
:1038700040F61400805942F22B01084340F614012F
:103880008851081F805940F00B014FF401608151AD
:10389000D6F8000820F4FE60C6F80008217C04F287
:1038A000C442206807F090FC2068406900F4805012
:1038B000216800E000E04861206808F01BF800F48F
:1038C0000050B0F5005F17D1206807F04BF9206871
:1038D00007F0BEFFE06000F081FB0090227B2068D3
:1038E000009908F08FF8204600F00AFA2068406935
:1038F00000F4005021684861206807F0FBFF00F0E9
:103900000800082808D1204600F019FA206840690C
:1039100000F0080021684861206807F0EBFF00F024
:103920008000802818D1DBF8180020F08000CBF848
:10393000180001250DE005EBC50104F51F7000EB33
:103940008100C078012803D1E9B22046FFF7C9FB06
:103950006D1C6068A842EED8206807F0CBFF00F429
:103960008010B0F5801F2DD1012522E006F51060F2
:1039700000EB4510D0F8009005EBC50104F13C00C8
:1039800000EB81000079012812D109F00040B0F16C
:10399000004F0DD1012105EBC50204F13C0000EB05
:1039A0008200C170E8B240F080012046FFF799FB29
:1039B0006D1C6068A842D9D82068406900F4801066
:1039C00021684861206807F095FF00F40010B0F509
:1039D000001F44D1012538E006F5306000EB4510AA
:1039E000D0F8009005EBC50104F51F7000EB8100D5
:1039F0000079012828D109F00040B0F1004F23D10F
:103A000009F4803094F8FC1401F0010188421BD1C4
:103A1000012105EBC50204F51F7000EB8200C170A7
:103A2000DBF8180040F08000CBF81800DBF8140039
:103A300000F0800040B940F60400805940F4007165
:103A400040F60400815103E06D1C6068A842C3D8B1
:103A500000BF2068406900F40010216848612068B8
:103A600007F048FF00F08040B0F1804F08D12046B9
:103A7000FFF709FB2068406900F080402168486139
:103A8000206807F037FF00F0040004280FD12068F9
:103A9000D0F8049009F00400042802D12046FFF772
:103AA00019FB2068406840EA09002168486000BFAF
:103AB000A9E470B504460D462946D4F8080506F079
:103AC0002DFC70BD70B504460D462946D4F8080596
:103AD00006F039FC70BD70B58AB0044614B90120F7
:103AE0000AB070BD266894F8BD0428B9002084F897
:103AF000BC04204600F0A2F8032084F8BD04F06B5B
:103B000000F4807008B900212161206807F066FA8E
:103B1000282204F110016846FCF7E5FB94E80F0049
:103B200007F034F820B1022084F8BD040120D7E763
:103B30000021206807F013FF002531E0012105EB8B
:103B4000C50204F13C0000EB8200417005EBC501A9
:103B500004F13C0000F8215005EBC50100EB8100A9
:103B60000581002105EBC50204F13C0000EB820059
:103B7000017105EBC50204F13C0000EB8200C1605D
:103B800005EBC50204F13C0000EB8200016105EB8E
:103B9000C50204F13C0000EB82008161681CC5B2E3
:103BA0006068A842CAD800252AE0002105EBC502BA
:103BB00004F51F7000EB8200417005EBC50104F5B0
:103BC0001F7000F82150002105EBC50200EB8200B8
:103BD000017105EBC50204F51F7000EB8200C160A6
:103BE00005EBC50204F51F7000EB8200016105EBD7
:103BF000C50204F51F7000EB82008161681CC5B22C
:103C00006068A842D1D8282204F110016846FCF768
:103C10006AFB94E80F0007F0F1F820B1022084F865
:103C2000BD0401205CE7002084F83800012084F8FE
:103C3000BD04206807F0D0F8002051E710B586B029
:103C40000446142101A8FCF767FB2068B0F1A04FDF
:103C500050D100BF002000902748006840F00100CC
:103C6000254908600846006800F00100009000BF88
:103C700000BF8814019002200290012003900320CD
:103C800004900A20059001A91C48FEF7FFFB4FF4A1
:103C90000060019002200290002003900320049015
:103CA0000A20059001A91548FEF7F0FB00BF124855
:103CB000001D006840F080000F49091D086000BF2A
:103CC000002000900C481430006840F480400A49FD
:103CD000143108600846006800F48040009000BF7E
:103CE00000BF00BF002205214320FFF74DF943200C
:103CF000FFF73AF906B010BD30380240000002402C
:103D000070B504460125E06808B9002506E0E068C2
:103D1000022801D1012501E0FDF768FB2946D4F80E
:103D2000080506F09CFBD4F8080506F051FB70BDB1
:103D300010B50446D4F8080506F07AFB10BD10B59E
:103D40000446D4F8080506F07DFB10BD70B50446A6
:103D50000D4600BF94F8BC04012801D1022070BDBB
:103D6000012084F8BC0400BF84F83850294620683C
:103D700007F029FE00BF002084F8BC0400BF00BF8C
:103D8000EDE710B5044604F2C441D4F8080506F086
:103D90007CFB10BD70B50446256800BF94F8BC04D8
:103DA000012801D1022070BD012084F8BC0400BFAD
:103DB000A06A012806D1A069012803D0A86B40F4AD
:103DC0008030A863206807F0E5FC206806F0F2FF69
:103DD00000BF002084F8BC0400BF00BFE3E7000080
:103DE00010B50446D4F8080506F0A3FB2068D0F807
:103DF000000E40F001002168C1F8000E206A28B1D1
:103E00000348006840F006000149086010BD00004A
:103E100010ED00E070B504460D460CB9012070BDF0
:103E20005848006800F00700A84209D255490D70B3
:103E30000846006800F00700A84201D00120EEE724
:103E4000207800F0020002281DD1207800F0040044
:103E5000042805D14C48006840F4E0504A49086005
:103E6000207800F00800082805D14748006840F491
:103E70006040454908604448006820F0F000A168AF
:103E8000084341490860207800F00100A8B3606849
:103E9000012807D13C4808380068C0F34040B8B951
:103EA0000120BCE76068022802D06068032807D1BF
:103EB000354808380068C0F3406048B90120AEE7D3
:103EC000314808380068C0F3400008B90120A6E76F
:103ED0002D48006820F00300616808432A49086003
:103EE000FEF7DEFB064609E0FEF7DAFB801B41F237
:103EF0008831884202D9032091E707E02248006810
:103F000000F00C006168B0EB810FEDD11D48006836
:103F100000F00700A84209D91A490D700846006848
:103F200000F00700A84201D0012078E7207800F0D7
:103F30000400042807D11448006820F4E050E16828
:103F4000084311490860207800F00800082808D1CB
:103F50000D48006820F46040216940EAC1000A4928
:103F6000086000F061F808490968C1F30311074AC5
:103F7000515CC8400649086006480068FEF770FFBB
:103F800000204CE7003C024008380240B4F600082C
:103F9000240200201C0200200F2202600D4A126839
:103FA00002F0030242600B4A126802F0F0028260E3
:103FB000084A126802F4E052C260064A126802F42B
:103FC0006042D2080261044A126802F007020A60E5
:103FD0007047000008380240003C02400148006879
:103FE000704700002402002000B5FFF7F7FF0449E6
:103FF0000968C1F38221034A515CC84000BD00003A
:1040000008380240C4F6000800B5FFF7E7FF04498E
:104010000968C1F34231034A515CC84000BD000049
:1040200008380240C4F600082DE9F04700240025B6
:104030000026A1462548006800F00C0020B10428A5
:1040400005D008283AD105E0DFF8849039E0DFF8A0
:10405000849036E01D48001F006800F03F041B48B4
:10406000001F006800F4800078B11A481749091F42
:104070000968C1F38811A0FB0170014622460023A4
:104080003846FCF7FFF805460EE011480F49091FB6
:104090000968C1F38811A0FB017001462246002384
:1040A0003846FCF7EFF805460848001F0068C0F3E3
:1040B0000140401C4600B5FBF6F902E0DFF8109025
:1040C00000BF00BF4846BDE8F08700000838024046
:1040D0000024F400001BB700F8B504460CB9012019
:1040E000F8BD207800F00100002874D0F94800687D
:1040F00000F00C0004280DD0F648006800F00C0019
:10410000082813D1F348001F006800F48000B0F5C0
:10411000800F0BD1EF4808380068C0F340400028FA
:1041200059D06068002856D10120D9E700BF6068E7
:10413000B0F5803F08D1E7480838006840F4803087
:10414000E449083908601EE06068B0F5A02F0DD181
:10415000E0480838006840F48020DE4908390860EB
:104160000846006840F4803008600CE0D948083800
:10417000006820F48030D749083908600846006894
:1041800020F48020086000BF606890B1FEF788FAD4
:10419000054606E0FEF784FA401B642801D9032097
:1041A0009EE7CC4808380068C0F340400028F1D0B2
:1041B00011E0FEF775FA054606E0FEF771FA401BBE
:1041C000642801D903208BE7C24808380068C0F38F
:1041D00040400028F1D1207800F0020002285FD191
:1041E000BC48006800F00C0058B1BA48006800F004
:1041F0000C0008281CD1B748001F006800F480009C
:10420000B0B9B44808380068C0F3400020B1E06895
:10421000012801D0012063E7AE480838006820F08B
:10422000F800216940EAC100AA490839086037E06E
:10423000E06800B30120A8490860FEF731FA05469E
:1042400006E0FEF72DFA401B022801D9032047E7BC
:10425000A04808380068C0F340000028F1D09D480D
:104260000838006820F0F800216940EAC100994947
:104270000839086014E0002097490860FEF710FA3A
:10428000054606E0FEF70CFA401B022801D9032080
:1042900026E7904808380068C0F340000028F1D1B4
:1042A000207800F0080008282CD16069A8B101200E
:1042B0008A490860FEF7F4F9054606E0FEF7F0F9D2
:1042C000401B022801D903200AE782486C300068AD
:1042D000C0F340000028F1D014E000207F490860BE
:1042E000FEF7DEF9054606E0FEF7DAF9401B022884
:1042F00001D90320F4E677486C300068C0F3400031
:104300000028F1D1207800F00400042870D10027A3
:1043100070483830006800F0805090B900BF00202D
:1043200000906C483830006840F08050694938315E
:1043300008600846006800F08050009000BF00BF91
:1043400001276748006800F48070B0B964480068CD
:1043500040F4807062490860FEF7A2F9054606E065
:10436000FEF79EF9401B022801D90320B8E65C48FD
:10437000006800F480700028F2D000BFA068012817
:1043800008D154486830006840F001005149683154
:1043900008601DE0A06805280DD14E48683000680F
:1043A00040F004004B49683108600846006840F05E
:1043B000010008600CE047486830006820F0010008
:1043C0004449683108600846006820F0040008602D
:1043D00000BFA068A8B1FEF763F9054609E0FEF743
:1043E0005FF9401B41F28831884202D9032077E609
:1043F00026E0384868300068C0F340000028EED05E
:1044000013E0FEF74DF9054608E0FEF749F9401BB9
:1044100041F28831884201D9032061E62D48683095
:104420000068C0F340000028EFD1012F07D12948D0
:104430003830006820F0805026493831086000BFCD
:10444000A069002845D02348006800F00C00082827
:104450005DD0A069022845D100201F490866FEF7FB
:104460001FF9054606E0FEF71BF9401B022801D99B
:10447000032035E6174808380068C0F3406000287C
:10448000F1D1D4E907010843616A40EA81110122B0
:10449000A06AC2EB500041EA00412C20005D41EAD5
:1044A00000600C49091F086001200B490866FEF7EF
:1044B000F7F8054606E0FEF7F3F8401B022801D99D
:1044C00003200DE6034808380068C0F34060002868
:1044D000F1D049E00838024000004742800E4742D0
:1044E00000700040002021490866FEF7D9F8054613
:1044F00006E0FEF7D5F8401B022801D90320EFE5BE
:104500001B480068C0F340600028F2D12CE0A0698D
:10451000012800D1E4E51648001D0668A0690128BD
:1045200020D006F48001E06981421BD106F03F01F2
:10453000206A814216D147F6C0703040616AB0EB04
:10454000811F0FD106F440310122A06AC2EB500056
:10455000B1EB004F06D106F070612C20005DB1EB8D
:10456000006F01D00120BBE50020B9E50000474203
:104570000038024010B504460CB9012010BD606A35
:1045800038B96068B0F5827F00D105E00021E161B3
:1045900002E00021216161610021A16294F85100D3
:1045A00028B9002084F85000204600F047F8022087
:1045B00084F851002068006820F0400021680860FD
:1045C000A08800F48270218901F404410843A18984
:1045D00001F400610843217C01F002010843217DC0
:1045E00001F001010843218B01F400710843217F90
:1045F00001F0380108432021095D01F080010843E2
:10460000218D01F400510843216808600421A0694C
:1046100001EA104094F8241001F0100108432168C9
:1046200048602068C06920F400602168C8610020EB
:104630006065012084F8510000209FE710B586B026
:104640000446142101A8FBF767FE29492068884227
:104650004CD100BF002000902648006840F48050F4
:10466000244908600846006800F48050009000BFAC
:1046700000BF00BF002000901E481438006840F0C2
:1046800002001C49143908600846006800F0020066
:10469000009000BF00BF00BF0020009008460068E7
:1046A00040F0010008600846006800F0010000903A
:1046B00000BF00BF1820019002200290002003904C
:1046C000032004900520059001A90B48FDF7DEFEAC
:1046D000802001900220029000200390032004908B
:1046E0000520059001A90548FDF7D0FE06B010BDD4
:1046F0000030014044380240000402400000024003
:104700002DE9FF5F0446884691461D460E9E012016
:1047100002900020019000BF94F85000012803D1BE
:10472000022004B0BDE8F09F012084F8500000BFD3
:10473000FDF7B6FF074694F851B060680390AA46AB
:10474000BBF1010F0BD00398B0F5827F04D1A068B4
:1047500010B9BBF1040F02D002200190DBE0B8F1E8
:10476000000F03D0B9F1000F00D015B9012001905E
:10477000D1E094F85100042802D0052084F85100BB
:1047800000206065C4F83890E587A587C4F83080BC
:10479000E586A586206460642068006800F040001B
:1047A000402805D02068006840F04000216808607B
:1047B000E068B0F5006F4AD1606810B1BAF1010F3E
:1047C00009D1206B00882168C860206B801C2063A1
:1047D000E08E401EE08633E02068806800F0020032
:1047E000022810D1E08E70B1029801280BD1206B05
:1047F00000882168C860206B801C2063E08E401E0A
:10480000E086002002902068806800F0010068B116
:10481000E08F58B12068C068A16B0880A06B801C35
:10482000A063E08F401EE08701200290FDF738FF73
:10483000C01BB04204D3701C10B1032001906AE089
:10484000E08E0028C8D1E08F0028C5D14AE060681A
:1048500010B1BAF1010F09D1206B007821680873FB
:10486000206B401C2063E08E401EE08634E0206810
:10487000806800F00200022810D1E08E70B102982A
:1048800001280BD1206B007821680873206B401C35
:104890002063E08E401EE086002002902068806841
:1048A00000F0010068B1E08F58B12068C068A16BCA
:1048B0000870A06B401CA063E08F401EE0870120C1
:1048C0000290FDF7EDFEC01BB04201D3701C00B991
:1048D00016B9032001901EE0E08E0028C7D1E08FBA
:1048E0000028C4D13A463146204603F031FF20B1BA
:1048F00001200190202060650DE0A06850B900BF44
:10490000002000902068C0680090206880680090B7
:1049100000BF00BF00BF012084F8510000BF00208D
:1049200084F8500000BF0198FBE67047704710B54F
:104930000346002200BF93F83C00012801D1022069
:1049400010BD012083F83C0000BF22F0FF00CC68BE
:1049500040EA040222F440708C6840EA040222F427
:1049600080604C6840EA040222F400600C6840EA6F
:10497000040222F480500C6940EA040222F4005040
:104980004C6940EA040222F48040CC6940EA040207
:104990001868426400BF002083F83C0000BF00BFDD
:1049A000CEE7000030B502460B4600BF92F83C004F
:1049B000012801D1022030BD012082F83C0000BF57
:1049C000022082F83D00106844681068816824F075
:1049D00070041868044310684460184D1068A842B9
:1049E0001BD01068B0F1804F17D0154D1068A84249
:1049F00013D0144D1068A8420FD0134D1068A84270
:104A00000BD0124D1068A84207D0114D1068A84273
:104A100003D0104D1068A84205D121F080015868DC
:104A2000014310688160012082F83D0000BF002032
:104A300082F83C0000BF00BFBDE70000000001405D
:104A40000004004000080040000C00400004014049
:104A5000004001400018004010B504460CB9012088
:104A600010BD94F83D0028B9002084F83C00204691
:104A700000F026F8022084F83D00211D206804F093
:104A800009F8012084F8460000BF84F83E000121A7
:104A90003F200155402001554120015500BF00BF76
:104AA000012084F84200432001554420015545204F
:104AB000015500BF012084F83D000020D0E7000030
:104AC00010B586B00446142101A8FBF725FC3E4929
:104AD000206888420FD100BF002000903B4800684A
:104AE00040F00100394908600846006800F0010004
:104AF000009000BF65E036492068884211D100BFB0
:104B0000002000903148001F006840F004002F4949
:104B1000091F08600846006800F00400009000BF0C
:104B20004FE02C492068884237D100BF0020009018
:104B30002648006840F002002449086008460068E2
:104B400000F00200009000BF00BF00BF00200090F6
:104B50001E481438006840F480701C4914390860FD
:104B60000846006800F48070009000BF00BF8020FD
:104B700001900220029003900020049003200590F1
:104B800001A91548FDF782FC002205212E20FEF721
:104B9000FBF92E20FEF7E8F913E01049206888425F
:104BA0000FD100BF002000900848006840F400309A
:104BB000064908600846006800F40030009000BF15
:104BC00000BF06B010BD00000000014044380240A4
:104BD0000008004000040140002002400044014061
:104BE000014691F83D00012801D0012070470220C4
:104BF00081F83D000868C06840F001000B68D8608B
:104C00001A4B086898421BD00868B0F1804F17D043
:104C1000174B0868984213D0164B086898420FD07B
:104C2000154B086898420BD0144B0868984207D07F
:104C3000134B0868984203D0124B086898420CD175
:104C40000868806800F00702062A0CD0086800682F
:104C500040F001000B68186005E00868006840F04B
:104C600001000B6818600020C0E700000000014050
:104C70000004004000080040000C00400004014017
:104C800000400140001800402DE9F04104460D4667
:104C9000002700BF94F83C00012802D10220BDE8A3
:104CA000F081012084F83C0000BF022084F83D0020
:104CB0002068866826F0770626F47F46206886609E
:104CC0002868502833D00CDC202850D004DC002881
:104CD0004BD0102851D149E0302849D040284CD140
:104CE00039E060282DD0702807D0B0F5805F03D060
:104CF000B0F5005F41D10DE041E0D5E902136A68EB
:104D0000206803F044FF2068866846F07706206834
:104D1000866034E0D5E902136A68206803F037FF43
:104D20002068806840F480402168886027E0EA6855
:104D30006968206804F01CF85021206803F032FFF5
:104D40001DE0EA686968206804F06EF86021206858
:104D500003F028FF13E0EA686968206804F008F8A7
:104D60004021206803F01EFF09E000BF00BF00BF24
:104D70002968206803F016FF01E0012700BF00BF8B
:104D8000012084F83D0000BF002084F83C0000BFF3
:104D9000384684E710B5044632492068884260D11D
:104DA0003148007820B101281ED0022844D136E0D5
:104DB00000202E490968486200BF2C480068006A3C
:104DC00020F4206029490968086228480068006AC0
:104DD00040F4007025490968086200BF2248007845
:104DE000401C2149087027E020480068C06B20491A
:104DF000086000BF1D480068006A20F420601B495D
:104E00000968086219480068006A18490968086258
:104E100000BF15480078401C134908700CE0134887
:104E20000068C06B134908600821104800F096F92B
:104E300000200D49087000BF00BF0AF0DFF901280B
:104E40000FD00D490D48006809F0DEFA0A480068E5
:104E500038B14FF080500A490860BFF34F8FBFF35D
:104E60006F8F10BD00040140B0000020A419002085
:104E7000B4000020B8000020C0000020AC000020DA
:104E800004ED00E02DE9F04104460D4616460027EA
:104E900000BF94F83C00012802D10220BDE8F08157
:104EA000012084F83C0000BF96B9EB68D5E90012F8
:104EB000206803F071FF2068806920F00C002168F1
:104EC000886120688069A96808432168886141E099
:104ED000042E13D1EB68D5E90012206803F0B8FF67
:104EE0002068806920F440602168886120688069BA
:104EF000A96840EA0120216888612BE0082E12D1C0
:104F0000EB68D5E90012206803F0BFFF2068C06994
:104F100020F00C002168C8612068C069A9680843B6
:104F20002168C86116E00C2E13D1EB68D5E9001298
:104F3000206803F0C6FF2068C06920F44060216843
:104F4000C8612068C069A96840EA01202168C86179
:104F500000E0012700BF002084F83C0000BF384675
:104F60009CE710B504460CB9012010BD94F83D0033
:104F700028B9002084F83C00204600F025F80220E3
:104F800084F83D00211D206803F084FD012084F891
:104F9000460000BF84F83E0001213F20015540201B
:104FA00001554120015500BF00BF012084F8420097
:104FB00043200155442001554520015500BF0120E3
:104FC00084F83D000020D0E7704700002DE9F04351
:104FD00004460D46002615B994F83E000BE0042D5A
:104FE00002D13F20005D06E0082D02D14020005D87
:104FF00001E04120005D804615B994F842000BE0C5
:10500000042D02D14320005D06E0082D02D144208A
:10501000005D01E04520005D8146B8F1010F02D13D
:10502000B9F1010F02D00120BDE8F0831DB90220C3
:1050300084F83E000EE0042D03D102213F200155EB
:1050400008E0082D03D102214020015502E0022191
:10505000412001551DB9022084F842000EE0042DC4
:1050600003D102214320015508E0082D03D102217C
:105070004420015502E002214520015535B1042D9F
:105080000BD0082D10D00C2D1CD114E02068C06866
:1050900040F002002168C86016E02068C06840F057
:1050A00004002168C8600FE02068C06840F0080074
:1050B0002168C86008E02068C06840F010002168DE
:1050C000C86001E0012600BF00BF86BB012229465F
:1050D000206803F04BFD1A49206888421BD02068E5
:1050E000B0F1804F17D017492068884213D0164975
:1050F000206888420FD01549206888420BD0144997
:105100002068884207D013492068884203D012499A
:10511000206888420CD12068806800F00707062FBD
:105120000CD02068006840F001002168086005E0AC
:105130002068006840F0010021680860304673E78D
:10514000000001400004004000080040000C004046
:1051500000040140004001400018004070B50446C2
:105160000D46002635B1042D0BD0082D10D00C2D86
:105170001CD114E02068C06820F002002168C860DB
:1051800016E02068C06820F004002168C8600FE0C5
:105190002068C06820F008002168C86008E0206826
:1051A000C06820F010002168C86001E0012600BF3F
:1051B00000BF002E3FD100222946206803F0D6FC14
:1051C00000BF2068006A41F21111084050B9206800
:1051D000006A8910084028B92068006820F00100A2
:1051E0002168086000BF1DB9012084F83E000EE070
:1051F000042D03D101213F20015508E0082D03D1E2
:1052000001214020015502E00121412001551DB935
:10521000012084F842000EE0042D03D10121432037
:10522000015508E0082D03D101214420015502E079
:10523000012145200155304670BD10B50446206857
:105240000069C0F34000D8B12068C068C0F34000D6
:10525000B0B16FF00200216808610120207720685A
:10526000806900F0030018B12046FFF793FD05E0C8
:10527000204600F02BF9204600F0DFF900202077CF
:1052800020680069C0F38000D8B12068C068C0F30E
:105290008000B0B16FF0040021680861022020771F
:1052A0002068806900F4407018B12046FFF772FD55
:1052B00005E0204600F00AF9204600F0BEF9002083
:1052C000207720680069C0F3C000D8B12068C068AA
:1052D000C0F3C000B0B16FF008002168086104207D
:1052E00020772068C06900F0030018B12046FFF75E
:1052F00051FD05E0204600F0E9F8204600F09DF958
:105300000020207720680069C0F30010D8B1206821
:10531000C068C0F30010B0B16FF0100021680861E0
:10532000082020772068C06900F4407018B120463A
:10533000FFF730FD05E0204600F0C8F8204600F0F9
:105340007CF9002020772068006900F0010058B146
:105350002068C06800F0010030B16FF001002168E2
:105360000861204600F0F0F920680069C0F3C01021
:1053700058B12068C068C0F3C01030B16FF0800031
:10538000216808612046FFF7D0FA20680069C0F361
:10539000801058B12068C068C0F3801030B16FF041
:1053A000400021680861204600F0DAF920680069B1
:1053B000C0F3401058B12068C068C0F3401030B14D
:1053C0006FF02000216808612046FFF7AFFA10BD9A
:1053D00010B586B00446142101A8FAF79DFF3449A0
:1053E000206888421DD100BF00200090314800682D
:1053F00040F010002F4908600846006800F01000D7
:10540000009000BF00BF48150190022002900020CC
:10541000039004900120059001A92748FDF736F874
:1054200044E02649206888421ED100BF0020009039
:105430002048006840F008001E49086008460068DF
:1054400000F00800009000BF00BF4FF480400190C2
:10545000022002900020039004900220059001A9F0
:105460001748FDF713F821E01649206888421DD13E
:1054700000BF002000900F48006840F020000D4958
:1054800008600846006800F02000009000BF00BFE0
:1054900040200190022002900120039002200490FD
:1054A0000320059001A90848FCF7F0FF06B010BDE5
:1054B0000000014030380240001002400008004067
:1054C000000C0240004401400014024070472DE9E6
:1054D000F04104460D461646002700BF94F83C00F4
:1054E000012802D10220BDE8F081012084F83C00AF
:1054F00000BF36B1042E1BD0082E31D00C2E5ED149
:1055000045E02946206803F057FB2068806940F099
:105510000800216888612068806920F00400216803
:10552000886120688069296908432168886148E0AA
:105530002946206803F078FB2068806940F4006009
:10554000216888612068806920F480602168886112
:1055500020688069296940EA01202168886130E07B
:105560002946206803F09EFB2068C06940F00800CF
:105570002168C8612068C06920F004002168C86102
:105580002068C069296908432168C86119E0294673
:10559000206803F0C3FB2068C06940F40060216804
:1055A000C8612068C06920F480602168C8612068F3
:1055B000C069296940EA01202168C86101E001272A
:1055C00000BF00BF00BF002084F83C0000BF384689
:1055D00089E710B504460CB9012010BD94F83D00D0
:1055E00028B9002084F83C00204600F025F802206D
:1055F00084F83D00211D206803F04CFA012084F856
:10560000460000BF84F83E0001213F2001554020A4
:1056100001554120015500BF00BF012084F8420020
:1056200043200155442001554520015500BF01206C
:1056300084F83D000020D0E77047704770B50446FD
:105640000D4615B994F83E000BE0042D02D13F2021
:10565000005D06E0082D02D14020005D01E0412000
:10566000005D012801D0012070BD1DB9022084F821
:105670003E000EE0042D03D102213F20015508E039
:10568000082D03D102214020015502E002214120D2
:10569000015501222946206803F068FA2349206851
:1056A000884203D022492068884201D1012000E0CD
:1056B000002028B12068406C40F400402168486414
:1056C0001A49206888421BD02068B0F1804F17D05B
:1056D00018492068884213D01749206888420FD0A3
:1056E0001649206888420BD011492068884207D0AB
:1056F00013492068884203D01249206888420CD19F
:105700002068806800F00706062E0CD0206800682C
:1057100040F001002168086005E02068006840F062
:1057200001002168086000209EE7000000000140A1
:10573000000401400004004000080040000C00404C
:10574000004001400018004010B50446034920689D
:10575000884201D1FDF75AFB10BD00000010004047
:105760007047704770B50446002520684069C0F353
:10577000C01594F83D00212817D1B5B100BF00BF76
:105780002168143151E8001F21F080002168143194
:1057900041E80002002AF3D100BF606B10B1606BDA
:1057A000FCF7DFFB204603F08AFC20684069C0F369
:1057B000801594F83E00222817D1B5B100BF00BF74
:1057C0002168143151E8001F21F040002168143194
:1057D00041E80002002AF3D100BFA06B10B1A06B1A
:1057E000FCF7BFFB204603F024FC002070BD70478F
:1057F0002DE9F84F0446206805682068C6682068CF
:1058000047694FF00009CA4605F00F09B9F1000FCA
:105810000AD105F0200038B106F0200020B1204662
:1058200003F060FCBDE8F88FB9F1000F7CD007F001
:10583000010018B906F49070002875D005F0010039
:1058400030B106F4807018B1206C40F00100206483
:1058500005F0040030B107F0010018B1206C40F0F1
:105860000200206405F0020030B107F0010018B119
:10587000206C40F00400206405F0080048B106F0F8
:10588000200010B907F0010018B1206C40F00800AA
:105890002064206C002846D005F0200028B106F0D6
:1058A000200010B1204603F01DFC20684069C0F3C1
:1058B000801A206C00F0080010B9BAF1000F2DD04A
:1058C000204603F0B6FB2068406900F04000402805
:1058D00020D100BF00BF2168143151E8001F21F022
:1058E00040002168143141E80002002AF3D100BFD2
:1058F000A06B50B17548A16B0865A06BFCF787FBE6
:1059000088B1A06B016D88470DE02046FFF76FFF5F
:1059100009E009E02046FFF76AFF04E02046FFF7B0
:1059200066FF002020647DE7206B012876D105F01A
:105930001000002872D006F010000028FAD000BF36
:105940000020009020680068009020684068009067
:1059500000BF00BF2068406900F0400040285ED1D1
:10596000A06B006840681FFA80F8B8F1000F54D0AF
:10597000A08D404551DDA4F82E80A06BC069B0F524
:10598000807F43D000BF00BF21680C3151E8001F69
:1059900021F4807021680C3141E80002002AF3D123
:1059A00000BF00BF00BF2168143151E8001F21F083
:1059B00001002168143141E80002002AF3D100BF40
:1059C00000BF00BF2168143151E8001F21F04000E2
:1059D0002168143141E80002002AF3D100BF2020E1
:1059E00084F83E000020206300BF00BF21680C3116
:1059F00051E8001F21F0100021680C3141E800023D
:105A0000002AF3D100BFA06BFCF7ABFAA08DE28DAA
:105A1000801A81B22046FFF7A4FE03E740E0A08D84
:105A2000E18D401A1FFA80F8E08DC0B3B8F1000F85
:105A300035D000BF00BF21680C3151E8001F21F4B0
:105A4000907021680C3141E80002002AF3D100BFB8
:105A500000BF00BF2168143151E8001F21F0010090
:105A60002168143141E80002002AF3D100BF202050
:105A700084F83E000020206300BF00BF21680C3185
:105A800051E8001F21F0100021680C3141E80002AC
:105A9000002AF3D100BF41462046FFF762FEC1E66F
:105AA00005F0800030B106F0800018B1204603F008
:105AB00013FDB7E605F0400030B106F0400018B124
:105AC000204603F0ECFAADE600BFABE6FF8E00081F
:105AD00038B50446154800680068C0F3001020B3CC
