:020000040800F2
:100000005887002061020008716600082F50000820
:1000100019660008B51000083D84000800000000C3
:10002000000000000000000000000000A101000826
:100030001313000800000000FD010008DF7700082E
:100040007B0200087B0200087B0200087B0200089C
:100050007B0200087B020008151300087B020008E1
:100060007B0200081F130008291300087B02000808
:10007000F91100087B0200087B0200087B020008DF
:100080007B0200087B0200087B0200087B0200085C
:100090007B0200087B0200087B0200083313000883
:1000A0007B0200087B0200087B0200087B0200083C
:1000B0007B0200087B0200087B0200087B0200082C
:1000C0007B0200087B0200087B0200087B0200081C
:1000D0007B020008198400087B02000829840008BC
:1000E0007B0200087B0200087B0200087B020008FC
:1000F0007B0200087B020008D17800087B02000820
:100100007B0200087B0200087B0200087B020008DB
:100110007B0200087B020008C17800087B0200080F
:100120007B0200087B0200087B0200087B020008BB
:100130007B0200087B0200087B0200087B020008AB
:100140007B0200087B0200087B0200087B0200089B
:100150007B0200087B0200087B0200087B0200088B
:100160007B0200087B0200087B0200087B0200087B
:100170007B0200087B0200087B02000800000000F0
:100180007B0200087B020008DFF810D000F026FC9C
:1001900000480047619B0008AFF3008058870020AB
:1001A0002C4B19680868B0E8F04F80F30988BFF35A
:1001B0006F8F4FF0000080F311887047000000003F
:1001C00008480068006880F308884FF0000080F35A
:1001D000148862B661B6BFF34F8FBFF36F8F00DF35
:1001E00000BF00BF08ED00E0DFF80C00016841F43B
:1001F00070010160704700BF88ED00E0EFF30980F7
:10020000BFF36F8F134B1A681EF0100F08BF20ED5D
:10021000108A20E9F04F106009B44FF0500080F3CD
:100220001188BFF34F8FBFF36F8F0AF0DFFE4FF0DF
:10023000000080F3118809BC19680868B0E8F04F25
:100240001EF0100F08BFB0EC108A80F30988BFF3CE
:100250006F8F7047C4010020EFF3058070470000E6
:100260000648804706480047FEE7FEE7FEE7FEE750
:10027000FEE7FEE7FEE7FEE7FEE7FEE7AD780008F3
:10028000890100082DE9F05F0546002092469B4653
:1002900088460646814640241BE02846414647469C
:1002A000224600F0F5F953465A46C01A914110D340
:1002B00011461846224600F0DCF92D1A67EB0108BA
:1002C0004F4622460120002100F0D3F917EB000928
:1002D0004E41201EA4F10104DFDC484631462A4687
:1002E0004346BDE8F09F40EA01039B0703D009E0C5
:1002F00008C9121F08C0042AFAD203E011F8013B12
:1003000000F8013B521EF9D27047D2B201E000F86A
:10031000012B491EFBD270470022F6E710B51346A9
:100320000A4604461946FFF7F0FF204610BD421C5E
:1003300010F8011B0029FBD1801A704730B5044624
:100340000020034600E05B1C934203D2E05CCD5CDE
:10035000401BF8D030BD2DE9FE4F804681EA0300F6
:10036000C00F0C46009021F0004123F00045B8EB8F
:100370000200A94105D24046214690461C460B4644
:10038000024623F00040104347D0270DC7F30A0070
:10039000C3F30A510290401A019040286BDAC3F36C
:1003A000130040F4801B0098924620B10023D2EB4A
:1003B000030A63EB0B0B01985946C0F1400250460B
:1003C00000F057F906460D4650465946019A00F08E
:1003D0006FF910EB08006141002487EA115284EAAA
:1003E000E7731A4340D0009A62B3019A012A4FEA98
:1003F000075215DC001B61EB02014FF0004202EADC
:100400000752CDE90042001C41F5801132462B46CF
:1004100000F0A6F903B0BDE8F08F40462146F9E7A9
:10042000001B61EB0201001C41F5801300185B41C9
:100430002018A2F5001747EB030140EAD570B61962
:100440006D4111E06D084FEA360645EAC0754FEA86
:100450000752001B61EB0201001C41F580114908A5
:100460004FEA30000019514132462B4603B0BDE837
:10047000F04F00F066B90098012240000023D0EB55
:10048000020263EBE073009821464FEAE074B8EB98
:10049000000061EB0401E9E783F000435BE781F0D2
:1004A000004158E72DE9FE4F81EA030404F00044BF
:1004B00021F0004100944FF0000B23F0004350EA7C
:1004C00001045ED052EA03045BD0C3F30A54C1F3C3
:1004D0000A552C44A4F2F3340194A0FB0254C1F356
:1004E000130141F48011C3F3130343F4801301FBA0
:1004F000024400FB034E840A970A44EA815447EA07
:100500008357A4FB076802958D0A05FB07854FEA10
:10051000932C04FB0C542705029D4FEA065847EA2A
:100520001637B5EB08056EEB070C870E920E47EAFF
:10053000811742EA8312A7FB0201B6EB0B0164EBC1
:1005400000042B0D43EA0C335E1844EB1C50DA46D2
:100550005146E7FB0201C5F313044FEA0B3343EAAC
:1005600014534FEA0432019C43EA0603A4F10C043D
:100570000294009CCDE900B400F0F2F803B0BDE8AD
:10058000F08F00200146F9E70EB5C10F80EAE07058
:100590000844CA07002140F233438DE80E000A46A2
:1005A0000B4600F0DDF803B000BD70B5C1F30A5290
:1005B00001F000450024C1F3130140F2FF3341F480
:1005C00080119A4201DA002070BD40F233439A4212
:1005D000A2F2334203DC524200F05AF800E09040AD
:1005E0002C43F1D0404270BD00F0004230F000409A
:1005F0000AD0C10D01F56071C0F3160042EA015145
:10060000C20840071143704700200146704701F0BF
:10061000004330B421F0004150EA010206D00A0D37
:10062000A2F56072C1F31301002A02DC30BC002085
:100630007047440F44EAC104C100E01830BC00EB2D
:10064000C25000F047B830B50B46014600202022CA
:10065000012409E021FA02F59D4205D303FA02F5CF
:10066000491B04FA02F52844151EA2F10102F1DC2F
:1006700030BD202A04DB203A00FA02F10020704746
:100680009140C2F1200320FA03F3194390407047D0
:10069000202A04DB203A21FA02F00021704721FAD7
:1006A00002F3D040C2F1200291400843194670473E
:1006B000202A06DBCB17203A41FA02F043EAE07326
:1006C00006E041FA02F3D040C2F120029140084313
:1006D000194670470029A8BF7047401C490008BF51
:1006E00020F00100704710B4B0FA80FC00FA0CF062
:1006F00050EA010404BF10BC704749B1CCF120049A
:1007000021FA04F411FA0CF118BF01212143084326
:10071000A3EB0C01CB1D4FEA00614FEA102042BF52
:10072000002010BC704700EBC35010440029A4BF48
:1007300010BC7047401C490008BF20F0010010BCED
:10074000704710B5141E73F1000408DA401C41F123
:10075000000192185B411A4301D120F0010010BD45
:100760002DE9F04D92469B4611B1B1FA81F202E0BB
:10077000B0FA80F220329046FFF77BFF04460F4626
:1007800040EA0A0041EA0B0153465A46084313D097
:10079000114653EA010019D0C8F140025046FFF754
:1007A00077FF05460E46504659464246FFF761FF21
:1007B000084305D0012004E020463946BDE8F08D0D
:1007C0000020054346EAE0762C4337430A98630548
:1007D000E40AA0EB08000022FD0A44EA47540A306C
:1007E00002D500200146E9E7010510196941DDE95C
:1007F000084500196941BDE8F04DA2E72DE9F04D2B
:1008000081EA030404F0004B21F0004514464FF048
:10081000000A23F0004150EA050220D054EA010208
:100820001DD0C5F30A570246C5F31303C1F31300E5
:10083000C1F30A5640F4801543F48013A7EB060871
:10084000101BD64608F2FD3873EB050002D308F101
:10085000010801E092185B41B8F1000F03DA0020B3
:100860000146BDE8F08D00204FF480110646844615
:100870000EE0171B73EB050705D3121B63EB050393
:1008800006434CEA010C49084FEA300092185B41DC
:1008900050EA0107EDD152EA030012D082EA0400C7
:1008A00083EA0501084305D0101BAB4106D20122A3
:1008B000002306E000224FF0004302E06FF0010247
:1008C00053101AEB06004CEB085110EB0A0041EBF9
:1008D0000B01BDE8F04DFFF734BF2DE9F04D0023CB
:1008E0001A461B1A8A4103DB00200146BDE8F08D41
:1008F000C1F30A52C1F3130141F480154FF0000B0C
:10090000D10702D100186D41521E0027044640F263
:10091000FF11384601EB620A3E468046024600203F
:100920004FF48011FFF7B4FEC2197141BB1846EBBA
:100930000100B4EB030C75EB000C04D3E41A65EB77
:10094000000517460E46241908F101006D41804646
:100950003428E3DDF91946EB0600091BA84103D250
:100960004FF0FF32134601E0002213461BEB070055
:1009700046EB0A51BDE8F04DFFF7E3BEC1F30A5262
:10098000C1F3130140F2FF3341F480119A4202DABD
:1009900000200146704740F233439A42A2F23342AC
:1009A00002DC5242FFF774BEFFF763BE30B5041E8F
:1009B00071F1000404DB4FF00044404264EB01019C
:1009C000141E73F1000405DB1C464FF00043524235
:1009D00063EB0403994208BF904230BD064C074DBB
:1009E00006E0E06840F0010394E8070098471034FF
:1009F000AC42F6D3FFF7CCFB88C00008A8C00008C3
:100A000030B58C1810F8012B12F00F0301D110F83B
:100A1000013B120906D110F8012B03E010F8015B2D
:100A200001F8015B5B1EF9D101E001F8013B521EA8
:100A3000FBD1A142E6D3002030BD000055494A68F1
:100A400022F440324A604A6843681A434A600268A6
:100A5000526822F4807203685A600268536802691F
:100A600043EA022203685A600268526822F0407228
:100A700003685A600268526883681A4303685A60C0
:100A80000268926822F4006203689A6002689268C1
:100A9000C3681A4303689A603F4B826A9A4218D02F
:100AA0000268926822F0706203689A600268926835
:100AB000836A1A4303689A600268926822F040527F
:100AC00003689A6002689268C36A1A4303689A606E
:100AD0000BE00268926822F0706203689A60026814
:100AE000926822F0405203689A600268926822F08D
:100AF000020203689A6002689368027E43EA420237
:100B000003689A602022125CA2B10268526842F423
:100B1000006203685A600268526822F46042036807
:100B20005A6002685368426A521E43EA42320368BE
:100B30005A6005E00268526822F4006203685A6055
:100B40000268D26A22F470020368DA620268D36A29
:100B5000828B521E43EA02520368DA62026892688C
:100B600022F4007203689A600268936890F830205B
:100B700043EA422203689A600268926822F4806223
:100B800003689A6002689368426943EA82220368B4
:100B90009A607047002301400100000F70B50446C1
:100BA0000D461646D6ED024AB0EE644AD6ED014A2D
:100BB000F0EE643AD6ED004AB0EE643AD5ED024A62
:100BC000F0EE642AD5ED014AB0EE642AD5ED004A74
:100BD000F0EE641AD4ED024AB0EE641AD4ED014A84
:100BE000F0EE640AD4ED004AB0EE640A05F026FA8D
:100BF00070BD000010B50024002210216B4801F0E8
:100C0000DFFC802006F000FDFF2006F0FDFCFF2049
:100C100006F0FAFC044601221021644801F0D0FCE1
:100C2000012001F07FFB00221021604801F0C8FC88
:100C3000802006F0E9FCFF2006F0E6FCFF2006F02D
:100C4000E3FC044601221021584801F0B9FC0120C0
:100C500001F068FB00221021544801F0B1FC7E2015
:100C600006F0D2FCB62006F0CFFC012210214F483E
:100C700001F0A6FC502001F055FB002210214B484A
:100C800001F09EFC802006F0BFFCFF2006F0BCFCBB
:100C9000FF2006F0B9FC044601221021434801F070
:100CA0008FFC012001F03EFB002210213F4801F0A3
:100CB00087FC802006F0A8FCFF2006F0A5FCFF20A2
:100CC00006F0A2FC044601221021384801F078FC0D
:100CD0001E2C05D0214636A007F0F4FD012010BDE2
:100CE00000221021314801F06BFC7D2006F08CFCC5
:100CF000042006F089FC012210212C4801F060FC40
:100D00004FF4E17001F022FB00221021274801F08E
:100D100057FC7C2006F078FC002006F075FC0122D0
:100D20001021224801F04CFC002210211F4801F044
:100D300047FC402006F068FCAB2006F065FC012271
:100D400010211A4801F03CFC00221021174801F044
:100D500037FC412006F058FC002006F055FC01222B
:100D60001021124801F02CFC002210210F4801F044
:100D700027FC532006F048FC082006F045FC012221
:100D800010210A4801F01CFC00221021074801F044
:100D900017FC582006F038FC042006F035FC012230
:100DA0001021024801F00CFC002098E700000240EE
:100DB000424D493038385F4143435F434849505FB3
:100DC00049445F56414C55453A2564200A000000CD
:100DD00070B506460C461546002210210C4801F05D
:100DE000EFFB46F0800006F00FFCFF2006F00CFC45
:100DF00006E0FF2006F008FC2070641C681EC5B2E7
:100E0000002DF6D101221021014801F0D9FB70BD5F
:100E10000000024010B500241E2001F083FA0022D9
:100E20000121344801F0CCFB802006F0EDFBFF20CF
:100E300006F0EAFB0446012211462E4801F0C0FBF1
:100E40000F2C05D021462CA007F03CFD012010BD41
:100E500000220121274801F0B3FB0F2006F0D4FB4C
:100E6000002006F0D1FB01221146224801F0A8FB28
:100E7000002201211F4801F0A3FB102006F0C4FB53
:100E8000822006F0C1FB012211461A4801F098FBAE
:100E900000220121174801F093FB152006F0B4FB56
:100EA000802006F0B1FB01221146124801F088FBB8
:100EB000002201210F4801F083FB162006F0A4FB5D
:100EC000002006F0A1FB012211460A4801F078FB40
:100ED00000220121074801F073FB182006F094FB63
:100EE000012006F091FB01221146024801F068FB47
:100EF0000020ACE700040240424D493038385F47DB
:100F000059524F5F434849505F49445F56414C55E1
:100F1000453A2564200A000070B506460C46154681
:100F2000002201210B4801F04BFB46F0800006F047
:100F30006BFB06E0FF2006F067FB2070641C681E58
:100F4000C5B2002DF6D101221146024801F038FB4E
:100F500070BD00000004024010B5FFF74BFEFFF724
:100F600059FF10BD2DE9FC4105460E4617460020ED
:100F700000900190062269461220FFF729FF9DF894
:100F80000100000200B29DF8001040EA010400EEEA
:100F9000104AB8EEC00A4548D0ED000A20EE200AFB
:100FA00086ED000A9DF80300000200B29DF80210D1
:100FB00040EA010400EE104AB8EEC00A3B48D0ED0A
:100FC000000A20EE200A86ED010A9DF805000002C5
:100FD00000B29DF8041040EA010400EE104AB8EE99
:100FE000C00A3248D0ED000A20EE200A86ED020A3F
:100FF000022269462220FFF7EBFE9DF80000C000A8
:101000009DF8011040EA6114B4F5806F02DBA4F58D
:10101000006004B200EE104AF8EEC00AB4EE001A06
:10102000B3EE070A00EE810A87ED000A0622694640
:101030000220FFF771FF9DF80100000200B29DF849
:10104000001040EA010400EE104AB8EEC00A184849
:10105000D0ED000A20EE200A85ED000A9DF803007D
:10106000000200B29DF8021040EA010400EE104AAE
:10107000B8EEC00A0E48D0ED000A20EE200A85ED39
:10108000010A9DF80500000200B29DF8041040EA34
:10109000010400EE104AB8EEC00A0548D0ED000A7F
:1010A00020EE200A85ED020ABDE8FC8188010020BF
:1010B0008C01002000BFFEE700B58BB0002001903E
:1010C00002900390049005900690079001200890EC
:1010D000099001A9034800F043FC024800F0A8FE73
:1010E0000BB000BDF80A002010B504462146134895
:1010F00000F036F8A0F2412010B101281CD10DE01B
:101100006079000200B2217908430D490880084641
:10111000B0F900100BA007F0D5FB0DE060790002DC
:1011200000B2217908430A4908800846B0F9001046
:1011300008A007F0C7FB00BF00BF10BDF80A0020E1
:101140007400002073706565645F4C3A25640A0082
:101150007600002073706565645F523A25640A006A
:1011600070B505460C460B4B0B4A0021284600F093
:1011700089FC60B9002004E00649095C2154411C47
:10118000C8B20828F8DB0448008880B270BD00208F
:10119000FCE700006C0000200430002070B504461D
:1011A0000D462A462146024800F004F870BD0000B2
:1011B000F80A002070B505460C4616460C48046037
:1011C00000200B498860C86008200861002008756D
:1011D00000BF284600F013FD0028FAD0054B324628
:1011E0000349284600F010FB08B100F0A7F870BDD5
:1011F000EC2F00206800002010B5024800F0B2FE7D
:1012000010BD00000C1E002001460878103818237D
:10121000B0FBF3F20848805CC865032A05D908686A
:101220006FF30900001D886503E008686FF309008B
:101230008865886D70470000C0BF00080146002027
:101240008A6A8B69CBB932B1012A0DD0022A03D048
:10125000032A10D10EE000BFCB6A03F08073B3F114
:10126000807F00D1012007E0CB6AB3F1C07F00D1BD
:10127000012001E000E000BF34E08B69B3F5005FBE
:101280001AD132B1012A07D0022A03D0032A11D180
:101290000AE000BF01200EE0CB6A03F08073B3F1D7
:1012A000807F00D1012006E0CB6AB3F1C07F00D17E
:1012B000012000E000BF15E032B1012A05D0022A6A
:1012C00004D0032A0CD103E000BF00BF012008E0D6
:1012D000CB6A03F08073B3F1807F00D1012000E07E
:1012E00000BF00BF704730B50468246824F4802430
:1012F00005682C60046863608468402C04D104682D
:10130000A2600468E16003E00468A1600468E26030
:1013100030BD704710B5012001F040F810BD10B588
:10132000082001F03BF810BD10B5102001F036F890
:1013300010BD10B5202001F031F810BD72B600BF0D
:10134000FEE7000038B502460020009000BF92F88A
:101350003C00012801D1022038BD012082F83C0068
:1013600000BF0868092816D91068C0680C780A3CC4
:1013700004EB44050724AC40A0431468E0600C78FB
:101380000A3C04EB44048868A0401468E4682043E5
:101390001468E06013E0106800690C7804EB440501
:1013A0000724AC40A043146820610C7804EB44048B
:1013B0008868A04014682469204314682061486844
:1013C000072817D21068406B0C79641E04EB840563
:1013D0001F24AC40A04314686063088880B20C7975
:1013E000641E04EB8404A0401468646B20431468FA
:1013F000606331E048680D2817D21068006B0C79E3
:10140000E41F04EB84051F24AC40A0431468206350
:10141000088880B20C79E41F04EB8404A0401468AF
:10142000246B20431468206316E01068C06A0C79AE
:101430000D3C04EB84051F24AC40A0431468E0621B
:10144000088880B20C790D3C04EB8404A040146839
:10145000E46A20431468E062194B1A4C1068A042F9
:1014600006D10868122803D1586840F480005860FB
:10147000144C1068A0421CD10868102802D00868DB
:10148000112816D1586840F40000586008681028E8
:101490000FD10D4800680D4CB0FBF4F000EB80005C
:1014A0004000009002E00098401E00900098002844
:1014B000F9D100BF002082F83C0000BF00BF4BE71D
:1014C0000023014000200140C001002040420F00E5
:1014D00001460868C06C704770B5044600250CB919
:1014E000012070BD1549A06A884200D000BF206C61
:1014F00030B9204600F024F80020606484F83C00F5
:10150000206C00F0100088B9206C20F4885040F066
:10151000020020642046FFF791FA00206064206CEE
:1015200020F0020040F00100206400E0012500BF2F
:10153000002084F83C0000BF2846D2E70100000FDD
:1015400010B586B00446142101A8FEF7E5FE234934
:10155000206888420FD100BF00200090204800681A
:1015600040F480701E4908600846006800F48070EE
:10157000009000BF2FE01B49206888422BD100BF9C
:10158000002000901648006840F48060144908600C
:101590000846006800F48060009000BF00BF00BFF4
:1015A000002000900E481438006840F020000C49DC
:1015B000143908600846006800F02000009000BF61
:1015C00000BF08150190032002900020039001A99C
:1015D000054800F0F1FE06B010BD000000200140FB
:1015E00044380240002201400014024070B5044615
:1015F0000D4600262068806800F48060B0F5806F9A
:1016000011D12068806800F48070B0F5807F0AD125
:10161000206C40F02000206400BF002084F83C00D3
:1016200000BF012070BD00F0D1FF064618E0681C25
:10163000B0B125B100F0CAFF801BA84210D92068C4
:10164000006800F0020002280AD0206C40F004007C
:10165000206400BF002084F83C0000BF0320E1E7C5
:101660002068006800F002000228E0D16FF012004C
:1016700021680860206C40F4007020642068806855
:1016800000F04050B8B9207EA8B92068C06A00F4C4
:10169000700020B12068806800F4806058B9206C28
:1016A00020F480702064206C00F4805018B9206C05
:1016B00040F0010020640020B4E7000008B50146B6
:1016C0000020009000BF91F83C00012801D10220C9
:1016D00008BD012081F83C0000BF0868806800F068
:1016E0000100A0B90868806840F001000B689860AC
:1016F0003F4800683F4BB0FBF3F000EB4000009028
:1017000002E00098401E009000980028F9D1086877
:10171000806800F00100002860D0086C40F201638E
:10172000984340F4807008640868406800F4806062
:1017300028B1086C20F4005040F480500864086C14
:1017400000F48050B0F5805F04D1486C20F00600B2
:10175000486401E00020486400BF002081F83C009C
:1017600000BF254A6FF022000B681860506800F037
:101770001F0018BB214B0868984213D0204B086803
:10178000984204D1101D006800F01F0050B11D4B9D
:10179000086898422AD11848001D006800F01F0010
:1017A000102823D20868806800F04050F0B908681B
:1017B000806840F080400B68986017E00F4B086825
:1017C000984213D10868806800F0405070B90868EA
:1017D000806840F080400B68986007E0086C40F03B
:1017E00010000864486C40F00100486400206FE776
:1017F000C001002040420F000023014000200140B2
:101800000021014000220140F0B504460D461E466D
:1018100094F8207020688368A86800B900E000BFD1
:10182000012F01D0022F7CD103F0806030B903F08A
:10183000006018B903F08050002873D0C3F3016131
:10184000022905D9606A40F4000060620120F0BD01
:10185000012088403060A86860B9B5F800C0E86829
:1018600040EA4C5C206800F5C07000EB0110C0F845
:1018700000C00FE0D5E901C040EACC00D5F80CC0AB
:1018800040EA0C00D4F800C00CF5C07C0CEB011C45
:10189000CCF80000D5F810C0206800F5C07000EB4F
:1018A0000110C0F804C0287D01280ED1206800F581
:1018B000C07000EB0110406840F4807C206800F5A7
:1018C000C07000EB0110C0F804C0D079000692F897
:1018D00006C040EA0C4092F805C040EA0C2C107992
:1018E0004CEA000C206800F5C07000EB0110C0F855
:1018F0000CC0D078000692F802C040EA0C4092F882
:1019000001C040EA0C2092F800C040EA0C00D4F874
:1019100000C00CF5C07C0CEB011CCCF80800206862
:1019200001E016E00FE000F5C07000EB0110006868
:1019300040F0010C206800F5C07000EB0110C0F809
:1019400000C0002083E7606A40F40010606201205C
:101950007DE7606A40F480206062012077E7000044
:10196000F0B504460A46216894F82050012D01D0B4
:10197000022D7ED1424901F50071086840F0010056
:101980000860086820F47C5008600868566A40EADD
:1019900006200860107D00F01F06012000FA06F303
:1019A000C8699843C861A1F50071D069C8B9D1F878
:1019B0000C029843C1F80C02908880B2968940EAE4
:1019C000064601F51070576940F83760108880B2FC
:1019D000168940EA064601F51070576900EBC7000A
:1019E0004660D069012819D1D1F80C021843C1F81A
:1019F0000C02908880B2168840EA064601F5107005
:101A0000576940F83760908980B2168940EA0646E7
:101A100001F51070576900EBC7004660906928B95E
:101A2000D1F804029843C1F8040204E0D1F804029A
:101A30001843C1F80402106928B9D1F81402984378
:101A4000C1F8140204E0D1F814021843C1F81402DA
:101A5000106A012804D1D1F81C021843C1F81C02F5
:101A6000D1F8000220F00100C1F800020020F0BD12
:101A7000FFE7606A40F4802060620120F7E7000021
:101A80000064004070B5044694F82050012D01D048
:101A9000022D7DD151B92068C06800F0030080B9E3
:101AA000606A40F400106062012070BD2068006927
:101AB00000F0030028B9606A40F400106062012061
:101AC000F3E7206800F5D87000EB0110006800F023
:101AD00004009060906840B9206800F5D87000EB71
:101AE00001100068400D106007E0206800F5D87014
:101AF00000EB01100068C0085060206800F5D87045
:101B000000EB0110006800F00200D060206800F5D2
:101B1000D87000EB0110406800F00F0010612068E1
:101B200000F5D87000EB0110406800F47F40000A17
:101B30009061206800F5D87000EB01104068000C3F
:101B40005061206800F5D87000EB011080681870B3
:101B5000206800F5D87000EB0110806800F47F4029
:101B6000000A5870206800F5D87000EB01108068FA
:101B700000F47F00000C9870206800F5D87000EB2E
:101B800001108068000ED870206800F5D87000E061
:101B90002FE000EB0110C0681871206800F5D870C4
:101BA00000EB0110C06800F47F40000A5871206803
:101BB00000F5D87000EB0110C06800F47F00000C45
:101BC0009871206800F5D87000EB0110C068000E15
:101BD000D87131B92068C06840F020002668F060F4
:101BE00005E02068006940F0200026683061002090
:101BF0005BE7606A40F480206062012055E701469F
:101C0000002091F82020012A01D0022A11D10B686E
:101C10009B6803F0806303B1401C0B689B6803F072
:101C2000006303B1401C0B689B6803F0805303B151
:101C3000401C704770B504460CB9012070BD94F883
:101C4000200010B9204600F0AFF82068006840F08E
:101C500001002168086000F0B9FC05460DE000F0C5
:101C6000B5FC401B0A2808D9606A40F40030606265
:101C7000052084F820000120E0E72068406800F09B
:101C800001000028EBD02068006820F002002168E5
:101C9000086000F09BFC05460DE000F097FC401B3F
:101CA0000A2808D9606A40F400306062052084F890
:101CB00020000120C2E72068406800F002000028F0
:101CC000EBD1207E012806D12068006840F080001A
:101CD0002168086005E02068006820F08000216825
:101CE0000860607E012806D12068006840F040004E
:101CF0002168086005E02068006820F04000216845
:101D00000860A07E012806D12068006840F020000D
:101D10002168086005E02068006820F02000216844
:101D20000860E07E012806D12068006820F01000DD
:101D30002168086005E02068006840F01000216814
:101D40000860207F012806D12068006840F0080064
:101D50002168086005E02068006820F0080021681C
:101D60000860607F012806D12068006840F0040008
:101D70002168086005E02068006820F00400216800
:101D80000860D4E9020108432169084361690843F6
:101D90006168491E08432168C86100206062012013
:101DA00084F82000002049E710B586B004461421CD
:101DB00001A8FEF7B1FA1B49206888422FD100BF65
:101DC000002000901848006840F000701649086034
:101DD0000846006800F00070009000BF00BF00BF20
:101DE0000020009010481038006840F008000E49AC
:101DF000103908600846006800F00800009000BF35
:101E000000BF0320019002200290002003900320D5
:101E100004900920059001A9044800F0CDFA06B00D
:101E200010BD00000064004040380240000C024039
:101E300070B5044694F82000012822D1022084F8CD
:101E400020002068006820F001002168086000F090
:101E5000BDFB05460DE000F0B9FB401B0A2808D980
:101E6000606A40F400306062052084F820000120A0
:101E700070BD2068406800F001000028EBD160626E
:101E8000F6E7606A40F4002060620120F0E770B578
:101E90000446A56D00F09AFB064694F8350002282A
:101EA00008D08020606500BF002084F8340000BFA7
:101EB000012070BD2068006820F0160021680860CD
:101EC0002068406920F0800021684861206C08B9D2
:101ED000A06C28B12068006820F008002168086024
:101EE0002068006820F001002168086010E000F020
:101EF0006DFB801B05280BD920206065032084F82A
:101F0000350000BF002084F8340000BF0320D0E774
:101F10002068006800F001000028E8D194F85C1007
:101F20003F208840A860012084F8350000BF0020D1
:101F300084F8340000BF00BFBBE7014691F83500CC
:101F4000022803D08020486501207047052081F8D1
:101F500035000868006820F001000A681060002061
:101F6000F3E70000F8B50446002000908C480068B4
:101F70004FF41651B0FBF1F7A56D2E6894F85C1084
:101F800008208840304098B12068006800F00400C4
:101F900070B12068006820F004002168086094F89F
:101FA0005C1008208840A860606D40F0010060650A
:101FB00094F85C1001208840304068B12068406986
:101FC00000F0800040B194F85C1001208840A860C7
:101FD000606D40F00200606594F85C100420884059
:101FE000304068B12068006800F0020040B194F809
:101FF0005C1004208840A860606D40F004006065BB
:1020000094F85C1010208840304078B32068006855
:1020100000F0080050B394F85C1010208840A860CD
:102020002068006800F4802080B12068006800F417
:10203000002028B9206CC8B12046216C884715E0E3
:10204000A06C98B12046A16C88470FE0206800681A
:1020500000F4807028B92068006820F0080021682A
:102060000860206C10B12046216C884794F85C1001
:10207000202088403040002865D02068006800F0AB
:10208000100000285FD094F85C1020208840A860E1
:1020900094F83500052828D12068006820F0160043
:1020A000216808602068406920F08000216848614C
:1020B000206C08B9A06C28B12068006820F00800E6
:1020C0002168086094F85C103F208840A8600120D7
:1020D00084F8350000BF002084F8340000BF206D74
:1020E00010B12046216D8847F8BD2068006800F4D3
:1020F000802080B12068006800F4002028B9606C5E
:1021000010B12046616C88471DE0E06BD8B12046D5
:10211000E16B884717E02068006800F4807068B9B8
:102120002068006820F0100021680860012084F811
:10213000350000BF002084F8340000BFE06B10B110
:102140002046E16B8847606D38B3606D00F0010098
:10215000F0B1052084F835002068006820F0010007
:102160002168086000BF0098401C0090B84200D968
:1021700005E02068006800F001000028F3D100BFEE
:10218000012084F8350000BF002084F8340000BF2F
:10219000E06C10B12046E16C884700BFA4E7000066
:1021A000C00100202DE9F0410446002500F00EFAA0
:1021B000074614B90120BDE8F081606A00B100BF94
:1021C000022084F8350000BF002084F8340000BFEE
:1021D0002068006820F00100216808600AE000F033
:1021E000F5F9C01B052805D920206065032084F877
:1021F0003500E0E72068006800F001000028EED11B
:102200002068056821480540D4E901010843E168D8
:1022100008432169084361690843A1690843E169EA
:102220000843216A08430543606A042803D1D4E9BE
:102230000B0108430543206805602068456925F0C7
:102240000705606A0543606A04280DD1A06A05434A
:10225000E06A48B12046FEF7F1FF28B140206065F2
:10226000012084F83500A6E7206845612046FEF786
:10227000CBFF064694F85C103F208840B0600020F9
:102280006065012084F83500002094E73F8010F05D
:102290002DE9F04704460D4616461F464FF000084C
:1022A000D4F8589000BF94F83400012802D10220DD
:1022B000BDE8F087012084F8340000BF94F83500B1
:1022C000012825D1022084F83500002060653B46B6
:1022D000324629462046FFF706F894F85C103F2066
:1022E0008840C9F808002068006840F0160021689E
:1022F0000860206C28B12068006840F00800216860
:1023000008602068006840F001002168086006E06D
:1023100000BF002084F8340000BF4FF002084046A0
:10232000C6E7000070B5044600F050F906462546A1
:10233000681C10B104480078054400BF00F046F95D
:10234000801BA842FAD370BDBC01002070B50246C4
:10235000A82102FB01F34FF0E0214D6988690EE0EE
:102360004FF0E026B169814208D0814201D2441A7F
:1023700001E06E1A34189C4200D301E000BFEFE781
:1023800000BF70BD10B50446202C04D101210248C5
:10239000006807F055FC10BD1400002010B504467D
:1023A00004480068204020B1024804602046FFF73E
:1023B000E9FF10BD143C0140F8B502460B4600256C
:1023C000002400200021D6E0012606FA01F51E684F
:1023D00006EA0504AC4274D11E7906F00306012E0C
:1023E00004D01E7906F00306022E13D190684F0028
:1023F0000326BE40B0434F00DE68BE4030439060CD
:10240000506801268E40B0431E79C6F300168E40F8
:10241000304350601E7906F00306032E09D0D068C1
:102420004F000326BE40B0434F009E68BE4030437D
:10243000D0601E7906F00306022E13D1CF0802F1F8
:10244000200656F827004E07F70E0F26BE40B04371
:102450004F07FF0E1E69BE403043CF0802F1200631
:1024600046F8270010684F000326BE40B0431E798F
:1024700006F003064F00BE40304310605E6806F46D
:102480004036002E76D000BF002600963C4E3668BF
:1024900046F480463A4F3E603E46366806F4804633
:1024A000009600BF00BF374E8F0856F827008E07F2
:1024B000370F0F26BE40B043334EB24202D1002642
:1024C00024E057E0314EB24201D101261EE0304EE9
:1024D000B24201D1022619E02E4EB24201D10326AA
:1024E00014E02D4EB24201D104260FE02B4EB24231
:1024F00001D105260AE02A4EB24201D1062605E0A6
:10250000284EB24201D1072600E008268F073F0F70
:10251000BE4030431B4E8F0846F82700224E3068DD
:10252000A0435E6806F4801606B120431E4E30605C
:10253000361D3068A0435E6806F4001606B12043DD
:10254000194E361D3060184E361F3068A0435E6845
:1025500006F4003606B12043134E361F3060361F96
:102560003068A0435E6806F4803606B120430E4E04
:10257000083E3060491C1029FFF426AFF8BD00006A
:102580004438024008380140000002400004024084
:1025900000080240000C02400010024000140240FB
:1025A00000180240001C0240083C014010B542697E
:1025B00021EA020302EA010443EA0443836110BDF5
:1025C0000AB1816101E00B04836170470148006832
:1025D00070470000B401002070B504460CB901201A
:1025E00070BD94F83D0028B9002084F83C002046D6
:1025F00000F006FB242084F83D002068006820F0ED
:102600000100216808602068006840F400402168EB
:1026100008602068006820F400402168086000F02D
:1026200085FD05465C496068884206D85B4885425E
:1026300001D2012007E0002005E05948854201D27F
:10264000012000E00020012800D1C9E75548B5FB72
:10265000F0F62068406820F03F0030432168486071
:102660004D496068884201D8701C07E04FF49670AD
:1026700070434FF47A71B0FBF1F0401C2168096A95
:1026800021F03F010843216808624349606888429D
:1026900014D8681E61684900B0FBF1F0401CC0F31B
:1026A0000B00042801D204203DE0681E6168490047
:1026B000B0FBF1F0401CC0F30B0034E0A06838B967
:1026C000681E616801EB4101B0FBF1F0401C0AE0BB
:1026D000681E616801EBC10202EB0111B0FBF1F071
:1026E000401C40F48040C0F30B0008B901201AE000
:1026F000A06848B9681E616801EB4101B0FBF1F0C8
:10270000401CC0F30B000CE0681E616801EBC102C5
:1027100002EB0111B0FBF1F0401CC0F30B0040F4E0
:10272000804040F400402168C9694CF6FF72914333
:1027300008432168C861D4E9070108432168096892
:1027400021F0C001084321680860D4E90310084360
:102750002168896848F2FF32914308432168886004
:10276000D4E9050108432168C96821F0FF01084345
:102770002168C8602068006840F001002168086096
:1027800000202064202084F83D000020206384F88D
:102790003E0000BF24E70000A086010080841E00E8
:1027A00000093D0040420F002DE9FC5F04460F4642
:1027B00090469946DDE90CAB0E9EFFF707FF0546F4
:1027C00094F83D00202870D119230122B0492046F9
:1027D000009502F09BFD10B10220BDE8FC9F00BFF8
:1027E00094F83C00012801D10220F6E7012084F88A
:1027F0003C0000BF2068006800F0010028B9206894
:10280000006840F00100216808602068006820F43A
:10281000006021680860222084F83D00402084F890
:102820003E0000202064C4F824A0A4F82AB0608DE3
:1028300020859848E0624B46424639462046CDE91D
:10284000006502F015FC08B10120C6E7208D88B9AB
:1028500000BF0020019020684069019020688069D5
:10286000019000BF00BF2068006840F4007021683C
:10287000086040E0208D012818D12068006820F40D
:1028800080602168086000BF0020019020684069D6
:10289000019020688069019000BF00BF2068006837
:1028A00040F400702168086025E0EFE0208D0228E8
:1028B00016D12068006820F48060216808602068D4
:1028C000006840F400602168086000BF00200190AB
:1028D00020684069019020688069019000BF0AE08B
:1028E00000BF002001902068406901902068806945
:1028F000019000BF00BFBAE0208D03287ED8208D54
:10290000012815D12A463146204602F0A4FD08B11F
:10291000012062E720680069616A0870606A401CF3
:102920006062208D401E2085608D401E60859EE087
:10293000208D02282AD1334600225749204600958F
:1029400002F0E4FC08B1012047E72068006840F489
:1029500000702168086020680069616A0870606A18
:10296000401C6062208D401E2085608D401E608569
:1029700020680069616A0870606A401C6062208D8E
:10298000401E2085608D401E608570E03346002229
:1029900041492046009502F0B9FC08B101201CE72E
:1029A0002068006820F48060216808602068006961
:1029B000616A0870606A401C6062208D401E20853C
:1029C000608D401E608533460022334920460095C5
:1029D00002F09CFC08B10120FFE62068006840F48A
:1029E00000702168086020680069616A0870606A88
:1029F000401C6062208D401E208500E010E0608D4C
:102A0000401E608520680069616A0870606A401C29
:102A10006062208D401E2085608D401E608526E00E
:102A20002A463146204602F016FD08B10120D4E6C0
:102A300020680069616A0870606A401C6062208DCD
:102A4000401E2085608D401E608520684069C0F36F
:102A5000800060B120680069616A0870606A401C8B
:102A60006062208D401E2085608D401E6085208D17
:102A700000287FF441AF202084F83D00002084F836
:102A80003E0000BF84F83C0000BFA6E60220A4E69A
:102A9000020010000000FFFF040001002DE9FC5FB0
:102AA00004460F4690469946DDE90CAB0E9EFFF7B3
:102AB0008DFD054694F83D0020287DD11923012283
:102AC0004D492046009502F021FC10B10220BDE8DE
:102AD000FC9F00BF94F83C00012801D10220F6E7DA
:102AE000012084F83C0000BF2068006800F001006D
:102AF00028B92068006840F001002168086020685B
:102B0000006820F4006021680860212084F83D00FE
:102B1000402084F83E0000202064C4F824A0A4F8DB
:102B20002AB0608D20853548E0624B4642463946E2
:102B30002046CDE9006502F04BFB08B10120C6E755
:102B400031E02A463146204602F0C5FC50B1206CE7
:102B5000042805D12068006840F4007021680860EE
:102B60000120B4E7606A007821680861606A401C4F
:102B70006062208D401E2085608D401E608520682B
:102B80004069C0F3800070B1208D60B1606A007848
:102B900021680861606A401C6062208D401E2085AB
:102BA000608D401E6085208D0028CAD12A4631469E
:102BB000204602F07DFB00E01CE050B1206C0428B0
:102BC00005D12068006840F4007021680860012089
:102BD0007DE72068006840F40070216808602020CC
:102BE00084F83D00002084F83E0000BF84F83C00DB
:102BF00000BF6CE702206AE7020010000000FFFF40
:102C000010B586B00446142101A8FDF785FB4449A0
:102C1000206888422FD100BF002000904148006802
:102C200040F020003F4908600846006800F020009E
:102C3000009000BF00BF03200190122002900020EE
:102C40000390032004900420059001A93648FFF763
:102C5000B3FB00BF0020009032481030006840F401
:102C600080003049103108600846006800F4800098
:102C7000009000BF51E02D49206888424DD100BF2F
:102C8000002000902748006840F0040025490860B3
:102C90000846006800F00400009000BF00BF00BFBD
:102CA000002000900846006840F0010008600846D7
:102CB000006800F00100009000BF00BF48150190BF
:102CC000122002900120039003200490042005901C
:102CD00001A91748FFF770FB4FF480700190122094
:102CE000029001200390032004900420059001A984
:102CF0001048FFF761FB00BF00200090094810302A
:102D0000006840F400000749103108600846006878
:102D100000F40000009000BF00BF06B010BD00002E
:102D2000005800403038024000140240005C00406F
:102D30000008024000000240034800680349097887
:102D40000844014908607047B4010020BC0100201C
:102D500010B50D48006840F400700B490860084643
:102D6000006840F4806008600846006840F48070A5
:102D70000860032000F0DCF80F2000F007F800F0F6
:102D80005FF8002010BD0000003C02402DE9F0413A
:102D900088B004460027B84600BF002001902348B1
:102DA000006840F01000214908600846006800F003
:102DB0001000019000BF00BF02A903A800F08EF927
:102DC000069F1FB900F0B2F9054602E000F0AEF927
:102DD00045001748B5FBF0F0A0F101081548164969
:102DE000086040F2E7311448C160C0F80480002157
:102DF00001618160816100F0D1FE064696B90E48FE
:102E000000F090FF06466EB9362000F043F8102C13
:102E100007D200222146362000F04CF80748046013
:102E200000E00126304608B0BDE8F081403802409D
:102E300040420F00001000406C1E0020B80100202E
:102E400008B500BF002000901148006840F48040A1
:102E50000F4908600846006800F48040009000BFF9
:102E600000BF00BF00200090081F006840F08050A5
:102E7000091F08600846006800F08050009000BFFD
:102E800000BF00220F21901E00F014F808BD0000C2
:102E90004438024001460846002809DB00F01F03C1
:102EA00001229A4043099B0003F1E023C3F800216B
:102EB00000BF70472DE9F05F80460D46164600279B
:102EC00005F024FD074639462A46334601F007003F
:102ED000C0F1070ABAF1040F02D94FF0040A01E069
:102EE000C0F1070AD14600F1040ABAF1070F02D275
:102EF0004FF0000A01E0A0F1030AD4464FF0010AA6
:102F00000AFA09FAAAF1010A0AEA020A0AFA0CFA0A
:102F10004FF0010B0BFA0CFBABF1010B0BEA030BAF
:102F20004AEA0B042146404605F0F8FCBDE8F09F54
:102F300000BF00F00702064B19684FF6FF03194067
:102F4000044B0B4343EA0221014B196000BF704759
:102F50000CED00E00000FA0570B504460D460CB912
:102F6000012070BD5848006800F00700A84209D24F
:102F700055490D700846006800F00700A84201D0CE
:102F80000120EEE7207800F0020002281DD1207811
:102F900000F00400042805D14C48006840F4E050DB
:102FA0004A490860207800F00800082805D1474801
:102FB000006840F46040454908604448006820F0DB
:102FC000F000A168084341490860207800F0010042
:102FD000A8B36068012807D13C4808380068C0F3EE
:102FE0004040B8B90120BCE76068022802D06068A0
:102FF000032807D1354808380068C0F3406048B955
:103000000120AEE7314808380068C0F3400008B935
:103010000120A6E72D48006820F0030061680843FE
:103020002A490860FFF7D2FA064609E0FFF7CEFA10
:10303000801B41F28831884202D9032091E707E0E2
:103040002248006800F00C006168B0EB810FEDD100
:103050001D48006800F00700A84209D91A490D7000
:103060000846006800F00700A84201D0012078E778
:10307000207800F00400042807D11448006820F4E8
:10308000E050E168084311490860207800F008002A
:10309000082808D10D48006820F46040216940EA02
:1030A000C1000A49086000F061F808490968C1F3E5
:1030B0000311074A515CC840064908600648006889
:1030C000FFF764FE00204CE7003C02400838024055
:1030D000C8BF0008C0010020B80100200F22026014
:1030E0000D4A126802F0030242600B4A126802F0B5
:1030F000F0028260084A126802F4E052C260064A96
:10310000126802F46042D2080261044A126802F0B6
:1031100007020A607047000008380240003C024085
:103120000148006870470000C001002000B5FFF7AB
:10313000F7FF04490968C1F38221034A515CC84082
:1031400000BD000008380240D8BF000800B5FFF7F6
:10315000E7FF04490968C1F34231034A515CC840A2
:1031600000BD000008380240D8BF00082DE9F04734
:10317000002400250026A1462548006800F00C0028
:1031800020B1042805D008283AD105E0DFF8849062
:1031900039E0DFF8849036E01D48001F006800F039
:1031A0003F041B48001F006800F4800078B11A48F3
:1031B0001749091F0968C1F38811A0FB0170014676
:1031C000224600233846FDF75DF805460EE011481B
:1031D0000F49091F0968C1F38811A0FB017001465E
:1031E000224600233846FDF74DF805460848001FE3
:1031F0000068C0F30140401C4600B5FBF6F902E050
:10320000DFF8109000BF00BF4846BDE8F08700001F
:10321000083802400024F400001BB700F8B504464B
:103220000CB90120F8BD207800F00100002874D00E
:10323000F948006800F00C0004280DD0F64800683A
:1032400000F00C00082813D1F348001F006800F4B8
:103250008000B0F5800F0BD1EF4808380068C0F34C
:103260004040002859D06068002856D10120D9E795
:1032700000BF6068B0F5803F08D1E74808380068B3
:1032800040F48030E449083908601EE06068B0F519
:10329000A02F0DD1E0480838006840F48020DE49B6
:1032A000083908600846006840F4803008600CE087
:1032B000D9480838006820F48030D74908390860B8
:1032C0000846006820F48020086000BF606890B164
:1032D000FFF77CF9054606E0FFF778F9401B642804
:1032E00001D903209EE7CC4808380068C0F340406D
:1032F0000028F1D011E0FFF769F9054606E0FFF775
:1033000065F9401B642801D903208BE7C2480838BF
:103310000068C0F340400028F1D1207800F002009E
:1033200002285FD1BC48006800F00C0058B1BA48D0
:10333000006800F00C0008281CD1B748001F006886
:1033400000F48000B0B9B44808380068C0F3400009
:1033500020B1E068012801D0012063E7AE480838B9
:10336000006820F0F800216940EAC100AA49083944
:10337000086037E0E06800B30120A8490860FFF763
:1033800025F9054606E0FFF721F9401B022801D97F
:10339000032047E7A04808380068C0F34000002831
:1033A000F1D09D480838006820F0F800216940EA13
:1033B000C10099490839086014E000209749086065
:1033C000FFF704F9054606E0FFF700F9401B022865
:1033D00001D9032026E7904808380068C0F3400070
:1033E0000028F1D1207800F0080008282CD160696D
:1033F000A8B101208A490860FFF7E8F8054606E011
:10340000FFF7E4F8401B022801D903200AE78248AD
:103410006C300068C0F340000028F1D014E00020B8
:103420007F490860FFF7D2F8054606E0FFF7CEF8BF
:10343000401B022801D90320F4E677486C3000686D
:10344000C0F340000028F1D1207800F004000428E7
:1034500070D1002770483830006800F0805090B973
:1034600000BF002000906C483830006840F0805069
:103470006949383108600846006800F080500090C3
:1034800000BF00BF01276748006800F48070B0B932
:103490006448006840F4807062490860FFF796F85D
:1034A000054606E0FFF792F8401B022801D90320E9
:1034B000B8E65C48006800F480700028F2D000BFD5
:1034C000A068012808D154486830006840F0010025
:1034D0005149683108601DE0A06805280DD14E48AB
:1034E0006830006840F004004B49683108600846C5
:1034F000006840F0010008600CE047486830006850
:1035000020F001004449683108600846006820F056
:103510000400086000BFA068A8B1FFF757F805468F
:1035200009E0FFF753F8401B41F28831884202D985
:10353000032077E626E0384868300068C0F3400092
:103540000028EED013E0FFF741F8054608E0FFF74A
:103550003DF8401B41F28831884201D9032061E6E1
:103560002D4868300068C0F340000028EFD1012FDB
:1035700007D129483830006820F08050264938317A
:10358000086000BFA069002845D02348006800F00B
:103590000C0008285DD0A069022845D100201F49F1
:1035A0000866FFF713F8054606E0FFF70FF8401B23
:1035B000022801D9032035E6174808380068C0F30F
:1035C00040600028F1D1D4E907010843616A40EA6C
:1035D00081110122A06AC2EB500041EA00412C2077
:1035E000005D41EA00600C49091F086001200B4999
:1035F0000866FEF7EBFF054606E0FEF7E7FF401B17
:10360000022801D903200DE6034808380068C0F3FA
:1036100040600028F1D049E00838024000004742ED
:10362000800E474200700040002021490866FEF7E6
:10363000CDFF054606E0FEF7C9FF401B022801D971
:103640000320EFE51B480068C0F340600028F2D17A
:103650002CE0A069012800D1E4E51648001D0668A9
:10366000A069012820D006F48001E06981421BD1C5
:1036700006F03F01206A814216D147F6C070304003
:10368000616AB0EB811F0FD106F440310122A06ABC
:10369000C2EB5000B1EB004F06D106F070612C2058
:1036A000005DB1EB006F01D00120BBE50020B9E562
:1036B000000047420038024010B504460CB9012012
:1036C00010BD606A38B96068B0F5827F00D105E04E
:1036D0000021E16102E00021216161610021A1621C
:1036E00094F8510028B9002084F85000204600F0DA
:1036F00047F8022084F851002068006820F040005C
:1037000021680860A08800F48270218901F40441D6
:103710000843A18901F400610843217C01F0020102
:103720000843217D01F001010843218B01F4007160
:103730000843217F01F0380108432021095D01F091
:1037400080010843218D01F400510843216808607D
:103750000421A06901EA104094F8241001F010013E
:103760000843216848602068C06920F4006021682F
:10377000C86100206065012084F8510000209FE7A7
:1037800010B586B00446142101A8FCF7C5FD2949EF
:10379000206888424CD100BF002000902648006875
:1037A00040F48050244908600846006800F48050C6
:1037B000009000BF00BF00BF002000901E481438DA
:1037C000006840F002001C4914390860084600688F
:1037D00000F00200009000BF00BF00BF002000907A
:1037E0000846006840F0010008600846006800F0E4
:1037F0000100009000BF00BF18200190022002903D
:1038000000200390032004900520059001A90B4897
:10381000FEF7D2FD8020019002200290002003904C
:10382000032004900520059001A90548FEF7C4FD7A
:1038300006B010BD00300140443802400004024090
:10384000000002402DE9FF5F0446884691461D4670
:103850000E9E012002900020019000BF94F85000BD
:10386000012803D1022004B0BDE8F09F012084F8B4
:10387000500000BFFEF7AAFE074694F851B06068FA
:103880000390AA46BBF1010F0BD00398B0F5827FDD
:1038900004D1A06810B9BBF1040F02D0022001903E
:1038A000DBE0B8F1000F03D0B9F1000F00D015B97B
:1038B00001200190D1E094F85100042802D00520A5
:1038C00084F8510000206065C4F83890E587A5872A
:1038D000C4F83080E586A5862064606420680068AE
:1038E00000F04000402805D02068006840F040000B
:1038F00021680860E068B0F5006F4AD1606810B1D7
:10390000BAF1010F09D1206B00882168C860206BD3
:10391000801C2063E08E401EE08633E020688068D3
:1039200000F00200022810D1E08E70B10298012848
:103930000BD1206B00882168C860206B801C20633D
:10394000E08E401EE086002002902068806800F033
:10395000010068B1E08F58B12068C068A16B088091
:10396000A06B801CA063E08F401EE08701200290C6
:10397000FEF72CFEC01BB04204D3701C10B1032014
:1039800001906AE0E08E0028C8D1E08F0028C5D100
:103990004AE0606810B1BAF1010F09D1206B0078DC
:1039A00021680873206B401C2063E08E401EE08677
:1039B00034E02068806800F00200022810D1E08E18
:1039C00070B1029801280BD1206B00782168087330
:1039D000206B401C2063E08E401EE0860020029099
:1039E0002068806800F0010068B1E08F58B120685D
:1039F000C068A16B0870A06B401CA063E08F401EE4
:103A0000E08701200290FEF7E1FDC01BB04201D328
:103A1000701C00B916B9032001901EE0E08E00284A
:103A2000C7D1E08F0028C4D13A463146204603F082
:103A3000B5FD20B101200190202060650DE0A06857
:103A400050B900BF002000902068C0680090206836
:103A50008068009000BF00BF00BF012084F85100C3
:103A600000BF002084F8500000BF0198FBE67047BB
:103A7000704710B50346002200BF93F83C000128B0
:103A800001D1022010BD012083F83C0000BF22F0CC
:103A9000FF00CC6840EA040222F440708C6840EADF
:103AA000040222F480604C6840EA040222F40060C0
:103AB0000C6840EA040222F480500C6940EA0402D7
:103AC00022F400504C6940EA040222F48040CC69A0
:103AD00040EA04021868426400BF002083F83C00FA
:103AE00000BF00BFCEE7000030B502460B4600BF66
:103AF00092F83C00012801D1022030BD012082F85B
:103B00003C0000BF022082F83D0010684468106845
:103B1000816824F070041868044310684460184DEC
:103B20001068A8421BD01068B0F1804F17D0154D17
:103B30001068A84213D0144D1068A8420FD0134D3E
:103B40001068A8420BD0124D1068A84207D0114D42
:103B50001068A84203D0104D1068A84205D121F08A
:103B600080015868014310688160012082F83D009F
:103B700000BF002082F83C0000BF00BFBDE700008E
:103B8000000001400004004000080040000C00401C
:103B900000040140004001400018004010B50446F8
:103BA0000CB9012010BD94F83D0028B9002084F81C
:103BB0003C00204600F026F8022084F83D00211D3C
:103BC000206803F08DFE012084F8460000BF84F8D1
:103BD0003E0001213F200155402001554120015563
:103BE00000BF00BF012084F842004320015544205B
:103BF00001554520015500BF012084F83D000020FB
:103C0000D0E7000010B586B00446142101A8FCF7E7
:103C100083FB3E49206888420FD100BF00200090FE
:103C20003B48006840F001003949086008460068D8
:103C300000F00100009000BF65E03649206888422E
:103C400011D100BF002000903148001F006840F0F3
:103C500004002F49091F08600846006800F00400AE
:103C6000009000BF4FE02C492068884237D100BF48
:103C7000002000902648006840F0020024490860B7
:103C80000846006800F00200009000BF00BF00BFBF
:103C9000002000901E481438006840F480701C49D1
:103CA000143908600846006800F48070009000BF76
:103CB00000BF802001900220029003900020049019
:103CC0000320059001A91548FEF776FB0022052187
:103CD0002E20FFF7EFF82E20FFF7DCF813E0104955
:103CE000206888420FD100BF00200090084800687B
:103CF00040F40030064908600846006800F40030CF
:103D0000009000BF00BF06B010BD000000000140E1
:103D100044380240000800400004014000200240F6
:103D200000440140014691F83D00012801D00120E6
:103D30007047022081F83D000868C06840F001002B
:103D40000B68D8601A4B086898421BD00868B0F11D
:103D5000804F17D0174B0868984213D0164B08684D
:103D600098420FD0154B086898420BD0144B086846
:103D7000984207D0134B0868984203D0124B08684A
:103D800098420CD10868806800F00702062A0CD01F
:103D90000868006840F001000B68186005E00868DA
:103DA000006840F001000B6818600020C0E70000C8
:103DB000000001400004004000080040000C0040EA
:103DC0000004014000400140001800402DE9F0418E
:103DD00004460D46002700BF94F83C00012802D19C
:103DE0000220BDE8F081012084F83C0000BF0220E1
:103DF00084F83D002068866826F0770626F47F4622
:103E0000206886602868502833D00CDC202850D0E9
:103E100004DC00284BD0102851D149E0302849D08B
:103E200040284CD139E060282DD0702807D0B0F55B
:103E3000805F03D0B0F5005F41D10DE041E0D5E9EE
:103E400002136A68206803F0C8FD2068866846F09F
:103E500077062068866034E0D5E902136A68206836
:103E600003F0BBFD2068806840F4804021688860D2
:103E700027E0EA686968206803F0A0FE5021206806
:103E800003F0B6FD1DE0EA686968206803F0F2FE01
:103E90006021206803F0ACFD13E0EA6869682068DF
:103EA00003F08CFE4021206803F0A2FD09E000BF72
:103EB00000BF00BF2968206803F09AFD01E00127D8
:103EC00000BF00BF012084F83D0000BF002084F83F
:103ED0003C0000BF384684E710B5044632492068EC
:103EE000884260D13148007820B101281ED00228D4
:103EF00044D136E000202E490968486200BF2C48B2
:103F00000068006A20F4206029490968086228488E
:103F10000068006A40F4007025490968086200BF23
:103F200022480078401C2149087027E0204800689A
:103F3000C06B2049086000BF1D480068006A20F47B
:103F400020601B490968086219480068006A18491E
:103F50000968086200BF15480078401C13490870C2
:103F60000CE013480068C06B134908600821104832
:103F700000F096F900200D49087000BF00BF07F05F
:103F8000C7FD01280FD00D490D48006806F0C6FE98
:103F90000A48006838B14FF080500A490860BFF302
:103FA0004F8FBFF36F8F10BD000401404C00002005
:103FB000B018002050000020540000205C000020B9
:103FC0004800002004ED00E02DE9F04104460D46D4
:103FD0001646002700BF94F83C00012802D10220B9
:103FE000BDE8F081012084F83C0000BF96B9EB6881
:103FF000D5E90012206803F0F5FD2068806920F003
:104000000C002168886120688069A96808432168DC
:10401000886141E0042E13D1EB68D5E900122068D5
:1040200003F03CFE2068806920F4406021688861CC
:1040300020688069A96840EA0120216888612BE036
:10404000082E12D1EB68D5E90012206803F043FE78
:104050002068C06920F00C002168C8612068C06930
:10406000A96808432168C86116E00C2E13D1EB68DB
:10407000D5E90012206803F04AFE2068C06920F4E8
:1040800040602168C8612068C069A96840EA0120D1
:104090002168C86100E0012700BF002084F83C00CF
:1040A00000BF38469CE710B504460CB9012010BD8E
:1040B00094F83D0028B9002084F83C00204600F028
:1040C00025F8022084F83D00211D206803F008FC3B
:1040D000012084F8460000BF84F83E0001213F2003
:1040E0000155402001554120015500BF00BF01206E
:1040F00084F84200432001554420015545200155D4
:1041000000BF012084F83D000020D0E77047000088
:104110002DE9F04304460D46002615B994F83E00FB
:104120000BE0042D02D13F20005D06E0082D02D1F6
:104130004020005D01E04120005D804615B994F803
:1041400042000BE0042D02D14320005D06E0082D63
:1041500002D14420005D01E04520005D8146B8F1B8
:10416000010F02D1B9F1010F02D00120BDE8F083A7
:104170001DB9022084F83E000EE0042D03D1022177
:104180003F20015508E0082D03D1022140200155B0
:1041900002E00221412001551DB9022084F84200AD
:1041A0000EE0042D03D102214320015508E0082D23
:1041B00003D102214420015502E00221452001558E
:1041C00035B1042D0BD0082D10D00C2D1CD114E0CE
:1041D0002068C06840F002002168C86016E02068CE
:1041E000C06840F004002168C8600FE02068C06823
:1041F00040F008002168C86008E02068C06840F00E
:1042000010002168C86001E0012600BF00BF86BB26
:1042100001222946206803F0CFFB1A492068884212
:104220001BD02068B0F1804F17D017492068884212
:1042300013D01649206888420FD01549206888425B
:104240000BD014492068884207D01349206888425F
:1042500003D01249206888420CD12068806800F0A1
:104260000707062F0CD02068006840F00100216885
:10427000086005E02068006840F0010021680860DF
:10428000304673E700000140000400400008004091
:10429000000C0040000401400040014000180040B4
:1042A00070B504460D46002635B1042D0BD0082DFF
:1042B00010D00C2D1CD114E02068C06820F0020042
:1042C0002168C86016E02068C06820F004002168FA
:1042D000C8600FE02068C06820F008002168C8604E
:1042E00008E02068C06820F010002168C86001E084
:1042F000012600BF00BF002E3FD1002229462068C2
:1043000003F05AFB00BF2068006A41F21111084017
:1043100050B92068006A8910084028B920680068F0
:1043200020F001002168086000BF1DB9012084F859
:104330003E000EE0042D03D101213F20015508E08D
:10434000082D03D101214020015502E00121412027
:1043500001551DB9012084F842000EE0042D03D15F
:1043600001214320015508E0082D03D101214420FB
:10437000015502E0012145200155304670BD10B5C0
:10438000044620680069C0F34000D8B12068C068C6
:10439000C0F34000B0B16FF0020021680861012055
:1043A00020772068806900F0030018B12046FFF7ED
:1043B00093FD05E0204600F02BF9204600F0DFF9E0
:1043C0000020207720680069C0F38000D8B1206801
:1043D000C068C0F38000B0B16FF0040021680861CC
:1043E000022020772068806900F4407018B12046D0
:1043F000FFF772FD05E0204600F00AF9204600F0C4
:10440000BEF90020207720680069C0F3C000D8B151
:104410002068C068C0F3C000B0B16FF00800216828
:104420000861042020772068C06900F0030018B1FB
:104430002046FFF751FD05E0204600F0E9F8204650
:1044400000F09DF90020207720680069C0F300107B
:10445000D8B12068C068C0F30010B0B16FF0100090
:1044600021680861082020772068C06900F4407046
:1044700018B12046FFF730FD05E0204600F0C8F8EF
:10448000204600F07CF9002020772068006900F0C9
:10449000010058B12068C06800F0010030B16FF031
:1044A000010021680861204600F0F0F920680069E9
:1044B000C0F3C01058B12068C068C0F3C01030B15C
:1044C0006FF08000216808612046FFF7D0FA20686D
:1044D0000069C0F3801058B12068C068C0F3801034
:1044E00030B16FF0400021680861204600F0DAF931
:1044F00020680069C0F3401058B12068C068C0F35C
:10450000401030B16FF02000216808612046FFF7AD
:10451000AFFA10BD10B586B00446142101A8FBF710
:10452000FBFE3449206888421DD100BF0020009066
:104530003148006840F010002F49086008460068C4
:1045400000F01000009000BF00BF4815019002204D
:1045500002900020039004900120059001A92748B3
:10456000FDF72AFF44E02649206888421ED100BF9B
:10457000002000902048006840F008001E490860B4
:104580000846006800F00800009000BF00BF4FF42C
:1045900080400190022002900020039004900220AD
:1045A000059001A91748FDF707FF21E0164920688B
:1045B00088421DD100BF002000900F48006840F0E5
:1045C00020000D4908600846006800F020000090B7
:1045D00000BF00BF40200190022002900120039004
:1045E000022004900320059001A90848FDF7E4FE8D
:1045F00006B010BD000001403038024000100240FB
:1046000000080040000C0240004401400014024039
:1046100070472DE9F04104460D461646002700BFBD
:1046200094F83C00012802D10220BDE8F08101206D
:1046300084F83C0000BF36B1042E1BD0082E31D0C8
:104640000C2E5ED145E02946206803F0DBF9206896
:10465000806940F00800216888612068806920F046
:1046600004002168886120688069296908432168FD
:10467000886148E02946206803F0FCF920688069D9
:1046800040F40060216888612068806920F48060BF
:104690002168886120688069296940EA01202168D1
:1046A000886130E02946206803F022FA2068C0695A
:1046B00040F008002168C8612068C06920F004004B
:1046C0002168C8612068C069296908432168C861F8
:1046D00019E02946206803F047FA2068C06940F4D1
:1046E00000602168C8612068C06920F4806021688A
:1046F000C8612068C069296940EA01202168C86151
:1047000001E0012700BF00BF00BF002084F83C008B
:1047100000BF384689E710B504460CB9012010BD2A
:1047200094F83D0028B9002084F83C00204600F0B1
:1047300025F8022084F83D00211D206803F0D0F800
:10474000012084F8460000BF84F83E0001213F208C
:104750000155402001554120015500BF00BF0120F7
:1047600084F842004320015544200155452001555D
:1047700000BF012084F83D000020D0E7704770475B
:1047800070B504460D4615B994F83E000BE0042DB3
:1047900002D13F20005D06E0082D02D14020005DDF
:1047A00001E04120005D012801D0012070BD1DB94C
:1047B000022084F83E000EE0042D03D102213F20A8
:1047C000015508E0082D03D102214020015502E0E7
:1047D00002214120015501222946206803F0ECF80E
:1047E00023492068884203D022492068884201D1A9
:1047F000012000E0002028B12068406C40F4004017
:10480000216848641A49206888421BD02068B0F1AA
:10481000804F17D018492068884213D01749206864
:1048200088420FD01649206888420BD01149206871
:10483000884207D013492068884203D01249206873
:1048400088420CD12068806800F00706062E0CD044
:104850002068006840F001002168086005E02068D9
:10486000006840F001002168086000209EE7000019
:104870000000014000040140000400400008004026
:10488000000C0040004001400018004010B50446F4
:1048900003492068884201D1FEF74EFA10BD00009E
:1048A000001000407047704770B50446002520682E
:1048B0004069C0F3C01594F83D00212817D1B5B167
:1048C00000BF00BF2168143151E8001F21F08000B3
:1048D0002168143141E80002002AF3D100BF606B67
:1048E00010B1606BFDF7D3FA204603F00EFB206891
:1048F0004069C0F3801594F83E00222817D1B5B165
:1049000000BF00BF2168143151E8001F21F04000B2
:104910002168143141E80002002AF3D100BFA06BE6
:1049200010B1A06BFDF7B3FA204603F0A8FA0020FF
:1049300070BD70472DE9F84F04462068056820686F
:10494000C668206847694FF00009CA4605F00F099C
:10495000B9F1000F0AD105F0200038B106F02000AF
:1049600020B1204603F0E4FABDE8F88FB9F1000F5A
:104970007CD007F0010018B906F49070002875D0BB
:1049800005F0010030B106F4807018B1206C40F0E1
:104990000100206405F0040030B107F0010018B1F7
:1049A000206C40F00200206405F0020030B107F0F6
:1049B000010018B1206C40F00400206405F00800EC
:1049C00048B106F0200010B907F0010018B1206CC2
:1049D00040F008002064206C002846D005F020003C
:1049E00028B106F0200010B1204603F0A1FA20689B
:1049F0004069C0F3801A206C00F0080010B9BAF1C9
:104A0000000F2DD0204603F03AFA2068406900F0EC
:104A10004000402820D100BF00BF2168143151E878
:104A2000001F21F040002168143141E80002002AF3
:104A3000F3D100BFA06B50B17548A16B0865A06BA6
:104A4000FDF77BFA88B1A06B016D88470DE0204629
:104A5000FFF76FFF09E009E02046FFF76AFF04E077
:104A60002046FFF766FF002020647DE7206B0128C9
:104A700076D105F01000002872D006F01000002852
:104A8000FAD000BF002000902068006800902068E5
:104A90004068009000BF00BF2068406900F04000FF
:104AA00040285ED1A06B006840681FFA80F8B8F11A
:104AB000000F54D0A08D404551DDA4F82E80A06B8E
:104AC000C069B0F5807F43D000BF00BF21680C31C2
:104AD00051E8001F21F4807021680C3141E8000288
:104AE000002AF3D100BF00BF00BF2168143151E894
:104AF000001F21F001002168143141E80002002A62
:104B0000F3D100BF00BF00BF2168143151E8001F7E
:104B100021F040002168143141E80002002AF3D15D
:104B200000BF202084F83E000020206300BF00BFAB
:104B300021680C3151E8001F21F0100021680C3170
:104B400041E80002002AF3D100BFA06BFDF79FF9F6
:104B5000A08DE28D801A81B22046FFF7A4FE03E704
:104B600040E0A08DE18D401A1FFA80F8E08DC0B3BF
:104B7000B8F1000F35D000BF00BF21680C3151E8FB
:104B8000001F21F4907021680C3141E80002002AD6
:104B9000F3D100BF00BF00BF2168143151E8001FEE
:104BA00021F001002168143141E80002002AF3D10C
:104BB00000BF202084F83E000020206300BF00BF1B
:104BC00021680C3151E8001F21F0100021680C31E0
:104BD00041E80002002AF3D100BF41462046FFF71A
:104BE00062FEC1E605F0800030B106F0800018B129
:104BF000204603F097FBB7E605F0400030B106F021
:104C0000400018B1204603F070F9ADE600BFABE6F6
:104C10004B7D000838B50446154800680068C0F3AD
:104C2000001020B300BF0020009011480068006809
:104C300000900F4800684068009000BF00BF0C481B
:104C4000FFF732FE0B4800684068C0F132001928B7
:104C500004D1094801F0C8FD08490870322005490F
:104C60000968486032220449014800F053F938BD10
:104C7000841D00200C1E0020602B002064000020FA
:104C800010B504460CB9012010BDA06900B100E0C8
:104C900000BF94F83D0028B9002084F83C0020466D
:104CA00000F028F8242084F83D002068C06820F433
:104CB00000502168C860204603F0B6F920680069FA
:104CC00020F49040216808612068406920F02A00A3
:104CD000216848612068C06840F400502168C860BD
:104CE00000202064202084F83D0084F83E0000204D
:104CF000CAE7000010B586B00446142101A8FBF7EE
:104D00000BFB7A492068884256D100BF00200090F2
:104D10007748006840F01000754908600846006850
:104D200000F01000009000BF00BF00BF0020009006
:104D30006F481438006840F002006D49143908606B
:104D40000846006800F00200009000BF00BF00BFEE
:104D5000002000900846006840F001000860084606
:104D6000006800F00100009000BF00BF80200190AB
:104D70000220029000200390032004900720059059
:104D800001A95C48FDF718FB4FF400700190022068
:104D9000029000200390032004900720059001A9B1
:104DA0005548FDF709FB002205212520FEF782F872
:104DB0002520FEF76FF896E05049206888425DD1C3
:104DC00000BF002000904A48001F006840F4802087
:104DD0004749091F08600846006800F480200090D9
:104DE00000BF00BF00BF0020009041481438006899
:104DF00040F004003E49143908600846006800F09D
:104E00000400009000BF00BF4FF4406001900220FA
:104E1000029000200390032004900720059001A930
:104E20003748FDF7C9FA3748374908604FF0006046
:104E30004860002134488160C1604FF480610161A5
:104E40000021416181614FF48071C1614FF44031B3
:104E5000016200214162FDF7A5F908B1FCF76EFA85
:104E600000BF2948A063846300BF002205212720DA
:104E7000FEF720F82720FEF70DF834E023492068DC
:104E8000884230D100BF002000901948006840F0EF
:104E90002000174908600846006800F020000090D4
:104EA00000BF00BF00BF0020009011481438006808
:104EB00040F040000E49143908600846006800F0D0
:104EC0004000009000BF00BF4FF4844001900220DA
:104ED000029000200390032004900820059001A96F
:104EE0000B48FDF769FA06B010BD00000010014044
:104EF00044380240000402400000024000480040E4
:104F000000080240286002400C1E002000140140EE
:104F10000018024070B504460D46164694F83E004F
:104F2000202816D105B10EB9012070BD00BF94F83C
:104F30003C00012801D10220F7E7012084F83C0061
:104F400000BF0020206332462946204603F082F944
:104F5000EBE70220E9E7704770472DE9F84F044678
:104F60000E46174699464FF0000A94F83D00202857
:104F70005AD106B117B90120BDE8F88F00BF94F8E7
:104F80003C00012801D10220F6E7012084F83C0012
:104F900000BF00202064212084F83D00FDF716FBAF
:104FA0008246A784E784A068B0F5805F04D12069B9
:104FB00010B90025B04602E035464FF0000800BFAA
:104FC000002084F83C0000BF1BE0534600228021F3
:104FD0002046CDF8009003F0D5F908B10320CBE7C7
:104FE00045B9B8F80000C0F308002168486008F12E
:104FF000020803E02878216848606D1CE08C401EA0
:10500000E084E08C0028E0D1534600224021204675
:10501000CDF8009003F0B6F908B10320ACE72020EA
:1050200084F83D000020A7E70220A5E7704700BFF5
:10503000FEE7014608684069C0F38020B0B16FF414
:1050400080600A68506100200863202081F83D00DC
:10505000002081F83E00086C40F00400086400BFA6
:10506000002081F83C0000BF012070470020FCE7D1
:105070002DE9F84304460F4615469946DDE90886B2
:105080002068006840F4806021680860206800683B
:1050900040F4807021680860434600224FF00111FF
:1050A0002046009600F032F960B12068006800F4F4
:1050B0008070B0F5807F02D14FF40070206403202F
:1050C000BDE8F88307F0FE002168086133464246D8
:1050D0003E49204600F05DF908B10120F0E700BF2D
:1050E000002000902068406900902068806900904E
:1050F00000BF00BF32464146204600F0ECF950B1F7
:10510000206C042805D12068006840F400702168F4
:1051100008600120D4E7B9F1010F03D1E8B221689A
:10512000086117E0C5F3072021680861324641464F
:10513000204600F0D0F950B1206C042805D1206839
:10514000006840F40070216808600120B8E7E8B208
:105150002168086132464146204600F0BCF950B152
:10516000206C042805D12068006840F40070216894
:1051700008600120A4E72068006840F4807021687E
:105180000860434600224FF001112046009600F0CF
:10519000BDF858B12068006800F48070B0F5807FD9
:1051A00002D14FF400702064032089E7F8B240F088
:1051B000010021680861334642460449204600F058
:1051C000E8F808B101207BE7002079E70200010040
:1051D0002DE9F8430446884615469946DDE90867F7
:1051E0002068006840F4807021680860334600221F
:1051F0004FF001112046009700F088F860B1206858
:10520000006800F48070B0F5807F02D14FF4007028
:1052100020640320BDE8F88308F0FE0021680861DF
:105220003B4632462149204600F0B3F808B1012040
:10523000F0E700BF002000902068406900902068DF
:105240008069009000BF00BF3A463146204600F01A
:1052500042F950B1206C042805D12068006840F460
:105260000070216808600120D4E7B9F1010F03D173
:10527000E8B22168086117E0C5F3072021680861DA
:105280003A463146204600F026F950B1206C0428F9
:1052900005D12068006840F4007021680860012092
:1052A000B8E7E8B2216808610020B3E70200010016
:1052B00070B504460D46164620E02046FFF7B9FEBD
:1052C00008B1012070BD681CC0B1FDF77FF9801BDB
:1052D000A84200D895B900202063202084F83D0022
:1052E000002084F83E00206C40F02000206400BFC5
:1052F000002084F83C0000BF0120E3E720684069FB
:10530000C0F380000028D8D00020DBE72DE9F04171
:1053100004460D4617461E46DDF818801CE0701C3A
:10532000D0B1FDF753F9A0EB0800B04200D89EB908
:1053300000202063202084F83D00002084F83E00F7
:10534000206C40F02000206400BF002084F83C0066
:1053500000BF0120BDE8F081C5F3074001280AD154
:1053600020684069A9B20840A9B2884201D1012051
:105370000BE0002009E020688069A9B20840A9B2CA
:10538000884201D1012000E00020B842C7D00020AF
:10539000E0E72DE9F04104460D4616461F463DE084
:1053A00020684069C0F38020E8B12068006840F4BC
:1053B0000070216808606FF48060216848610020F7
:1053C0002063202084F83D00002084F83E00206CFB
:1053D00040F00400206400BF002084F83C0000BFBF
:1053E0000120BDE8F081701CC0B1FDF7EFF8C01BD3
:1053F000B04200D896B900202063202084F83D00F8
:10540000002084F83E00206C40F02000206400BFA3
:10541000002084F83C0000BF0120E2E7C5F307400C
:1054200001280AD120684069A9B20840A9B288427F
:1054300001D101200BE0002009E020688069A9B2B9
:105440000840A9B2884201D1012000E000200028D4
:10545000A6D00020C5E770B504460D46164632E0DA
:1054600020684069C0F30010A0B16FF010002168FF
:10547000486100202063202084F83D00002084F84B
:105480003E00206C206400BF002084F83C0000BF78
:10549000012070BDFDF79AF8801BA84200D895B98D
:1054A00000202063202084F83D00002084F83E0086
:1054B000206C40F02000206400BF002084F83C00F5
:1054C00000BF0120E5E720684069C0F38010002894
:1054D000C6D00020DDE770B504460D46164620E034
:1054E0002046FFF7A6FD08B1012070BD681CC0B1C1
:1054F000FDF76CF8801BA84200D895B90020206306
:10550000202084F83D00002084F83E00206C40F00C
:105510002000206400BF002084F83C0000BF012070
:10552000E3E720684069C0F3C0100028D8D000200D
:10553000DBE7000010B52DED028BB0EE408ADFED09
:10554000100AB0EE480A0F4801F094F80D4890EDAB
:105550000B0AB5EEC00AF1EE10FA03D29FED0A0A6B
:1055600080ED0B0A074890ED0B0ABCEEC00A10EE66
:10557000100A84B2054800684463BDEC028B10BD7C
:10558000000020421C27002000000000F818002026
:1055900070B504460D461646434890ED001AD0ED0E
:1055A000001A21EE211A4148D0ED001A90ED002A90
:1055B00001EE821AF7EE001AB0EE002A42EE411A0E
:1055C000F0EE610A3A4890ED001A3748D0ED001A23
:1055D00021EE211A3548D0ED001A364890ED002A08
:1055E00001EE821AF0EE001A21EE211AB0EE410A05
:1055F00003F03EFADFED300A20EE200A84ED000AC7
:105600002B48D0ED000A294890ED001A60EE810A7F
:10561000254890ED001A2748D0ED001A41EE610AA6
:10562000B0EE001A60EE810AB0EE600A03F08AF96B
:10563000DFED210A20EE200A85ED000A1B4890EDDF
:10564000001AD0ED001A21EE211A1A48D0ED001AE6
:1056500090ED002A01EE821AF7EE001AB0EE002A51
:1056600042EE411AF0EE610A114890ED001A11481D
:10567000D0ED001A21EE211A0B48D0ED001A0B488C
:1056800090ED002A01EE821AF0EE001A21EE211AA6
:10569000B0EE410A03F0ECF9DFED070A20EE200A34
:1056A00086ED000A70BD00009C010020A0010020D2
:1056B00098010020A40100203333654210B5002476
:1056C000002240211148FCF77BFF3220FCF72AFE24
:1056D000012240210D48FCF773FF3220FCF722FE27
:1056E000002000F05BF80446102C01D0012010BD12
:1056F0000B210A2000F07AF808210B2000F076F840
:105700000921412000F072F80020F0E70018024063
:1057100010B52DED028B82B00446002008EE100A71
:1057200006226946032000F04FF89DF800009DF81E
:10573000011040EA012000B208EE100AB8EEC80AD3
:10574000DFED150A20EE200A84ED000A9DF8020024
:105750009DF8031040EA012000B208EE100AB8EEEE
:10576000C80ADFED0D0A20EE200A84ED010A9DF83B
:1057700004009DF8051040EA012000B208EE100A6E
:10578000B8EEC80ADFED040A20EE200A84ED020A12
:1057900002B0BDEC028B10BD9A99993E1FB504462C
:1057A000002003900A20012103AA0B46CDE9002125
:1057B000029022461C210348FCF7F6FF9DF80C00DE
:1057C00004B010BD740F0020FEB504460D46164609
:1057D0000A20012322461C21CDE9005602900248EE
:1057E000FCF7E2FFFEBD0000740F002013B584B08B
:1057F00004460A20012105AA0B46CDE900210290AA
:1058000022461C210248FDF749F906B010BD0000F0
:10581000740F00201FB500200090019002900390AB
:105820001548164908604FF480304860002113483D
:1058300081600161017680F82010C16210498162A7
:105840000021C1600121C161002180F830100121D7
:105850004161FBF741FE08B1FBF770FD112000909C
:10586000012001900720029069460448FBF76AFD79
:1058700008B1FBF763FD1FBD002001406806002052
:105880000100000F1FB500200090019002900390CE
:105890001548164908604FF48030486000211348CD
:1058A00081600161017680F82010C1621049816237
:1058B0000021C1600121C161002180F83010012167
:1058C0004161FBF709FE08B1FBF738FD08200090A5
:1058D000012001900720029069460448FBF732FD41
:1058E00008B1FBF72BFD1FBD00220140B0060020D0
:1058F0000100000F10B50E480E49086003204860F3
:1059000000210C488160C1604FF4102101614FF407
:10591000001141610021017641768176C1760177DF
:105920004177FCF787F908B1FBF708FD10BD0000CF
:1059300000640040F80A002008B500BF0020009075
:105940000A48006840F400100849086008460068EA
:1059500000F40010009000BF00BF002205210C20C1
:10596000FDF7A8FA0C20FDF795FA08BD3038024083
:1059700010B5144A0021144804F0F8F913490860DE
:10598000134A0021134804F0F1F913490860134A3F
:105990000021134804F0EAF912490860124A002174
:1059A000124804F0E3F912490860124A0021124833
:1059B00004F0DCF911490860114804F01AF91149A2
:1059C000086010BDFCBE0008459B000800000020D8
:1059D00020BF0008819700080400002044BF000891
:1059E000599A00080800002068BF000881B000082C
:1059F0000C0000208CBF00084DA8000810000020FB
:105A0000B0BF00081400002000B587B0142102A820
:105A1000FAF782FC00BF002001908348006840F044
:105A20004000814908600846006800F0400001908D
:105A300000BF00BF00BF002001900846006840F092
:105A4000020008600846006800F00200019000BFF4
:105A500000BF00BF002001900846006840F0010030
:105A600008600846006800F00100019000BF00BF18
:105A700000BF002001900846006840F00800086060
:105A80000846006800F00800019000BF00BF00BF9A
:105A9000002001900846006840F0040008600846B5
:105AA000006800F00400019000BF00BF00BF0020AC
:105AB00001900846006840F480700860084600685D
:105AC00000F48070019000BF00BF00BF0020019073
:105AD0000846006840F0200008600846006800F0B2
