:020000040800F2
:10000000B85100200D030008A3210008D11E0008EC
:10001000A12100086D0700088D25000800000000E0
:100020000000000000000000000000004D02000879
:10003000F907000800000000A9020008A521000837
:1000400027030008270300082703000827030008E8
:1000500027030008270300082703000827030008D8
:1000600027030008270300082703000827030008C8
:1000700027030008270300082703000827030008B8
:1000800027030008270300082703000827030008A8
:100090002703000827030008270300082703000898
:1000A0002703000827030008270300082703000888
:1000B0002703000827030008270300082703000878
:1000C0002703000827030008270300082703000868
:1000D00027030008812500082703000827030008DC
:1000E0002703000827030008270300082703000848
:1000F0002703000827030008270300082703000838
:100100002703000827030008270300082703000827
:1001100027030008270300087122000827030008AE
:1001200027030008270300087107000827030008B9
:1001300027030008270300082703000827030008F7
:1001400027030008270300082703000827030008E7
:1001500027030008270300082703000827030008D7
:1001600027030008270300082703000827030008C7
:1001700027030008270300082703000800000000E9
:1001800027030008270300082703000827030008A7
:100190002703000827030008270300082703000897
:1001A00000000000000000002703000800F002F833
:1001B00000F03CF80AA090E8000C82448344AAF1C5
:1001C0000107DA4501D100F031F8AFF2090EBAE8C3
:1001D0000F0013F0010F18BFFB1A43F0010318477B
:1001E000243C0000443C0000103A24BF78C878C189
:1001F000FAD8520724BF30C830C144BF04680C602D
:10020000704700000023002400250026103A28BF74
:1002100078C1FBD8520728BF30C148BF0B60704778
:100220001FB503F0C3FD1FBD10B510BD00F0D0F920
:100230001146FFF7F5FF02F0BAF900F0EEF903B44A
:10024000FFF7F2FF03BC00F0F5F900002C4B196832
:100250000868B0E8F04F80F30988BFF36F8F4FF064
:10026000000080F311887047000000000848006813
:10027000006880F308884FF0000080F3148862B6AD
:1002800061B6BFF34F8FBFF36F8F00DF00BF00BFBA
:1002900008ED00E0DFF80C00016841F47001016036
:1002A000704700BF88ED00E0EFF30980BFF36F8F68
:1002B000134B1A681EF0100F08BF20ED108A20E9BA
:1002C000F04F106009B44FF0500080F31188BFF375
:1002D0004F8FBFF36F8F03F03BF84FF0000080F3B8
:1002E000118809BC19680868B0E8F04F1EF0100FBB
:1002F00008BFB0EC108A80F30988BFF36F8F704796
:1003000014000020EFF30580704700000948804783
:1003100009480047FEE7FEE7FEE7FEE7FEE7FEE7E7
:10032000FEE7FEE7FEE7FEE704480549054A064BFF
:100330007047000061220008AD010008B84B0020A2
:10034000B8510020B84D0020B84D002053EA020CEF
:1003500000F069802DE9F04B4FF00006002B1FBF25
:10036000B3FA83F503FA05F424FA05F65E4012BFEA
:100370001643B2FA82F502FA05F4C5F120051EBF54
:1003800022FA05FC44EA0C04203556EA044C4FEAF4
:10039000144418BF641C4FF000084FF0000990424D
:1003A00071EB030C39D3002919BFB1FA81F701FAB7
:1003B00007F6B0FA80F700FA07F6C7F120071EBF6C
:1003C00020FA07FC46EA0C062037B6FBF4FCA7EB44
:1003D0000507103F07F01F0BCBF120060CFA0BFBB3
:1003E0002CFA06F644BFB3460026202FA4BF5E4673
:1003F0004FF0000B5BEA060C08BF4FF0010B19EB46
:100400000B09ABFB027C48EB0608C01B06FB02CCC9
:100410000BFB03CC71EB0C01C1E70B4602464146D6
:100420004846BDE8F08B13B54FF000004FF00001D7
:10043000AFF30080BDE81C407047032A40F23080D3
:1004400010F0030C00F0158011F8013BBCF1020F15
:10045000624498BF11F801CB00F8013B38BF11F896
:10046000013BA2F1040298BF00F801CB38BF00F8AD
:10047000013B11F0030300F05780083AC0F00880F8
:1004800051F8043B083A51F804CBA0E80810F5E70E
:10049000121D5CBF51F8043B40F8043BAFF30080F1
:1004A000D20724BF11F8013B11F801CB48BF11F866
:1004B000012B24BF00F8013B00F801CB48BF00F836
:1004C000012B704702F0FF0343EA032242EA024293
:1004D00000F05EB84FF0000200B513469446964611
:1004E000203922BFA0E80C50A0E80C50B1F1200147
:1004F000BFF4F7AF090728BFA0E80C5048BF0CC0F5
:100500005DF804EB890028BF40F8042B08BF704752
:1005100048BF20F8022B11F0804F18BF00F8012BC4
:10052000704770477047704710B5203AC0F00B8095
:10053000B1E81850203AA0E81850B1E81850A0E8E7
:100540001850BFF4F5AF5FEA027C24BFB1E8185041
:10055000A0E8185044BF18C918C0BDE810405FEAB1
:10056000827C24BF51F8043B40F8043B08BF70472D
:10057000D20728BF31F8023B48BF11F8012B28BF32
:1005800020F8023B48BF00F8012B70474FF00002F3
:100590000429C0F0128010F0030C3FF49DAFCCF1A1
:1005A000040CBCF1020F18BF00F8012BA8BF20F803
:1005B000022BA1EB0C01FFF78FBF5FEAC17C24BFC8
:1005C00000F8012B00F8012B48BF00F8012B704701
:1005D000754600F02BF8AE4605006946534620F0FC
:1005E0000700854618B020B5FFF79EFEBDE8204005
:1005F0004FF000064FF000074FF000084FF0000BDF
:1006000021F00701AC46ACE8C009ACE8C009ACE891
:10061000C009ACE8C0098D46704710B50446AFF379
:1006200000802046BDE81040FFF709BE0048704733
:10063000584B002001491820ABBEFEE726000200FF
:1006400070470000464910B54A6822F440324A60BB
:100650004A6843681A434A6001684A6822F4807213
:100660004A6001684A68036942EA03224A600168F5
:100670004A6822F040724A6001684A6883681A43F7
:100680004A6001688A6822F400628A6001688A68A8
:10069000C3681A438A60816A6FF07062D142016850
:1006A0008A6822F070628A6001688A680CD0836A66
:1006B0001A438A6001688A6822F040528A600168A1
:1006C0008A68C36A1A4301E022F040528A600168D6
:1006D0008A6822F002028A6001688A68037E42EA20
:1006E00043028A6090F82010002901684A680FD000
:1006F00042F400624A6001684A6822F460424A603B
:1007000001684A68174C436A04EB43331A4301E01B
:1007100022F400624A600168CA6A22F47002CA6266
:100720000168CA6A838B104C04EB03531A43CA62F4
:1007300001688A6822F400728A6001688A6890F809
:10074000303042EA43228A6001688A6822F480627B
:100750008A6001688A68406942EA8020886010BD2A
:100760000023014000E0FFFF0000F0FFFEE7000073
:10077000014800F07DBA0000DC0100200168182368
:10078000CAB2103AB2FBF3F2054B6FF30901032A28
:100790009B5CC36500D9091D816508467047000050
:1007A000DC3D000810B5014600208B698A6A4FF0D5
:1007B000C07453B1B3F5005F15D072B1012A0CD0EB
:1007C000022A0AD0032A09D104E01AB1012A06D06C
:1007D000022A03D1C96AC90100D5012010BDC96A26
:1007E000A142FAD010BD002AF7D0012AF2D0022A85
:1007F000F3D0032AF3D010BD704772B6FEE70000B5
:1008000078B50024009490F83C20012A19D00122E8
:1008100080F83C200A6807230568092A13D9EE6886
:100820000A3A02EB420293409E43EE600B788A68DC
:100830000A3B03EB43039A400368DD682A43DA600E
:1008400010E0022078BD2E6902EB420293409E43E5
:100850002E610B788A6803EB43039A4003681D6995
:100860002A431A614A681F23072A13D205686E6B50
:10087000521E02EB820293409E436E630A8893B23B
:100880000A79521E02EB820293400268556B2B4399
:10089000536327E005680D2A12D22E6BD21F02EB9C
:1008A000820293409E432E630B790A88DB1F92B22B
:1008B00003EB83039A4003681D6B2A431A6311E01C
:1008C000EE6A0D3A02EB820293409E43EE620B7990
:1008D0000A880D3B92B203EB83039A400368DD6AFA
:1008E0002A43DA621B4B0568194A9D420AD10D68FA
:1008F000122D07D1556825F400055560556845F45B
:100900008005556005689D421DD1134D0B68AB42B3
:1009100001D0112B17D1536823F48003536053681F
:1009200043F4000353600968A9420CD10B490C4AF7
:100930000968B1FBF2F101EB8101490000E0491EB9
:1009400000910029FBD180F83C40002078BD0000D8
:100950000023014000200140120000101000002080
:1009600040420F0070B504004FF0000503D0206C2A
:10097000002610B107E0012070BD204600F01CF8F1
:10098000666484F83C60206CC00610D4206C20F4AF
:10099000885040F0020020642046FFF753FE666452
:1009A000206C20F0020040F00100206400E00125EE
:1009B00084F83C60284670BD10B586B0044614210A
:1009C0006846FFF787FD174B2268002116489A42B8
:1009D00009D1016841F480710160006800F4807001
:1009E000059006B010BD114B9A42FAD1026842F44C
:1009F00080620260006800F4806005900A48143844
:100A0000026842F020020260006800F020000590B9
:100A1000102000900320CDE901016946044800F050
:100A200061FADEE700200140443802400022014024
:100A30000014024070B5040003D094F8200010B1F7
:100A400004E0012070BD204600F082F820680168B3
:100A500041F00101016000F06DFB0546052604E050
:100A600000F068FB401B0A2811D820684068C007C6
:100A7000F6D02068016821F00201016000F05AFB05
:100A800005460BE000F056FB401B0A2806D9606AB9
:100A900040F40030606284F82060D2E7206840684B
:100AA0008007EFD4207E0128206801683DD021F026
:100AB00080010160607E01282068016838D021F043
:100AC00040010160A07E01282068016833D021F038
:100AD00020010160E07E0128206801682ED041F0ED
:100AE00010010160207F01282068016829D021F0D1
:100AF00008010160607F01282068016824D021F08E
:100B000004010160D4E902010843D4E9041211434D
:100B100008436168491E08432168C861002060627B
:100B2000012084F82000002070BD41F08001C0E762
:100B300041F04001C5E741F02001CAE721F0100172
:100B4000CFE741F00801D4E741F00401D9E7000004
:100B500010B586B0044614216846FFF7BBFC134964
:100B6000206888421FD112480021026842F00072BA
:100B70000260006800F0007005900D4810380268AF
:100B800042F0080202600068022200F008000590AE
:100B90000320CDE90210CDE9000209200490694646
:100BA000044800F09FF906B010BD0000006400404A
:100BB00040380240000C02402DE9F0410446876DA8
:100BC00000F0B8FA064694F835000025022806D051
:100BD0008020606584F834500120BDE8F0812068F1
:100BE000016821F0160101602068416921F080014F
:100BF0004161206C08B9A06C20B12068016821F027
:100C0000080101602068016821F0010101600CE029
:100C100000F090FA801B052807D92020606503208A
:100C200084F8350084F83450D7E720680068C0079E
:100C3000EED194F85C103F208840B860012084F821
:100C4000350084F834500020C7E790F835100229A9
:100C500003D08021416501207047052180F83510BF
:100C60000068016821F00101016000207047000068
:100C70002DE9F84304464FF00009CDF80090634891
:100C80004FF41651A56D0068B0FBF1F72E6894F88B
:100C90005C10082000FA01F131420FD021680A6887
:100CA00052070BD50A6822F004020A6094F85C101F
:100CB0008840A860606D40F00100606594F85C10A9
:100CC0004FF0010808FA01F0304208D02168496964
:100CD000090604D5A860606D40F00200606594F8D4
:100CE0005C1004208840304208D0216809688907D8
:100CF00004D5A860606D40F00400606594F85C1055
:100D000010208840304218D021680968090714D59E
:100D1000A86020680168490304D50068000308D56D
:100D2000A16C07E00168C90503D4016821F008013E
:100D30000160216C09B12046884794F85C1020209E
:100D40008840304231D021680968C9062DD5A86095
:100D500094F8350005282068016806D0490347D576
:100D6000006800031DD4616C1CE021F016010160D5
:100D70002068416921F080014161206C08B9A06CB4
:100D800020B12068016821F00801016094F85C102E
:100D90003F208840A86084F8358084F83490216D25
:100DA0001FE0E16B09B120468847606D00282BD019
:100DB000606DC00714D0052084F8350020680168F4
:100DC00021F0010101600098401C0090B84203D856
:100DD00020680068C007F6D184F8358084F8349024
:100DE000E16C002910D001B02046BDE8F04308476F
:100DF0000168C905D5D4016821F01001016084F8AB
:100E0000358084F83490CCE7BDE8F88310000020EA
:100E10002DE9F041044600F08DF906465CB1022050
:100E200084F83500002584F834502068016821F0EA
:100E3000010101600DE00120BDE8F08100F07AF9C8
:100E4000801B052805D920206065032084F8350023
:100E5000F2E720680068C007F0D1226811682048D6
:100E60000140D4E901031843D4E90336334318435E
:100E700063691843A3691843E3691843236A184355
:100E80000843616A042903D1D4E90B1319430843C9
:100E9000106020684069666A20F0070130460E4302
:100EA000012704280CD1A06A0643E06A40B120461D
:100EB000FFF778FC20B14020606584F83570BAE710
:100EC000206846612046FFF759FC94F85C203F21DA
:100ED00091408160656584F835700020ACE70000C2
:100EE0003F8010F02DE9F84FDFF8F8A1002201242F
:100EF00003254FF00F090AF1040BAAF1040E00BFFD
:100F00000B6804FA02F63340B34270D10F7907F050
:100F10000307012F01D0022F16D187684FEA42083C
:100F200005FA08FC27EA0C07D1F80CC00CFA08FCFB
:100F30004CEA070CC0F808C04768B7430E79C6F3FF
:100F4000001696403E4346600E79F643B6070AD037
:100F5000C7684FEA420C05FA0CF6B7438E6806FAEA
:100F60000CF63E43C6600E7906F00306022E10D141
:100F7000D60800EB8608D8F8206057074FEAD76CF0
:100F800009FA0CF7BE430F6907FA0CF73743C8F8A4
:100F9000207006684FEA420C05FA0CF7BE430F7941
:100FA00007F0030707FA0CF7374307604E6816F49B
:100FB000403F1CD04C4E376847F480473760366856
:100FC00022F0030706F480460096484E07EB060C15
:100FD000DCF8086897073F0F09FA07F826EA0806C1
:100FE000DFF80C81404503D14FF0000841E072E08A
:100FF000DFF80081404502D14FF0010839E0DFF809
:10100000F880404502D14FF0020832E0DFF8EC8072
:10101000404502D14FF003082BE0DFF8E480404563
:1010200002D14FF0040824E0DFF8D880404502D117
:101030004FF005081DE0DFF8D080404502D14FF0A9
:10104000060816E0DFF8C480404502D14FF00708DB
:101050000FE0DFF8BC80404502D14FF0080808E0FF
:10106000DFF8B080404502D14FF0090801E04FF0B1
:101070000A0808FA07F848EA0608CCF80888DAF8F7
:1010800000605746D1F804C09E435FEACC2C00D5DF
:101090001E433E60DBF800605F46D1F804C09E430B
:1010A0005FEA8C2C00D51E433E60DEF80060774678
:1010B000D1F804C09E435FEA8C3C00D51E433E60DD
:1010C000084F083F3E68D1F804C09E435FEACC3C1D
:1010D00000D51E433E60521C102AFFF411AFBDE83C
:1010E000F88F0000083C01404438024000300140C5
:1010F000000002400004024000080240000C0240D0
:10110000001002400014024000180240001C02407F
:101110000020024000240240426921EA02030A4002
:1011200043EA0241816170470AB181617047090455
:10113000FBE70000014880687047000004000020C1
:1011400002488168027811448160704704000020E1
:101150000B4810B5016841F400710160016841F469
:1011600080610160016841F480710160032000F03A
:101170009FF80F2000F006F800F050F8002010BD96
:10118000003C024030B505461F4887B00024016886
:1011900041F010010160006806A900F01000009005
:1011A00001A800F069F90498A8B100F085F94000A1
:1011B0001649174AB0FBF1F11648491E026040F289
:1011C000E732C0E90324C0E90114846100F07EFB2A
:1011D000040003D015E000F06FF9E9E70D4800F0D6
:1011E000A3FB04000DD1362000F034F8102D07D2F7
:1011F00000222946362000F03BF80748056000E051
:10120000012407B0204630BD4038024040420F0064
:10121000001000403C020020080000200C4882B072
:10122000016841F480410160006800F48040009052
:101230000748001F016841F08051016000680022EA
:1012400000F0805000900F21901E02B000F010B806
:1012500044380240002809DB00F01F0201219140C0
:101260004009800000F1E020C0F800117047000044
:10127000F0B40E4B1B680C46C3F30223C3F1070501
:10128000042D00D90425191D072901D2002300E0EF
:10129000DB1E012606FA05F1491E214099409E40B9
:1012A000761E16403143F0BC01F071B90CED00E040
:1012B000064900F0070208684FF6FF03184040EAAD
:1012C0000220034A10430860704700000CED00E064
:1012D0000000FA052DE9F8431748016841F08051F4
:1012E00001600068154F00F08050012600903E64B8
:1012F000FFF720FF05464FF47A78114C05E000BF58
:10130000FFF718FF401B40450DD86068C003F7D5B4
:101310007E64FFF70FFF0546464607E0FFF70AFF2A
:10132000401BB04202D90320BDE8F8836068800307
:10133000F4D50020F8E700004038024000000E42DB
:10134000007000402DE9F0470E46050065D0DFF83B
:101350001481D8F80000F7B200F00F00B04207D2B5
:1013600088F80070D8F8000000F00F00B04254D1A7
:1013700028683D4C810712D5400703D5206840F40A
:10138000E05020602878000703D5206840F46040D2
:1013900020602068A96820F0F000084320602878C9
:1013A000C0072DD0304968680839012812D00228BA
:1013B00013D0032811D00968890700292DDA216884
:1013C00021F0030101432160FFF7B4FE814641F2A1
:1013D000883A0EE009688903EFE709688901ECE7BC
:1013E000FFF7A8FEA0EB0901514502D90320BDE893
:1013F000F0872068696800F00C00B0EB810FEFD136
:10140000D8F80010404601F00F01B14207D907702B
:10141000006800F00F00B04201D00120E7E7287813
:10142000400705D52068E96820F4E05008432060B3
:101430002878000706D52068296920F4604040EA32
:10144000C100206000F058F82168084AC1F3031178
:10145000515CC8400649086006480068FFF792FEE4
:101460000020C4E7003C024008380240E43D000888
:1014700010000020080000200F2202600C4A1368B0
:1014800003F003034360136803F0F0038360136801
:1014900003F4E053C36012684FF4E05303EAD2024E
:1014A00002610448006800F00F0008607047000007
:1014B00008380240003C02400448054900680968B9
:1014C000044AC1F38221515CC840704710000020DB
:1014D00008380240F43D00080448054900680968DE
:1014E000044AC1F34231515CC840704710000020EB
:1014F00008380240F43D0008154810B5006810F0A7
:101500000C02144813D01449042A0FD0082A0ED113
:101510000F4C241F2268236802F03F025B0207D5AC
:101520002068C0F38810A0FB010106E0084610BD4A
:101530002168C1F38811A1FB00010023FEF706FF1B
:101540002168C1F30141491C4900B0FBF1F010BD15
:10155000083802400024F400001BB7002DE9F84FC2
:1015600004006ED02078DFF84C93C007A9F1040581
:101570004AD009F104000168C1F38101012908D0B2
:101580000068C0F3810002280AD1D9F800004002A7
:1015900006D52868800337D560680028E1D033E09D
:1015A0006068B0F5803F10D0B0F5A02F286810D04B
:1015B00020F480302860286820F48020286060684B
:1015C000A8B1FFF7B7FD06460DE0286840F480306B
:1015D000F4E740F480202860F7E700BFFFF7AAFD9A
:1015E000801B642873D828688003F7D50CE0FFF7C8
:1015F000A1FD064605E000BFFFF79CFD801B6428A7
:10160000F0D828688003F7D42078DFF8AC82800710
:101610004FF0000A3ED5A748001D016811F00C0FDD
:1016200008D00068C0F3810002280BD1D9F800006F
:10163000400207D42868800716D5E068012800D149
:1016400012E033E1E068B8B10120C8F80000FFF70C
:1016500071FD064605E000BFFFF76CFD801B022808
:10166000C0D828688007F7D52868216920F0F800DD
:1016700040EAC10028600DE0C8F800A0FFF75AFD5D
:10168000064604E0FFF756FD801B02281FD8286895
:101690008007F7D42078000722D5864F87486169F4
:1016A000703771B101210160FFF744FD064604E087
:1016B000FFF740FD801B022809D838688007F7D55E
:1016C0000EE0C0F800A0FFF735FD064605E082E019
:1016D000FFF730FD801B02287DD838688007F7D4DB
:1016E0002078400768D5DFF8CCB100270BF13C0B20
:1016F000DBF80000C0000BD4DBF8001041F0805193
:10170000CBF80010DBF80000012700F080500090BB
:101710006B4E3068C00510D4306840F48070306083
:10172000FFF708FD009005E0FFF704FD0099401A5F
:10173000022850D83068C005F6D55E4EA0686C36D9
:1017400001280FD00528306810D020F0010030604B
:10175000306820F004003060A068B8B1FFF7EAFC00
:1017600000900FE0306840F00100F4E740F0040022
:101770003060F7E7FFF7DEFC0099411A41F288304C
:10178000814266D830688007F4D50EE0FFF7D2FCBE
:10179000009007E0FFF7CEFC0099411A41F2883033
:1017A000814256D830688007F4D42FB1DBF800109E
:1017B00021F08051CBF80010A069C8B33D49091D44
:1017C0000968C1F3810102294AD00228504607D096
:1017D000C8F8600000E03CE0FFF7ACFC04463BE0EA
:1017E0004746C8F86000FFF7A5FC064605E000BFC5
:1017F000FFF7A0FC801B02282BD828688001F7D4B3
:10180000D4E907010843A16A2E4A490802EB0141C5
:10181000626A41EA8211084394F82C1040EA01619F
:10182000C9F8001001203866FFF784FC044606E082
:101830003EE000BFFFF77EFC001B022809D82868A5
:101840008001F7D534E000BFFFF774FC001B0228CD
:1018500002D90320BDE8F88F28688001F4D427E07E
:101860000128F7D0D9F80000E26900F48001914224
:101870001CD1226A00F03F01914217D147F6C07196
:10188000626A0140B1EB821F10D1A26A4FF0FF33B0
:1018900000F4403103EB5202B1EB024F06D194F851
:1018A0002C1000F07060B0EB016F01D00120D1E787
:1018B0000020CFE70438024000004742800E474234
:1018C000007000400000FFFF7047704710B5040033
:1018D00003D094F83D0010B107E0012010BD0020B6
:1018E00084F83C00204600F01EF8022084F83D00F9
:1018F000211D206800F0C2FC012084F8460084F815
:101900003E0084F83F0084F8400084F8410084F8E9
:10191000420084F8430084F8440084F8450084F8C9
:101920003D00002010BD704790F83D10012901D006
:1019300001207047022180F83D100168CA6842F01A
:101940000102CA6000681149884214D0B0F1804F8A
:1019500011D00F4988420ED00E4988420BD00E4953
:10196000884208D00D49884205D00D49884202D0EE
:101970000C49884204D1816801F00701062903D08F
:10198000016841F001010160002070470000014042
:101990000004004000080040000C0040000401402A
:1019A000004001400018004070472DE9F041044616
:1019B0000068C66805694FF00007A90713D5B1078D
:1019C00011D5F91E01610120207720688069800708
:1019D000204602D0FFF7E8FF04E000F07EF8204642
:1019E00000F07CF82777680716D5700714D52168B2
:1019F0006FF004000861022020772068806910F4ED
:101A0000407F204602D0FFF7CFFF04E000F065F8EA
:101A1000204600F063F82777280715D5300713D53F
:101A200021686FF008000861042020772068C069F1
:101A30008007204602D0FFF7B7FF04E000F04DF822
:101A4000204600F04BF82777E80616D5F00614D5A7
:101A500021686FF010000861082020772068C069B5
:101A600010F4407F204602D0FFF79EFF04E000F014
:101A700034F8204600F032F82777E80708D0F0075E
:101A800006D021686FF001000861204600F028F8B8
:101A9000280608D5300606D521686FF08000086159
:101AA0002046FFF711FF680608D5700606D52168A5
:101AB0006FF040000861204600F01CF8A8060AD527
:101AC000B00608D521686FF0200008612046BDE807
:101AD000F041FFF7FABEBDE8F081704770470000A3
:101AE00000680349884201D1FFF72ABB7047000014
:101AF000001000407047704770470000F8B501685B
:101B000004460868CA684B6910F00F0F4FF00005D3
:101B100059D003F0010602F49077374365D0C1072E
:101B200005D0D10503D5616C41F001016164410725
:101B300005D5D90703D0616C41F0020161648107CA
:101B400005D5D90703D0616C41F004016164010738
:101B500007D502F02001314303D0616C41F0080148
:101B60006164616C00293AD0800604D5900602D5E4
:101B7000204600F01EFC20684069616CC0F38010B4
:101B8000090700D460B3204600F0ECFB20684069F0
:101B9000400621D52068143050E8001F21F0400194
:101BA00040E80012002AF5D1E06BA8B16E4901654A
:101BB000E06BFFF74AF8002811D0E06B016D01B02F
:101BC000BDE8F040084783060FD593060DD52046A3
:101BD000BDE8F84000F0EDBB2046FFF78DFFF8BDF3
:101BE0002046FFF789FF6564F8BD266B2023012E90
:101BF0007DD1C6067BD5D60679D5086848680090A1
:101C000048694FF00206400641D5E16B086840681C
:101C10000004000CE8D0A28D8242E5D9E085C869B5
:101C2000B0F5807F2DD020680C3050E8001F21F4E3
:101C3000807140E80012002AF5D12068143050E885
:101C4000001F21F0010140E80012002AF5D12068B0
:101C5000143050E8001F21F0400140E80012002A33
:101C6000F5D184F84230256320680C3050E8001F1D
:101C700021F0100140E80012002AF5D1E06BFEF7D8
:101C80009BFF6663A08DE18D401A81B22AE0A08D92
:101C9000E18D401A81B2E08D0028A5D00029A3D0A3
:101CA00022680C3252E8000F20F4907042E80007DE
:101CB000002FF5D12068143050E8002F22F00102E7
:101CC00040E80027002FF5D184F8423025632068D2
:101CD0000C3050E8002F22F0100240E80023002BC7
:101CE000F5D166632046FFF706FFF8BDFFE705065E
:101CF0002BD5150629D594F841002128F5D1A068E7
:101D0000B0F5805F01D12069B0B1206A411C216229
:101D1000216800784860E08C401E0004000CE084DC
:101D2000E3D12068C16821F08001C1602068C168EA
:101D300041F04001C160D8E7206A0088C0F3080084
:101D40004860206A801C2062E5E74006CDD5500639
:101D5000CBD5CA68204622F04002CA6084F84130E0
:101D600000F0B5F8C1E700005523000870B5040085
:101D700004D094F84100002510B106E0012070BDA8
:101D800084F84050204600F023F8242084F84100D5
:101D90002068C16821F40051C160204600F06AFB50
:101DA0002068016921F4904101612068416921F0B6
:101DB0002A0141612068C16841F40051C160656435
:101DC000202084F8410084F842006563002070BD43
:101DD000F0B587B0064614216846FEF77BFB344F0A
:101DE000306800253349022203230724B8423ED13C
:101DF00030481430076847F010070760006800F0AB
:101E000010000590086840F0020008600868694604
:101E100000F002000590C0208DE82500CDE90334D4
:101E20002548FFF75FF8264C244820604FF00060FB
:101E3000C4E901054014C4E9035080106561C4E998
:101E400006504FF44030C4E908052046FEF7E0FF95
:101E500008B1FEF7D2FCF463002205212520A66319
:101E6000FFF706FA2520FFF7F5F907B0F0BD154E8C
:101E7000B042FAD10F481030066846F4802606605A
:101E8000006800F480200590086840F008000860B1
:101E90000868694600F0080005904FF440708DE82E
:101EA0002500CDE903340848FFF71CF8DDE7000002
:101EB00000100140303802400004024040640240FB
:101EC000DC01002000480040000C024070477047D1
:101ED000FEE70000064D4FF480444FF47A76214629
:101EE0002846FFF719F9304600F07AFBF7E70000C3
:101EF000001402407FB50024154800940194029418
:101F00001249039401604FF48031C0E90114046167
:101F1000047680F820400F49C0E90A140125C56104
:101F2000C46080F830404561FEF71CFD08B1FEF743
:101F300064FC1120CDE90005694602940448FEF7CF
:101F40005FFC002801D0FEF758FC7FBD0020014057
:101F5000940000200100000F7FB500241548009474
:101F6000019402941249039401604FF48031C0E956
:101F700001140461047680F820400F49C0E90A1476
:101F80000125C561C46080F830404561FEF7EAFC78
:101F900008B1FEF732FC0E20CDE900056946029437
:101FA0000448FEF72DFC002801D0FEF726FC7FBD7B
:101FB00000220140DC0000200100000F0F4810B596
:101FC0000D4901600321416000214FF4102281601E
:101FD000C0E903124FF440124261017641768176E6
:101FE000C17601774177FEF725FD002803D0BDE8D3
:101FF0001040FEF702BC10BD006400402401002028
:10200000094808B5016841F48001016000680022B8
:1020100000F48000009005213A20FFF729F9BDE87F
:1020200008403A20FFF716B93038024010B5044A8C
:102030000021044800F010FB0349086010BD0000B7
:10204000B83D0008D51E0008000000202DE9F04131
:1020500086B014216846FEF73DFA2E480024016838
:1020600041F001010160016801F001010591016881
:1020700041F002010160016801F00201059101686F
:1020800041F008010160016801F008010591016853
:1020900041F080010160016801F080010591016853
:1020A00041F020010160016801F020010591016803
:1020B00041F0100101600068012200F01000164F8D
:1020C000D502059029463846FFF72EF80122DFF8A1
:1020D0004C80960331464046FFF726F80420CDE9B0
:1020E000000469460E480294FEF7FCFE00950125A7
:1020F000CDE90154694638460394FEF7F3FE009695
:10210000CDE90154694640460394FEF7EBFE06B064
:10211000BDE8F08130380240001002400014024057
:10212000000402400E4810B50C4901600D494160A1
:102130004FF48051816000214FF48062C0E90312A6
:102140000C22C0E90521C161FFF710FE002803D071
:10215000BDE81040FEF751BB10BD0000001001406B
:102160004C010020A08601000C4810B50A4901600E
:102170004FF4E1314160002181600C22C160C0E96F
:1021800004128161C161FFF7F1FD002803D0BDE8B1
:102190001040FEF732BB10BD004800409401002003
:1021A000FEE7FEE710B54FF0E020006901F048FCC3
:1021B000012803D0BDE8104001F076B910BD000041
:1021C00030B593B030216846FEF784F914210CA88D
:1021D000FEF780F920480025016841F08051016038
:1021E000006800F0805011901C48016841F44041A3
:1021F00001600068022400F440401190012000902A
:10220000000401908001CDE9064006200890B4202A
:10221000CDE9090404200B906846FFF79FF908B147
:1022200072B6FEE7FFF756F808B172B6FEE70CA9E2
:102230000F2081E831004FF4A0500F904FF48050F0
:10224000109005210CA8FFF77DF8002801D072B688
:10225000FEE713B030BD000040380240007000407F
:102260000248016841F470010160704788ED00E0A8
:102270000148FFF79ABB00003C020020F0B502685D
:10228000294C2A4D2A4E2B4F2B4B4FF0804CA0420D
:1022900009D0604507D0A84205D0B04203D0B8426B
:1022A00001D0984204D122F0700E4A6842EA0E0230
:1022B000A0421BD0604519D0A84217D0B04215D01B
:1022C000B84213D0984211D01C4DA8420ED01C4DDC
:1022D000A8420BD01B4DA84208D01B4DA84205D0E8
:1022E0001A4DA84202D01A4DA84203D122F44075DB
:1022F000CA682A434D6922F080022A4302608A6834
:10230000C2620A688262A04201D0984201D1096982
:102310000163012141610169C90703D0016921F00D
:1023200001010161F0BD0000000001400004004017
:1023300000080040000C0040000401400040014043
:10234000004401400048014000180040001C0040CB
:102350000020004010B5806B0021C185C184FFF7CB
:10236000CBFB10BD01680C3151E8002F22F49072B4
:1023700041E80023002BF5D10168143151E8002F0A
:1023800022F0010241E80023002BF5D1016B012965
:1023900009D101680C3151E8002F22F0100241E808
:1023A0000023002BF5D1202180F842100021016389
:1023B000704708B590F84210222901D0022008BDCC
:1023C00082684FF480539A4201D1016921B1816A38
:1023D0009A421BD04AB10AE00268816A5268C2F38D
:1023E00008020A80816A891C08E0026972B10268E9
:1023F000526802F07F020A70816A491C8162C18DB5
:10240000491E0904090CC18503D01BE0026852680B
:10241000F1E70168CA6822F02002CA600168CA6850
:1024200022F48072CA6001684A6922F001024A619E
:10243000202180F8421000214163026B012A03D061
:10244000FFF744FD002008BD016301680C3151E82D
:10245000002F22F0100241E80023002BF5D1016883
:102460000A68D20602D50A6849680091818DFFF793
:1024700042FBE7E770B5044600680169E26821F4B1
:102480004051114301612169A068E2690843616913
:10249000114308432168CA6849F20C639A43024316
:1024A000CA6020684169A26921F440711143416109
:1024B00031492068884202D03049884202D1FFF772
:1024C0000BF801E0FEF7F8FFE2690023192164250B
:1024D0003226B2F5004F626828D0A0FB0101930FAD
:1024E0009200FDF733FF0146B0FBF5F06FF01802E4
:1024F000504301EB800006EB0010B0FBF5F000F05C
:10250000F002B1FBF5F002EB0012B1FBF5F06FF059
:102510001803584301EB800006EB0010B0FBF5F008
:1025200000F00F0021681044886070BDA0FB01011D
:1025300092185B41FDF70AFF0146B0FBF5F002017E
:10254000B1FBF5F06FF01803584301EB800006EB88
:10255000C000B0FBF5F000F0F80002EB4002B1FB68
:10256000F5F0584301EB800006EBC000B0FBF5F03E
:1025700000F00700D6E70000001001400014014001
:102580000148FFF7BBBA00004C010020FEE7090735
:10259000090E002804DB00F1E02080F800147047E9
:1025A00000F00F0000F1E02080F8141D7047FEF7E6
:1025B000CFFDFFF705FEFFF749FDFFF721FDFFF710
:1025C00099FCFFF7C9FCFFF7ADFDFFF7CDFDFFF765
:1025D000F5FC00F013F8FFF729FD00F021F8FEE705
:1025E00010B5EFF3058111B16FF0050403E000248D
:1025F00008B100F0F9FD204610BD0000EFF30580A2
:1026000010B16FF0050070470448016811B14FF038
:10261000FF307047012101600020704764000020F6
:1026200010B5EFF3058010B16FF0050010BD08483C
:102630000168012902D04FF0FF3010BD054A00218A
:1026400082F8141D0221016000F036FE002010BD4A
:10265000640000200BE000E02DE9FF414FEA010398
:102660004FF00005EFF30581039549BB40B3802788
:10267000182100244AB3166806B1344696691EB183
:102680003146761E382E02D21679F60703D0002086
:1026900004B0BDE8F081566906B1B708D2F808C0A9
:1026A000BCF1000F0DD0D5685C2D18D312693AB17A
:1026B00036B18DE806103A46214601F096F90390AE
:1026C0000DE0D6685EB912694AB903AACDE90012D5
:1026D000BAB2214601F05CF9012800D003950398B5
:1026E000D6E700002DE9F041134C0F460546E66899
:1026F0002068001D00F044FC681C07D137B1216838
:10270000BDE8F0410D48091D00F08ABC2068354441
:10271000B5424560216805D2A06BBDE8F041091DB6
:1027200000F066BC606B091D00F062FCA06A854287
:1027300000D2A562BDE8F0811400002074070020DB
:102740002DE9F041054600F077FC2D4CA068401CB7
:10275000A06020682B4F10B1606930B32BE025607A
:10276000A068012827D1002606EB860007EB800031
:1027700000F030FC761C382EF6D3234800F02AFCFB
:102780002148143000F026FC1F48283000F022FCBD
:102790001D483C3000F01EFC1B48503000F01AFC75
:1027A000194860631430A06305E02068E96AC06AD4
:1027B000884200D82560606A401C60626864E86AEC
:1027C0002169884200D9206100EB800007EB80007E
:1027D000291D00F025FC00F04FFC606900280CD09A
:1027E0002068E96AC06A884207D208494FF08050E1
:1027F0000860BFF34F8FBFF36F8FBDE8F08100001B
:1028000014000020C40200202407002004ED00E092
:1028100038B500F011FC104C2068C8B90F4800F022
:10282000D9FB0E48143000F0D5FB0C48E0601430A2
:1028300020610A4B0020F03B009003F15002102170
:102840000A2000F047FE206010B105A100F096FCC0
:10285000BDE8384000F010BC50000020780800208F
:10286000546D72510000000030B4026C0B46002A17
:102870000BD0C1681144C1608468A14201D30168D2
:10288000C16030BC1846FDF7D8BD30BC70472DE99B
:10289000F041856B174604460026026C82B1C7B131
:1028A000E068FDF7CAFDE168206C091AE160226862
:1028B000914202D2A168081AE060022F16D017E0F8
:1028C0002068A8B9A06801F033F906460020A0608E
:1028D0000EE06068FDF7B1FD216C6068084460603F
:1028E000A168884204D32068606001E005B16D1ED4
:1028F0006D1CA5633046BDE8F08110B5044690F824
:10290000590058B101280CD002280FD0502080F374
:102910001188BFF34F8FBFF36F8FFEE7206B00F07E
:10292000BFFB2046BDE8104000F0BABB10BD000060
:1029300010484FF47051420706D0C01D0D4920F0D9
:102940000700411AC1F570510B4A00230144C2E946
:1029500000030839183A21F0070111604B600B6041
:102960000B1AC0E9001393604FF0004053605061B0
:1029700070470000580F002080000020144E154CB6
:10298000A6F29C474FF08058DFF84C9012E000BF51
:1029900000F052FBF068C568281D00F0F1FAA0684D
:1029A000401EA0606068401E606000F065FB284625
:1029B000FFF7A3FF60680028EAD138680128F9D939
:1029C000C9F80080BFF34F8FBFF36F8FF2E70000AD
:1029D000600700201400002004ED00E070B51D46E3
:1029E000049C51B1C4F80020C4E90F010121204624
:1029F00000F0A4FD84F84C5070BD2460F4E70000A2
:102A00002DE9F05F8846DDE90B9415468346910079
:102A10009A460A9EA522206BFDF754FD6FF0030134
:102A2000206B01EB8501084420F00707780707D0E9
:102A3000502080F31188BFF34F8FBFF36F8FFEE7F5
:102A40000025B8F1000F0FD05FF00000221818F831
:102A5000001082F8341018F8001011B1401C102832
:102A6000F4D384F8435001E084F83450382E00D376
:102A70003726E662C4E91365201D00F0B6FA04F1BA
:102A8000180000F0B2FA2461C6F138006462A06157
:102A9000656584F8585052465946384600F05AFA4F
:102AA0002060B9F1000F01D0C9F80040BDE8F09FE7
:102AB00030B5114900E011460A688242FBD34B68E9
:102AC0005C18844203D14068184448600846436853
:102AD0001C18944209D1084C183C2468A24209D021
:102AE00052681A4442600A6812680260814200D04B
:102AF000086030BD0460F9E78000002070B5002454
:102B000041600B4D0061914206D8D11A8269914211
:102B100006D2011D286907E09A4203D2994201D3E7
:102B2000012403E0011DE86800F062FA204670BD50
:102B30005000002010B5044600F07EFAA06B28B1CA
:102B40005FF0000400F098FA204610BD0124F9E778
:102B500030B589B03C4D6EE00498002806DADDE916
:102B60000601059A90470498002864DB069C60697A
:102B700010B1201D00F004FA03A800F0D7F80246B7
:102B800004980A2857D2DFE800F00505052D334ADE
:102B900005052D3394F8280040F0010084F8280042
:102BA0000599A069059B01442046FFF7A7FF68B37C
:102BB000216A2046884794F8280040073BD500202A
:102BC00000900598A169002342181946204601F09B
:102BD000B9F8D8B9502080F31188BFF34F8FBFF3F5
:102BE0006F8FFEE714F8280F20F00100207022E01C
:102BF00094F8280040F0010084F828000598A061AE
:102C000028B1811813462046FFF778FF13E05020C3
:102C100080F31188BFF34F8FBFF36F8FFEE794F8F7
:102C20002800810703D4204600F03AFA03E020F0A0
:102C3000010084F82800002204A9286800F0D2FDD1
:102C4000002889D109B030BD500000202DE9FC4199
:102C50000F46054600F074FB01A800F067F8044633
:102C6000019818B100F0DCFFBDE8FC81254EAFB142
:102C700030690068D0B30027291B3A46306800F05D
:102C800091FA00F0CDFF0028EED11F494FF080509F
:102C90000860BFF34F8FBFF36F8FE5E7A542EBD816
:102CA00000F0BEFFF0682746C068C468201D00F031
:102CB00067F994F82800410719D5A0692B464119F6
:102CC0003A462046FFF71AFFA8B100200346014606
:102CD00000902A46204601F035F860B9502080F374
:102CE0001188BFF34F8FBFF36F8FFEE707E020F02F
:102CF000010084F82800216A20468847B4E70127AC
:102D0000BAE700005000002004ED00E00648416BE7
:102D1000096829B1416BC968C9684968816270470F
:102D20004FF0FF31FAE700001400002070B50546AF
:102D300000F094FE064E0446B068844203D200F0D0
:102D400009F8012000E0002028602046B46070BD32
:102D500050000020F8B5194D20E0C068C46806682E
:102D6000201D00F00DF9216A2046884794F82800BC
:102D7000400713D5A0693044B04206D92461606091
:102D8000211DE86800F034F908E000200346014600
:102D900000903246204600F0D5FF38B1E86801685F
:102DA0000029DAD12969C5E90310F8BD502080F364
:102DB0001188BFF34F8FBFF36F8FFEE750000020E5
:102DC00008484068401C4FF0500080F3118804D040
:102DD000BFF34F8FBFF36F8FFEE7BFF34F8FBFF38C
:102DE0006F8FFEE788000020074CE068016841B162
:102DF000C0680021D0F80000FFF728FFFFF7A8FE09
:102E0000F3E701210020F7E7500000202DE9F04111
:102E1000044600F011F994F9455004F1240609E044
:102E2000606A48B1304600F0C3FE08B100F00AFA0B
:102E30006D1E6DB2002DF3DC4FF0FF3684F8456057
:102E400000F01AF900F0F8F894F9445004F1100772
:102E500009E0206948B1384600F0AAFE08B100F048
:102E6000F1F96D1E6DB2002DF3DC84F84460BDE80D
:102E7000F04100F001B900002DE9F04105460027BE
:102E800000F05EFA324E306808B9FFF751FD706904
:102E900005424ED1C5B3083568070ED005F00700CE
:102EA000C0F108000544680707D0502080F311885E
:102EB000BFF34F8FBFF36F8FFEE72DB3706885426E
:102EC00037D82348183001460C6801E020460C46EC
:102ED0006168A94202D221680029F7D131688C4289
:102EE00027D007682168016060680837411B1029F6
:102EF0000FD96019420708D0502080F31188BFF322
:102F00004F8FBFF36F8FFEE713E041606560FFF7FF
:102F1000CFFD61687068401A7060B268904200D25C
:102F2000B060706901430020C4E90001F068401CF2
:102F3000F06000F075FE780707D0502080F311880C
:102F4000BFF34F8FBFF36F8FFEE73846BDE8F081C8
:102F50006800002010B5031F4FF080741C601B1F19
:102F600021F001011960191F044B0B6014390A602C
:102F7000091F6FF0020244380A6010BDC12D00081D
:102F8000D0E9013201699A60D0E901235A604A68A8
:102F9000824201D182684A60002202610868401EB4
:102FA0000860086870470000034B036003F15C0091
:102FB0000860802010607047A0080020044B036068
:102FC00003F15C0008604FF48070106070470000EF
:102FD000FC0A002000F108014FF0FF32C0E90112A5
:102FE000C1600161002101607047002101617047EB
:102FF00030B50B685A1C02D000F1080202E00269E9
:1030000004E02246546825689D42FAD953684B6013
:1030100099608A60516008610168491C016030BD97
:1030200042684A6093688B60936859609160086158
:103030000168491C01607047502080F31188BFF37C
:103040004F8FBFF36F8F0A494868401C48600128C2
:103050000CD10848006810F0FF0F07D0502080F313
:103060001188BFF34F8FBFF36F8FFEE770470000EB
:103070008800002004ED00E00849486828B1401E9F
:10308000486001D180F311887047502080F3118887
:10309000BFF34F8FBFF36F8FFEE700008800002063
:1030A00070B500282AD0164DA0F10804606869693F
:1030B000084207D1502080F31188BFF34F8FBFF330
:1030C0006F8FFEE722683AB1502080F31188BFF37A
:1030D0004F8FBFF36F8FFEE78843606000F030F9D9
:1030E00060686968084468602046FFF7E1FC286969
:1030F000401C2861BDE8704000F092BD70BD00002A
:10310000680000204FF0E020002101618161054945
:103110004FF47A720968B1FBF2F1491E416107214F
:10312000016170471000002010B5FDF7EBF8114960
:1031300010280ED300F1E02090F8F0030A789042B6
:1031400007D2502080F31188BFF34F8FBFF36F8FEA
:10315000FEE709480068896800F4E060884207D902
:10316000502080F31188BFF34F8FBFF36F8FFEE7BE
:1031700010BD0000880000200CED00E010B5084BE9
:10318000002200BF53F832401CB1521C082AF9D368
:1031900010BD43F8321003EBC201486010BD0000BF
:1031A0008402002070B515460E460446FFF744FF22
:1031B00094F944100020491C01D184F8440094F98A
:1031C0004510491C01D184F84500FFF755FFA06B5D
:1031D00028B92A46314604F1240000F051F820466F
:1031E000BDE87040FFF712BE10B5020014D00F48C2
:1031F000006B38B1502080F31188BFF34F8FBFF3BD
:103200006F8FFEE700F09CF800211046FFF76AFA86
:1032100000F006FD002807D105494FF080500860F6
:10322000BFF34F8FBFF36F8F10BD0000140000205D
:1032300004ED00E002490A6A0260C9684160704713
:103240001400002001490120C861704714000020CB
:1032500010B50C4650B1094909681831FFF7C8FE8E
:103260002046BDE810400121FFF73CBA502080F312
:103270001188BFF34F8FBFF36F8FFEE7140000205C
:1032800070B514460D4668B10A4909681831FFF750
:10329000C7FE0CB14FF0FF3521462846BDE870400F
:1032A000FFF720BA502080F31188BFF34F8FBFF390
:1032B0006F8FFEE71400002030B587B00024039420
:1032C00005AA04A903A80494FFF76EFEDDE9030133
:1032D0000094CDE90110002315A11748059A00F0CC
:1032E00084FB164D0028E8621FD000F0FBFC01288B
:1032F00009D0401C19D1502080F31188BFF34F8FA3
:10330000BFF36F8FFEE7502080F31188BFF34F8F1C
:10331000BFF36F8F4FF0FF30A86201206861EC604F
:1033200007B0BDE8304000F045B807B030BD000040
:1033300049444C45000000007D290008140000208D
:103340000248016B491C0163704700001400002013
:10335000164810B5016B11B10121C16110BD0021EA
:10336000C1610169124A01E0B9B1491E01EB810353
:1033700052F82330002BF7D001EB810302EB8302DC
:1033800002F1080453685B685360A34201D15B6893
:103390005360DA680260016110BD502080F311882B
:1033A000BFF34F8FBFF36F8FFEE7000014000020C4
:1033B000C40200201CB537480168374A914207D142
:1033C000502080F31188BFF34F8FBFF36F8FFEE75C
:1033D00000683149491E884207D1502080F3118886
:1033E000BFF34F8FBFF36F8FFEE72C490878019032
:1033F000FF20087008788DF800009DF800009DF807
:10340000002000F0F000904207D0502080F3118897
:10341000BFF34F8FBFF36F8FFEE79DF80000204C86
:1034200000F0500020700720A06005E09DF800200B
:1034300052008DF80020401E9DF800201206F5D4A1
:10344000A060032807D0502080F31188BFF34F8F6E
:10345000BFF36F8FFEE74FF44070A06001980870D3
:103460000C482030016841F470010160016841F0AE
:1034700070410160FFF746FE00206060FCF70AFF24
:103480000848016841F040410160FCF7EFFE002070
:103490001CBD000000ED00E071C20F4100E400E03F
:1034A0008800002034EF00E010B5502080F3118830
:1034B000BFF34F8FBFF36F8F00F0D6FA18B10449F6
:1034C0004FF080500860002080F3118810BD00008C
:1034D00004ED00E038B5049D18B153B1CAB181B113
:1034E00020E0502080F31188BFF34F8FBFF36F8F20
:1034F000FEE7502080F31188BFF34F8FBFF36F8F2B
:10350000FEE7502080F31188BFF34F8FBFF36F8F1A
:10351000FEE739B1502080F31188BFF34F8FBFF31E
:103520006F8FFEE750241C46012384F846302B465B
:103530000094FFF753FA204638BD000070B50D46E1
:10354000040025D0FFF778FDD4E90F20216802FBA5
:103550000011A1600021A163216861600A46D4E9DD
:103560000F01401E00FB0121E16021464FF0FF30BA
:1035700001F8440F487004F110008DB1FFF72AFDE7
:1035800004F12400FFF726FDFFF776FD012070BD52
:10359000502080F31188BFF34F8FBFF36F8FFEE78A
:1035A00021690029F0D000F003FB0028ECD0044989
:1035B0004FF080500860BFF34F8FBFF36F8FE3E78A
:1035C00004ED00E02DE9FF4782B01D468A464FF02A
:1035D0000008040003D0BAF1000F08D011E0502019
:1035E00080F31188BFF34F8FBFF36F8FFEE7206C1E
:1035F00038B1502080F31188BFF34F8FBFF36F8F26
:10360000FEE7022D0AD1E06B012807D0502080F39D
:103610001188BFF34F8FBFF36F8FFEE700F010FAF2
:103620003F4F4FF000094FF0805648B9049838B129
:10363000502080F31188BFF34F8FBFF36F8FFEE7E9
:10364000FFF7FAFCA06BE16B884207D3022D05D08F
:103650000498D0B1B8F1000F1AD01EE02A465146A6
:103660002046FFF714F9616A19B104F1240000F053
:103670009FFA20B13E60BFF34F8FBFF36F8FFFF70C
:10368000FBFC012006B0BDE8F087FFF7F5FC22E067
:103690006846FFF7CFFD4FF00108FFF7EDFCFFF79D
:1036A0004FFEFFF7C9FC94F94400401C01D184F897
:1036B000449094F94500401C01D184F84590FFF7EF
:1036C000DBFC04A9684600F029F930B12046FFF779
:1036D0009DFB00F0A5FA0020D4E7FFF7ADFCA06B3E
:1036E000E16B884213D1FFF7C7FC04F11000049985
:1036F000FFF7AEFD2046FFF789FB00F091FA0028A6
:103700009ED13E60BFF34F8FBFF36F8F98E7FFF7F7
:10371000B3FC2046FFF77AFB00F082FA90E7000046
:1037200004ED00E02DE9F0471F469046894604006D
:1037300003D0B9F1000F08D011E0502080F31188B8
:10374000BFF34F8FBFF36F8FFEE7206C38B150206F
:1037500080F31188BFF34F8FBFF36F8FFEE7022F07
:103760000AD1E06B012807D0502080F31188BFF305
:103770004F8FBFF36F8FFEE7FFF7D6FC5020EFF3BC
:10378000118680F31188BFF34F8FBFF36F8FA06B4B
:10379000E16B884206D3022F04D0002086F3118803
:1037A000BDE8F08794F94550A06B3A46494620465B
:1037B000FFF76DF8681C04D06D1C84F8455001209B
:1037C000ECE7606A0028FAD004F1240000F0F0F978
:1037D0000028F4D0B8F1000FF1D00121C8F8001092
:1037E000EDE700002DE9F747002683B08A46040084
:1037F00003D0BAF1000F08D011E0502080F31188F7
:10380000BFF34F8FBFF36F8FFEE7206C38B15020AE
:1038100080F31188BFF34F8FBFF36F8FFEE700F087
:103820000FF9DFF8F4804FF000094FF0805748B9E6
:10383000059838B1502080F31188BFF34F8FBFF344
:103840006F8FFEE7FFF7F8FBA56BC5B15146204629
:10385000FFF70AF86D1EA563206950B104F110004E
:1038600000F0A6F928B1C8F80070BFF34F8FBFF37E
:103870006F8FFFF701FC012006B0BDE8F0870598C7
:1038800008B11EB106E0FFF7F7FB27E06846FFF737
:10389000D1FC0126FFF7F0FBFFF752FDFFF7CCFB51
:1038A00094F94400401C01D184F8449094F94500F7
:1038B000401C01D184F84590FFF7DEFB05A968465E
:1038C00000F02CF8002820460AD0FFF79FFA00F0FD
:1038D000A7F92046FFF72EF90028B3D00020CBE748
:1038E000FFF728F990B104F124000599FFF7B0FC27
:1038F0002046FFF78BFA00F093F90028A2D1C8F810
:103900000070BFF34F8FBFF36F8F9BE72046FFF729
:103910007DFA00F085F995E704ED00E02DE9F0412E
:103920000C46050011D0C4B1FFF786FB174BDA68CF
:103930006E682068911B471C17D02F681B6A9F4236
:1039400019D0964217D8012410E0502080F3118836
:10395000BFF34F8FBFF36F8FFEE7502080F31188C6
:10396000BFF34F8FBFF36F8FFEE70024FFF784FB99
:103970002046BDE8F081884205D9401A20602846DB
:10398000FFF758FCF1E700202060DCE7140000207E
:103990002DE9FF5F8346DDE90E87994616468A4684
:1039A0009000FFF769FA05001CD05C20FFF764FA6D
:1039B000040014D00020256384F85900CDE90240AA
:1039C000CDE900874B46324651465846FFF718F876
:1039D0002046FEF7B5FE012004B0BDE8F09F284662
:1039E000FFF75EFB4FF0FF30F6E7F0B585B0DDE99D
:1039F0000B640A9DA6B1DCB15C2700972663022602
:103A000084F85960002604AFCDE90246CDE900579D
:103A1000FEF7F6FF2046FEF793FE049805B0F0BDD2
:103A2000502080F31188BFF34F8FBFF36F8FFEE7F5
:103A3000502080F31188BFF34F8FBFF36F8FFEE7E5
:103A40000548416919B1006B18B100207047012089
:103A50007047022070470000140000200148C06831
:103A600070470000140000202DE9F0412E4C002783
:103A7000206B28B1A069401CA0613846BDE8F081E8
:103A8000E668761CE66013D1606B006838B15020A0
:103A900080F31188BFF34F8FBFF36F8FFEE7606B2A
:103AA000A16B6163A063206A401C2062FFF72EF9BE
:103AB000A06ADFF87880864209D3606B0068A0B105
:103AC000606BC068C5686868864211D2A0622068D1
:103AD000C06A00EB800158F82100012800D90127B5
:103AE000E0690028C9D00127C7E74FF0FF30EDE7B4
:103AF000281DFFF745FAA86A18B105F11800FFF76D
:103B00003FFAE86A2169884200D9206100EB800110
:103B100008EB8100291DFFF783FAE86A2168C96A6A
:103B20008842CAD30127C8E714000020C40200203D
:103B300070B504004FF0000133D01B4D286884425B
:103B400007D0502080F31188BFF34F8FBFF36F8FE2
:103B5000FEE7206D38B1401E2065E36CE26A9A42B0
:103B60001FD040B11DE0502080F31188BFF34F8F6C
:103B7000BFF36F8FFEE7201DFFF702FAE06CE062F3
:103B8000C0F13800A061E06A2969884200D9286143
:103B9000064900EB800001EB8000211DFFF740FA91
:103BA0000121084670BD000014000020C40200205E
:103BB00070B5C068C46854B104F118000646FFF738
:103BC000DFF9144D286B50B13146134815E05020F1
:103BD00080F31188BFF34F8FBFF36F8FFEE7201D77
:103BE000FFF7CEF9E06A2969884200D928610B49BC
:103BF00000EB800001EB8000211DFFF711FAE06A65
:103C00002968C96A884202D90120E86170BD002094
:103C100070BD0000140000204C070020C4020020EA
:103C20002DE9F0472C4D00242746286B38B1FFF7CB
:103C300003FA286B401E2863286B40B146E05020F1
:103C400080F31188BFF34F8FBFF36F8FFEE7A96832
:103C5000224E0120D1B3A6F5916980463068E0B1CB
:103C6000F068C46804F11800FFF78AF9201DFFF717
:103C700087F9E06A2969884200D9286100EB800150
:103C800009EB8100211DFFF7CBF9E06A2968C96AB9
:103C90008842E3D3C5F81C80E0E70CB1FFF736F8A3
:103CA000AC694CB14FEA0806FFF7DEFE00B1EE61E9
:103CB000641EF9D10020A861E86938B108490127DC
:103CC00038070860BFF34F8FBFF36F8FFFF7D4F94A
:103CD0003846BDE8F0870000140000204C070020A3
:103CE00004ED00E010B586B0FEF792FD114C20689F
:103CF000B8B100200390049005AA04A903A8FFF717
:103D00005DF9DDE9032102208DE8070000230AA107
:103D10000B48059AFFF769FE606010B106B00120FC
:103D200010BD502080F31188BFF34F8FBFF36F8F0A
:103D3000FEE7000050000020546D722053766300AF
:103D4000E92D00082DE9FF411E46134602000A9D99
:103D50004FF0000016D0144C2768002F0FD0CDE98B
:103D600000130292062917DAFFF76AFE02284FF0C5
:103D700000030FD0002269462068FFF723FC04B03F
:103D8000BDE8F081502080F31188BFF34F8FBFF35F
:103D90006F8FFEE72A46EEE7002332466946384633
:103DA000FFF7C0FCEBE70000500000204FF0407030
:103DB000E1EE100A70470000FC3D00080000000022
:103DC00000000000000000000000000000020000F1
:103DD000180000000000000000000000000610169F
:103DE000000610160000000000000000010203049D
:103DF000060708090000000001020304496E64651B
:103E000078000000243E000800000020940000001C
:103E1000E8010008B83E000894000020245100008A
:103E20000402000800000000010000001000000073
:103E3000000000000024F40000000000000000006A
:103E40000000000000000000000000000000000072
:103E50000000000000000000000000000000000062
:103E60000000000000000000000000000000000052
:103E70000000000000000000000000000000000042
:103E80000000000000000000000000000000000032
:103E90000000000000000000000000000000000022
:103EA0000000000000000000000000000000000012
:083EB000AAAAAAAA0000000062
:04000005080001AD41
:00000001FF
