:020000040800F2
:10000000C01F00209D010008093B00083D32000888
:10001000F1390008E10A0008494500080000000025
:10002000000000000000000000000000AF01000818
:10003000410C0008000000009D0200085302000867
:10004000B7010008B7010008B7010008B7010008B0
:10005000B7010008B7010008450C0008B701000807
:10006000B7010008510C00085D0C0008B70100083A
:10007000750B0008B7010008B7010008B7010008B8
:10008000B7010008B7010008B7010008B701000870
:10009000B7010008B7010008B7010008690C0008A3
:1000A000B7010008B7010008B7010008B701000850
:1000B000B7010008B7010008B7010008B701000840
:1000C000B7010008B7010008B7010008B701000830
:1000D000B701000829450008B701000839450008A4
:1000E000B7010008B7010008B7010008B701000810
:1000F000B7010008B7010008213C0008B70100085B
:10010000B7010008B7010008B7010008B7010008EF
:10011000B7010008B7010008113C0008B70100084A
:10012000B7010008B7010008B7010008B7010008CF
:10013000B7010008B7010008B7010008B7010008BF
:10014000B7010008B7010008B7010008B7010008AF
:10015000B7010008B7010008B7010008B70100089F
:10016000B7010008B7010008B7010008B70100088F
:10017000B7010008B7010008B7010008000000003F
:10018000B7010008B7010008DFF80CD000F0A0FBB1
:100190000048004779630008C01F002006488047D8
:1001A00006480047FEE7FEE7FEE7FEE7FEE7FEE75C
:1001B000FEE7FEE7FEE7FEE7FD3B000889010008D9
:1001C000C40C0020C01F002000000008840D002087
:1001D00000000008001000E03F1901000000FF408F
:1001E00072B65FF824005FF8241001F10401016089
:1001F0004FF0E0205FF83010C0F8081D5FF83400C1
:100200005FF83410096801605FF83800016841F058
:10021000010101604FF0E0205FF8441041614FF0B0
:10022000070101614FF00001C0F8181D4FF07F4138
:10023000C0F81C1D5FF85C10C0F8201D7047FFF768
:10024000FEBFFFF7FEBFFFF7FEBF01B5BDE80140EF
:10025000704701B500F094F8BDE801407047FFF722
:10026000FEBFFFF7FEBF000000000000000000001E
:100270004FF000002A4A1060EFF3148020F00400D1
:1002800080F3148862B64FF080504FF0E021C1F83F
:10029000040DBFF34F8FBFF36F8FFEE72148224A53
:1002A0004FF00003016891B10360EFF3098C2CE972
:1002B000F00F1EF0100F01D12CED108A1B4C4CF8E2
:1002C00004ED2568C1F808C00DB18D61236072B6D8
:1002D0001168B1B1016062B64F68154C8D6907F1C4
:1002E00001074F602560D1F808C05CF804EB1EF0F0
:1002F000100F01D1BCEC108ABCE8F00F8CF3098818
:10030000704772B61168016009B962B6F9E74FF03B
:1003100000674FF0E028C8F8047D62B6DCE770475C
:10032000FC0C0020EC0C0020F00C0020E812002057
:10033000E8120020000000000000000000000000A3
:10034000026922F00702A2F144026FF00203136077
:100350004FF0000353609360D36013615361936166
:10036000D361136253629362D362136353634FF09A
:10037000FF339363D1634FF08073136482607047DF
:100380002249086800F101000860214B1A683AB15F
:10039000A2F101021A601AB91E4B4FF00100186059
:1003A0001D490868026822B11C4B4FF001021A6017
:1003B00008E000F104001A4B1A68904201D1194B71
:1003C00018680860184B1A6812B918490868D0B143
:1003D0002DE901401649086808B105F029FA154BC6
:1003E0001A6872B105F0EAF81348016849B9134870
:1003F0000168134A136813484FF08052994200D0A5
:100400000260BDE80140BFF34F8F7047340E0020FB
:10041000E8120020980D0020900D0020940D00207F
:10042000200E0020240E0020980D0020940D0020A6
:10043000940D0020980D0020FC0C0020EC0C0020F6
:10044000F00C002004ED00E02DE9F05F05460020EF
:1004500092469B4688460646814640241BE0284635
:1004600041464746224600F06AF853465A46C01AAB
:10047000914110D311461846224600F051F82D1A2A
:1004800067EB01084F4622460120002100F048F8A2
:1004900017EB00094E41201EA4F10104DFDC4846A1
:1004A00031462A464346BDE8F09FD2B201E000F84B
:1004B000012B491EFBD270470022F6E710B5134608
:1004C0000A4604461946FFF7F0FF204610BD00F02B
:1004D000004230F000400AD0C10D01F56071C0F358
:1004E000160042EA0151C20840071143704700203C
:1004F0000146704730B50B460146002020220124FA
:1005000009E021FA02F59D4205D303FA02F5491BE1
:1005100004FA02F52844151EA2F10102F1DC30BDF7
:10052000202A04DB203A00FA02F1002070479140B3
:10053000C2F1200320FA03F3194390407047202AA8
:1005400004DB203A21FA02F00021704721FA02F37D
:10055000D040C2F1200291400843194670472DE96E
:10056000FE4F804681EA0300C00F0C46009021F048
:10057000004123F00045B8EB0200A94105D24046F6
:10058000214690461C460B46024623F0004010438D
:1005900047D0270DC7F30A00C3F30A510290401A4F
:1005A000019040286BDAC3F3130040F4801B0098DD
:1005B000924620B10023D2EB030A63EB0B0B0198A8
:1005C0005946C0F140025046FFF7AAFF06460D46C5
:1005D00050465946019A00F08DF910EB0800614130
:1005E000002487EA115284EAE7731A4340D0009A44
:1005F00062B3019A012A4FEA075215DC001B61EB36
:1006000002014FF0004202EA0752CDE90042001C0D
:1006100041F5801132462B4600F08DF903B0BDE85C
:10062000F08F40462146F9E7001B61EB0201001CF8
:1006300041F5801300185B412018A2F5001747EB25
:10064000030140EAD570B6196D4111E06D084FEA1B
:10065000360645EAC0754FEA0752001B61EB0201FE
:10066000001C41F5801149084FEA30000019514142
:1006700032462B4603B0BDE8F04F00F04DB900986C
:10068000012240000023D0EB020263EBE0730098EC
:1006900021464FEAE074B8EB000061EB0401E9E7A2
:1006A00083F000435BE781F0004158E72DE9FE4FFE
:1006B00081EA030404F0004421F0004100944FF06B
:1006C000000B23F0004350EA01045ED052EA030419
:1006D0005BD0C3F30A54C1F30A552C44A4F2F3349B
:1006E0000194A0FB0254C1F3130141F48011C3F340
:1006F000130343F4801301FB024400FB034E840AFE
:10070000970A44EA815447EA8357A4FB0768029595
:100710008D0A05FB07854FEA932C04FB0C54270533
:10072000029D4FEA065847EA1637B5EB08056EEB0F
:10073000070C870E920E47EA811742EA8312A7FB45
:100740000201B6EB0B0164EB00042B0D43EA0C3302
:100750005E1844EB1C50DA465146E7FB0201C5F334
:1007600013044FEA0B3343EA14534FEA0432019C5B
:1007700043EA0603A4F10C040294009CCDE900B402
:1007800000F0D9F803B0BDE8F08F00200146F9E78A
:100790002DE9F04D81EA030404F0004B21F00045FF
:1007A00014464FF0000A23F0004150EA050220D021
:1007B00054EA01021DD0C5F30A570246C5F31303DC
:1007C000C1F31300C1F30A5640F4801543F48013BB
:1007D000A7EB0608101BD64608F2FD3873EB0500A0
:1007E00002D308F1010801E092185B41B8F1000F53
:1007F00003DA00200146BDE8F08D00204FF480119F
:10080000064684460EE0171B73EB050705D3121B43
:1008100063EB050306434CEA010C49084FEA30003C
:1008200092185B4150EA0107EDD152EA030012D061
:1008300082EA040083EA0501084305D0101BAB419E
:1008400006D20122002306E000224FF0004302E01E
:100850006FF0010253101AEB06004CEB085110EB3D
:100860000A0041EB0B01BDE8F04D00F055B8C1F3B3
:100870000A52C1F3130140F2FF3341F480119A424E
:1008800002DA00200146704740F233439A42A2F256
:10089000334202DC5242FFF752BEFFF741BE000076
:1008A00030B5041E71F1000404DB4FF000444042F7
:1008B00064EB0101141E73F1000405DB1C464FF0CC
:1008C0000043524263EB0403994208BF904230BD9B
:1008D000064C074D06E0E06840F0010394E807008D
:1008E00098471034AC42F6D3FFF752FC086E00086C
:1008F000286E0008202A06DBCB17203A41FA02F0C6
:1009000043EAE07306E041FA02F3D040C2F120026C
:10091000914008431946704710B5141E73F1000446
:1009200008DA401C41F1000192185B411A4301D1E1
:1009300020F0010010BD2DE9F04D92469B4611B10B
:10094000B1FA81F202E0B0FA80F220329046FFF76D
:10095000E7FD04460F4640EA0A0041EA0B01534610
:100960005A46084313D0114653EA010019D0C8F182
:1009700040025046FFF7E3FD05460E4650465946F5
:100980004246FFF7CDFD084305D0012004E0204694
:100990003946BDE8F08D0020054346EAE0762C4359
:1009A00037430A986305E40AA0EB08000022FD0A19
:1009B00044EA47540A3002D500200146E9E7010520
:1009C00010196941DDE9084500196941BDE8F04D9C
:1009D000A2E7000010B542F20432C4F2010211682D
:1009E00021F440311160D2F800C090E80A4043EA97
:1009F0000C03C46813604A6822F480724A6002697A
:100A00004B6843EA02224A604A6822F040724A6018
:100A10004A6842EA0E024A608A6822F400628A60EA
:100A20008A6822438A60826A8B68012423F070639B
:100A30008B608B68C0F60074A24202D123F0405252
:100A400008E01A438A608A6822F040528A60C26ACB
:100A50008B681A438A608A6822F002028A608A6878
:100A6000037E90F8204042EA43028A604A6884B1DB
:100A700042F400624A604A684EF2000322F4604287
:100A80004A60426ACFF6FF734C6803EB423222435E
:100A900001E022F400624A60CA6A40F2000C22F4CB
:100AA0007002CA62C3694269CFF6F07CCC6A0CEB73
:100AB00003532343CB628B6823F400738B6090F85D
:100AC00030008B6843EA40208860886820F48060AA
:100AD0008860886840EA8220886010BD00207047E6
:100AE000FEE7000010B58AB0002041F2A83406905D
:100AF000CDE90400CDE90200CDE900000120C2F2F9
:100B00000004CDE907006946204600F0FDFA2046C2
:100B100000F030FC0AB010BD80B50A46014641F233
:100B2000A830C2F2000000F001F880BDB0B5054663
:100B300040F2E070C2F20000144601600021082279
:100B4000C0E9021102610175284600F04DFB002842
:100B5000FAD040F2E07140F22803C2F20001C2F282
:100B600000032846224600F07DFA002818BF00F056
:100B700081F8B0BD80B541F2D030C2F2000000F083
:100B800079FC80BDD0F800C06FF00F024AF6AB23AD
:100B900052FA8CF2CAF6AA230146A2FB03300009DE
:100BA00005A31B5C40F2FF302CEA00005F2A88BFDF
:100BB0000430C1E91603704700061016000610162F
:100BC0008269816AB2F5005F06D06AB9022912D043
:100BD000012914D0D1B90EE0032917D8DFE801F0BC
:100BE000020B020F0120704703293CBF0120704710
:100BF0001CBF00207047C06AC0F300607047C06A25
:100C0000A0F1C070B0FA80F0400970470020704732
:100C100080B5D0F800C0D0F808E0DCF80000BEF1E4
:100C2000400F20F48020CCF800000846CCF80430B7
:100C300004BF10460A46CCF80800CCF80C2080BD52
:100C40007047000080B5012000F076FD80BD0000F7
:100C500080B5082000F070FD80BD000080B5102038
:100C600000F06AFD80BD000080B5202000F064FD2A
:100C700080BD0000EFF3108072B600BFFEE70000F9
:100C800070B581B00022009290F83C20012A01D179
:100C9000022156E00E6801221FFA86FC80F83C20F3
:100CA0004FEA4C0212FA86F302680A2E32BF103263
:100CB0001E3B0C324FF0070E15680EFA03F4A543E5
:100CC00015608D68146805FA03F3234313604968BF
:100CD000062906D8026801EB8101053902F13403C7
:100CE0000AE00C2901EB8101026887BF413902F15A
:100CF0002C03233902F130031F221C688A4024EAA6
:100D000002021A601A680CFA01F1114342F2043E21
:100D10001960C4F2010E0168122EAEF5417208BFCF
:100D2000914205D1DEF8003043F48003CEF8003064
:100D300026F00103102B08BF914205D0002180F856
:100D40003C10084601B070BDDEF80010102E41F4D2
:100D50000001CEF80010F1D140F20401C2F200010E
:100D600009684DF68362C4F21B32A1FB0212910C9A
:100D700001EB8101490000BF009100990029DDD0FD
:100D800000990139F8E700000068C06C7047000066
:100D9000B0B510B30446006C30B9204600F020F81E
:100DA0000020606484F83C00206C0125C0060FD44C
:100DB000206C41F202118843023020642046FFF784
:100DC00009FE00206064206C65F3010000252064AA
:100DD000002084F83C002846B0BD0120B0BD0000D2
:100DE00080B586B0006842F20022C4F20102002100
:100DF0009042CDE90411CDE90211019116D042F2E1
:100E00000001C4F20101884238D10020009043F66D
:100E10004400C4F20200016841F48071016000687E
:100E200000F480700090009806B080BD43F6440046
:100E30000091C4F20200026842F48062026002681B
:100E400002F480620092009A009150F8142C42F053
:100E5000200240F8142C50F8140C00F020000090F0
:100E600000984FF4806001900320CDE9020141F227
:100E70000040C4F2020001A900F06CFC06B080BD85
:100E8000F0B581B0044600680D468268520544BF43
:100E900080685FEAC0502BD400F038FD21680A68F2
:100EA000920715D406466F1C08E000BF2068006852
:100EB000800727D521680868800709D4002FF9D05A
:100EC000002DF3D000F022FD801BA842EED8F1E700
:100ED0006FF012000860206C40F400702064886895
:100EE00010F0405F01D1207EB0B1002001B0F0BD14
:100EF000206C40F020002064002084F83C00012099
:100F000001B0F0BD206C40F004002064002084F8A3
:100F10003C00032001B0F0BDC86A10F4700F02D08D
:100F200088684005E1D4206C20F480702064206C37
:100F3000C004DAD4206C40F001002064D5E7000042
:100F400081B00021009190F83C10012902BF0220DD
:100F500001B070470122016880F83C208A68D207FE
:100F600018D18A684DF6836342F001028A6040F22C
:100F70000402C2F200021268C4F21B33A2FB032374
:100F80009A0C02EB420200BF0092009A12B1009A42
:100F9000013AF9E78B68026CDB0707D142F01001D8
:100FA0000164416C41F00101416458E040F2017379
:100FB0009A4302F5807202644A68520504D5026CB5
:100FC000012363F30D320264026C0023D2044FF05C
:100FD000000244BF426C22F0060242F2043C42642A
:100FE00080F83C306FF02200C4F2010C0860DCF89D
:100FF0000000C0060DD0ACF5417081422FD14FF6F4
:101000000450CFF6FF705CF8000010F0405F26D16E
:1010100021E042F20000C4F20100814217D042F206
:101020000020C4F2010081420DD042F20010C4F24F
:101030000100814213D1DCF80000C00607D0ACF5F6
:10104000827081420BD1DCF80000C00607D48868AA
:1010500010F0405F03D1886840F080408860002035
:1010600001B0704710B590F820E0D0F800C0AEF1A4
:10107000010EBEF1010FDCF808E00DD81EF0E05FB4
:1010800010D0CEF3016EBEF1030F11D100F1240197
:1010900001204FF4000233E000F1240101204FF45D
:1010A00080222DE000F1240101204FF4001227E0FE
:1010B000012000FA0EF01860886818B14B6840EA09
:1010C000C30001E008684005D1E9033403430CEB99
:1010D0000E10C0F88031C0F88441097D012905D186
:1010E00000F5C2710B6843F480730B605168C0F85F
:1010F0008C11126800F5C071C0F88821002001220F
:101100000B681A430A6010BDB0B590F82020013A70
:10111000012A2FD846F20060C4F20000026842F0B3
:1011200001020260026822F47C520260D1F814E0ED
:10113000CC694A6A0368012C43EA022202600EF07D
:101140001F024FF0010303FA02F2C3696FEA020CB7
:1011500023EA0203C36113D02CBBC36803EA0C0368
:10116000C360CB688C8844EA034300EBCE0423645D
:101170000B4611E0416A41F4802141620120B0BD7B
:10118000C3681343C3600B688C8844EA034300EBD5
:10119000CE04236401F10C038C681B8843EA0443EA
:1011A00000EBCE04636443688D6943EA0204D1F81E
:1011B00010E0096A002D08BF03EA0C04446043698B
:1011C000BEF1000F43EA020408BF03EA0C04012940
:1011D000446102D1C1691143C161016821F001017B
:1011E00001600020B0BD000090F8201001390129F5
:1011F00084BF002070470068816882688068C1F3FE
:101200008061C2F3C0621144C0F3007008447047AB
:10121000B0B5C8B1044690F8200010B9204600F0DF
:1012200071F82068016841F00101016000F06EFB77
:10123000054600BF20684168C90707D100F066FB7A
:10124000401B0B28F6D312E00120B0BD016821F04D
:101250000201016000F05AFB054600BF20684168AA
:1012600089070DD500F052FB401B0B28F6D3606AAE
:10127000052140F400306062012084F82010B0BDE8
:10128000217E0268012922F0800208BF80320260BC
:10129000617E0268012922F0400208BF40320260EC
:1012A000A17E0268012922F0200208BF20320260DC
:1012B000E17E0268012922F0100218BF103202609C
:1012C000217F0268012922F0080208BF083202606B
:1012D000617F0268012922F0040208BF0432026023
:1012E000D4E901C2D4E9033561691A432A431143A1
:1012F000ACF101021143C16100200121606284F858
:101300002010B0BD80B586B046F200410068C4F23E
:101310000001002288420592CDE903220292019247
:1013200001D006B080BD43F630000092C4F2020046
:10133000036943F000730361036903F000730093D2
:10134000009B0092036843F00803036000680223D7
:1013500000F00800009000980320019004900920FC
:10136000059001F5D43001A9CDE9023200F0F2F97F
:1013700006B080BDB0B5044690F8200001281DD10C
:10138000022084F820002068016821F0010101603A
:1013900000F0BCFA054600BF20684068C00713D0C3
:1013A00000F0B4FA401B0B28F6D3606A40F400301A
:1013B0006062052084F820000120B0BD606A40F41E
:1013C000002060620120B0BD00206062B0BD00005E
:1013D00070B5866D044600F099FA94F8351002292C
:1013E00025D105462068216C026822F016020260B1
:1013F000426922F08002426109B9A16C19B1016809
:1014000021F008010160016821F00101016000BFC5
:1014100020680068C0070ED000F078FA401B06284C
:10142000F6D320206065032084F835000CE080208E
:101430006065012008E0E06D3F2101FA00F0B06036
:10144000012084F835000020002184F8341070BD9C
:1014500090F83510022909D1052180F8351000686F
:10146000016821F001010160002070478021416581
:1014700001207047F0B581B004460020009040F292
:101480000400C2F200000268D4E9166048F2B51305
:1014900037680821C1F64E3381403942A2FB03254B
:1014A0000CD0226813685B0708D5136823F0040387
:1014B0001360B160616D41F00101616501218140FE
:1014C000394208D022685269120604D5B160616DB4
:1014D00041F00201616504218140394208D022684F
:1014E0001268920704D5B160616D41F00401616535
:1014F00010218140394215D020680268120711D5A9
:10150000B16002680168520306D4C90506D40168B7
:1015100021F00801016001E0080342D4216C09B107
:1015200020468847E16D202000FA01F23A4244D07B
:1015300020680368DB0640D5B26094F83530026855
:10154000052B1ED122F016020260426922F08002B1
:101550004261226C0AB9A26C1AB1026822F0080238
:1015600002603F208840B060012084F83500216D82
:101570000020002984F8340040D02046884701B07C
:10158000F0BD0168520310D4C90512D4016821F0DE
:1015900010010160012084F83500002084F8340037
:1015A00007E0A16C0029BBD1BCE7080301D4616C42
:1015B00000E0E16B09B120468847606DF0B1606DD5
:1015C000C00717D0052084F835002068A90A0268F2
:1015D00022F00102026000BF009A01328A420092AA
:1015E00002D80268D207F7D1012084F83500002024
:1015F00084F83400E16C09B12046884701B0F0BDA1
:101600002DE9F041044600F081F9C4B105460220FD
:1016100084F835000020216884F83400086820F040
:101620000100086026683068C0070BD000F06EF932
:10163000401B0528F6D903212022032042E0012087
:10164000BDE8F081306848F23F01CFF21001251D5E
:1016500000EA010C2ECDD4E9050E41EA0C0111433C
:1016600019432943D4E90778084340EA0E01606A28
:101670003943042841EA080103D1D4E90B2311437B
:10168000194331607169042821F0070141EA00051E
:101690000CD1D4E90A1045EA010538B12046FFF71C
:1016A0008FFA18B10121402201200BE0204675611C
:1016B000FFF768FAE16D3F2202FA01F18160002232
:1016C00001210020626584F83510BDE8F08100003A
:1016D000B0B5044690F83400012828D0012084F8E1
:1016E0003400A56D94F8350001281DD1022084F83E
:1016F0003500002060652046FFF78AFAE26D3F233F
:10170000206803FA02F2216CAA60026842F0160215
:10171000026019B1016841F008010160016841F0FF
:10172000010101600020B0BD002084F834000220D7
:10173000B0BD00007047000080B543F61441C4F20C
:1017400001010A68024208BF80BD0860FFF7F2FF8E
:1017500080BD00002DE9F04F83B000F13E4202F160
:10176000FF724FEAB22241F600470192C4F202072B
:1017700008224FF0010E00254FF0000A4FF000083C
:10178000B84208BF072200920AE000BF08F1010832
:101790000AF1040AB8F1100F05F1020500F0A48067
:1017A0000C680EFA08FB14EA0B09EFD04C6804F041
:1017B000030CACF1010EBEF1010F11D803228768B2
:1017C00002FA05F6CA68B743AA403A438260426803
:1017D000C4F3001722EA0B0207FA08F73A43426003
:1017E000BCF1030F1CD0C26803238E6803FA05F70F
:1017F000BA4306FA05F73A43BCF1020FC2600FD1B3
:101800006FF0030202EA580202440AF01C060F239A
:10181000176A03FA06F40B69A743B3403B4313620C
:10182000026803234F68AB409A4307F00303AB40C1
:101830001A4317F4403F4FF0010E0260A6D0002279
:1018400043F644030292C4F202031A6843F60044CA
:1018500042F480421A601A68C4F2010402F4804221
:101860000292029A28F003024FF6084B2244CFF668
:10187000FF7B52F80B300AF00C070F26BE4023EA1C
:10188000060C019B009E072B38BF1E4606FA07F781
:1018900047EA0C0342F80B30A2684B6842EA09079A
:1018A00043F60C4CDE0258BF22EA0907A760C4F2D7
:1018B000010CDCF800209E0242EA090758BF22EA28
:1018C0000907CCF8007062689E0342EA090758BF16
:1018D00022EA090767602268DB0342EA090358BF6E
:1018E00022EA0903236051E703B0BDE8F08F00004E
:1018F000426902EA0103914341EA03418161704771
:10190000002A08BF090481617047000041F6B43025
:10191000C2F2000000687047F0B581B0B0B3044671
:1019200090F83D0028B9002084F83C00204600F0E3
:10193000BFF8242084F83D002068016821F00101EF
:101940000160016841F400410160016821F4004137
:10195000016000F0C5FA48F28041C0F21E0140F675
:101960000012656888424FF00001C0F23D0248F263
:10197000A16C4FF0000338BF01219042C0F2010C6E
:1019800038BF0123654538BF0B4613B1012001B0B4
:10199000F0BD4DF68361C4F21B31A0FB011221683A
:1019A0004FEA924E4B684FF4967623F03F0343EA9A
:1019B00092434B6044F6D3530F6A0EFB06F6C1F216
:1019C0006203A6FB033627F03F03B709654538BF1E
:1019D000970C7A1C1A430A62CA6948F2A0674CF64F
:1019E000FF73C0F20107BD4222EA030C0AD8013896
:1019F0006A00B0FBF2F001306FF31F30042898BF8B
:101A000004202BE0A368A0F1010E9BB119206843CC
:101A1000BEFBF0F00422013062F31F30000512D04B
:101A20009BB119206843BEFBF0F00422013062F341
:101A30001F3011E005EB4500BEFBF0F001306FF305
:101A40001F300005ECD1012008E005EB4500BEFB8E
:101A5000F0F001306FF31F3040F4004040EA0C001A
:101A6000C8610868D4E9072320F0C0001043184378
:101A70000860886848F2FF3204F10C0790438CCF6D
:101A800018431043A6698860C86820F0FF003843F7
:101A90003043C860086840F0010008600020202141
:101AA000206484F83D10206384F83E0001B0F0BD4E
:101AB0002DE9F04F87B0006845F60041C4F20001FF
:101AC00000268842CDE90566CDE90366029631D04D
:101AD00045F60001C4F20001884272D1002443F6A9
:101AE00030050194C4F202052868122140F020005C
:101AF0002860286800F020000190019803200290DF
:101B00000590042006900020C4F20200CDE90314E1
:101B100000F5A05002A9FFF71DFE0194286940F4CA
:101B200080002861286900F480000190019807B0C6
:101B3000BDE8F08F43F630070196C4F2020738681B
:101B4000002440F0040038603868C4F2020400F059
:101B50000400019001980196386802AD40F0010040
:101B6000386038684FF0120800F0010001900198C9
:101B70004FF4007002904FF001094FF0030A4FF04C
:101B8000040B04F500602946CDF80C80CDF81090C8
:101B9000CDF814A0CDF818B0FFF7DCFD4FF480703D
:101BA00002A981E8010F20462946FFF7D3FD0196DF
:101BB000386940F400003861386900F40000019091
:101BC000019807B0BDE8F08F40F21C0041F6B43137
:101BD000C2F20000C2F2000100780A6810440860F6
:101BE0007047000080B543F60040C4F2020001686F
:101BF00041F400710160016841F480610160016895
:101C000041F480710160032000F090F80F2000F093
:101C100005F800F05BF8002080BD000070B586B0CC
:101C2000002543F640010195C4F202010A6804460A
:101C300042F010020A60096801A801F01001019148
:101C40000199694600F026F9049E002E18BF01266E
:101C500000F046F94DF68361B040C4F21B31A0FBA1
:101C600001014FF0FF3000EB914141F2086041F279
:101C70000002C2F20000C4F2000240F2E733C0E901
:101C80000021C0E902530561856100F05BFC054657
:101C9000C0B941F20860C2F2000000F00DFD054637
:101CA00080B9362000F02EF80F2C0AD836202146B5
:101CB000002200F02BF840F22000C2F20000046085
:101CC00000E00125284606B070BD000082B000206B
:101CD00043F640010190C4F202014A6842F4804296
:101CE0004A604A6802F480420192019A00900868B2
:101CF00040F080500860086800F080500090009824
:101D000002B0704780B502F09DFC80BD70B51446EE
:101D10000D46064602F0A6FC2946224601F0F6FED4
:101D20000146304602F0A6FC70BD000080B502F00E
:101D3000B3FC80BD2DE9F041002800F08B8043F614
:101D40000808C4F202080446D8F8F8030D4600F06B
:101D50000700884207D288F8F853D8F8F80300F053
:101D60000700A84276D12068810717D5410705D51D
:101D7000D8F8001041F4E051C8F80010010705D56B
:101D8000D8F8001041F46041C8F80010D8F80010ED
:101D9000A26821F0F0011143C8F80010C0073FD13C
:101DA000D8F8F80300F00700A84207D988F8F853DC
:101DB000D8F8F80300F00700A8424BD1206841078B
:101DC00007D5D8F80010E26821F4E0511143C8F8B3
:101DD0000010000708D5D8F80000216920F4604001
:101DE00040EAC100C8F8000000F09EF8D8F80010E2
:101DF00046F6F052C1F30311C0F60002515C40F206
:101E0000040220FA01F140F22000C2F20000006852
:101E1000C2F200021160FFF701FF0020BDE8F0816F
:101E20006068811E022907D258F8081C89015CBF2E
:101E30000120BDE8F08110E0012807D158F8081C06
:101E400089035CBF0120BDE8F08106E058F8081C5A
:101E5000890702D40120BDE8F081D8F8001021F0F4
:101E600003010843C8F80000FFF750FD064641F2A1
:101E7000883700BFD8F80000616800F00C00B0EBB4
:101E8000810F8DD0FFF742FD801BB842F2D90320AD
:101E9000BDE8F0810F22026043F60802C4F202029C
:101EA000136803F003034360136803F0F0038360D7
:101EB000136803F4E053C360D2F800C04FF4E0535A
:101EC00003EADC030361D2F8F80300F007000860BE
:101ED0007047000040F20400C2F200000068704742
:101EE00080B5FFF7F7FF43F60801C4F20201096865
:101EF00046F60062C1F38221C0F60002515CC84080
:101F000080BD000080B5FFF7E5FF43F60801C4F28D
:101F10000201096846F60062C1F34231C0F60002D0
:101F2000515CC84080BD000010B543F60404C4F203
:101F30000204606800F00C0008280AD0042819BFC9
:101F400042F20040C0F2F40041F60030C0F2B700A7
:101F500010BD206821682368490241F60031C0F2B3
:101F6000B70100F03F02C3F388105CBF42F20041AA
:101F7000C0F2F401A1FB00010023FEF765FA21681D
:101F80000222C1F3014102EB4101B0FBF1F010BDAF
:101F90002DE9F04182B0002800F0A28004460078CC
:101FA00043F60006C007C4F2020643D0B06800F052
:101FB0000C00042805D1306880033BD56068C8BB9D
:101FC0008EE0B06800F00C00082802D17068400272
:101FD000F1D46568B5F5A02F0AD0B5F5803F0BD0D8
:101FE000306820F480303060306820F4802006E0D3
:101FF000306840F480203060306840F480303060D9
:10200000FFF784FC002D054611D000BF3068800327
:1020100010D4FFF77BFC401B6428F7D922E100BFF6
:10202000FFF774FC401B64284FF0030055D830685C
:102030008003F5D4207880071AD5B06810F00C0F13
:1020400009D0B06800F00C00082840F08A80706861
:10205000400200F186803068800702D5E0680128E0
:102060003ED13068216920F0F80040EAC1003060BC
:102070002078000738D4207840074CD4A5695DB398
:10208000B06800F00C00082840F09E80012D27D099
:102090007068E16900F480028A4221D1216A00F06F
:1020A0003F028A421CD147F6C071626A0140B1EB1F
:1020B000821F15D1A26A0023CFF6FF7303EBC23251
:1020C00000F440316FF30F02914209D1E16A00F050
:1020D0007060B0EB016F03D1002002B0BDE8F08169
:1020E000012002B0BDE8F0816069002840F20000E4
:1020F000C4F2472057D00121C0F8801EFFF706FC2C
:10210000054600BF706F8007B5D4FFF7FFFB401B8B
:102110000228F7D9A6E0306C10F080580AD10020D0
:102120000190306C40F080503064306C00F0805092
:102130000190019847F20007C4F200073868C00513
:1021400024D4386840F480703860FFF7DFFB054620
:102150003868C0051AD4FFF7D9FB401B0228F7D90D
:1021600080E0E068002851D00020C4F2472001211F
:102170000160FFF7CBFB0546306880073FF571AF84
:10218000FFF7C4FB401B0228F6D96BE0A568052DBC
:1021900050D0012D52D0306F20F001003067306FE9
:1021A00020F004004DE00021C0F8801EFFF7AEFBD8
:1021B000054600BF706F80077FF55DAFFFF7A6FB98
:1021C000401B0228F6D94DE00027C4F24727002023
:1021D0003866FFF79BFB022D05460BD13068800166
:1021E00058D5FFF793FB401B02284FF00300F5D9A9
:1021F00073E700BF306880017FF56EAFFFF786FBA5
:10220000401B02284FF00300F4D966E70020C4F217
:10221000472000210160FFF779FB05463068800701
:102220007FF526AFFFF772FB401B02284FF003003B
:10223000F4D952E7306F40F004003067306F40F05F
:1022400001003067FFF762FB002D054641F2883739
:1022500014D000BF306F800713D4FFF757FB401B2B
:10226000B842F7D9032002B0BDE8F081FFF74EFB7A
:10227000401BB8424FF003003FF62FAF306F80078E
:10228000F4D4B8F1000F7FF4F9AE306C20F0805038
:102290003064F3E604F11C052FCD08430021CFF68E
:1022A000FF7140EA821001EBC3316FF30F0140EA86
:1022B00005600843706001203866FFF727FB04467D
:1022C000306880013FF508AFFFF720FB001B0228B4
:1022D0004FF00300F4D900E770B538B10446406A06
:1022E00030B10020206104F1140007E0012070BD2E
:1022F0006068B0F5827F03D004F11C00002101600A
:102300000026A66294F8510020B9204684F8506057
:1023100000F03CF8022084F8510094E80F0001F42A
:102320008271056802F4044225F0400505601144FD
:1023300003F400622369114403F00202636911444B
:1023400003F00102A369E569114403F4007211442A
:1023500005F03802256A114405F08002A56A114390
:1023600005F4005211430160626A042101EA13413D
:1023700002F0100211444160C16921F40061C161A1
:102380000120666584F85100304670BD2DE9F043A8
:1023900087B043F200050068C4F201050026A84298
:1023A0000696CDE904660396029602D007B0BDE812
:1023B000F08343F630000196C4F20200416902AC9A
:1023C00041F48051416141694FF0020801F48051AC
:1023D00001910199019601684FF0030941F0020152
:1023E00001600168052701F0020101910199019640
:1023F000016841F0010101600068214600F0010020
:10240000019001981820029005F55440CDE903860B
:10241000CDF814900697FFF79DF98020CDE90208CA
:1024200005F550402146CDE904690697FFF792F97A
:1024300007B0BDE8F083000070470000704700005F
:10244000B0B590F83C20012A04BF0220B0BD01F1D4
:1024500008053CCDD1E900CE23F47C5322F4705220
:102460001A432EF4F0431A432CF4E0431A4324F4A5
:10247000C0431A432A43C96922F4804203681143C6
:102480005964002180F83C100846B0BD10B590F8A2
:102490003C20012A4FF0020252D0012380F83C3048
:1024A00080F83D200268D2F804E0D2F808C00C6839
:1024B0002EF07003234341F2FF74C4F20004A242E1
:1024C00053600DDC40F2FF73C4F200039A4215DC46
:1024D000B2F1804F29D040F20043C4F2000322E061
:1024E00040F2FF33C4F201039A4212DC41F60003CA
:1024F000C4F200039A4218D0002312E040F6000311
:10250000C4F200039A4210D040F60043C4F2000324
:1025100009E044F20003C4F201039A4205D040F2FC
:102520000043C4F201039A4204D149682CF08003AD
:10253000194391600121002280F83D1080F83C2071
:10254000104610BD002804BF0120704710B5044696
:1025500090F83D0028B9002084F83C00204600F0A7
:102560001FF8022084F83D002068211D01F060FB67
:10257000012084F8460084F83E0084F83F0084F887
:10258000400084F8410084F8420084F8430084F855
:10259000440084F8450084F83D00002010BD000090
:1025A00080B586B0006840F2FF31C4F20101884274
:1025B0004FF000010591CDE90311CDE9011118DCBF
:1025C00040F60001C4F2000188422CD00021C4F280
:1025D000010188426ED10020009043F64400C4F20D
:1025E0000200016841F001010160006800F0010093
:1025F00029E040F20041C4F20101884227D044F2B0
:102600000041C4F20101884254D10020009043F6F9
:102610004400C4F20200016841F400310160006826
:1026200000F400300FE00020009043F64400C4F2B4
:10263000020050F8041C41F0040140F8041C50F85A
:10264000040C00F004000090009806B080BD00204B
:1026500043F644010090C4F202010A6842F002020B
:102660000A600A6802F002020092009A009051F893
:10267000142C42F4807241F8142C51F8141C01F40B
:102680008071009100998021049003200191022122
:10269000059042F20000CDE90211C4F2020001A946
:1026A000FFF758F82E2000210022FFF72FFB2E20E5
:1026B000FFF728FB06B080BD90F83D1001291CBF34
:1026C00001207047022180F83D10006841F2FF723E
:1026D000C168C4F20002904241F00101C1600DDC0A
:1026E00040F2FF71C4F20001884215DCB0F1804F66
:1026F00029D040F20041C4F2000122E040F2FF3153
:10270000C4F20101884212DC41F60001C4F200016A
:10271000884218D0002112E040F60001C4F2000106
:10272000884210D040F60041C4F2000109E044F2B2
:102730000001C4F20101884205D040F20041C4F218
:102740000101884206D1816801F00701062904BF12
:1027500000207047016841F00101016000207047CE
:1027600010B5044690F83C0001284FF0020008BF65
:1027700010BD012284F83C2084F83D0020684FF60B
:10278000777382689A4382600A684F2A0FDC1F2A97
:1027900022DD202A23D0302A21D0402A4DD14B6877
:1027A000CA68194601F0AEFB206840213BE06F2A61
:1027B00017DDB2F5005F20D0B2F5805F2AD0702A15
:1027C0003BD1D1E9012CCB68614601F0C3FA206806
:1027D000816841F077011AE00AB1102A2DD1114623
:1027E00021E0502A18D0602A27D14B68CA681946C0
:1027F00001F0EEFB2068602115E0D1E9012CCB68E7
:10280000614601F0A7FA2068816841F48041816047
:1028100000200BE0002009E04B68CA68194601F06F
:1028200071FB2068502101F0A1FA0020012184F8F9
:102830003D10002184F83C1010BD0120F6E7000097
:1028400070470000B0B5044690F83C00012804BF72
:102850000220B0BD0D464FEAB2010120032984F8E1
:102860003C0037D8DFE801F0020C16242068D5E9D7
:102870000012EB6801F058FB206850F8181F12E0B6
:102880002068D5E90012EB6801F0B4FB206850F82D
:10289000181F16E02068D5E90012EB6801F0C8FBAC
:1028A000206850F81C1F21F00C010160A9680DE0A0
:1028B0002068D5E90012EB6801F0D4FB206850F8DD
:1028C0001C1F21F440610160A968090202681143DC
:1028D00001600020002184F83C10B0BD002804BF36
:1028E0000120704710B5044690F83D0028B900203B
:1028F00084F83C00204600F01FF8022084F83D00D8
:102900002068211D01F094F9012084F8460084F824
:102910003E0084F83F0084F8400084F8410084F8C9
:10292000420084F8430084F8440084F8450084F8A9
:102930003D00002010BD00007047000010B50446A7
:1029400000680169890744BFC1685FEA817138D4B2
:1029500020680169490744BFC1685FEA41713CD4FE
:1029600020680169090744BFC1685FEA017141D469
:1029700020680169C90644BFC1685FEAC16145D4E6
:1029800020680169C9071CBFC1685FEAC1714AD1EB
:1029900020680169090644BFC1685FEA016149D442
:1029A00020680169490644BFC1685FEA416148D4B3
:1029B00020680169890644BFC1685FEA816147D424
:1029C00010BD6FF00201016101212177806980074C
:1029D00045D02046FFF734FF47E06FF00401016166
:1029E00002212177806910F4407F41D02046FFF713
:1029F00027FF43E06FF00801016104212177C069DE
:102A000080073ED02046FFF71BFF40E06FF010012B
:102A1000016108212177C06910F4407F3AD0204637
:102A2000FFF70EFF3CE06FF001010161204600F06E
:102A30002FF9ADE76FF0800101612046FFF7FCFC44
:102A4000AEE76FF040010161204600F02DF9AFE7DD
:102A50006FF0200101612046FFF7F0FC10BD204619
:102A600000F096F8204600F011F9002020776FE77B
:102A7000204600F08DF8204600F008F9002020776D
:102A80006EE7204600F084F8204600F0FFF80020B2
:102A900020776DE7204600F07BF8204600F0F6F83E
:102AA000002020776CE7000080B586B0006840F613
:102AB0000002C4F2000200219042CDE90411CDE9E8
:102AC0000211019126D044F20041C4F20101884272
:102AD00039D00021C4F20101884257D1002143F6C8
:102AE00030000091C4F2020002684FF0010C42F085
:102AF000100202600068002300F0100000900098AF
:102B00004FF40070019040F60040C4F2020000F55E
:102B1000806033E043F630000091C4F202000268A6
:102B20004FF0020C42F0080202600068002300F03F
:102B30000800009000984FF48040019040F600405B
:102B4000C4F202001AE00020009043F63000C4F204
:102B5000020001684FF0030C41F0200101600068A1
:102B6000022300F02000009000984020019040F6E1
:102B70000040C4F2020000F5006001210222CDE90C
:102B8000022101A9CDE9043CFEF7E4FD06B080BDB9
:102B900070470000B0B5044690F83C00012804BF1F
:102BA0000220B0BD0D464FEAB2010120032984F88E
:102BB0003C0037D8DFE801F0020A122220682946DB
:102BC00001F0DCF8206850F8181F0EE02068294654
:102BD00001F006F9206850F8181F16E02068294611
:102BE00001F034F9206850F81C1F41F00801016021
:102BF000016821F00401016029690FE0206829467D
:102C000001F058F9206850F81C1F41F40061016080
:102C1000016821F480610160296909020268114399
:102C200001600020002184F83C10B0BD002804BFE2
:102C30000120704710B5044690F83D0028B90020E7
:102C400084F83C00204600F01FF8022084F83D0084
:102C50002068211D00F0ECFF012084F8460084F874
:102C60003E0084F83F0084F8400084F8410084F876
:102C7000420084F8430084F8440084F8450084F856
:102C80003D00002010BD00007047000070470000AC
:102C900080B5006841F20001C4F20001884208BF1B
:102CA000FEF792FF80BD00007047000070470000F3
:102CB00070470000B0B582B0036804461868D96850
:102CC0005A6900F02F05202D01F0200505D125B10E
:102CD000204601F0A3FA02B0B0BD5FEA007C1EBF3F
:102CE00002F0010E01F4907212EB0E0248D1226B39
:102CF0000840C1063BD5012A39D10020019018684F
:102D000001905868019001985869400640D4A08D00
:102D1000E18DE28D002A1CBF401A5FEA004101D11B
:102D200002B0B0BD216851E8031F226821F4907100
:102D300042E80313002BF5D1216851E8051F2268F2
:102D400021F0010142E80513002BF5D1202184F880
:102D50003E100021216300BF216851E8031F226853
:102D600021F0100142E80313002BF5D152E00106D7
:102D700056D44006D4D5204601F036FA02B0B0BD94
:102D8000C20718BF11F480724FD1420753D459E0E3
:102D9000A06B016849688AB2002AC1D0A38D9A420B
:102DA000BED2E185C069B0F5807F30D0206850E8A0
:102DB000030F216820F4807041E80302002AF5D156
:102DC000206850E8050F216820F0010041E8050265
:102DD000002AF5D1206850E8050F216820F0400056
:102DE00041E80502002AF5D1202084F83E000020A9
:102DF000206300BF206850E8030F216820F0100016
:102E000041E80302002AF5D1A06BFEF7E1FAA08D9C
:102E1000E18D401A81B22046FFF748FF02B0B0BDF5
:102E2000204601F019FB02B0B0BD226C42F0010255
:102E30002264420706D5BEF1000F03D0226C42F097
:102E400002022264820706D5BEF1000F03D0226C75
:102E500042F004022264BCF1000F06D55EEA0502CE
:102E600003D0226C42F008022264226C002A3FF454
:102E700057AF0840800602D5204601F0CFF9206800
:102E80004069216C00F0400001F00801401827D093
:102E9000204601F081F92068406940061BD500BF3B
:102EA000206850E8050F216820F0400041E8050245
:102EB000002AF5D1A06B70B144F2A101C0F6000167
:102EC0000165FEF7C5FA00283FF42AAFA06B016D3B
:102ED000884702B0B0BD2046FFF7EAFE02B0B0BDA1
:102EE0002046FFF7E5FE0020206402B0B0BD0000E0
:102EF000002804BF0120704710B5044690F83D003B
:102F000028B9002084F83C00204600F021F8242055
:102F100084F83D002068C16821F40051C16020465A
:102F200001F0DEF92068016921F4904101614169F5
:102F300021F02A014161C16841F40051C1600020C3
:102F40002021206484F83D1084F83E1010BD00005C
:102F50002DE9F04387B00446006844F60001C4F24E
:102F6000000100268842CDE90566CDE90366029698
:102F700057D041F20041C4F20101884200F0A8801C
:102F800041F20001C4F20101884240F0CC800026E9
:102F900043F630000196C4F202004169002441F07A
:102FA000100141614169C4F2020401F01001019174
:102FB00001990196016802AD41F0020101600168CA
:102FC0004FF0020801F00201019101990196016898
:102FD0004FF0030941F0010101600068072700F08C
:102FE0000100019001988020029004F5806029463C
:102FF000CDE90386CDF814900697FEF7ABFB4FF4AE
:103000000070CDE9020820462946CDE904690697FB
:10301000FEF7A0FB252000210022FEF777FE2520E9
:1030200051E043F630000196C4F20200016941F418
:1030300080210161016901F48021019101990196CA
:10304000016841F004010160006802A900F0040079
:10305000019001984FF4406002900220CDE90306F0
:1030600003200590072006900020C4F2020000F51E
:103070000060FEF76FFB41F2D03546F22800C2F245
:103080000005C4F202004FF0006185E843004FF4F0
:1030900040304FF480624FF48073C5E9080628463B
:1030A000C5E90362C5E90566EB61FEF7A9FA0028E8
:1030B00018BFFDF7DFFD272000210022A563AC63C8
:1030C000FEF724FE2720FEF71DFE07B0BDE8F083C3
:1030D000002043F630010190C4F202014A6942F037
:1030E00020024A614A6902F020020192019A01908D
:1030F0000A6842F040020A60096801F0400101914B
:1031000001994FF4844102910221CDE9031003207B
:103110000590082006900020C4F2020000F5C0507F
:1031200002A9FEF717FB07B0BDE8F08310B590F8D1
:103130003E30202B0BD100294FF0010418BF002A8C
:1031400001D1204610BD90F83C30012B01D1022066
:1031500010BD0123002480F83C30046301F02EF9F7
:10316000204610BD70470000704700002DE9F04375
:1031700081B0044690F83D0020280BD10E4600296E
:103180004FF0010055D01746002A52D094F83C0069
:10319000012803D1022001B0BDE8F083012084F8AA
:1031A0003C004FF0000921201D46C4F8409084F8EF
:1031B0003D00FEF7ABFBA784E784A1680746B1F5A5
:1031C000805F07D1206900281CBF30464E46B046BC
:1031D000064601E04FF0000884F83C9007E000BF8D
:1031E00016F8010B21684860E08C0138E084E08C1F
:1031F00080B1204680213A462B4601F057F980B92C
:10320000002EEDD138F8020B21686FF35F20486083
:103210000026E9E7204640213A462B4601F046F9D0
:1032200018B1032001B0BDE8F083202084F83D00F0
:10323000002001B0BDE8F08370470000FEE7000009
:1032400041F60044C4F2020407A500BF20464FF433
:103250008051FEF74DFB284603F0B8FD4FF47A701D
:1032600001F0CAFCF2E700BF496E64657800000017
:1032700010B584B041F2183001240021C2F20000E0
:1032800042F20002C0F60074C4F201024FF480332F
:10329000C0E90A410124CDE90211CDE9001101760E
:1032A00080F82010C46180F83010C0E90023C0E924
:1032B0000211C0E90414FDF76BFD78B91120CDE9C6
:1032C00000040720029041F21830C2F20000694663
:1032D000FDF7D6FC002804BF04B010BDFDF7CAFC02
:1032E00010B584B041F2603001240021C2F2000028
:1032F00042F20022C0F60074C4F201024FF480339F
:10330000C0E90A410124CDE90211CDE9001101769D
:1033100080F82010C46180F83010C0E90023C0E9B3
:103320000211C0E90414FDF733FD78B90820CDE996
:1033300000040720029041F26030C2F200006946AA
:10334000FDF79EFC002804BF04B010BDFDF792FC01
:1033500080B541F2A83046F20041C2F20000C4F24A
:1033600000010322002380E80E0000F10C014FF45D
:10337000102C4FF4001E81E8085083618383FDF711
:1033800047FF002808BF80BDFDF774FC80B582B000
:103390000020019043F63000C4F2020001680022D0
:1033A00041F4001101600068002100F40010019058
:1033B00001980C20FEF7AAFC0C20FEF7A3FC02B03B
:1033C00080BD00002DE9F04F87B0002443F63000A7
:1033D0000694CDE90444CDE902440194C4F202000C
:1033E000016840F2000941F0400101600168C4F247
:1033F000020901F04001019101990194016809F568
:10340000C05741F0020101600168012201F0020190
:1034100001910199019401684FF0400A41F00101C6
:1034200001600168012601F00101019101990194F7
:10343000016841F008010160016801F00801019193
:1034400001990194016841F004010160016801F0F3
:103450000401019101990194016841F480710160B6
:10346000016801F48071019101990194016841F0B2
:1034700020010160016801F020010191019901948E
:10348000016841F080010160016801F08001019153
:1034900001990194016841F0100101600068402128
:1034A00000F01000019001983846FEF729FA09F55E
:1034B000E05528464FF4E05100224FF4E05BFEF760
:1034C0001FFA484610210122FEF71AFA09F5806812
:1034D000404601210122FEF713FACDE902A60DF1C3
:1034E000080A38465146CDE90466FEF733F9284606
:1034F0005146CDE902B6CDE90444FEF72BF9092087
:1035000002904FF4041538465146CDE90356FEF7B4
:1035100021F948465146CDE902640494FEF71AF9B0
:103520001020CDE90206022448465146049605942F
:10353000FEF710F9302002A961C109F5006051467B
:10354000FEF708F940465146CDE90266CDE904642C
:10355000FEF700F9062000210022FEF7D7FB062027
:10356000FEF7D0FB092000210022FEF7CFFB092047
:10357000FEF7C8FB0A2000210022FEF7C7FB0A2045
:10358000FEF7C0FB172000210022FEF7BFFB17202B
:10359000FEF7B8FB07B0BDE8F08F000080B541F240
:1035A000304045F60001C2F20000C4F2000141F6CD
:1035B000802200234FF4804CC0F2060280E80E0007
:1035C000C0E9033CC0E90533C0E90733FEF7A4F9BD
:1035D000002808BF80BDFDF74DFB000080B541F21B
:1035E000844045F60041C2F20000C4F2000141F6F9
:1035F000802200234FF4804CC0F2060280E80E00C7
:10360000C0E9033CC0E90533C0E90733FEF784F99C
:10361000002808BF80BDFDF72DFB0000B0B541F2CA
:10362000D84043F20001C2F20000C4F201014FF49D
:103630008272002380E80E0000F10C014FF0020CB2
:103640004FF0010E4FF40074182581E808500A214C
:10365000C0E90645C0E90833C0E90A31FEF73CFE7F
:10366000002808BFB0BDFDF705FB000080B588B09D
:1036700041F2785044F200420021C2F20000C4F24C
:10368000010241F287330791CDE90511CDE903111C
:10369000CDE90111C0E90021C0E902130161816196
:1036A000FEF750FFE8B941F27850C2F20000FFF790
:1036B000BDFAB0B9602001900020CDE9020005906C
:1036C00041F27850C2F2000001A90022FFF762FA2D
:1036D00038B941F27850C2F20000FFF7E5F908B0BE
:1036E00080BDFDF7C7FA000010B596B041F230502A
:1036F00000220021C2F20000C4F20102A72340F61A
:10370000C3141591CDE91311CDE91111CDE90F11B4
:10371000CDE90D11CDE90B11CDE90911CDE9071165
:10372000CDE90511CDE90311CDE90111C0E900236F
:10373000C0E90214C0E904118161FEF703FF00280B
:1037400047D14FF48050129041F23050C2F2000045
:1037500012A9FFF705F8E0BB41F23050C2F20000B9
:10376000FFF764FAA8BB41F230500024C2F2000017
:1037700010A9CDE91044FEF789FE50BB6020CDE9C9
:10378000090441F23050C2F2000009A90022CDE93B
:103790000B44CDE90D440F94FFF7FCF9C8B90020A4
:1037A0000590CDE90300CDE901004FF400510890E8
:1037B00041F230500691C2F2000001A9FEF740FE2E
:1037C00038B941F23050C2F20000FFF76DF916B07F
:1037D00010BDFDF74FFA000010B58EB041F2C05099
:1037E00040F600020021C2F20000C4F2000253239E
:1037F00044F61F640D91CDE90B11CDE90911CDE916
:103800000711CDE90511CDE90311CDE90111C0E999
:103810000023C0E9021401618161FEF793FEA0BBA1
:103820004FF480500A9041F2C050C2F200000AA941
:10383000FEF796FF48BB41F2C050C2F20000FFF70E
:10384000F5F910BB41F2C0500024C2F2000008A9F3
:10385000CDE90844FEF71AFEB8B9602001904FF494
:10386000FA60CDE9020441F2C050C2F2000001A9A1
:1038700008220594FFF78EF938B941F2C050C2F220
:103880000000FFF711F90EB010BDFDF7F3F90000CD
:1038900010B58AB041F2506040F200420021C2F2FD
:1038A0000000C4F20102A7234FF0FF34CDE9081154
:1038B000CDE90611CDE90411CDE90211CDE90011E0
:1038C000C0E90023C0E90214C0E904118161FEF7D8
:1038D00039FE68BB4FF48050069041F25060C2F24E
:1038E000000006A9FEF73CFF10BB41F25060C2F297
:1038F0000000FEF7F3FFD8B941F250600024C2F295
:10390000000004A9CDE90444FEF7C0FD80B9012000
:10391000CDE9010441F25060C2F20000694608227C
:1039200000940394FEF78EFF002804BF0AB010BD78
:10393000FDF7A0F980B500F0B9FF80BD80B541F278
:10394000986041F20001C2F20000C4F201010023BC
:103950004FF00C0C4FF4E13280E80E00C0E9033365
:10396000C0E905C3C361FFF7C3FA002808BF80BDE3
:10397000FDF780F910B541F2DC6044F6000C48F226
:10398000A062C2F20000C4F2000CC0F201024FF4C7
:10399000805300214FF4806E0C24C0E900C2C0E9BE
:1039A0000231C0E904E4C0E90611FFF7A1FA0028DA
:1039B00008BF10BDFDF75EF980B541F2207041F2FD
:1039C0000041C2F20000C4F2010100234FF00C0CD0
:1039D0004FF4E13280E80E00C0E90333C0E905C3CB
:1039E000C361FFF785FA002808BF80BDFDF742F9E3
:1039F000FEE700004BF64028CFF6FB7800F09CF87D
:103A0000FDF770F840F28C5749F2A02AC2F2000785
:103A100040F2DD5640F25629CFF6FF7A4FF48C7B08
:103A20000BE000BF40F2411000F066F84FF4A170C7
:103A300000F062F80A2001F0DFF8B88FB042F1D34D
:103A4000F98E788EA1F2B732622A0DD8A0F2B73281
:103A5000622A09D840F2411000F04EF84FF4A170EC
:103A600000F04AF832E000BFA1F2BD224A45A0F2C0
:103A7000BD220ED84A4515D8A1F57A71A0F57A7005
:103A8000421A0844C2EBC202C0EBC0009400850099
:103A90001CE04A450FD8C0EBC00001FB0B810AEBCC
:103AA000800005E0C1EBC10100FB0B800AEB810146
:103AB000441A45180AE0A1F57A71A0F57A70421A05
:103AC000084402FB0BF400FB0BF500BF40F2411071
:103AD000214600F007F84FF4A170294600F002F8E3
:103AE000A8E7000080B540F20C02C2F2000251606B
:103AF0001146FDF711F880BD80B540F21401C2F205
:103B00000001FDF709F880BDFEE7000000F00700A6
:103B100080F00703042B28BF04234FF0FF3C033839
:103B20000CFA03F338BF0020994381400CFA00F0EF
:103B300022EA00000843704780B541F2DC60C2F21F
:103B400000000168CA6842F01002CA6041F2647164
:103B5000C2F200013222FFF7E9FA80BD70B592B0DF
:103B600006AC20463021FCF7A7FC002543F64000B8
:103B70000595CDE90355CDE901550095C4F2020044
:103B80000168022641F080510160006800F0805019
:103B90000090009847F200000095C4F20000016810
:103BA00041F480410160006800F48040009000987A
:103BB000012006904FF4803007904FF480000D9064
:103BC00006200E904820CDE90F06032011902046D4
:103BD0000C96FEF7DDF978B90F20CDE901064FF418
:103BE0008050CDE9040501A802210395FEF7A2F853
:103BF000002804BF12B070BDFDF73CF84EF68850A7
:103C0000CEF20000016841F47001016070470000CD
:103C100080B541F20860C2F20000FEF78FFE80BD61
:103C200080B541F25060C2F20000FEF787FE80BD11
:103C300010B540F6FF3E0368C4F2000E40F2004C9F
:103C40007045C4F2010C0FDCB0F1804F19D040F286
:103C50000042C4F20002904213D040F60002C4F2C7
:103C6000000290420DD010E040F60042C4F2000283
:103C7000904206D0604504D00022C4F20102904276
:103C800003D14A6823F07003134341F6FF72C4F274
:103C9000000290420DDC70451FDCB0F1804F41D036
:103CA00040F20042C4F2000290423BD040F60002D3
:103CB00021E043F6FF72C4F20102904220DC42F29E
:103CC0000002C4F2000290422CD00022C4F2010291
:103CD000904227D0604525D028E040F60042C4F24B
:103CE000000290421ED041F60002C4F2000290424F
:103CF00018D041F60042C4F20002904212D015E002
:103D000044F20002C4F2010290420BD044F60002D9
:103D1000C4F20102904205D044F20042C4F2010212
:103D2000904203D1CA6823F44073134323F0800206
:103D30004B69D1F800E08C681A430260C46240F419
:103D40008062C0F828E0624504BF0969016301216F
:103D5000416110BDD0F808C011432CF47F4C41EAFA
:103D6000032141EA0C01816070470000826822F063
:103D70007002114341F0070181607047B0B5026ADB
:103D800040F2004522F001020262026AD0F804E02B
:103D9000D0F818C08C6822F0020240F48063C4F2AC
:103DA0000105AB4242EA040205D1CC6822F00C02C4
:103DB00024F0040422430C68AB4207D1D1E9055337
:103DC0002EF4407E45EA0E0545EA030E2CF07303FF
:103DD0002343C0F804E08361496841630262B0BDD7
:103DE00070B5026A40F2004422F010020262026AD8
:103DF000D0F804E0D0F818C08D6822F0200240F41A
:103E00008063C4F20104A34242EA051207D1CD68DF
:103E10006FF0400622F0C00206EA05152A430D683D
:103E2000A34207D1D1E905642EF4406343EA860337
:103E300043EA840E2CF4E64343EA0523C0F804E089
:103E4000836149688163026270BD000070B5026AD7
:103E500040F2004422F480720262026AD0F804E068
:103E6000D0F81CC08D6822F4007240F48063C4F264
:103E70000104A34242EA052207D1CD6840F2FF4681
:103E80002D0222F44062B5432A430D68A34207D1B4
:103E9000D1E905642EF4405343EA061343EA041EB5
:103EA0002CF073032B43C0F804E0C3614968C1637D
:103EB000026270BD70B5026A40F2004622F4805280
:103EC0000262026A4368D0F81CE00C68D1F808C0AE
:103ED00040F48065C4F20106B54204D14D6923F473
:103EE000804343EA85132EF4E64646EA04264360FF
:103EF000C66122F40052496842EA0C32016402624F
:103F000070BD0000D0F820C0036A23F001030362F3
:103F1000836923F0F00343EA02122CF00A031943E9
:103F2000826101627047000010B5D0F820C041F2F4
:103F3000FF742CF0010CC0F820C0D0F818E0D0F8C5
:103F400020C0C4F20004A0420DDC40F2FF74C4F2B1
:103F50000004A04215DCB0F1804F29D040F20044AB
:103F6000C4F2000422E040F2FF34C4F20104A04293
:103F700012DC41F60004C4F20004A04218D0002470
:103F800012E040F60004C4F20004A04210D040F653
:103F90000044C4F2000409E044F20004C4F2010445
:103FA000A04205D040F20044C4F20104A0420CD16A
:103FB0002EF00304224363F307122CF00A0301F0EE
:103FC0000A0119448261016210BD4EF00102F2E75C
:103FD000036A23F0100303628369D0F820C023F43E
:103FE000704343EA02322CF0A00343EA01118261DC
:103FF0000162704710B5D0F820C012022CF0100CEE
:10400000C0F820C0D0F818C0D0F820E04FF2FF046C
:10401000A2432CF4734C63F30F322EF0A00301F093
:104020000A0142EA0C0243EA01118261016210BDF9
:1040300080B5D0F820C063F307122CF4807CC0F860
:1040400020C0D0F81CC0D0F820E02CF0F30C2EF4E7
:10405000206301F00A0142EA0C0243EA0121C26135
:10406000016280BD10B5D0F820C012022CF4805C33
:10407000C0F820C0D0F81CC0D0F820E04FF2FF04F8
:10408000A2432CF4734C63F30F322EF4204301F05F
:104090000A0142EA0C0243EA0131C261016210BD29
:1040A00080B5806B0021C185C184FEF701FE80BD13
:1040B00010B5846B2068406994F83D10212907D120
:1040C00010F0800004D00020E084204600F098F832
:1040D0002068406994F83E10222907D110F0400072
:1040E00004D00020E085204600F056F8206C40F017
:1040F000100020642046FEF7DBFD10BD80B501688E
:10410000806B0968C9052FD40021C185016851E879
:10411000031F026821F4807142E80313002BF5D1DC
:10412000016851E8051F026821F0010142E805130A
:10413000002BF5D1016851E8051F026821F040010C
:1041400042E80513002BF5D1202180F83E10016BC9
:10415000012909D1016851E8031F026821F010010B
:1041600042E80313002BF5D1016B012903D1818DA6
:10417000FEF79CFD80BDFEF7F5FF80BD80B5806B2E
:10418000016B012904D1818D4908FEF78FFD80BDA7
:10419000FEF7EAFF80BD0000016851E8031F0268D6
:1041A00021F4907142E80313002BF5D1016851E826
:1041B000051F026821F0010142E80513002BF5D12B
:1041C000016B01290AD100BF016851E8031F026891
:1041D00021F0100142E80313002BF5D1202180F8D3
:1041E0003E1000210163704780B50168CA6822F063
:1041F0004002CA60202180F83D10FFF71DF880BD05
:10420000016851E8031F026821F0C00142E803136E
:10421000002BF5D1202180F83D10704780B582B089
:1042200090F83E1022291ED18268B2F5805F02D13B
:104230000169002948D0816AB2F5805F07D00AB9C8
:10424000026922B10268526802F07F0201E002684E
:1042500052680A700121826A11448162C18D01395C
:104260000A04C18501D002B080BD0168CA6822F08D
:104270002002CA60CA6822F48072CA604A6922F0C9
:1042800001024A61202180F83E10016B012923D1EF
:1042900000210163016851E8031F026821F0100149
:1042A00042E80313002BF5D101680A68D20606D54F
:1042B000002201920A680192496801910199818D59
:1042C000FEF7F4FC02B080BD0168826A49686FF3B2
:1042D0005F2111800221BEE7FEF744FF02B080BDDE
:1042E00010B504460068D4E902C22369016921F4CB
:1042F000405111430161626943EA0C01E3691143D2
:10430000C268194349F20C639A431143C160416981
:10431000A26921F4407141F20043114340F48062EC
:10432000C4F201039A42416102D1FDF7EBFD01E0C5
:10433000FDF7D6FDE16963681922B1F5004FA0FBD6
:1043400002011CD15A00DB0FFCF77EF848F21F5126
:10435000C5F2EB11A0FB01235A096FF0630302FBC6
:104360000300322303EBC000A0FB01014FF4F870FF
:1043700000EA111000EB0210C1F342111AE09A009A
:104380009B0FFCF761F848F21F51C5F2EB11A0FB3F
:1043900001235A096FF0630302FB0300322303EB8E
:1043A0000010A0FB0101F02000EA511000EB021008
:1043B000C1F3431122680843906010BD70B582B00C
:1043C000134600260446816283850664222084F811
:1043D0003E000A462168A06B44F2FD0C44F27D1EAB
:1043E00044F2B105C0F6000CC0F6000EC0F60005A0
:1043F0000431C0E90FCEC0E91356FDF769F9019603
:10440000206801680191406801900198206984F852
:104410003C6048B1206850E8030F216840F4807088
:1044200041E80302002AF5D1206850E8050F216811
:1044300040F0010041E80502002AF5D1206850E86B
:10444000050F216840F0400041E80502002AF5D13F
:10445000002002B070BD000090F83D10212923D14A
:104460008168B1F5805F01D1016931B1016A0268EB
:104470004B1C03620978516007E0016A036831F858
:10448000022B6FF35F225A600162C18C01390A046A
:10449000C18418BF70470068C16821F08001C16005
:1044A000C16841F04001C160704700002DE9F04152
:1044B0000446006800680840884202D10020BDE838
:1044C000F0811D460E4690465F1C04E0206800689F
:1044D0003040B042F2D0002FF8D02DB1FDF716FADF
:1044E000A0EB0800A842F1D9206850E8030F21682A
:1044F00020F4D07041E80302002AF5D1206850E88A
:10450000050F216820F0010041E80502002AF5D1DD
:10451000202084F83D0084F83E00002084F83C0010
:104520000320BDE8F081000080B541F29860C2F23E
:104530000000FEF7BFFB80BD80B541F2DC60C2F237
:104540000000FEF7B7FB80BDFEE7000010B541F2AA
:104550006034C2F200042046FCF7F2FC20460A2137
:10456000FCF78EFC2046FCF70FFC80B200EE100A30
:1045700041F6B830C2F2000090ED001AB8EEC00A61
:104580009FED032A21EE000A20EE020A10BD00BFB3
:104590005D74214110B541F21834C2F20004204686
:1045A000FCF7CEFC20460A21FCF76AFC2046FCF70B
:1045B000EBFB80B200EE100AB8EE400A10BD00001E
:1045C00010B52DED028B9FED0E8A0024FFF7E2FF60
:1045D00038EE000ABCEEC00AC72C04F10104B8EEA4
:1045E000408AF3D39FED070A41F6B83080EE080AFF
:1045F000C2F2000080ED000ABDEC028B10BD00BFCE
:104600000000000001007043FFF7DAFF08A400BFBC
:10461000FFF79CFF10EE100AFBF759FF02462046F9
:104620000B4601F059FF42F2107000F0E5FAEFE797
:10463000566F6C746167653A20252D332E31660AFA
:1046400000000000002848BF704700F01F01012251
:1046500002FA01F14EF200124009CEF2000242F8D5
:10466000201070474EF60C50CEF200000068C0F3E8
:10467000022070474EF6145300F00F02CEF20003F2
:1046800009011A4400F16043B0F1FF3FC8BF03F5D0
:1046900064421170704700004EF60C51CEF20001DA
:1046A0000A684FF6FF031A4060F30A2242F0806066
:1046B00040F0FD70086070472DE9F04182B00F4670
:1046C00034211E4614460546FBF7F6FE26F0030687
:1046D000A6F10800A8600220E860A0196F60C5E993
:1046E0000646C5E9044440F8084D456020604EF692
:1046F000EE60CFF6FF70214641F8040F00202862DB
:1047000045F24540C4F259200191EFF3108872B68A
:10471000286040F6B440C2F20000016840F6B8429A
:10472000C2F2000231B11268136B1563DD62C5E994
:104730000B2302E01560C5E90B55013101604FF014
:10474000000C082029463A463346CDF800C001F057
:104750003BFC41F2F020C2F200000168002959D070
:1047600041F2FC22C2F200021278520752D540F206
:104770000802C2F200021268EFF30583134340F609
:10478000EC42C2F2000212680AD01B09B3F10F3FDB
:1047900039BF13464FF0FF324FF0F032002305E0EF
:1047A000D36AD76B43EA074343F00043C1E90023D0
:1047B00015228A6041F20402CEF20002126801ABB7
:1047C000C1E9032541F2F422C2F20002176801F1A7
:1047D0002002BA42C1E90546CB6107D241F2043159
:1047E000C2F20001096802600A6213E041F2F82196
:1047F000C2F200010A6841F20031026041F2043065
:10480000C2F20001C2F20000096803681A6209B12D
:104810000068884788F31088002002B0BDE8F08166
:1048200080B501F0B1FB00F079F901F015F840F620
:10483000DC40C2F200000021016040F6D840C2F224
:104840000000016040F6D440C2F20000016040F672
:10485000D040C2F20000016040F6C040C2F2000049
:10486000016040F6BC40C2F20000016040F6AC407E
:10487000C2F20000016040F6A840C2F200000160F0
:1048800040F6B840C2F20000016040F6B440C2F207
:104890000000016040F6CC40C2F20000016040F62A
:1048A000C840C2F20000016080BD000010B540F2B7
:1048B0000804C2F20004206810F10F3F0DD04FF041
:1048C000F0302060FBF78CFCFFF7AAFF40F6FC40BD
:1048D000C2F200000168013101604FF0F030206049
:1048E00040F6C440C2F20000006801F06BFD0020F9
:1048F0002060FBF7BDFC10BD2DE9F04F81B0DDE974
:104900000A5716468846DDF838B004462846394628
:10491000EF229A46FBF7C9FD381F20F00307E81C79
:1049200020F003092046B021A94518BF043FFBF73A
:10493000C3FD07EB090101390C9DC4E903910D99F1
:1049400020208D422946C4F82880C4E9116AE56216
:10495000C4E9057BC4F81CB018BF0021C4F89C0052
:104960000320206345F2F970E163C4E92551C0F6E4
:10497000000044F6A131C4E91504C0F60001204648
:10498000FBF7DEFCA06840F6E842C4F8A80045F258
:104990004420C5F24840EFF3108B72B6206040F619
:1049A000E440C2F200000168C2F2000249B112689C
:1049B000D2F88C30C2F88C40C3F88840C4E9222376
:1049C00002E01460C4E922440131DDF83CA001603A
:1049D0000120214642464B46009701F0F5FA41F28C
:1049E000F020C2F200000168002958D041F2FC22F8
:1049F000C2F200025278D20751D040F20802C2F24D
:104A000000021268EFF30583134340F6EC42C2F252
:104A1000000212680AD01B09B3F10F3F39BF1346D9
:104A20004FF0FF324FF0F032002305E0D36AD66B2F
:104A300043EA064343F00043C1E9002364228A604D
:104A400041F20402CEF20002126801F10C0383E885
:104A5000340241F2F422C2F20002136801F1200292
:104A60009A42CF6107D241F20431C2F200010968D3
:104A700002600A6213E041F2F821C2F200010A6802
:104A800041F20031026041F20430C2F20001C2F290
:104A90000000096803681A6209B10068884740F697
:104AA000FC40C2F200000168BAF1010F01F10101FE
:104AB000016018D140F20800C2F200000068EFF374
:104AC00005810843B0F1F03F4FF0000618D340F6DF
:104AD000F040C2F200000068002790B1C16AC66BC6
:104AE0000746C1630DE08BF31088EFF3108172B6B7
:104AF0000268013A026081F3108800F08DF908E045
:104B000000278BF31088204600F0E6F9002F18BF2D
:104B1000FE63002001B0BDE8F08F000010B540F644
:104B2000EC40C2F200000024046040F6F040C2F203
:104B30000000046040F68050C2F20000046040F6BD
:104B4000F440C2F200002021016040F60050C2F2A1
:104B500000008021FBF7B0FC40F6E840C2F2000004
:104B6000046040F6E440C2F20000046040F6FC40FD
:104B7000C2F20000046040F6F84040F6B041C2F2D4
:104B80000000C2F20001046040F6E0400A68C2F290
:104B90000000046042F08D7040F48070086010BD29
:104BA00010B540F6EC40C2F200000468D4E91110E0
:104BB000884740F6F840C2F20000016809B120467B
:104BC00088470121EFF3108072B62163A1630021B1
:104BD000E16440F6FC41C2F200010A6801320A6059
:104BE00080F31088EFF3148020F0040080F3148821
:104BF000204600F031FB10BDF0B581B040F6EC422C
:104C0000EFF3108672B6C2F20002146864B140F28B
:104C10000803C2F2000305461868EFF30581084354
:104C200009D086F3108801E086F3108813200090E5
:104C30005DF8040BF0BD40F63860C2F2000084421B
:104C400009D05DB140F6FC47C2F20007386848B1B0
:104C500086F31088EAE786F31088E7E786F3108882
:104C60000020E4E741F2F02CC2F2000CDCF8001066
:104C7000002956D041F2FC20C2F200004078C00763
:104C80004FD01868EFF30583126803430AD0180960
:104C9000B0F10F3F39BF13464FF0FF324FF0F03203
:104CA000002305E0D06AD36B40EA034040F00043A4
:104CB0007020886041F20400C1E90023CEF20000B8
:104CC000006801F12002C860206BC1E90450684609
:104CD000886141F2F420C2F20000006882424FF085
:104CE0000000C86108D241F20430C2F2000000683E
:104CF000CCF80020026214E041F2F820C2F2000079
:104D000041F20031026841F20430C2F20001C2F205
:104D1000000009680368CCF800201A6209B1006835
:104D20008847042020630120A0630020C4F8840089
:104D3000E56438680130386086F31088204600F05A
:104D40008BFAD4F8840072E7F0B5EFF3108172B6F5
:104D500000284DD0026845F2442CC5F2484C62450B
:104D600046D1C368002B43D0D0F8A850002D3FD0C7
:104D700081F310886FF00304A5EB030E2A4604EAC2
:104D80006E055F594FEAAE061D44B7F1EF3F194675
:104D900004BF2B461546032EEED84EEAEE73012BC8
:104DA000A1EB0202A8BF01237245C8BF96464FEA95
:104DB0009E025A436FF0020303EA420211440B1FA2
:104DC00053F8041FB1F1EF3FFAD0EFF3108172B640
:104DD000026862450CD1C268934209D9D0F8A82074
:104DE000934205D21A68B2F1EF3F18BFC0F8A8305D
:104DF00081F31088F0BD000010B540F6E041EFF3FC
:104E0000108472B6C2F200010968002918BF8847F1
:104E100084F3108810BD000010B540F6FC40C2F2CB
:104E20000000006800B110BD40F6EC4040F6F041D3
:104E3000C2F20000C2F2000100680C68A042F2D089
:104E4000EFF3108072B69CB3216845F24422C5F29C
:104E5000484291422CD1A168D4F8A8208A4288BF48
:104E6000C4F8A810E1680A68B2F1EF3F09D12269DD
:104E7000D2F80120B2F1EF3F03D1D4F8A8208A4242
:104E800007D280F310882046FFF7B6FFEFF31080BB
:104E900072B6D4F8A81051F8041CB1F1EF3F07D056
:104EA00080F310882046FFF74FFFEFF3108072B6B3
:104EB00080F310884EF60450CEF200004FF080517F
:104EC0000160EFF30580002818BF10BDEFF31080DC
:104ED00062B680F3108810BD2DE9F04F81B0044612
:104EE00045F24428EFF3108072B6C5F248487CB30F
:104EF000216841452CD1A168D4F8A8208A4288BFF6
:104F0000C4F8A810E1680A68B2F1EF3F09D122693C
:104F1000D2F80120B2F1EF3F03D1D4F8A8208A42A1
:104F200007D280F310882046FFF766FFEFF310806A
:104F300072B6D4F8A81051F8041CB1F1EF3F07D0B5
:104F400080F310882046FFF7FFFEEFF3108072B663
:104F500080F31088EFF3108772B6606E002804F1BA
:104F60004C0002D000F02EFD01E00021016041F272
:104F7000F020C2F20000056840F6EC4A40F6F04925
:104F8000C2F2000AC2F20009E5B141F2FC21C2F20C
:104F900000010978C90754D040F20801C2F20001AB
:104FA0000968EFF305820A43DAF800100CD0120901
:104FB000B2F10F3F39BF0A464FF0FF314FF0F031E9
:104FC000002207E000203DE0CA6ACB6B42EA0342C0
:104FD00042F00042C5E900120121A96041F204013A
:104FE000CEF200010968226BE9606946A96141F2CD
:104FF000F421C2F200016A610A6805F120019142C0
:10500000D9F800202C61EA6107D241F20432C2F2E1
:10501000000212680160116213E041F2F821C2F24D
:1050200000010A6841F20031026041F20430C2F22C
:105030000001C2F20000096803681A6209B1006841
:105040008847E86840F6FC46C2F20006316801393C
:105050003160A26B216B42B1013902290DD3616B22
:1050600039B90021A163216307E031B1616B0029E7
:1050700060D000210322226361632DB1E968884278
:1050800004BFD9F80000E861DAF8000087F310885F
:10509000D9F80040A04237D0EFF3108072B67CB34D
:1050A000216841452CD1A168D4F8A8208A4288BF44
:1050B000C4F8A810E1680A68B2F1EF3F09D122698B
:1050C000D2F80120B2F1EF3F03D1D4F8A8208A42F0
:1050D00007D280F310882046FFF78EFEEFF3108092
:1050E00072B6D4F8A81051F8041CB1F1EF3F07D004
:1050F00080F310882046FFF727FEEFF3108072B68A
:1051000080F31088306810B101B0BDE8F08F4EF622
:105110000450CEF200004FF080510160EFF30580A3
:105120000028F1D1EFF3108062B680F3108801B04F
:10513000BDE8F08FE16A40F6005CC2F2000C5CF85A
:105140002120002323632AB1516A54620C62C4E90E
:10515000082192E74CF8214040F6805E40F6F44C7E
:105160000122C2F2000EC2F2000C02FA01FBDEF8CC
:105170000020DCF8003042EA0B029942C4E90844FE
:10518000CEF80020BFF479AFD9F80030CCF8001089
:10519000002B00935CD0DA6B9142BFF46EAFC9F87C
:1051A00000401DB1E968884208BFEC6187F31088B0
:1051B000D9F80040EFF3108072B67CB32168414506
:1051C0002CD1A168D4F8A8208A4288BFC4F8A810BE
:1051D000E1680A68B2F1EF3F09D12269D2F80120F3
:1051E000B2F1EF3F03D1D4F8A8208A4207D280F36E
:1051F00010882046FFF700FEEFF3108072B6D4F857
:10520000A81051F8041CB1F1EF3F07D080F31088CB
:105210002046FFF799FDEFF3108072B680F31088F7
:10522000306800287FF470AF4EF60450CEF20000D4
:105230004FF080510160EFF3058000287FF464AFE8
:10524000EFF3108062B680F3108801B0BDE8F08FF4
:10525000C9F8004011E700002DE9F04F81B040F699
:10526000EC4AC2F2000A0446DAF80060EFF310805C
:1052700072B69CB3216845F24422C5F2484291427D
:105280002CD1A168D4F8A8208A4288BFC4F8A810FD
:10529000E1680A68B2F1EF3F09D12269D2F8012032
:1052A000B2F1EF3F03D1D4F8A8208A4207D280F3AD
:1052B00010882046FFF7A0FDEFF3108072B6D4F8F7
:1052C000A81051F8041CB1F1EF3F07D080F310880B
:1052D0002046FFF739FDEFF3108072B680F3108897
:1052E000EFF3108772B6A6420DD1204650F84C1F3E
:1052F0000131022928BF00F037FBE06941F2E821C3
:10530000C2F20001086040F6FC48C2F20008D8F87A
:10531000000040F6F0490138C8F80000A06BC2F266
:105320000009012840F09F8041F2F020C2F2000005
:1053300005684FF0000BE5B141F2FC21C2F200011B
:105340000978C90751D040F20801C2F2000109688A
:10535000EFF305820A43DAF800100DD01209B2F11A
:105360000F3F39BF0A464FF0FF314FF0F0310022B6
:1053700008E04FF0000C3AE0CA6ACB6B42EA034205
:1053800042F00042C5E900120221A96041F2040185
:10539000CEF200010968D9F80020E960216BC5E967
:1053A00004416946C5E9061241F2F421C2F2000146
:1053B000096805F120028A4241F20431C2F200017B
:1053C00003D2096802600A620FE041F2F822C2F2D9
:1053D00000021368036041F20030C2F2000002686C
:1053E000086803620AB108689047D5F80CC0226AC1
:1053F000E16AA242C4F838B000910DD0636A5362EA
:105400001A6240F60053C2F2000353F82100A04292
:1054100008BF43F821201DE040F6005040F68053BD
:10542000C2F200004FF0000EC2F2000340F821E08B
:1054300001201A68884022EA00010029196000F062
:10544000968091FAA1F040F6F441C2F20001B0FA60
:1054500080F00860D9F80010A1425DD01DB1E86865
:10546000844508BFE96187F31088D9F80040A64257
:105470003CD0EFF3108072B69CB3216845F2442211
:10548000C5F2484291422CD1A168D4F8A8208A42A2
:1054900088BFC4F8A810E1680A68B2F1EF3F09D1EB
:1054A0002269D2F80120B2F1EF3F03D1D4F8A8204D
:1054B0008A4207D280F310882046FFF79DFCEFF365
:1054C000108072B6D4F8A81051F8041CB1F1EF3F67
:1054D00007D080F310882046FFF736FCEFF31080EA
:1054E00072B680F31088D8F8000010B101B0BDE8A2
:1054F000F08F4EF60450CEF200004FF08051016064
:10550000EFF305800028F1D1EFF3108062B680F34D
:10551000108801B0BDE8F08F40F6F440C2F2000000
:10552000006840F60051C2F2000151F82010C9F89D
:1055300000101DB1E868844508BFE96187F3108851
:10554000D8F800000028D1D14EF60450CEF2000069
:105550004FF080510160EFF305800028C6D1EFF3D2
:10556000108062B680F3108801B0BDE8F08F40F67D
:10557000F440C2F2000020210160C9F800E025B12A
:10558000E868844504BF0020E86187F31088D8F8F4
:1055900000000028AAD14EF60450CEF200004FF0D1
:1055A00080510160EFF3058000289FD1EFF3108058
:1055B00062B680F3108801B0BDE8F08F2DE9F047A6
:1055C00082B040F6EC49C2F20009D9F8000045F279
:1055D00044280190EFF3108072B60199C5F2484853
:1055E00081B30A6842452DD18A68D1F8A830934228
:1055F00088BFC1F8A820CA681368B3F1EF3F09D18A
:105600000B69D3F80130B3F1EF3F03D1D1F8A81003
:10561000914207D280F310880198FFF7EDFBEFF37A
:10562000108072B60199D1F8A81051F8041CB1F19C
:10563000EF3F07D080F310880198FFF785FBEFF369
:10564000108072B680F31088EFF3108A72B601985A
:1056500040F69851C2F2000100240C6010B1016BB9
:1056600071B3002440F2080640F6FC40C2F2000686
:10567000C2F200003368EFF30585026841F2F020C2
:10568000C2F20000016800297AD041F2FC27C2F280
:1056900000073F78FF0773D03768EFF3058637437D
:1056A000D9F8006043EA05032BD03F09B7F10F3F5B
:1056B00039BF35464FF0FF364FF0F036002526E073
:1056C000D0E9072141F2E823C2F20003814282615E
:1056D0001A60C6D0C26AC06B8242C2D140F6F4439F
:1056E00040F60050C2F20003C2F200001B6840F80E
:1056F000221050F8234040F6F040C2F2000004604F
:10570000B0E7F76AF56B47EA054747F0004505271C
:10571000C1E900658F6041F2040740F6F046CEF221
:105720000007C2F200063F683668C1E9053241F25F
:10573000F422C2F20002C1E90376176801F12002E7
:1057400001ABBA42CB6107D241F20431C2F200018F
:10575000096802600A6213E041F2F821C2F2000116
:105760000A6841F20031026041F20430C2F20001E5
:10577000C2F20000096803681A6209B1006888472C
:105780008AF31088002C34D0EFF3108072B62168B1
:1057900041452CD1A168D4F8A8208A4288BFC4F81A
:1057A000A810E1680A68B2F1EF3F09D12269D2F886
:1057B0000120B2F1EF3F03D1D4F8A8208A4207D2EA
:1057C00080F310882046FFF717FBEFF3108072B6C6
:1057D000D4F8A81051F8041CB1F1EF3F07D080F3C2
:1057E00010882046FFF7B0FAEFF3108072B680F30E
:1057F000108802B0BDE8F08780B5EFF3108272B672
:10580000016B04290BD140F6FC41C2F200010B6888
:1058100001330B6082F31088FFF75EFB80BD836E5F
:10582000D0F8AC1082F31088002B18BF984780BDC9
:1058300080B540F6FC41EFF3108072B6C2F2000171
:105840000A6801320A6080F3108840F63860C2F2BC
:105850000000FFF741FB80BD2DE9F04F87B040F617
:105860003460C2F200000024046041F2E820C2F279
:105870000000046040F69850C2F20000046040F658
:105880009450C2F20000046040F69C5040F6A055CF
:10589000C2F20000C2F20005046028468021FAF737
:1058A0000BFE40F62460C2F20000056040F6905006
:1058B000C2F2000040F62061056005F18000C2F2EE
:1058C0000001086040F6306940F6E860C2F2000965
:1058D000C2F2000040F62C6A40F6286B40F63868A9
:1058E00045F6F51644F64D17C9F80000C2F2000A55
:1058F0004FF48060C2F2000BC2F2000815A5C0F69A
:105900000006C4F25417CAF80000CBF8004000BFEC
:10591000D9F80000DBF80020DAF800108DE8070065
:10592000CDE903244046294632463B460594FEF71E
:10593000E3FF0028ECD140F68C50C2F200000021B9
:10594000016040F68850C2F20000016007B0BDE877
:10595000F08F00BF53797374656D2054696D657263
:10596000205468726561640001684A1C022A27D3CA
:105970008269002A18BF70474A1E202940F69051BC
:10598000C2F20001096888BF1F2201EB820140F6C4
:105990002062C2F20002126840F62463C2F20003E1
:1059A0008A1A1B6828BF99180A682AB1536950617E
:1059B0001861C0E9042302E0C0E9040008608161C5
:1059C000704700008169002908BF70470269824260
:1059D00007D0436953611A610B68834206D1916114
:1059E00003E00A68824201D100220A60002181613D
:1059F000704700002DE9F04F83B044F64D11C4F21A
:105A0000541188421CBF03B0BDE8F08F40F690539C
:105A100040F6945640F69C590027C2F20003C2F2A9
:105A200000060DF1040AC2F200090DF10808002574
:105A30000AE000BF2168264600296BD083F3108856
:105A400040F69053C2F20003EFF3108072B619686B
:105A50000A68002A029218BFC2F818800F6040F648
:105A600020621968C2F20002126804319142196082
:105A700005D140F62461C2F200010968196037605F
:105A8000344680F31088EFF3108372B605E000BF50
:105A90008BF31088EFF3108372B6029E002EC9D0EC
:105AA000316900228E42019206D07269C1F81880D5
:105AB0004A61116101E000BF002132680291212A90
:105AC00008D3A2F120013160C6F818A03661019612
:105AD00000210AE0D6E90121F568002A32600FBFF3
