:020000040800F2
:1000000028150020A101000843380008DB31000852
:1000100041380008D50300088D5C0008000000008E
:10002000000000000000000000000000E93A0008A5
:10003000CD04000800000000BF390008F53A0008B0
:10004000BB010008BB010008BB010008BB010008A0
:10005000BB010008BB010008BB010008BB01000890
:10006000BB010008CF040008BB010008BB01000869
:1000700005040008BB010008BB010008BB01000823
:10008000BB010008BB010008BB010008BB01000860
:10009000D9030008BB010008BB010008BB01000830
:1000A000BB010008BB010008BB010008BB01000840
:1000B000BB010008BB010008BB010008BB01000830
:1000C000BB010008BB010008BB010008BB01000820
:1000D000BB010008A5420008BB010008B1420008AE
:1000E000BB010008BB010008BB010008BB01000800
:1000F000BB010008BB010008BB010008BB010008F0
:10010000BB010008BB010008BB010008BB010008DF
:10011000BB010008BB010008993B0008BB010008B7
:10012000BB010008BB010008110400081D04000801
:10013000BB010008BB010008BB010008BB010008AF
:10014000BB010008BB010008BB01000845380008DE
:10015000BB010008BB010008BB010008BB0100088F
:10016000BB010008BB010008BB010008BB0100087F
:10017000BB010008BB010008BB0100080000000033
:10018000BB010008BB010008DFF810D000F07CF8CC
:1001900000480047C95F0008AFF300802815002021
:1001A0000648804706480047FEE7FEE7FEE7FEE711
:1001B000FEE7FEE7FEE7FEE7FEE7FEE7893B000815
:1001C000890100082DE9F05F0546002092469B4614
:1001D00088460646814640241BE02846414647465D
:1001E000224600F041F853465A46C01A914110D3B6
:1001F00011461846224600F028F82D1A67EB010830
:100200004F4622460120002100F01FF817EB00099D
:100210004E41201EA4F10104DFDC484631462A4647
:100220004346BDE8F09FD2B201E000F8012B491E21
:10023000FBD270470022F6E710B513460A46044683
:100240001946FFF7F0FF204610BD202A04DB203AB4
:1002500000FA02F1002070479140C2F1200320FA19
:1002600003F3194390407047202A04DB203A21FA17
:1002700002F00021704721FA02F3D040C2F12002BF
:100280009140084319467047064C074D06E0E06868
:1002900040F0010394E8070098471034AC42F6D3CD
:1002A000FFF776FF4C6100086C610008464910B505
:1002B0004A6822F440324A604A6843681A434A60F6
:1002C00001684A6822F480724A6001684A680369DA
:1002D00042EA03224A6001684A6822F040724A609A
:1002E00001684A6883681A434A6001688A6822F490
:1002F00000628A6001688A68C3681A438A60816AFA
:100300006FF07062D14201688A6822F070628A6080
:1003100001688A680CD0836A1A438A6001688A6817
:1003200022F040528A6001688A68C36A1A4301E079
:1003300022F040528A6001688A6822F002028A60D4
:1003400001688A68037E42EA43028A6090F82010BE
:10035000002901684A680FD042F400624A600168CF
:100360004A6822F460424A6001684A68174C436A4E
:1003700004EB43331A4301E022F400624A6001684F
:10038000CA6A22F47002CA620168CA6A838B104C7E
:1003900004EB03531A43CA6201688A6822F40072AC
:1003A0008A6001688A6890F8303042EA43228A60A5
:1003B00001688A6822F480628A6001688A684069FC
:1003C00042EA8020886010BD0023014000E0FFFF6A
:1003D0000000F0FFFEE70000014800F08CB90000CB
:1003E000F0010020002070470020704710B504483D
:1003F00004F092F8002801D04FF0FF3010BD00004B
:10040000A0060020014800F0E1BB000040060020EB
:10041000014800F0DBBB000080050020014800F02F
:10042000D5BB0000E005002001681823CAB2103ACD
:10043000B2FBF3F2054B6FF30901032A9B5CC36522
:1004400000D9091D81650846704700002C6100082D
:1004500010B5014600208B698A6A4FF0C07453B111
:10046000B3F5005F15D072B1012A0CD0022A0AD070
:10047000032A09D104E01AB1012A06D0022A03D1C5
:10048000C96AC90100D5012010BDC96AA142FAD0CC
:1004900010BD002AF7D0012AF2D0022AF3D0032A95
:1004A000F3D010BD30B50468256825F4802525609B
:1004B000046863608368402B036803D09960006818
:1004C000C26030BD9A600068C16030BD70470820CE
:1004D00000F002BD72B6FEE778B50024009490F8F3
:1004E0003C20012A19D0012280F83C200A68072309
:1004F0000568092A13D9EE680A3A02EB42029340D2
:100500009E43EE600B788A680A3B03EB43039A40F4
:100510000368DD682A43DA6010E0022078BD2E69A6
:1005200002EB420293409E432E610B788A6803EBF4
:1005300043039A4003681D692A431A614A681F23CE
:10054000072A13D205686E6B521E02EB820293409B
:100550009E436E630B790A885B1E92B203EB8303A2
:100560009A4003685D6B2A435A6327E005680D2AA9
:1005700012D22E6BD21F02EB820293409E432E6357
:100580000B790A88DB1F92B203EB83039A4003685E
:100590001D6B2A431A6311E0EE6A0D3A02EB8202E8
:1005A00093409E43EE620B790A880D3B92B203EBB7
:1005B00083039A400368DD6A2A43DA62164B0568B2
:1005C000144A9D4206D10D68122D03D1556845F499
:1005D0008005556005689D4218D10B68102B01D02D
:1005E000112B13D1536843F4000353600968102999
:1005F0000CD10A490A4A0968B1FBF2F101EB810109
:10060000490000E0491E00910029FBD180F83C40E0
:10061000002078BD0023014000200140940000200C
:1006200040420F0070B504004FF0000503D0206C6D
:10063000002610B107E0012070BD204600F01CF834
:10064000666484F83C60206CC00610D4206C20F4F2
:10065000885040F0020020642046FFF727FE6664C1
:10066000206C20F0020040F00100206400E0012531
:1006700084F83C60284670BD10B586B0044614214D
:100680006846FFF7D7FD174B2268002116489A42AB
:1006900009D1016841F480710160006800F4807044
:1006A000059006B010BD114B9A42FAD1026842F48F
:1006B00080620260006800F4806005900A48143887
:1006C000026842F020020260006800F020000590FD
:1006D000181500900320CDE901016946044800F097
:1006E00007FCDEE7002001404438024000220140C0
:1006F0000014024070472DE9F05F054600680024B1
:100700004669D0F804908768D0F80CB0D0F810A0F3
:10071000D0F81880F10748D0F90714D00121816082
:10072000B80703D5284600F0EFF90CE0780702D5AA
:100730004FF4006407E0380702D54FF4805402E01C
:10074000284600F0E0F9F80516D529684FF48070C6
:100750008860B80503D5284600F0D8F90CE0780584
:1007600002D544F4005407E0380502D544F480442F
:1007700002E0284600F0C9F9F80316D529684FF4BD
:1007800080308860B80303D5284600F0C1F90CE03A
:10079000780302D544F4004407E0380302D544F45A
:1007A000803402E0284600F0B2F9300707D55FEA4E
:1007B000CB6004D52968102044F40074C860700729
:1007C0004FF0080707D55FEA0B7004D52868C760AB
:1007D000284600F093F9B00706D52868C06880075E
:1007E00002D0284600F08BF9700607D55FEACA6090
:1007F00004D52968102044F480640861B00607D548
:100800005FEA0A7004D528680761284600F078F985
:10081000F00606D528680069800702D0284600F057
:1008200070F9B00308D55FEAC96005D529681020C2
:100830004860284600F066F9F00307D55FEA0970C2
:1008400004D528684760284600F063F9300446D58F
:100850005FEA497040D5F00504D55FEAC87001D061
:1008600044F00104B00504D55FEA887001D544F076
:100870000204700504D55FEA487001D544F0040411
:10088000300529D518F0700F26D008F070004028E8
:1008900015D006DC102809D020280AD0302816D11F
:1008A0000AE050280ED0602811D10EE044F0080470
:1008B0000DE044F010040AE044F0200407E044F0A6
:1008C000400404E044F0800401E044F480742868AB
:1008D000816921F070018161296804204860002C41
:1008E00005D0686A204368622846FFF703FFBDE829
:1008F000F09F70B5040003D094F8200010B104E01C
:10090000012070BD204600F081F82068016841F0A8
:100910000101016000F0F2FB0546052604E000F04D
:10092000EDFB401B0A2811D820684068C007F6D0AC
:100930002068016821F00201016000F0DFFB05463C
:100940000BE000F0DBFB401B0A2806D9606A40F48C
:100950000030606284F82060D2E720684068800739
:10096000EFD4207E0128206801683DD021F080016D
:100970000160607E01282068016838D021F04001C4
:100980000160A07E01282068016833D021F0200199
:100990000160E07E0128206801682ED041F010013E
:1009A0000160207F01282068016829D021F008011A
:1009B0000160607F01282068016824D021F00401D3
:1009C0000160D4E902010843D4E904121143084349
:1009D0006168491E08432168C861002060620120E7
:1009E00084F82000002070BD41F08001C0E741F094
:1009F0004001C5E741F02001CAE721F01001CFE72F
:100A000041F00801D4E741F00401D9E7F0B587B01F
:100A1000044614216846FFF70DFC334B3348DFF8DA
:100A2000C4E01968D4F800C0304A0325022609271B
:100A300010300024491CF44525D11960012907D143
:100A4000016841F000710160006800F000700590DD
:100A5000106840F0080010601068CDE9005600F002
:100A60000800CDE9047069462148CDE9024500F04F
:100A70003FFA00221146142000F0E6FC142000F09A
:100A8000D5FC07B0F0BDDFF86CE0F445F9D1D0F843
:100A900000C04CF0806CC0F800C0D0F800C0012944
:100AA0000CF0806CCDF814C0196007D1016841F0DA
:100AB00000710160006800F000700590106840F05F
:100AC00002001060106802AB00F002000590602088
:100AD000CDE9000683E8B0006946074800F008FA4F
:100AE000CFE7000000640040800000203038024062
:100AF000000C02400068004000040240704770474C
:100B0000704770477047704770477047704770472D
:100B1000704770472DE9F0410446876D00F0EEFA0A
:100B2000064694F835000025022806D0802060652E
:100B300084F834500120BDE8F0812068016821F07C
:100B4000160101602068416921F080014161206C3B
:100B500008B9A06C20B12068016821F0080101608B
:100B60002068016821F0010101600CE000F0C6FA84
:100B7000801B052807D920206065032084F83500F4
:100B800084F83450D7E720680068C007EED194F8A5
:100B90005C103F208840B860012084F8350084F85C
:100BA00034500020C7E790F83510022903D0802187
:100BB000416501207047052180F835100068016803
:100BC00021F0010101600020704700002DE9F84389
:100BD00004464FF00009CDF8009063484FF41651D9
:100BE000A56D0068B0FBF1F72E6894F85C10082042
:100BF00000FA01F131420FD021680A6852070BD583
:100C00000A6822F004020A6094F85C108840A86028
:100C1000606D40F00100606594F85C104FF00108D1
:100C200008FA01F0304208D021684969090604D564
:100C3000A860606D40F00200606594F85C100420CC
:100C40008840304208D021680968890704D5A86027
:100C5000606D40F00400606594F85C1010208840DE
:100C6000304218D021680968090714D5A8602068A7
:100C70000168490304D50068000308D5A16C07E0AA
:100C80000168C90503D4016821F008010160216CE5
:100C900009B12046884794F85C10202088403042F3
:100CA00031D021680968C9062DD5A86094F83500AF
:100CB00005282068016806D0490347D5006800036D
:100CC0001DD4616C1CE021F01601016020684169AF
:100CD00021F080014161206C08B9A06C20B120682E
:100CE000016821F00801016094F85C103F20884001
:100CF000A86084F8358084F83490216D1FE0E16BA2
:100D000009B120468847606D00282BD0606DC00770
:100D100014D0052084F835002068016821F0010115
:100D200001600098401C0090B84203D82068006819
:100D3000C007F6D184F8358084F83490E16C00293E
:100D400010D001B02046BDE8F04308470168C9054E
:100D5000D5D4016821F01001016084F8358084F851
:100D60003490CCE7BDE8F883940000202DE9F041F1
:100D7000044600F0C3F906465CB1022084F8350051
:100D8000002584F834502068016821F001010160D9
:100D90000DE00120BDE8F08100F0B0F9801B0528CE
:100DA00005D920206065032084F83500F2E720682B
:100DB0000068C007F0D12268116820480140D4E9DA
:100DC00001031843D4E903363343184363691843D6
:100DD000A3691843E3691843236A18430843616A07
:100DE000042903D1D4E90B13194308431060206888
:100DF0004069666A20F0070130460E430127042847
:100E00000CD1A06A0643E06A40B12046FFF720FB00
:100E100020B14020606584F83570BAE720684661EB
:100E20002046FFF701FB94F85C203F219140816050
:100E3000656584F835700020ACE700003F8010F055
:100E40002DE9F0410446866D90F834000025012814
:100E50000DD0012084F8340094F835700020012F63
:100E600007D084F8340002252846BDE8F08102202E
:100E7000FBE7022784F8357060652046FFF712FB18
:100E800094F85C103F208840B0602068016841F011
:100E900016010160206C20B12068016841F0080152
:100EA00001602068016841F001010160DCE7000099
:100EB00070B5044600F022F90546601C02D00448D3
:100EC0000078044400F01AF9401BA042FAD370BD28
:100ED0008800002070470000044910B50A680242EB
:100EE00002D00860FFF7F6FF10BD0000143C01407F
:100EF0002DE9F84FDFF8BCA10022012503264FF0B1
:100F00000F090AF1040BAAF1040E00BF0B6805FAE1
:100F100002F42340A34270D10F7907F00307012F99
:100F200001D0022F16D187684FEA420806FA08FC62
:100F300027EA0C07D1F80CC00CFA08FC4CEA070CA5
:100F4000C0F808C04768A7430C79C4F30014944064
:100F50003C4344600C79E443A4070AD0C4684FEAD8
:100F6000420C06FA0CF7BC438F6807FA0CF72743CC
:100F7000C7600C7904F00304022C12D1D40800EBF2
:100F8000840CDCF820405707FF0E09FA07F824EA22
:100F90000804D1F8108008FA07F848EA0408CCF8E9
:100FA000208004684FEA420C06FA0CF7BC430F7924
:100FB00007F0030707FA0CF7274307604C6814F49F
:100FC000403F70D03C4C276847F480472760246836
:100FD00022F0030704F480440094384C07EB040C1F
:100FE000DCF8084897074FEA177809FA08F7BC4376
:100FF000334FB84202D1002724E054E0314FB842C9
:1010000001D101271EE0304FB84201D1022719E07B
:101010002E4FB84201D1032714E02D4FB84201D121
:1010200004270FE02B4FB84201D105270AE02A4FD1
:10103000B84201D1062705E0284FB84201D1072761
:1010400000E0082707FA08F72743CCF80878DAF811
:1010500000405746D1F804C09C435FEACC2C00D531
:101060001C433C60DBF800405F46D1F804C09C4361
:101070005FEA8C2C00D51C433C60DEF800407746CC
:10108000D1F804C09C435FEA8C3C00D51C433C6013
:10109000084F083F3C68D1F804C09C435FEACC3C51
:1010A00000D51C433C60521C102AFFF42FAFBDE852
:1010B000F88F0000083C01404438024000300140F5
:1010C000000002400004024000080240000C024000
:1010D000001002400014024000180240001C0240B0
:1010E000426921EA02030A4043EA024181617047F2
:1010F0000AB1816170470904FBE70000014880687C
:10110000704700008800002070B5040025D094F8D6
:101110003D00002520B984F83C50204600F0B8F886
:10112000242084F83D002068016821F0010101605D
:101130002068016841F4004101602068016821F4E1
:101140000041016000F070FF4D4A6168914201D892
:101150004C4900E04C49884201D2012070BD4B4906
:101160002368B0FBF1F15E6826F03F060E435E6037
:101170006368934206D94FF4967359434FF47A73D8
:10118000B1FBF3F12368491C1E6A26F03F06314388
:1011900019626168914210D84900401EB0FBF1F21B
:1011A000521CC2F30B02042A01D2042022E0B0FB3D
:1011B000F1F0401CC0F30B001CE0A268F2B301EB9D
:1011C000C10303EB0116431EB3FBF6F35B1C43F4B0
:1011D00080431B0549D092B301EBC10202EB011120
:1011E000401EB0FBF1F0401CC0F30B0040F4804007
:1011F00040F400402168CA694CF6FF739A431043DB
:10120000C861D4E9071001432068026822F0C002D7
:1012100011430160D4E9030101432068826848F268
:10122000FF339A4311438160D4E9050108432168E3
:10123000CA6822F0FF021043C86001E00EE016E029
:101240002068016841F0010101602564202084F8D4
:101250003D00256384F83E50002070BD01EB41063F
:10126000431EB3FBF6F35B1CB3E70120C2E701EBBF
:101270004101401EB0FBF1F0401CC0F30B00B7E78A
:10128000A086010080841E0000093D0040420F003E
:101290002DE9F04186B0044614216846FEF7CAFFE6
:1012A0002F4A2168DFF8BC8000252E48032412262F
:1012B000042708F1100891421BD1016841F0200178
:1012C00001600068CDE9004600F02000CDE904701F
:1012D000CDE9025469462448FFF70AFED8F8001009
:1012E00041F48001C8F80010D8F8000000F4800034
:1012F00031E01E4A91422FD1016841F004010160A2
:10130000016801F004010591016841F001010160EB
:101310000068CDE9025400F0010005905015CDE9B8
:101320000006694604971248FFF7E2FD4FF480700B
:10133000CDE90006CDE90254694604970D48FFF750
:10134000D7FDD8F8001041F40001C8F80010D8F813
:10135000000000F40000059006B0BDE8F081000038
:10136000005800403038024000140240005C004049
:1013700000080240000002400248816802781144DF
:1013800081607047880000200B4810B5016841F467
:1013900000710160016841F480610160016841F4FD
:1013A00080710160032000F06FF80F2000F006F854
:1013B00000F024F8002010BD003C024070B50D4D37
:1013C00004464FF47A712878B1FBF0F00A490968B5
:1013D000B1FBF0F001F00EF948B9102C07D2002251
:1013E0002146501E00F030F800206C6070BD0120D6
:1013F00070BD000088000020940000200A4808B555
:10140000016841F480410160006800F48040009070
:101410000548001F016841F080510160006800F03C
:101420008050009008BD000044380240002809DBCD
:1014300000F01F02012191404009800000F1E020EE
:10144000C0F8001170470000F0B40E4B1B680C464A
:10145000C3F30223C3F10705042D00D90425191D88
:10146000072901D2002300E0DB1E012606FA05F160
:10147000491E214099409E40761E16403143F0BCE3
:1014800004F016BC0CED00E0064900F00702086805
:101490004FF6FF03184040EA0220034A1043086059
:1014A000704700000CED00E00000FA05704700688E
:1014B000416200207047F0B50368586A39B19C6AF0
:1014C0004FF4827600EB144400204D1E0AE040EAFF
:1014D000024098620FE006EB8007DF59401C04EBE6
:1014E0001744C0B2A842F6D344EA02404FF48072D7
:1014F00002EB810158500020F0BDD0F8E00403F069
:101500002DBB01EBC10200EB8202D0F8E004126AAD
:1015100003F082BA01EBC10200EB8202D0F8E004D2
:10152000D2F8602203F0D3BAD0F8E00403F018BB7D
:101530000A0601F00F0101EBC10100EB810101D5A9
:10154000143101E001F51571006804F0EDB970B5D2
:1015500004460B0601F00F0000EBC00104EB810113
:101560004FF001024FF0000502D54A75143103E037
:1015700081F8555201F51571087094F8940401280A
:1015800008D084F89424206803F0ECFE84F8945486
:10159000002070BD022070BD70B5044601F00F0040
:1015A0002279904201D9012070BD0B0601F00F0194
:1015B00001EBC10104EB81014FF001024FF0000586
:1015C00002D54A75143103E081F8555201F51571C1
:1015D0008D70087094F89404012808D084F894243D
:1015E000206804F031F884F89454002070BD022083
:1015F00070BD2DE9F04104460F0601F00F0000EB2D
:10160000C00104EB81014FF001064FF0000502D547
:101610004E75143103E081F8555201F515710870CB
:101620008A600B714A7802B14883022B00D14D7158
:1016300094F89404012809D084F89464206803F095
:10164000E3FD284684F89454BDE8F0810220FBE7CE
:1016500010B501F00F0404EBC40100EB8101C1E9F6
:1016600098230023C1F8683281F8553281F854423A
:10167000837901F51571012B00D1CA618279006867
:1016800004F03AF8002010BD70B504460D4601F094
:101690000F002179884201D9012070BD29064FF041
:1016A00000064FF0010206D500EBC00104EB8101FA
:1016B0004A75143107E005EBC50104EB810181F89F
:1016C000556201F515718A70087094F89404012828
:1016D00007D084F89424206803F0E2FF280702D0A2
:1016E00007E0022070BDA17904F29C42206803F05B
:1016F0007FFF84F89464002070BD10B501F00F04E2
:1017000004EBC40100EB8101C1E9082300238B62D3
:1017100001234B7501F8144F8379012B00D1CA6165
:101720008279006803F0E8FF002010BD2DE9FC5F1E
:1017300005680446284604F093F900287DD1206806
:1017400004F0BAF9002878D0D5F80808C0F30D20C5
:10175000C4F8D404206804F0AFF9800704D52068E9
:10176000416901F002014161206804F0A5F9C10658
:1017700004F29C40009034D52068816921F010016A
:1017800081612F6A07F00F0000EBC00004EB8006B8
:10179000C7F3434006F51576022802D0062811D07B
:1017A0001AE047F6F070074216D0C7F30A12174640
:1017B0002846F16804F084F9F0683844F0607069F4
:1017C000384408E008222846009904F079F9706945
:1017D000C7F30A11084470612068816941F0100163
:1017E0008161206804F068F900034FF0080B4FF0A6
:1017F000000A4FF001097CD50026206804F03BF96F
:10180000074674E0F80770D0F1B2206804F04CF994
:101810008046C00707D005EB4611C1F8089B31464A
:10182000204602F015F85FEA087024D505EB461152
:10183000C1F808BB2068016C00E023E200EB461011
:101840000191D0F8082BFB4B994205D9110403D51F
:101850004FF40041C0F8081B204600F004FBF54996
:101860000198884207D9A079012804D12068012174
:10187000009A03F0BDFE5FEAC86004D505EB46118F
:101880001020C1F8080B5FEA88701DD56869000652
:1018900005D5D5F8040840F48061C5F8041806EBB6
:1018A000C60004EB800090F8571200F5157001296E
:1018B00005D180F803A0F1B2204600F0E9F905EB6C
:1018C00046110220C1F8080B5FEA886004D505EBD9
:1018D00046102021C0F8081B5FEA884005D505EBBB
:1018E00046104FF40051C0F8081B7F08761C002FEB
:1018F00088D1206804F0E0F840036ED5206804F039
:10190000B3F80746002666E0F80762D0F1B2206817
:1019100004F0B8F88046C00723D006F00F01D5F8D0
:10192000342809FA01F18A43C5F8342805EB461139
:10193000C1F80899A07901280FD106EBC60004EB85
:101940008000D0E907211144016236B9606A20B9EC
:1019500020680121009A03F04BFEF1B22046FFF708
:10196000D0FD5FEA087003D505EB4611C1F808B950
:101970005FEAC86004D505EB46111020C1F80809DC
:101980005FEA486004D505EB46104021C0F808190D
:101990005FEA887016D53146284604F036F806EB23
:1019A000C60004EB8000C17D1430012905D180F808
:1019B00003A0F1B2204600F067F905EB46110220C2
:1019C000C1F808095FEA086003D53146204601F0F6
:1019D000A5FF7F08761C002F96D1206804F06CF8D4
:1019E000002811DAD5F8040820F00101C5F8041820
:1019F00094F8CC0401282BD0204600F019FA206876
:101A0000416901F000414161206804F055F800058A
:101A10000BD5D5F80808C00702D0204600F04CFAD4
:101A20002068416901F400614161206804F044F8D4
:101A3000C00467D5D5F8040820F00100C5F80408F3
:101A40001021206803F0E1FF00214FF67F3220E0F3
:101A500084F8CCA400212046FFF728FDCFE700BF83
:101A600005EB4110C0F80829D0F8003923F4001321
:101A7000C0F80039C0F8082BD0F8003B23F400135D
:101A8000C0F8003BD0F8003B43F00063C0F8003BD7
:101A9000491C20798842E3D8D5F81C0840F0011190
:101AA000C5F81C18E07B002828460DD0D0F8840823
:101AB00040F00B01C5F88418D5F8440840F00B013C
:101AC0002846C5F844180DE0D0F8140842F22B015E
:101AD0000843C5F81408D5F8100840F00B01284653
:101AE000C5F81018D0F8000820F4FE61C5F80018F9
:101AF000A1792068009A03F07BFD2068416901F418
:101B000080514161206803F0D7FF800415D520681B
:101B100003F0BAFB206803F096FFE07100F07EFA54
:101B20000146E279206804F029F8204600F06AF9BD
:101B30002068416901F400514161206803F0BCFF55
:101B4000000707D5204600F077F92068416901F0C9
:101B500008014161206803F0AFFF000616D5A869AF
:101B600020F08001A96101260DE000BF06EBC60050
:101B700004EB800090F85702012803D1F1B220460F
:101B8000FFF7D6FC761C2079B042EFD8206803F02E
:101B900093FFC0021FD501264F4614E005EB461007
:101BA000D0F8001906EBC60004EB8002107E012875
:101BB00008D1002906DAF0B240F08001D77520463E
:101BC000FFF7B6FC761C2079B042E7D8206841695F
:101BD00001F480114161206803F06EFF800234D56A
:101BE00001204A4629E000BF05EB4011D1F8001B57
:101BF00000EBC00304EB830393F85862012E1BD162
:101C0000002919DA94F8D46401F4803106F0010651
:101C1000B14211D183F85722A96941F08003AB6129
:101C20006969090608D4D5F8040840F40070C5F8BD
:101C3000040805E00A30544F401C21798142D3D872
:101C40002068416901F400114161206803F034FF0C
:101C5000400007D52046FFF750FC2068416901F09D
:101C600080414161206803F027FF40070AD52068C2
:101C70004568680702D52046FFF756FC2068416892
:101C800029434160BDE8FC9FD0F8E00402F0B7BFF3
:101C9000D0F8E00402F0C7BFF8B5040005D094F80E
:101CA00095042668002510B106E00120F8BD84F8EF
:101CB0009454204600F056F8032084F89504B6F1B9
:101CC000A04F00D1A571206803F08CFC207C8DF81A
:101CD000000094E80F0003F0E5FA0226B8BB0021EB
:101CE000206803F00CFF90BB002001270DE000BF2F
:101CF00000EBC00104EB81014F750875C8850D76B6
:101D0000CD610D62401CC0B24D6221798142EFD895
:101D1000002011E000EBC00104EB810181F8555275
:101D200081F8540281F85852C1F85C52C1F86052EF
:101D3000401CC0B2C1F8645221798142EAD8207CAB
:101D40008DF8000094E80F0003F08EFB10B184F8CA
:101D50009564AAE7657484F89574206803F076FBAF
:101D60000020F8BD2DE9F04186B0044614216846F4
:101D7000FEF760FA2068B0F1A04F3BD11F484FF04A
:101D80000008016841F0010101600068022400F0D0
:101D9000010005904FF48050CDE9000402AA012013
:101DA00003250A2682E86100154F69463846FFF789
:101DB0009FF8A0028DE81101CDE903566946384627
:101DC000FFF796F80D48001D016841F080010160A1
:101DD0000A481430016841F4804101600068002223
:101DE00000F48040059011464320FFF72DFB43206F
:101DF000FFF71CFB06B0BDE8F08100003038024060
:101E00000000024070B50446C079012570B1022877
:101E100001D0FEF75FFB2946D4F8E00402F071FF21
:101E2000D4F8E004BDE8704002F026BF0025F2E7D8
:101E3000D0F8E00402F04EBFD0F8E00402F054BF46
:101E400010B5044690F8940401280AD0012084F8C3
:101E500094046174206803F080FE002084F89404E8
:101E600010BD022010BDD0F8E02400F29C411046C5
:101E700002F053BF10B50446006894F89414012989
:101E800009D0012184F89414C168490609D5617B01
:101E9000012902D005E0022010BD816B41F48031A0
:101EA0008163206803F08FFD206803F0C1FA0020F1
:101EB00084F8940410BD000010B50446D0F8E00486
:101EC00002F06DFF2068D0F8001E41F00101C0F85B
:101ED000001EE07A002804D00248016841F00601A3
:101EE000016010BD10ED00E02DE9F0470E46050041
:101EF00065D0DFF81481D8F80000F7B200F00700D1
:101F0000B04207D288F80070D8F8000000F007004F
:101F1000B04254D128683D4C810712D5400703D503
:101F2000206840F4E05020602878000703D520683E
:101F300040F4604020602068A96820F0F000084369
:101F400020602878C0072DD03049686808390128FA
:101F500012D0022813D0032811D00968890700295C
:101F60002DDA216821F0030101432160FFF7C6F853
:101F7000814641F2883A0EE009688903EFE7096873
:101F80008901ECE7FFF7BAF8A0EB0901514502D946
:101F90000320BDE8F0872068696800F00C00B0EB12
:101FA000810FEFD1D8F80010404601F00701B1428F
:101FB00007D90770006800F00700B04201D0012087
:101FC000E7E72878400705D52068E96820F4E05065
:101FD000084320602878000706D52068296920F486
:101FE000604040EAC100206000F03EF82168084AE5
:101FF000C1F30311515CC8400649086006480068F7
:10200000FFF7DCF90020C4E7003C0240083802403A
:1020100034610008940000208C0000200148006812
:1020200070470000940000200448054900680968D2
:10203000044AC1F38221515CC840704794000020DB
:1020400008380240446100080448054900680968EE
:10205000044AC1F34231515CC840704794000020EB
:102060000838024044610008154810B5006810F0B7
:102070000C02144813D01449042A0FD0082A0ED198
:102080000F4C241F2268236802F03F025B0207D531
:102090002068C0F38810A0FB010106E0084610BDCF
:1020A0002168C1F38811A1FB00010023FEF78AF823
:1020B0002168C1F30141491C4900B0FBF1F010BD9A
:1020C000083802400024F400001BB7002DE9F84F47
:1020D00004006ED02078DFF84C93C007A9F1040506
:1020E0004AD009F104000168C1F38101012908D037
:1020F0000068C0F3810002280AD1D9F8000040022C
:1021000006D52868800337D560680028E1D033E021
:102110006068B0F5803F10D0B0F5A02F286810D0CF
:1021200020F480302860286820F4802028606068CF
:10213000A8B1FEF7E3FF06460DE0286840F48030C2
:10214000F4E740F480202860F7E700BFFEF7D6FFF1
:10215000801B642873D828688003F7D50CE0FEF74D
:10216000CDFF064605E000BFFEF7C8FF801B6428D0
:10217000F0D828688003F7D42078DFF8AC82800795
:102180004FF0000A3ED5A748001D016811F00C0F62
:1021900008D00068C0F3810002280BD1D9F80000F4
:1021A000400207D42868800716D5E068012800D1CE
:1021B00012E033E1E068B8B10120C8F80000FEF792
:1021C0009DFF064605E000BFFEF798FF801B022832
:1021D000C0D828688007F7D52868216920F0F80062
:1021E00040EAC10028600DE0C8F800A0FEF786FFB5
:1021F000064604E0FEF782FF801B02281FD82868ED
:102200008007F7D42078000722D5864F8748616978
:10221000703771B101210160FEF770FF064604E0DE
:10222000FEF76CFF801B022809D838688007F7D5B5
:102230000EE0C0F800A0FEF761FF064605E082E070
:10224000FEF75CFF801B02287DD838688007F7D432
:102250002078400768D5DFF8CCB100270BF13C0BA4
:10226000DBF80000C0000BD4DBF8001041F0805117
:10227000CBF80010DBF80000012700F08050009040
:102280006B4E3068C00510D4306840F48070306008
:10229000FEF734FF009005E0FEF730FF0099401A8A
:1022A000022850D83068C005F6D55E4EA0686C365E
:1022B00001280FD00528306810D020F001003060D0
:1022C000306820F004003060A068B8B1FEF716FF57
:1022D00000900FE0306840F00100F4E740F00400A7
:1022E0003060F7E7FEF70AFF0099411A41F28830A3
:1022F000814266D830688007F4D50EE0FEF7FEFE16
:10230000009007E0FEF7FAFE0099411A41F288308A
:10231000814256D830688007F4D42FB1DBF8001022
:1023200021F08051CBF80010A069C8B33D49091DC8
:102330000968C1F3810102294AD00228504607D01A
:10234000C8F8600000E03CE0FEF7D8FE04463BE041
:102350004746C8F86000FEF7D1FE064605E000BF1C
:10236000FEF7CCFE801B02282BD828688001F7D40A
:10237000D4E907010843A16A2E4A490802EB01414A
:10238000626A41EA8211084394F82C1040EA016124
:10239000C9F8001001203866FEF7B0FE044606E0DA
:1023A0003EE000BFFEF7AAFE001B022809D82868FD
:1023B0008001F7D534E000BFFEF7A0FE001B022825
:1023C00002D90320BDE8F88F28688001F4D427E003
:1023D0000128F7D0D9F80000E26900F480019142A9
:1023E0001CD1226A00F03F01914217D147F6C0711B
:1023F000626A0140B1EB821F10D1A26A4FF0FF3335
:1024000000F4403103EB5202B1EB024F06D194F8D5
:102410002C1000F07060B0EB016F01D00120D1E70B
:102420000020CFE70438024000004742800E4742B8
:10243000007000400000FFFF70B5040009D0606A22
:10244000002540B125616561A56294F8510040B155
:102450000CE0012070BD6068B0F5827FF4D0E561CA
:10246000F2E784F85050204600F044F8022084F847
:1024700051002068016821F040010160A088218995
:1024800000F4827001F404410843A18901F4006161
:102490000843217C01F002010843217D01F0010184
:1024A0000843218B01F400710843217F01F03801BA
:1024B000084394F8201001F080010843218D01F4B5
:1024C0000051084321680860A069042101EA104016
:1024D00094F8241001F01001084321684860206836
:1024E000C16921F40061C1616565012084F8510072
:1024F000002070BD2DE9F04186B0064614216846E3
:10250000FDF798FE34493068884262D13348002490
:10251000016841F480510160006800F4805005902A
:102520002E481438016841F002010160016801F091
:1025300002010591016841F0010101600068022576
:1025400000F0010005901820CDE9000502AA03273C
:102550004FF0050882E8900169462148FEF7C8FC63
:102560008020CDE9000502AA694682E890011D4855
:10257000FEF7BEFC1D4D1C487F062860C5E90174AE
:102580004FF48068C5E903486C617812AC61C5E915
:10259000074028466C62FEF7E9FB08B1FDF79AFF99
:1025A000F564AE631048124D1830E5E8020740208C
:1025B000A5E81101C00245F81449AC61C5E907401E
:1025C0000B486C62FEF7D2FB08B1FDF783FFB564E0
:1025D000AE6306B0BDE8F0810030014044380240EF
:1025E00000040240000002404064024080050020D8
:1025F000E005002010B5401EB0F1807F01D301201E
:1026000010BD4FF0E02460610F21601703F050FB14
:102610000020A06107202061002010BD7047704796
:1026200010B590F83C20012A22D0012280F83C20ED
:10263000CA688C6822F4407222434C6822F480629B
:1026400022430C6822F4006222430C6922F4805277
:1026500022434C6922F400522243C969002322F428
:1026600080420A4301684A6480F83C30002010BD73
:10267000022010BD70B590F83C20012A32D0012410
:1026800080F83C40022280F83D2003685A689D682B
:1026900022F070060A6832435A60134B02689A426D
:1026A00014D0B2F1804F11D0104B9A420ED0104B83
:1026B0009A420BD00F4B9A4208D00F4B9A4205D04A
:1026C0000E4B9A4202D00E4B9A4204D1496825F033
:1026D00080031943916080F83D40002180F83C1050
:1026E000084670BD022070BD00000140000400409B
:1026F00000080040000C0040000401400040014080
:102700000018004010B5040003D094F83D0010B14B
:1027100007E0012010BD002084F83C00204600F0B6
:102720001FF8022084F83D00211D206801F03AFACC
:10273000012084F8460084F83E0084F83F0084F8C5
:10274000400084F8410084F8420084F8430084F893
:10275000440084F8450084F83D00002010BD0000CE
:1027600008B52349026823488A4207D1016841F02D
:1027700001010160006800F001000BE01D491E4BE3
:10278000091F9A4208D1086840F0040008600868F0
:1027900000F00400009008BD184B9A4211D108685F
:1027A00040F0100008600868002200F0100000905F
:1027B00011463620FEF748FEBDE808403620FEF7F9
:1027C00035BE0F498A4207D1016841F0020101601C
:1027D000006800F00200DDE70A498A42DBD10168A7
:1027E00041F400310160006800F40030D2E70000DD
:1027F0000000014044380240000800400010004042
:10280000000401400044014070B5044690F83C00CB
:102810000025012817D0012684F83C60022084F8A6
:102820003D002068826822F0770222F47F428260B5
:102830000868502838D00DDC20284FD005DC90B334
:10284000102811D14AE0022070BD302846D040281F
:102850000AD13BE060282FD070280DD0B0F5805F02
:1028600003D0B0F5005F12D0012584F83D60002050
:1028700084F83C00284670BDCB68D1E9012120686E
:1028800001F0FCF92068816841F0770109E0CB682C
:10289000D1E90121206801F0F1F92068816841F453
:1028A00080418160E1E719E0CA684968206801F069
:1028B000B9FA5021206806E0CA684968206801F02A
:1028C000C2FA6021206801F0E3F9CEE7CA684968DE
:1028D000206801F0A7FA40212068F4E72268014649
:1028E0001046F0E770472DE9F04104460068C668DD
:1028F00005694FF00007A90713D5B10711D5F91ED7
:10290000016101202077206880698007204602D07D
:10291000FFF7E8FF04E000F0D9F8204600F06BF97B
:102920002777680716D5700714D521686FF0040063
:102930000861022020772068806910F4407F2046DB
:1029400002D0FFF7CFFF04E000F0C0F8204600F00F
:1029500052F92777280715D5300713D521686FF06E
:1029600008000861042020772068C069800720469D
:1029700002D0FFF7B7FF04E000F0A8F8204600F00F
:102980003AF92777E80616D5F00614D521686FF0D6
:1029900010000861082020772068C06910F4407F8B
:1029A000204602D0FFF79EFF04E000F08FF820469B
:1029B00000F021F92777E80708D0F00706D0216852
:1029C0006FF001000861204600F016F9280608D5CE
:1029D000300606D521686FF0800008612046FFF7B9
:1029E0001DFE680608D5700606D521686FF0400008
:1029F0000861204600F001F9A8060AD5B00608D5FE
:102A000021686FF0200008612046BDE8F041FFF723
:102A100006BEBDE8F081000030B587B00446142141
:102A20006846FDF707FC2368214C0021214802225B
:102A3000A34210D1036843F008030360006800F06C
:102A40000800059050030090CDE90121CDE9031263
:102A50006946194813E0194D0324AB4213D10368AA
:102A600043F480730360006800F480700590802058
:102A70000090CDE90121CDE9031469461048FEF725
:102A800037FA07B030BD0F498B42FAD1016841F0E7
:102A900020010160006802AB00F02000059040209A
:102AA000CDE90002012083E8150069460648E6E703
:102AB0000008004030380240000C02400004014091
:102AC000002002400044014000140240704770B5ED
:102AD000044690F83C0000260D4601280FD0012046
:102AE00084F83C006AB1042A1DD0082A2FD00C2A91
:102AF0003FD00126002084F83C00304670BD022003
:102B000070BD206801F0CCF82068816941F00801AF
:102B100081612068816921F00401816120688169F7
:102B20002A69114311E0206801F0EAF82068816900
:102B300041F4006181612068816921F480618161D3
:102B4000206881692A6941EA02218161D2E720680F
:102B500001F00CF92068C16941F00801C1612068E9
:102B6000C16921F00401C1612068C1692A6911436A
:102B700011E0206801F02EF92068C16941F400617C
:102B8000C1612068C16921F48061C1612068C169A7
:102B90002A6941EA0221C161ACE710B5040003D003
:102BA00094F83D0010B107E0012010BD002084F82A
:102BB0003C00204600F01EF8022084F83D00211D54
:102BC000206800F0EFFF012084F8460084F83E0002
:102BD00084F83F0084F8400084F8410084F8420003
:102BE00084F8430084F8440084F8450084F83D00EC
:102BF000002010BD7047704770477047704710B590
:102C000004460068406994F84110C0F3C0102129BF
:102C100011D180B12068143050E8001F21F08001EC
:102C200040E80012002AF5D1A06B08B1FDF772FF51
:102C3000204601F0C0F92068406994F84210C0F3C2
:102C40008010222911D180B12068143050E8001F73
:102C500021F0400140E80012002AF5D1E06B08B1F4
:102C6000FDF758FF204601F07FF9002010BD7047A6
:102C7000F8B5016804460868CA684B6910F00F0F80
:102C80004FF0000559D003F0010602F49077374366
:102C900065D0C10705D0D10503D5616C41F00101B4
:102CA0006164410705D5D90703D0616C41F0020189
:102CB0006164810705D5D90703D0616C41F0040137
:102CC0006164010707D502F02001314303D0616C34
:102CD00041F008016164616C00293AD0800604D596
:102CE000900602D5204601F074F920684069616CB5
:102CF000C0F38010090700D460B3204601F034F916
:102D000020684069400621D52068143050E8001F33
:102D100021F0400140E80012002AF5D1E06BA8B193
:102D20006E490165E06BFDF73EFF002811D0E06BB6
:102D3000016D01B0BDE8F040084783060FD593064A
:102D40000DD52046BDE8F84001F043B92046FFF715
:102D50008EFFF8BD2046FFF78AFF6564F8BD266B3D
:102D60002023012E7DD1C6067BD5D60679D50868ED
:102D70004868009048694FF00206400641D5E16B73
:102D8000086840680004000CE8D0A28D8242E5D9B2
:102D9000E085C869B0F5807F2DD020680C3050E800
:102DA000001F21F4807140E80012002AF5D120684C
:102DB000143050E8001F21F0010140E80012002A01
:102DC000F5D12068143050E8001F21F0400140E8A0
:102DD0000012002AF5D184F84230256320680C30B7
:102DE00050E8001F21F0100140E80012002AF5D140
:102DF000E06BFDF78FFE6663A08DE18D401A81B216
:102E00002AE0A08DE18D401A81B2E08D0028A5D086
:102E10000029A3D022680C3252E8000F20F49070F1
:102E200042E80007002FF5D12068143050E8002F49
:102E300022F0010240E80027002FF5D184F842304B
:102E4000256320680C3050E8002F22F0100240E883
:102E50000023002BF5D166632046FFF7CFFEF8BDB7
:102E6000FFE705062BD5150629D594F84100212842
:102E7000F5D1A068B0F5805F01D12069B0B1206ABA
:102E8000411C2162216800784860E08C401E0004EB
:102E9000000CE084E3D12068C16821F08001C160AA
:102EA0002068C16841F04001C160D8E7206A00880D
:102EB000C0F308004860206A801C2062E5E74006F5
:102EC000CDD55006CBD5CA68204622F04002CA6054
:102ED00084F8413000F080F9C1E700006B3E000843
:102EE00038B5104800680168C943C90619D401689B
:102EF000406800900B48FFF782FE0B4C206840684A
:102F0000192804D1094800F05BFD094908702168BF
:102F100032204860BDE8384002460449014800F0CC
:102F2000FBB838BDF004002040060020B810002097
:102F30008400002070B5040004D094F841000025FE
:102F400010B106E0012070BD84F84050204600F02A
:102F500023F8242084F841002068C16821F400513E
:102F6000C160204601F096F82068016921F4904183
:102F700001612068416921F02A0141612068C1682E
:102F800041F40051C1606564202084F8410084F858
:102F900042006563002070BDF0B587B0074614217C
:102FA0006846FDF747F95349DFF844C13B68002400
:102FB000504A1439022503260720634533D113688C
:102FC00043F010031360126802F0100205920A68C1
:102FD00042F002020A600A6802F0020205920A68E0
:102FE00042F001020A600968074601F001010591FB
:102FF0008021CDE9001502AB694683E8D0003E4848
:10300000FDF776FF2802CDE9000502AB694683E8AB
:10301000D0003A48FDF76CFF002211462520FEF74C
:1030200013FA252040E0DFF8D8C0634540D1314A8B
:10303000121F136843F480231360126802F4802285
:1030400005920A6842F004020A600968029401F0DD
:10305000040105914FF44061CDE90015CDE903600D
:1030600069462848FDF744FF284D274828604FF05F
:103070000060C5E901044014C5E9034080106C619B
:10308000C5E906404FF44030C5E908042846FDF77D
:103090006DFE08B1FDF71EFAFD63002211462720E0
:1030A000AF63FEF7D1F92720FEF7C0F907B0F0BDF6
:1030B00017488342FAD1106840F020001060106871
:1030C00000F020000590086840F0400008600868A3
:1030D000029400F0400005904FF48440CDE90005D3
:1030E0000820CDE9036069460A48FDF701FFDDE7E6
:1030F0000010014044380240000402400000024039
:1031000000480040000802402860024040060020BD
:10311000001401400018024090F84230202B01D0EA
:103120000220704721B11AB10023036301F038B8BF
:1031300001207047704770472DE9F843044690F826
:103140004100984616460D46202802D00220BDE8D0
:10315000F88385B17EB100206064212084F84100AD
:10316000FDF7CCFFA6848146E684A0682027B0F551
:10317000805F02D003E00120E9E7206910B12E460C
:1031800000250EE000260CE08021204601F050F8DA
:10319000A8B9C6B116F8010B21684860E08C401E42
:1031A000E084E08C4B464FF00002CDF80080002810
:1031B000EAD14FF04001204601F03AF840B184F8DE
:1031C00041700320C3E735F8020BC0F30800E3E7C2
:1031D00084F841700020BAE77047FEE7F0B500239D
:1031E0000A24302537261F4611E000BFB4EB107FBC
:1031F00002D905EB107C01E006EB107C01F813C04E
:1032000001EB430C00015B1C8CF80170DBB29342B4
:10321000ECD3F0BD1FB50021164800910191029139
:10322000134A039102604FF48032C0E90121016129
:10323000017680F82010104AC0E90A210124C461F7
:10324000C16080F830104461FDF7ECF908B172B646
:10325000FEE71120CDE900040220029069460548EE
:10326000FDF73AF9002801D072B6FEE71FBD000055
:1032700000200140600100200100000F1FB5002167
:103280001648009101910291134A039102604FF494
:103290008032C0E901210161017680F82010104AD6
:1032A000C0E90A210124C461C16080F83010446182
:1032B000FDF7B8F908B172B6FEE70820CDE90004C1
:1032C0000720029069460548FDF706F9002801D05D
:1032D00072B6FEE71FBD000000220140A8010020D9
:1032E0000100000F0E4810B50C4901600321416038
:1032F00000214FF410228160C0E903124FF4001244
:103300004261017641768176C17601774177FDF79A
:10331000F0FA002801D072B6FEE710BD006400404C
:10332000F00100200F4810B50D49016003214160F4
:1033300000214FF410228160C0E903124FF4001203
:1033400042610176012242768176C176017741772A
:10335000FDF7CFFA002801D072B6FEE710BD0000DD
:103360000068004018020020154808B5016841F4C3
:1033700000110160016801F400110091016841F43D
:10338000800101600068002200F480000090114676
:103390000C20FEF759F80C20FEF748F800221146E1
:1033A0003A20FEF751F83A20FEF740F80022114685
:1033B0003B20FEF749F8BDE808403B20FEF736B851
:1033C000303802402DE9F04786B014216846FCF7FA
:1033D00031FF54480025016841F002010160016895
:1033E00001F002010591016841F0400101600168AE
:1033F00001F040010591016841F00101016001689F
:1034000001F001010591016841F0080101600168C6
:1034100001F008010591016841F0040101600168B3
:1034200001F004010591016841F4807101600168B7
:1034300001F480710591016841F02001016001688B
:1034400001F020010591016841F0800101600068F0
:10345000354F00F080000590012240213846FDF7ED
:1034600047FEDFF8C8804FF4E05600223146404660
:10347000FDF73EFEDFF8B890012210214846FDF727
:1034800037FEDFF8B0A0012211465046FDF730FEAE
:1034900001244020CDE90004029469463846039493
:1034A000FDF726FD0096CDE90145694640460395A6
:1034B000FDF71EFD082000904FF48810CDE90104AF
:1034C00069463846FDF714FDCDE900456946484692
:1034D0000295FDF70DFD1020CDE900040225694697
:1034E0004846CDE90245FDF703FD302000904FF43A
:1034F0000410CDE9010469460F48FDF7F9FC00947A
:10350000694650460194CDE90245FDF7F1FC0022E1
:1035100011460920FDF798FF0920FDF787FF06B047
:10352000BDE8F0873038024000180240001C02401D
:103530000000024000040240000802400F4810B59D
:103540000D4901604FF482714160002102228160C7
:10355000C0E9031201224261520282612022C0E9C5
:103560000721416281620A21C162FEF765FF0028DE
:1035700001D072B6FEE710BD00300140E802002025
:1035800010B588B01C216846FCF754FE1448134956
:103590000024C0E9001441F28731C0E9024104610E
:1035A0008461FFF7AFF808B172B6FEE70C48FFF789
:1035B000F4FA08B172B6FEE76020CDE90004029487
:1035C0000022694606480494FFF781FA08B172B6F2
:1035D000FEE70348FFF720FA08B010BD00440140A1
:1035E0006004002010B586B00024174800940194B0
:1035F000029403940494134905940160A721C0E93F
:10360000011444F61F61C0E9031444618461FFF7AB
:1036100079F808B172B6FEE74FF480500090694621
:103620000948FFF7F1F808B172B6FEE7049404A95F
:1036300005480594FFF71EF8002801D072B6FEE792
:1036400006B010BD000001404003002010B58EB050
:1036500000240794089409940A940B941C2168464A
:103660000C94FCF7E7FD1F481D4901605321C0E998
:10367000011444F61F61C0E903148461FFF742F8A6
:1036800008B172B6FEE74FF48050079007A91548BD
:10369000FFF7BAF808B172B6FEE71248FFF77DFAF5
:1036A00008B172B6FEE70B940BA90E480C94FEF716
:1036B000E1FF08B172B6FEE7602000904FF4FA60B7
:1036C000CDE901040822694606480494FFF7FFF992
:1036D00008B172B6FEE70348FFF79EF90EB010BDC1
:1036E000000800408803002010B596B000240F9415
:1036F00010941194129413941C2108A81494FCF7AC
:1037000099FD20216846FCF795FD2948274901606D
:10371000A721C0E9011444F61F61C0E90314446104
:103720008461FEF7EFFF08B172B6FEE74FF48050F8
:103730000F900FA91E48FFF767F808B172B6FEE7B1
:103740001B48FFF72AFA08B172B6FEE7139413A9D3
:1037500017481494FEF78EFF08B172B6FEE760209A
:1037600008904FF4FA60CDE909040B940C940D9481
:10377000082208A90E480E94FFF7A9F908B172B6FD
:10378000FEE700944FF40050CDE904400294019408
:103790000394694606480794FEF742FF08B172B6E3
:1037A000FEE70348FFF738F916B010BD00040140EA
:1037B0001804002010B500220F49104801F007F945
:1037C00008B1FCF787FE0E490C4801F014FB08B164
:1037D000FCF780FE0B49094800F0B2FE08B1FCF787
:1037E00079FE064801F08AFB002803D0BDE81040AE
:1037F000FCF770BE10BD000000000020A0060020F5
:103800009C0000207000002010B5402209490A48A1
:1038100000F0A2FE18B907480178491C01704FF466
:1038200080610648FDF75CFCBDE810404FF47A70FB
:10383000FDF73EBB20010020A0060020001C024036
:10384000FEE7FEE70148FDF771BF0000D409002044
:103850002DE9F04103680D4604461E6C03EB45114B
:10386000D1F8080B94F806E04FF400474FF0200C15
:1038700004F29C42BEF1010F09D0DFF898E07645D2
:1038800039D1020432D500BFC1F8087B3FE0224B9A
:103890005FEA007E04D59E4239D90004F4D436E0B4
:1038A0005FEA806E02D5C1F808CB30E010F0280F37
:1038B0002DD19E4201D90004E6D405EBC50004EBEE
:1038C0008000D1F8101BD0F87432C1F31201591ADC
:1038D000C0F8681200F51570ADB903691BB1C26874
:1038E0001144C1600FE0012120680AE080060AD57A
:1038F000C1F808CB07E035B9D4F8640218B9002143
:10390000184601F075FEE9B22046FDF703FE0020DF
:10391000BDE8F0810A31544F0A30544F2DE9F84F79
:103920000E4601EBC60100EB810481460568D4E92F
:1039300009101434884202D90120BDE8F88F081A12
:10394000A168814200D20846C01C870805EB4618D2
:103950001BE000BFA0EB010AA068504500D28246E0
:103960000AF10300870899F8060000901FFA8AF30D
:10397000F2B22846E16802F075F9E16801EB0A004D
:10398000E060616901EB0A006061D8F8180980B253
:10399000B84205D3D4E90401814201D20028D9D12B
:1039A000D4E90401884208D806F00F0101208840BC
:1039B000D5F834188143C5F834180020BDE77047A6
:1039C00048490022835C21F81230521CD2B2192AD5
:1039D000F8D3C27D0AB100207047B0F80120C2F3CD
:1039E0000A0221F8322F8278C378D20842EA4312C1
:1039F000C2F30A024A80C2780379920942EA83023A
:103A0000437942EA8322C2F30A028A8042798379A7
:103A1000520842EAC312C2F30A02CA808279C37909
:103A2000120942EA0312C2F30A020A81C279037A36
:103A3000D20942EA4302437A42EA4322C2F30A022B
:103A40004A81427A837A920842EA8312C2F30A02D6
:103A50008A81827AC37A520942EAC302CA81828980
:103A6000C2F30A020A82427B837BD20842EA4312F3
:103A7000C2F30A024A82827BC37B920942EA830232
:103A8000037C42EA8322C2F30A028A82027C437CDC
:103A9000520842EAC312C2F30A02CA82427C837C01
:103AA000120942EA0312C2F30A020A83827CC37C2F
:103AB000D20942EA4302037D42EA4322C2F30A02E8
:103AC0004A83027D437D920842EA8312C2F30A02CE
:103AD0008A83427D807D520942EAC000C88301206A
:103AE00070470000D210002070470178407841EA0A
:103AF00000207047FDF740BC30B593B030216846D8
:103B0000FCF798FB14210CA8FCF794FB1C4800253B
:103B1000016841F080510160006800F08050119010
:103B20001848016841F4804101600068022400F4F3
:103B30008040119001200090000401908001CDE9A7
:103B40000640062008904820CDE9090403200B9088
:103B50006846FEF7BBFA08B172B6FEE70CA90F2063
:103B600081E831004FF48050CDE90F0502210CA807
:103B7000FEF7BAF9002801D072B6FEE713B030BDE7
:103B800040380240007000400248016841F4700172
:103B90000160704788ED00E00148FEF7A4BE000018
:103BA000D0030020F0B50268294C2A4D2A4E2B4F35
:103BB0002B4B4FF0804CA04209D0604507D0A84263
:103BC00005D0B04203D0B84201D0984204D122F0CF
:103BD000700E4A6842EA0E02A0421BD0604519D01E
:103BE000A84217D0B04215D0B84213D0984211D095
:103BF0001C4DA8420ED01C4DA8420BD01B4DA84214
:103C000008D01B4DA84205D01A4DA84202D01A4D2B
:103C1000A84203D122F44075CA682A434D6922F0B4
:103C200080022A4302608A68C2620A688262A042F5
:103C300001D0984201D10969016301214161016903
:103C4000C90703D0016921F001010161F0BD000045
:103C5000000001400004004000080040000C00404B
:103C60000004014000400140004401400048014080
:103C700000180040001C00400020004010B584687F
:103C800042EA032224F47F440A432243826010BDA7
:103C9000826822F070020A4342F007018160704797
:103CA000F0B5036A026A22F0010202624268846986
:103CB000124E24F073050C682C4323F002058B6828
:103CC0002B430D4DA84201D0B04205D123F0080787
:103CD000CB683B4323F00403A84201D0B04205D196
:103CE0004D6922F4407215438A692A434260846117
:103CF000496841630362F0BD0000014000040140D7
:103D0000F0B5026A036A23F0100303624368846912
:103D10000D6824F4E64444EA05248D6822F020026C
:103D200042EA05120F4D104EA84201D0B04206D112
:103D3000CF6822F0800242EA071222F04002A84235
:103D400001D0B04207D14D6923F4406343EA8503B3
:103D50008D6943EA85034360846149688163026237
:103D6000F0BD00000000014000040140F0B5026A0F
:103D7000036A23F4807303624368C46922F4007207
:103D800024F073050C68124E2C438D6842EA05221C
:103D90000E4DA84201D0B04206D1CF6822F4006295
:103DA00042EA072222F48062A84201D0B04207D141
:103DB0004D6923F4405343EA05138D6943EA051323
:103DC0004360C4614968C1630262F0BD0000014004
:103DD0000004014030B5046A026A22F48052026293
:103DE0004268C3690D6823F4E64343EA05238D68FE
:103DF00024F4005444EA0534084DA84202D0084D8A
:103E0000A84204D14D6922F4804242EA8512426000
:103E1000C36149680164046230BD000000000140D4
:103E20000004014010B5036A046A24F0010404622E
:103E3000846924F0F00444EA021423F00A020A43DD
:103E40008461026210BD10B5036A046A24F0100494
:103E50000462846923F0A00324F4704444EA02322B
:103E600043EA01118261016210BD10B5806B00212F
:103E7000C185C184FEF7FBFE10BD70B5846B206860
:103E8000406994F84110C0F3C0100025212904D1E5
:103E900018B1E584204600F08EF82068406994F857
:103EA0004210C0F38010222904D118B1E5852046C4
:103EB00000F05AF8606C40F0100060642046FEF795
:103EC000D6FE70BD10B50146806B096809684FF0D9
:103ED0000002C9052ED4C28501680C3151E8003FAB
:103EE00023F4807341E80034002CF5D101681431CB
:103EF00051E8003F23F0010341E80034002CF5D1E4
:103F00000168143151E8003F23F0400341E80034D8
:103F1000002CF5D1202180F84210016B012909D134
:103F200001680C3151E8003F23F0100341E80034F0
:103F3000002CF5D14263016B012902D0FFF7FAF89A
:103F400010BD818DFEF75AFE10BD10B5806B0121AA
:103F50004163016B012902D0FFF7EDF810BD818D9F
:103F60004908FEF74BFE10BD01680C3151E8002FE7
:103F700022F4907241E80023002BF5D1016814313E
:103F800051E8002F22F0010241E80023002BF5D177
:103F9000016B012909D101680C3151E8002F22F091
:103FA000100241E80023002BF5D1202180F84210B7
:103FB00000210163704701680C3151E8002F22F0A5
:103FC000C00241E80023002BF5D1202180F84110E8
:103FD000704708B590F84210222901D0022008BD90
:103FE00082684FF480539A4201D1016921B1816AFC
:103FF0009A421BD04AB10AE00268816A5268C2F351
:1040000008020A80816A891C08E0026972B10268AC
:10401000526802F07F020A70816A491C8162C18D78
:10402000491E0904090CC18503D01BE002685268CF
:10403000F1E70168CA6822F02002CA600168CA6814
:1040400022F48072CA6001684A6922F001024A6162
:10405000202180F8421000214163026B012A03D025
:10406000FFF768F8002008BD016301680C3151E8D2
:10407000002F22F0100241E80023002BF5D1016847
:104080000A68D20602D50A6849680091818DFEF758
:10409000B5FDE7E770B5044600680169E26821F400
:1040A0004051114301612169A068E26908436169D7
:1040B000114308432168CA6849F20C639A430243DA
:1040C000CA6020684169A26921F4407111434161CD
:1040D00031492068884202D03049884202D1FDF738
:1040E000B3FF01E0FDF7A0FFE26900231921642579
:1040F0003226B2F5004F626828D0A0FB0101930F71
:104100009200FCF75FF80146B0FBF5F06FF0180283
:10411000504301EB800006EB0010B0FBF5F000F01F
:10412000F002B1FBF5F002EB0012B1FBF5F06FF01D
:104130001803584301EB800006EB0010B0FBF5F0CC
:1041400000F00F0021681044886070BDA0FB0101E1
:1041500092185B41FCF736F80146B0FBF5F002011E
:10416000B1FBF5F06FF01803584301EB800006EB4C
:10417000C000B0FBF5F000F0F80002EB4002B1FB2C
:10418000F5F0584301EB800006EBC000B0FBF5F002
:1041900000F00700D6E700000010014000140140C5
:1041A00038B581620446828500201346606422226D
:1041B00084F84220E56B1B4AEA63E56B1A4A2A64DD
:1041C000E56B1A4AEA64E26B10650A462168E06B07
:1041D000091DFCF735FE20680168406800902069E1
:1041E00048B120680C3050E8001F41F4807140E86D
:1041F0000012002AF5D12068143050E8001F41F069
:10420000010140E80012002AF5D12068143050E87E
:10421000001F41F0400140E80012002AF5D10020C3
:1042200038BD0000C53E00084B3F00087B3E00083B
:104230002DE9F843984617460D460446089E24E0AB
:10424000701C22D0FCF75AFFA0EB0800B0421AD82D
:10425000CEB12068C168490717D5802D15D0402DF3
:1042600013D00168C94309070FD4016800254068CD
:1042700000902046FFF778FE0820606484F84050E4
:104280000120BDE8F8830320FBE72068006835EAD9
:10429000000004D00020B842D2D00020F1E7012075
:1042A000F9E700000148FEF7E3BC0000A804002085
:1042B00010B50448FEF714FEBDE810400148FEF7B3
:1042C000D7BC0000F0040020D0F8D422002100EB7D
:1042D0008200D0F8C00280F850100846704710B530
:1042E000D0F8D41200EB8102D2F8C00238B1D2F873
:1042F000C42241780078D2689047002010BD032086
:1043000010BD000070B51D4E0446317800F07BFBF7
:104310003078002500F00F0000EB800004EB8000F7
:104320008584C5847178204600F06DFB707800F0BC
:104330000F0000EB800004EB8000A0F86451A0F8AF
:104340006651D4F8D40204EB8000D0F8C01299B1C1
:10435000D0F8C40280688047D4F8D40204EB80000F
:10436000D0F8C00200F04BFFD4F8D40204EB800078
:10437000C0F8C052C4F8BC52002070BDD400002068
:1043800010B5D0F8D41200EB8102D2F8C0421CB1B3
:10439000E06C012802D009E0032010BDD2F8C4224D
:1043A00061782078D26890470020E064002010BD3A
:1043B0000A210180004870471001002070B50546B1
:1043C00081210A4800F0AFFA04460121074800F0B5
:1043D000AAFA022105220CB1A180A27108B1818044
:1043E000827129202880014870BD0000D80000207B
:1043F00070B5054681210A4800F095FA044601216E
:10440000074800F090FA022105220CB1A180A271A8
:1044100008B18180827129202880014870BD000088
:10442000D800002070B5054681210A4800F07BFACB
:1044300004460121074800F076FA022105220CB15A
:10444000A180A27108B18180827129202880014851
:1044500070BD0000D80000202DE9F0410446542032
:1044600000F0CEFE05004FF000084BD0D4F8D40287
:10447000284E04EB80000223C0F8C052C4F8BC529E
:104480003178052001F00F0101EB810104EB81017E
:104490000322C884717801F00F0101EB810104EB64
:1044A0008101A1F866013178204600F0D0FB307818
:1044B000012700F00F0000EB800004EB80000223D6
:1044C000878403227178204600F0C1FB707800F0E9
:1044D0000F0000EB800004EB8000A0F8647185F809
:1044E0005080D4F8D40204EB8000D0F8C4024068B5
:1044F000804740232A467178204600F0B4FB002014
:10450000BDE8F081D4F8D412022004EB8101C1F897
:10451000C082F5E7D400002010B5D0F8D41200EB2B
:104520008101D1F8C02232B104494023497800F01A
:104530009AFB002010BD032010BD0000D400002015
:1045400039B1D0F8D42200EB8200C0F8C4120020A8
:10455000704703207047000010B51346D0F8D422EE
:1045600000EB8202D2F8C02222B190F89C42032CC8
:1045700002D00EE0032010BD92F850400CB1012093
:1045800010BD012482F850400A460349097800F022
:1045900013FC002010BD0000D4000020F8B5D0F8B6
:1045A000D42200EB82060022D6F8C0321546ADF8C0
:1045B0000020144633B10F7817F0600728D0202F61
:1045C00060D101E00320F8BD4A78921E0A2A59D230
:1045D000DFE802F010085858585858140C0588782D
:1045E000186452E0012203F140013CE04888000ACF
:1045F00058644AE0012203F1440134E00122DA6404
:10460000CA88402A00D34022194600F06EF83CE0E8
:104610004F78062F10D003DC3FB1012F32D134E0A8
:104620000A2F23D00B2F2DD128E090F89C22032AAB
:1046300028D10222694616E04B882227B7EB132FB8
:1046400007D1CA881E2A00D91E22D6F8C4120D68C6
:1046500008E02126B6EB132F04D1CA880D4D092A94
:1046600000D90922294600F05AF80EE090F89C2261
:10467000032A07D1012203F14801F4E790F89C22B4
:10468000032A04D000F026F803242046F8BD8878D9
:104690009864FAE70401002010B5D0F8B82200248D
:1046A0005268904700B10324204610BD0020704797
:1046B00000207047134610B50A46002100F0D3FAD7
:1046C000002010BD134610B50A46002100F074FB0F
:1046D000002010BD10B50446802100F04EFB20469E
:1046E000BDE81040002100F048BB10B50323C0F81E
:1046F0009432C0F858211346C0F85C210A460021C4
:1047000000F0B1FA002010BD10B50521C0F89412D8
:1047100000231A46194600F0A6FA002010BD10B575
:104720000223C0F8943282611346C2610A46002116
:1047300000F042FB002010BD10B50421C0F8941217
:1047400000231A46194600F037FB002010BD000078
:1047500010B50A46024903A000F009F9004810BD4F
:10476000B80E0020437573746F6D20484944204390
:104770006F6E66696700000012200880004870476D
:104780002000002010B50A46024903A000F0EFF80F
:10479000004810BDB80E0020437573746F6D20483B
:1047A000494420496E7465726661636500000000CB
:1047B00004200880004870471C00002010B50A46FD
:1047C000024903A000F0D3F8004810BDB80E002045
:1047D00053544D6963726F656C656374726F6E6973
:1047E0006373000010B50A46024903A000F0BFF849
:1047F000004810BDB80E002053544D33322043758D
:1048000073746F6D2048756D616E20696E7465728A
:10481000666163650000000010B51A20088040182A
:1048200009D008220549FEF7D9FC044904221031B9
:104830002046FEF7D3FC0148801E10BD3600002044
:10484000F8B504460020ADF8000048880D46010A7E
:1048500008295FD2DFE801F05E0409175E5E3C457F
:10486000D4F8B412207C0A6819E0207C02260028C3
:10487000D4F8B80205D0C16A684688470146467038
:1048800039E0816AF8E7C0B2062843D2DFE800F0D9
:10489000030A1014181CD4F8B402426805E06946F3
:1048A00090471CE0D4F8B402826892B3207CF6E70B
:1048B000D4F8B402C268F8E7D4F8B4020269F4E7A5
:1048C000D4F8B4024269F0E7D4F8B4028269ECE7A4
:1048D000207CF0B9D4F8B802416B6846884701469D
:1048E00009E0207CA8B9D4F8B802016B6846884773
:1048F000014607204870EA888AB1BDF8000040B13F
:10490000824200D90246ADF800202046FFF707FF9B
:10491000F8BDFFE729462046FFF7DCFEF8E7204612
:10492000FFF70AFFF4E778B50E46428801780025C4
:1049300004468A4212D9ADF800100AE0694600F038
:104940000FF84178052904D181780546B14205D098
:1049500000256188BDF800209142EFD8284678BD37
:104960000A8803781A440A8001780844704770B5B1
:10497000002300281ED00025044602E06D1CEDB285
:10498000641C2678002EF9D1022404EB450414801F
:104990001278CA545B1C0322CA5400245B1C06E034
:1049A000CA545B1CDAB28C54521CD3B2401C02783D
:1049B000002AF5D170BD01004FF0000004D001299C
:1049C00001D0022901D0032070470120704778B13F
:1049D0000023C0F8B832C0F8C432C0F8D03209B1F0
:1049E000C0F8B412012180F89C12027000F0C8B81F
:1049F0000320704710B5D0F8C802FCF7CDFDBDE824
:104A00001040FFF7D8BF10B5D0F8C802FCF79FFDE3
:104A1000BDE81040FFF7CFBF2DE9F041174604462F
:104A2000002521B194F89C02032842D04CE0D4F830
:104A3000941204F11400022935D1D0E902639E4298
:104A400006D9F21A826039462046FFF73BFE0FE096
:104A5000B34214D14068984211D3D4F898128842D6
:104A60000DD2002211462046FFF72CFEC4F89852C2
:104A700000231A461946204600F0F5F813E094F892
:104A80009C02032808D1D4F8B802C16821B1C4F847
:104A9000D452C168204688478021204600F06DF935
:104AA0002046FFF731FE94F8A00268B184F8A052C6
:104AB0000AE0D4F8B802426932B1C4F8D45242696B
:104AC00020469047002800D10020BDE8F08170B555
:104AD00013460446002221B194F89C02032830D0EA
:104AE0003AE0D4F8941204F5AA70032934D1D0E93D
:104AF00002518D420AD96A1A82600846824200D366
:104B0000024619462046FFF7D5FD25E094F8AA0293
:104B100010F01F0003D0012802D0022800D000228C
:104B200094F89C02032808D1D4F8B802016921B195
:104B3000C4F8D4220169204688472046FFF7FCFDCF
:104B40000AE0D4F8B802836933B1C4F8D422826988
:104B500020469047002800D1002070BD00207047FB
:104B600010B50024012180F89C12D0F8B82222B19F
:104B700052680179904700B10324204610BD00001F
:104B800010B5017839BB15490222C1F8E004C0F81C
:104B9000C8124FF0A040086004200871CA710020BC
:104BA00088714A728872C87208738873C87308461D
:104BB000FDF772F808B1FBF78DFC80210748FCF780
:104BC00076FC402200210548FCF775FC802201217B
:104BD0000248FCF770FC002010BD0000D409002042
:104BE0000A0601F07F01D0F8C80201EBC10100EB19
:104BF000810001D5807D704790F85602704710B54E
:104C0000D0F8D42200EB8202D2F8B82222B190F878
:104C10009C32032B02D004E0032010BD126A02B1C3
:104C20009047002010BD10B5D0F8D42200EB8202CE
:104C3000D2F8B82222B190F89C32032B02D004E0C3
:104C4000032010BD526A02B19047002010BD10B57C
:104C50001C461346D0F8C8022246FCF7CAFCBDE841
:104C60001040FFF7A8BE10B5D0F8C802FCF7F0FC62
:104C7000BDE81040FFF79FBE2DE9F0410026012559
:104C8000044680F89C52C4F894626660C4F8A4623A
:104C900080F8A062D0F8B80230B1426822B1002199
:104CA0002046904700B103260022402311462046AB
:104CB000FFF7CDFF4027A4F864513B460022802136
:104CC0002046C4F86071FFF7C2FFA5843046276212
:104CD000BDE8F08190F89C12042903D190F89D1250
:104CE00080F89C120020704710B590F89C120329A0
:104CF00005D1D0F8B81211B1C96901B188470020B7
:104D000010BD01740020704710B5D0F8C802FDF73F
:104D100097F8BDE81040FFF74EBE70B5044600F2AC
:104D2000AA20054600F051F80120C4F89402B4F816
:104D3000B002C4F8980294F8AA0210F01F010AD039
:104D400001290ED0022912D000F080012046BDE8D2
:104D5000704000F012B829462046BDE8704000F0CF
:104D6000CFB829462046BDE8704000F00FBA29466A
:104D70002046BDE8704000F059B910B5D0F8C8021F
:104D8000FCF782FCBDE81040FFF715BE10B5D0F867
:104D9000C802FDF76FF8BDE81040FFF70CBE90F8B1
:104DA0009C12042903D090F89C1280F89D120421D3
:104DB00080F89C120020704710B5D0F8C802FCF7AC
:104DC0009CFCBDE81040FFF7F6BD70B5054611F834
:104DD000010B2870087868704C1C2046FEF785FE91
:104DE0006880A41C2046FEF780FEA880A01CFEF769
:104DF0007CFEE88070BD38B504460020ADF80000A8
:104E0000A1B1C4F8B812D4F8D40204EB8000D0F8F1
:104E1000B802C16A19B168468847C4F8D002D4F80C
:104E2000D802401CC4F8D802002038BD032038BD89
:104E300002460020D2F8B832002B02D01B68104680
:104E4000184770472DE9F04188462B4E8978002598
:104E500004463170012906D941462046FFF73AFC45
:104E60000320BDE8F08194F89C02022702280CD0B0
:104E700003281DD041462046FFF72CFC3178204600
:104E8000FFF70AFC03252846EBE789B3204661605B
:104E9000FFF7CEFF050004D041462046FFF71AFC7D
:104EA0001DE02046FFF748FC032084F89C02EAE757
:104EB000C1B1606888421BD0C1B22046FFF7ECFB4D
:104EC000317820466160FFF7B3FF050010D04146FE
:104ED0002046FFF7FFFB21792046FFF7DDFB84F832
:104EE0009C72D0E784F89C7220466160FFF7D4FB87
:104EF0002046FFF721FCC6E798000020FFF746BFD9
:104F00002DE9F0410A78002512F060020CD0202A29
:104F100001D0402A7DD1D0F8D42200EB8202D2F811
:104F2000B8229268904731E04B78002201260A2B84
:104F30006FD2DFE803F041666E586E08056E2D29CA
:104F4000FFF77EFC67E004468888D8B9C888C8B9EE
:104F50004888802816D200F07F0794F89C02032826
:104F600010D084F89E7239462046FFF7CDFE2046C9
:104F7000FFF7E2FB1FB1022084F89C024BE084F8AB
:104F80009C6248E0204644E0FFF75CFF054642E0B3
:104F9000CB88012B3DD190F89C32012B04D0022B01
:104FA00002D0032B35D104E08260012200F1080118
:104FB00016E00122011D13E090F89C22012A03D083
:104FC000022A01D0032A24D1CA88022A21D1C6602C
:104FD000D0F8A41209B10321C160022200F10C0132
:104FE000FFF79DFB17E04A88012A02D0022A03D06E
:104FF0000FE0C0F8A46216E08988090A80F8A012C0
:1050000011E090F89C32012B08D0022B06D0032B24
:1050100004D0FFF75FFB2846BDE8F08149880129ED
:10502000F9D1C0F8A422FFF787FBF4E72DE9F0419E
:10503000054608780C790E464FF0000810F0600025
:105040000BD0202801D040286AD121462846FFF7FE
:105050002DFBFF2800D0D8B395E07078C8B30128A5
:1050600024D003285CD195F89C02022802D00328A2
:1050700056D10CE0002C53D0802C51D0214628462C
:10508000FFF77BFE80212846FFF777FE7BE07088E4
:1050900040B93CB1802C05D0C88818B921462846B3
:1050A000FFF76BFE2846FFF747FB6CE095F89C0284
:1050B0000228DFD0032863D1708880BB600603D04C
:1050C00021462846FFF796FC2846FFF735FBBCE74C
:1050D00000E00AE0C5F8D402D5F8B8028268F2B15F
:1050E00031462846904780464DE095F89C020027BF
:1050F000022802D0032843D113E00CB1802C3FD109
:10510000200604F07F0000EB800005EB800101D554
:10511000143101E001F5AA7102220F602CE032E0A7
:105120002EE0200604F00F0000EB800005EB80006D
:1051300009D5808C20B304F07F0000EB800005EBE4
:10514000800614360AE0B0F86401C8B104F07F00AC
:1051500000EB800005EB800606F5AA764CB1802CAA
:1051600007D021462846FFF73BFD10B101203060F3
:1051700000E03760022231462846FFF7D0FA02E00D
:105180002846FFF7A7FA4046BDE8F08170B505460E
:10519000087800240E4610F0600003D0202801D0CB
:1051A000402827D195F89C02012803D0022801D07D
:1051B00003281FD1B088C1B201291AD8C1B228462C
:1051C000FFF776FAFF280CD058B9D5F8B8128A68DC
:1051D0003AB1C5F8D4028A68314628469047044659
:1051E00000E00324F088204307D12846FFF7A4FA03
:1051F00003E031462846FFF76DFA204670BD704740
:10520000004870477C09002070B50A78012302F03D
:105210000F054E78AB401B4CD0F81C58012E17D010
:1052200045EA0343C0F81C3800EB4210D0F8002BCD
:1052300012040BD4D0F8002B0B890979C3F30A03AD
:105240001A4344EA81410A43C0F8002B002070BD94
:105250009BB21D43C0F81C5800EB4210D0F8003937
:105260001B04F3D4D0F800390D890979C5F30A0578
:1052700089042B4341EA82510B432343C0F8003990
:10528000E4E7000000800010D0F800196FF30A0175
:10529000C0F80019D0F8041841F48071C0F804185F
:1052A0000020704770B50D460446C2F307210498EC
:1052B0001E4601291BD0E06840F04000E060204617
:1052C00000F032F8C6F307210029A16B26D021F4A3
:1052D0008031A163C5F30741012907D1A16841F0DD
:1052E0000601A160A16841F02001A16070BDA16B21
:1052F00021F48031A163E1680A4A1140E160E1686C
:1053000021F44011E160C0B2012803D1E06840F40B
:105310008010E060204600F007F8DBE741F48031C0
:10532000D7E70000BFFFBDFF08B500214FF0706256
:105330000091009B5B1C009393420CD80369002BE7
:10534000F7DA0091016941F0010101610099491CFE
:105350000091914201D9032008BD0169C907F5D127
:10536000002008BD30B54C780A78012300EB4212CA
:10537000012C2CD0D2F8004B002C0BDAD2F8004BC9
:1053800044F00064C2F8004BD2F8004B44F0804473
:10539000C2F8004BD0F83C580C7804F00F0403FA24
:1053A00004F425EA0444C0F83C48D0F81C480978C5
:1053B00001F00F018B4024EA0341C0F81C18D2F819
:1053C000000B19490840C2F8000B002030BDD2F88C
:1053D0000049002C0BDAD2F8004944F00064C2F80E
:1053E0000049D2F8004944F08044C2F80049D0F89E
:1053F0003C480D7805F00F0503FA05F5ADB2AC4356
:10540000C0F83C48D0F81C48097801F00F018B40E7
:1054100099B28C43C0F81C48D2F8000903490840EF
:10542000C2F80009D1E700000078F3EF007833EC10
:10543000D0F8001E21F00301C0F8001ED0F80418B7
:1054400021F00201C0F8041800207047D0F8001EB7
:1054500021F00301C0F8001ED0F8041841F0020149
:10546000C0F80418002070472DE9F04F00250E46C3
:10547000044617462846294604EB8002C2F8041168
:10548000401C0F28F8D3C3F307405FEA0009204609
:1054900016D0806B20F40012A263A06B40F40022AF
:1054A000A263084688462146C4F8000EC7F30720C9
:1054B000012817D00846D1F8001841F0030118E080
:1054C000D0F8040840F00202C4F80428A06B40F4AD
:1054D0000012A263A06B20F40022A263A06B20F450
:1054E0008022DDE7300E0846D1F8001801D041F0E7
:1054F0000101C0F80018102100F087FA00B1012561
:10550000204600F066FA00B101254046C4F8108834
:10551000C4F81488C4F81C8800214FF0006B4FF0C9
:10552000904E4FF67F3AF2B215E000BF04EB411304
:10553000D3F800C9BCF1000F06DA11B1C3F800E9D5
:1055400004E0C4F800B901E0C3F80009C3F8100989
:10555000C3F808A9491C8A42E8D8002115E000BF19
:1055600004EB4113D3F800CBBCF1000F06DA11B104
:10557000C3F800EB04E0C4F800BB01E0C3F8000B83
:10558000C3F8100BC3F808AB491C8A42E8D8D4F81A
:10559000101821F48072C4F81028A0616FF08040C8
:1055A0006061C6F3074018B9A06940F01000A0611F
:1055B000A0690A490843A061C7F3074018B1A06970
:1055C00040F00800A061B9F1010F03D1A0690449BE
:1055D0000843A0612846BDE8F08F000000383C80F9
:1055E00004000040816821F00101816000207047C3
:1055F00010B5036C134CA34203D9D0F8003B002B29
:105600001EDB0023C0F8103BD0F8103B43F400230E
:10561000C0F8103BD0F8103B43F01803C0F8103B23
:10562000D0F8103B43F0C043C0F8103B012907D12C
:10563000C0F8142BD0F8001B41F08021C0F8001BEB
:10564000002010BD0A30544F4A780B78012A00EB35
:1056500043100BD0D0F8002B22F40012C0F8002B1E
:105660000979032914D0022912D017E0D0F80029B3
:1056700022F40012C0F800290979032901D0022977
:105680000CD1D0F8001941F08051C0F8001905E0A4
:10569000D0F8001B41F08051C0F8001B002070477B
:1056A0000A784B78D1B200EB4110012B12D0D0F820
:1056B000001B002906DB2AB1D0F8001B21F0804135
:1056C000C0F8001BD0F8001B41F40011C0F8001B0B
:1056D00000207047D0F80019002906DB2AB1D0F865
:1056E000001921F08041C0F80019D0F8001941F4E8
:1056F0000011C0F80019EBE7F8B50C784F78894D28
:10570000E3B26FF0604600EB4313012F29D0D3F8CA
:10571000107B6FF31207C3F8107BD3F8107B2F4078
:10572000C3F8107B002C0C697DD0002C7CD08D68D8
:105730002C44641EB4FBF5F4A4B265430D62D3F8A7
:10574000105B06EAC4442543C3F8105BD3F8104B42
:105750000D6AC5F312052C43C3F8104B012A7DD006
:10576000C7E00F6927B3D3F810796FF31207C3F8B6
:105770001079D3F810792F40C3F8107944B30F692A
:105780008D682F447F1EB7FBF5F506EAC545D3F8B3
:1057900010693543C3F81059D3F810590E69C6F390
:1057A00012063543C3F810590D79012D1CD027E09E
:1057B000D3F810692E40C3F81069D3F8105945F496
:1057C0000025C3F81059D3F810596FF3120515E0EE
:1057D0000E698D68AE4200D90D61D0F8105945F4BC
:1057E0000026C0F81069D7E7D3F8105925F0C04556
:1057F000C3F81059D3F8105945F00055C3F81059A3
:10580000012A1AD000EB4413D3F8004944F00444B1
:10581000C3F800490C79012C32D00A697AB3D0F868
:105820003428097801E040E052E001F00F03012143
:1058300099400A43C0F8342871E0CA691AB100EBF4
:105840004413C3F814290979012910D1D0F8081894
:10585000C90500EB4411D1F8002900E045E002D46D
:1058600042F0005201E042F08052C1F8002900EB02
:105870004410D0F8001941F00441C0F800194EE07E
:10588000D0F80848E405D3F8004902D444F00054A5
:1058900001E044F08054C3F8004900920A8A93B2B0
:1058A0000A78C96800F0DEF939E00CB18C680C6147
:1058B0008C680C62D0F8105BC4F312042543C0F866
:1058C000105BD0F8104B44F40024C0F8104B45E7AF
:1058D000D3F8104B8D68C5F312052C43C3F8104B59
:1058E000D3F8104B44F4002436E7CA680AB1C3F871
:1058F000142B097901290CD1D0F80808C005D3F878
:10590000000B02D440F0005001E040F08050C3F89A
:10591000000BD3F8000B40F00440C3F8000B00204C
:10592000F8BD0000FFFF07E038B5002200921346E3
:105930004D780A7842F2107400EB4212012D19D012
:10594000D2F8005B002D3CDAD2F8005B45F0006530
:10595000C2F8005B0A7800EB4212D2F8005B45F017
:105960008045C2F8005B009A521C0092A24221D9E5
:10597000012326E0D2F80059002D22DAD2F800598E
:1059800045F00065C2F800590A7800EB4212D2F8DF
:10599000005945F08045C2F80059009A521C009207
:1059A000A242E5D80A7800EB4212D2F80029002A78
:1059B000F3DB06E00A7800EB4212D2F8002B002A53
:1059C000D1DB184638BD816841F0010181600020BB
:1059D000704708B500214FF070620091009B5B1C7E
:1059E000009393420AD80369002BF7DA0091102143
:1059F00001610099491C0091914201D9032008BD21
:105A00000169C906F5D4002008BD18B500224FF081
:105A100070630092009C641C00949C420CD8046942
:105A2000002CF7DA0092202242EA811101610099EC
:105A3000491C0091994201D9032018BD01698906CA
:105A4000F5D4002018BDD0F8080810F0060004D0E6
:105A5000022803D0062801D00F207047022070478B
:105A6000406900F001007047D0F81818D0F81C0801
:105A7000084080B27047D0F81818D0F81C080840C9
:105A8000000C704710B5D0F81038D0F8342801F069
:105A90000F0400EB4110E24002F00102D0F80809C7
:105AA00043EAC212104010BD00EB4111D1F8081BAF
:105AB000D0F8140808407047416980690840704771
:105AC00030B503460846940802F00301002203F5AE
:105AD000805303E01D6840F8045B521CA242F9D3D6
