:020000040800F2
:10000000B8050020C50100086B1B0008D9180008BE
:10001000691B0008F90300085D1E000800000000CD
:100020000000000000000000000000006F1B00083E
:1000300085040008000000006D1B0008711B00080B
:10004000DF010008DF010008DF010008DF01000810
:10005000DF010008DF010008DF010008DF01000800
:10006000DF010008DF010008DF010008DF010008F0
:10007000DF010008DF010008DF010008DF010008E0
:10008000DF010008DF010008DF010008DF010008D0
:10009000DF010008DF010008DF010008DF010008C0
:1000A000DF010008DF010008DF010008DF010008B0
:1000B000DF010008DF010008DF010008DF010008A0
:1000C000DF010008DF010008DF010008DF01000890
:1000D000DF010008511E0008DF010008DF010008F1
:1000E000DF010008DF010008DF010008DF01000870
:1000F000DF010008DF010008DF010008DF01000860
:10010000DF010008DF010008DF010008DF0100084F
:10011000DF010008DF010008DF010008DF0100083F
:10012000DF010008DF010008FD030008DF0100080F
:10013000DF010008DF010008DF010008DF0100081F
:10014000DF010008DF010008DF010008DF0100080F
:10015000DF010008DF010008DF010008DF010008FF
:10016000DF010008DF010008DF010008DF010008EF
:10017000DF010008DF010008DF01000800000000C7
:10018000DF010008DF010008DF010008DF010008CF
:10019000DF010008DF010008DF010008DF010008BF
:1001A0000000000000000000DF010008DFF810D0B0
:1001B00000F07CF8004800479D1E0008AFF3008067
:1001C000B80500200648804706480047FEE7FEE7DE
:1001D000FEE7FEE7FEE7FEE7FEE7FEE7FEE7FEE7F7
:1001E000151C0008AD0100082DE9F05F0546002050
:1001F00092469B4688460646814640241BE0284698
:1002000041464746224600F041F853465A46C01A36
:10021000914110D311461846224600F028F82D1AB5
:1002200067EB01084F4622460120002100F01FF82D
:1002300017EB00094E41201EA4F10104DFDC484603
:1002400031462A464346BDE8F09FD2B201E000F8AD
:10025000012B491EFBD270470022F6E710B513466A
:100260000A4604461946FFF7F0FF204610BD202A33
:1002700004DB203A00FA02F1002070479140C2F1FD
:10028000200320FA03F3194390407047202A04DB2F
:10029000203A21FA02F00021704721FA02F3D040FF
:1002A000C2F120029140084319467047064C074DA1
:1002B00006E0E06840F0010394E807009847103436
:1002C000AC42F6D3FFF776FF001F0008201F00089E
:1002D000464910B54A6822F440324A604A68436889
:1002E0001A434A6001684A6822F480724A600168D1
:1002F0004A68036942EA03224A6001684A6822F0B8
:1003000040724A6001684A6883681A434A6001681B
:100310008A6822F400628A6001688A68C3681A43A6
:100320008A60816A6FF07062D14201688A6822F047
:1003300070628A6001688A680CD0836A1A438A6096
:1003400001688A6822F040528A6001688A68C36A3C
:100350001A4301E022F040528A6001688A6822F064
:1003600002028A6001688A68037E42EA43028A6068
:1003700090F82010002901684A680FD042F400620A
:100380004A6001684A6822F460424A6001684A682B
:10039000174C436A04EB43331A4301E022F4006232
:1003A0004A600168CA6A22F47002CA620168CA6AB5
:1003B000838B104C04EB03531A43CA6201688A68AA
:1003C00022F400728A6001688A6890F8303042EA4C
:1003D00043228A6001688A6822F480628A60016828
:1003E0008A68406942EA8020886010BD002301408D
:1003F00000E0FFFF0000F0FFFEE70000014800F012
:100400007DBA00005801002001681823CAB2103AD2
:10041000B2FBF3F2054B6FF30901032A9B5CC36542
:1004200000D9091D8165084670470000E01E0008DC
:1004300010B5014600208B698A6A4FF0C07453B131
:10044000B3F5005F15D072B1012A0CD0022A0AD090
:10045000032A09D104E01AB1012A06D0022A03D1E5
:10046000C96AC90100D5012010BDC96AA142FAD0EC
:1004700010BD002AF7D0012AF2D0022AF3D0032AB5
:10048000F3D010BD704772B6FEE7000078B50024C7
:10049000009490F83C20012A19D0012280F83C20D9
:1004A0000A6807230568092A13D9EE680A3A02EB9D
:1004B000420293409E43EE600B788A680A3B03EB4E
:1004C00043039A400368DD682A43DA6010E00220A3
:1004D00078BD2E6902EB420293409E432E610B7859
:1004E0008A6803EB43039A4003681D692A431A6133
:1004F0004A681F23072A13D205686E6B521E02EB4F
:10050000820293409E436E630A8893B20A79521E18
:1005100002EB820293400268556B2B43536327E042
:1005200005680D2A12D22E6BD21F02EB8202934075
:100530009E432E630B790A88DB1F92B203EB830381
:100540009A4003681D6B2A431A6311E0EE6A0D3A64
:1005500002EB820293409E43EE620B790A880D3BC8
:1005600092B203EB83039A400368DD6A2A43DA629E
:100570001B4B0568194A9D420AD10D68122D07D1FF
:10058000556825F400055560556845F480055560AB
:1005900005689D421DD1134D0B68AB4201D0112B54
:1005A00017D1536823F480035360536843F4000366
:1005B00053600968A9420CD10B490C4A0968B1FB88
:1005C000F2F101EB8101490000E0491E0091002990
:1005D000FBD180F83C40002078BD000000230140A2
:1005E00000200140120000100C00002040420F00CB
:1005F00070B504004FF0000503D0206C002610B148
:1006000007E0012070BD204600F01CF8666484F805
:100610003C60206CC00610D4206C20F4885040F060
:10062000020020642046FFF753FE6664206C20F031
:10063000020040F00100206400E0012584F83C60E5
:10064000284670BD10B586B0044614216846FFF7F1
:1006500003FE174B2268002116489A4209D101680F
:1006600041F480710160006800F48070059006B06C
:1006700010BD114B9A42FAD1026842F480620260C6
:10068000006800F4806005900A481438026842F05F
:1006900020020260006800F0200005901020009009
:1006A0000320CDE901016946044800F073FADEE752
:1006B0000020014044380240002201400014024062
:1006C00070B5040003D094F8200010B104E00120BC
:1006D00070BD204600F082F82068016841F00101F9
:1006E000016000F07FFB0546052604E000F07AFB80
:1006F000401B0A2811D820684068C007F6D020683F
:10070000016821F00201016000F06CFB05460BE07E
:1007100000F068FB401B0A2806D9606A40F40030EC
:10072000606284F82060D2E7206840688007EFD4D8
:10073000207E0128206801683DD021F08001016001
:10074000607E01282068016838D021F040010160F6
:10075000A07E01282068016833D021F020010160CB
:10076000E07E0128206801682ED041F01001016070
:10077000207F01282068016829D021F0080101604C
:10078000607F01282068016824D021F00401016005
:10079000D4E902010843D4E9041211430843616813
:1007A000491E08432168C86100206062012084F866
:1007B0002000002070BD41F08001C0E741F0400101
:1007C000C5E741F02001CAE721F01001CFE741F071
:1007D0000801D4E741F00401D9E7000010B586B064
:1007E000044614216846FFF737FD13492068884204
:1007F0001FD112480021026842F0007202600068B6
:1008000000F0007005900D481038026842F00802B0
:1008100002600068022200F0080005900320CDE984
:100820000210CDE90002092004906946044800F056
:10083000B1F906B010BD000000640040403802402D
:10084000000C02402DE9F0410446876D00F0CAFA21
:10085000064694F835000025022806D08020606501
:1008600084F834500120BDE8F0812068016821F04F
:10087000160101602068416921F080014161206C0E
:1008800008B9A06C20B12068016821F0080101605E
:100890002068016821F0010101600CE000F0A2FA7B
:1008A000801B052807D920206065032084F83500C7
:1008B00084F83450D7E720680068C007EED194F878
:1008C0005C103F208840B860012084F8350084F82F
:1008D00034500020C7E790F83510022903D080215A
:1008E000416501207047052180F8351000680168D6
:1008F00021F0010101600020704700002DE9F8435C
:1009000004464FF00009CDF8009063484FF41651AB
:10091000A56D0068B0FBF1F72E6894F85C10082014
:1009200000FA01F131420FD021680A6852070BD555
:100930000A6822F004020A6094F85C108840A860FB
:10094000606D40F00100606594F85C104FF00108A4
:1009500008FA01F0304208D021684969090604D537
:10096000A860606D40F00200606594F85C1004209F
:100970008840304208D021680968890704D5A860FA
:10098000606D40F00400606594F85C1010208840B1
:10099000304218D021680968090714D5A86020687A
:1009A0000168490304D50068000308D5A16C07E07D
:1009B0000168C90503D4016821F008010160216CB8
:1009C00009B12046884794F85C10202088403042C6
:1009D00031D021680968C9062DD5A86094F8350082
:1009E00005282068016806D0490347D50068000340
:1009F0001DD4616C1CE021F0160101602068416982
:100A000021F080014161206C08B9A06C20B1206800
:100A1000016821F00801016094F85C103F208840D3
:100A2000A86084F8358084F83490216D1FE0E16B74
:100A300009B120468847606D00282BD0606DC00743
:100A400014D0052084F835002068016821F00101E8
:100A500001600098401C0090B84203D820680068EC
:100A6000C007F6D184F8358084F83490E16C002911
:100A700010D001B02046BDE8F04308470168C90521
:100A8000D5D4016821F01001016084F8358084F824
:100A90003490CCE7BDE8F8830C0000202DE9F0414C
:100AA000044600F09FF906465CB1022084F8350048
:100AB000002584F834502068016821F001010160AC
:100AC0000DE00120BDE8F08100F08CF9801B0528C5
:100AD00005D920206065032084F83500F2E72068FE
:100AE0000068C007F0D12268116820480140D4E9AD
:100AF00001031843D4E903363343184363691843A9
:100B0000A3691843E3691843236A18430843616AD9
:100B1000042903D1D4E90B1319430843106020685A
:100B20004069666A20F0070130460E430127042819
:100B30000CD1A06A0643E06A40B12046FFF778FC7A
:100B400020B14020606584F83570BAE720684661BE
:100B50002046FFF759FC94F85C203F2191408160CA
:100B6000656584F835700020ACE700003F8010F028
:100B700070B5044600F036F90546601C02D0044802
:100B80000078044400F02EF9401BA042FAD370BD57
:100B9000000000202DE9F84FDFF8F8A10022012421
:100BA00003254FF00F090AF1040BAAF1040E00BF50
:100BB0000B6804FA02F63340B34270D10F7907F0A4
:100BC0000307012F01D0022F16D187684FEA420890
:100BD00005FA08FC27EA0C07D1F80CC00CFA08FC4F
:100BE0004CEA070CC0F808C04768B7430E79C6F353
:100BF000001696403E4346600E79F643B6070AD08B
:100C0000C7684FEA420C05FA0CF6B7438E6806FA3D
:100C10000CF63E43C6600E7906F00306022E10D194
:100C2000D60800EB8608D8F8206057074FEAD76C43
:100C300009FA0CF7BE430F6907FA0CF73743C8F8F7
:100C4000207006684FEA420C05FA0CF7BE430F7994
:100C500007F0030707FA0CF7374307604E6816F4EE
:100C6000403F1CD04C4E376847F4804737603668A9
:100C700022F0030706F480460096484E07EB060C68
:100C8000DCF8086897073F0F09FA07F826EA080614
:100C9000DFF80C81404503D14FF0000841E072E0DD
:100CA000DFF80081404502D14FF0010839E0DFF85C
:100CB000F880404502D14FF0020832E0DFF8EC80C6
:100CC000404502D14FF003082BE0DFF8E4804045B7
:100CD00002D14FF0040824E0DFF8D880404502D16B
:100CE0004FF005081DE0DFF8D080404502D14FF0FD
:100CF000060816E0DFF8C480404502D14FF007082F
:100D00000FE0DFF8BC80404502D14FF0080808E052
:100D1000DFF8B080404502D14FF0090801E04FF004
:100D20000A0808FA07F848EA0608CCF80888DAF84A
:100D300000605746D1F804C09E435FEACC2C00D532
:100D40001E433E60DBF800605F46D1F804C09E435E
:100D50005FEA8C2C00D51E433E60DEF800607746CB
:100D6000D1F804C09E435FEA8C3C00D51E433E6030
:100D7000084F083F3E68D1F804C09E435FEACC3C70
:100D800000D51E433E60521C102AFFF411AFBDE88F
:100D9000F88F0000083C0140443802400030014018
:100DA000000002400004024000080240000C024023
:100DB000001002400014024000180240001C0240D3
:100DC0000020024000240240426921EA02030A4056
:100DD00043EA0241816170470AB1816170470904A9
:100DE000FBE7000001488068704700000000002019
:100DF0000248816802781144816070470000002039
:100E00000B4810B5016841F400710160016841F4BC
:100E100080610160016841F480710160032000F08D
:100E20006FF80F2000F006F800F024F8002010BD45
:100E3000003C024070B50D4D04464FF47A7128789D
:100E4000B1FBF0F00A490968B1FBF0F000F044FB97
:100E500048B9102C07D200222146501E00F030F86D
:100E600000206C6070BD012070BD000000000020FB
:100E70000C0000200A4808B5016841F48041016077
:100E8000006800F4804000900548001F016841F0B0
:100E900080510160006800F08050009008BD0000A3
:100EA00044380240002809DB00F01F020121914074
:100EB0004009800000F1E020C0F8001170470000F8
:100EC000F0B40E4B1B680C46C3F30223C3F10705B5
:100ED000042D00D90425191D072901D2002300E0A3
:100EE000DB1E012606FA05F1491E214099409E406D
:100EF000761E16403143F0BC00F0B1BF0CED00E0AF
:100F0000064900F0070208684FF6FF03184040EA60
:100F10000220034A10430860704700000CED00E017
:100F20000000FA052DE9F8431748016841F08051A7
:100F300001600068154F00F08050012600903E646B
:100F4000FFF750FF05464FF47A78114C05E000BFDB
:100F5000FFF748FF401B40450DD86068C003F7D538
:100F60007E64FFF73FFF0546464607E0FFF73AFF7E
:100F7000401BB04202D90320BDE8F88360688003BB
:100F8000F4D50020F8E700004038024000000E428F
:100F9000007000402DE9F0470E46050065D0DFF8EF
:100FA0001481D8F80000F7B200F00F00B04207D269
:100FB00088F80070D8F8000000F00F00B04254D15B
:100FC00028683D4C810712D5400703D5206840F4BE
:100FD000E05020602878000703D5206840F4604086
:100FE00020602068A96820F0F0000843206028787D
:100FF000C0072DD0304968680839012812D002286E
:1010000013D0032811D00968890700292DDA216837
:1010100021F0030101432160FFF7E4FE814641F224
:10102000883A0EE009688903EFE709688901ECE76F
:10103000FFF7D8FEA0EB0901514502D90320BDE816
:10104000F0872068696800F00C00B0EB810FEFD1E9
:10105000D8F80010404601F00F01B14207D90770DF
:10106000006800F00F00B04201D00120E7E72878C7
:10107000400705D52068E96820F4E0500843206067
:101080002878000706D52068296920F4604040EAE6
:10109000C100206000F038F82168084AC1F303114C
:1010A000515CC8400649086006480068FFF7C2FE68
:1010B0000020C4E7003C024008380240E81E000857
:1010C0000C0000200400002004480549006809685D
:1010D000044AC1F38221515CC84070470C000020D3
:1010E00008380240F81E00080448054900680968ED
:1010F000044AC1F34231515CC84070470C000020E3
:1011000008380240F81E0008154810B5006810F0B5
:101110000C02144813D01449042A0FD0082A0ED107
:101120000F4C241F2268236802F03F025B0207D5A0
:101130002068C0F38810A0FB010106E0084610BD3E
:101140002168C1F38811A1FB00010023FFF74CF8CF
:101150002168C1F30141491C4900B0FBF1F010BD09
:10116000083802400024F400001BB7002DE9F84FB6
:1011700004006ED02078DFF84C93C007A9F1040575
:101180004AD009F104000168C1F38101012908D0A6
:101190000068C0F3810002280AD1D9F8000040029B
:1011A00006D52868800337D560680028E1D033E091
:1011B0006068B0F5803F10D0B0F5A02F286810D03F
:1011C00020F480302860286820F48020286060683F
:1011D000A8B1FFF707FE06460DE0286840F480300E
:1011E000F4E740F480202860F7E700BFFFF7FAFD3E
:1011F000801B642873D828688003F7D50CE0FFF7BC
:10120000F1FD064605E000BFFFF7ECFD801B6428FA
:10121000F0D828688003F7D42078DFF8AC82800704
:101220004FF0000A3ED5A748001D016811F00C0FD1
:1012300008D00068C0F3810002280BD1D9F8000063
:10124000400207D42868800716D5E068012800D13D
:1012500012E033E1E068B8B10120C8F80000FFF700
:10126000C1FD064605E000BFFFF7BCFD801B02285C
:10127000C0D828688007F7D52868216920F0F800D1
:1012800040EAC10028600DE0C8F800A0FFF7AAFD01
:10129000064604E0FFF7A6FD801B02281FD8286839
:1012A0008007F7D42078000722D5864F87486169E8
:1012B000703771B101210160FFF794FD064604E02B
:1012C000FFF790FD801B022809D838688007F7D502
:1012D0000EE0C0F800A0FFF785FD064605E082E0BD
:1012E000FFF780FD801B02287DD838688007F7D47F
:1012F0002078400768D5DFF8CCB100270BF13C0B14
:10130000DBF80000C0000BD4DBF8001041F0805186
:10131000CBF80010DBF80000012700F080500090AF
:101320006B4E3068C00510D4306840F48070306077
:10133000FFF758FD009005E0FFF754FD0099401AB3
:10134000022850D83068C005F6D55E4EA0686C36CD
:1013500001280FD00528306810D020F0010030603F
:10136000306820F004003060A068B8B1FFF73AFDA3
:1013700000900FE0306840F00100F4E740F0040016
:101380003060F7E7FFF72EFD0099411A41F28830EF
:10139000814266D830688007F4D50EE0FFF722FD61
:1013A000009007E0FFF71EFD0099411A41F28830D6
:1013B000814256D830688007F4D42FB1DBF8001092
:1013C00021F08051CBF80010A069C8B33D49091D38
:1013D0000968C1F3810102294AD00228504607D08A
:1013E000C8F8600000E03CE0FFF7FCFC04463BE08E
:1013F0004746C8F86000FFF7F5FC064605E000BF69
:10140000FFF7F0FC801B02282BD828688001F7D456
:10141000D4E907010843A16A2E4A490802EB0141B9
:10142000626A41EA8211084394F82C1040EA016193
:10143000C9F8001001203866FFF7D4FC044606E026
:101440003EE000BFFFF7CEFC001B022809D8286849
:101450008001F7D534E000BFFFF7C4FC001B022871
:1014600002D90320BDE8F88F28688001F4D427E072
:101470000128F7D0D9F80000E26900F48001914218
:101480001CD1226A00F03F01914217D147F6C0718A
:10149000626A0140B1EB821F10D1A26A4FF0FF33A4
:1014A00000F4403103EB5202B1EB024F06D194F845
:1014B0002C1000F07060B0EB016F01D00120D1E77B
:1014C0000020CFE70438024000004742800E474228
:1014D000007000400000FFFF10B5401EB0F1807F9B
:1014E00001D3012010BD4FF0E02460610F2160178F
:1014F00000F0B5FC0020A06107202061002010BD95
:1015000070477047F8B5016804460868CA684B69B7
:1015100010F00F0F4FF0000559D003F0010602F450
:101520009077374365D0C10705D0D10503D5616CED
:1015300041F001016164410705D5D90703D0616C11
:1015400041F002016164810705D5D90703D0616CC0
:1015500041F004016164010707D502F02001314325
:1015600003D0616C41F008016164616C00293AD0DC
:10157000800604D5900602D5204600F082FB206844
:101580004069616CC0F38010090700D460B3204645
:1015900000F050FB20684069400621D520681430D7
:1015A00050E8001F21F0400140E80012002AF5D168
:1015B000E06BA8B16E490165E06BFFF78CF900287C
:1015C00011D0E06B016D01B0BDE8F0400847830623
:1015D0000FD593060DD52046BDE8F84000F051BB6D
:1015E0002046FFF78EFFF8BD2046FFF78AFF6564AF
:1015F000F8BD266B2023012E7DD1C6067BD5D606ED
:1016000079D508684868009048694FF0020640069E
:1016100041D5E16B086840680004000CE8D0A28D59
:101620008242E5D9E085C869B0F5807F2DD0206879
:101630000C3050E8001F21F4807140E80012002AAD
:10164000F5D12068143050E8001F21F0010140E876
:101650000012002AF5D12068143050E8001F21F054
:10166000400140E80012002AF5D184F84230256399
:1016700020680C3050E8001F21F0100140E80012F3
:10168000002AF5D1E06BFFF7DDF86663A08DE18DF0
:10169000401A81B22AE0A08DE18D401A81B2E08D1E
:1016A0000028A5D00029A3D022680C3252E8000FF0
:1016B00020F4907042E80007002FF5D12068143024
:1016C00050E8002F22F0010240E80027002FF5D15A
:1016D00084F84230256320680C3050E8002F22F057
:1016E000100240E80023002BF5D166632046FFF787
:1016F00007FFF8BDFFE705062BD5150629D594F899
:1017000041002128F5D1A068B0F5805F01D12069A2
:10171000B0B1206A411C2162216800784860E08CE9
:10172000401E0004000CE084E3D12068C16821F071
:101730008001C1602068C16841F04001C160D8E704
:10174000206A0088C0F308004860206A801C20627C
:10175000E5E74006CDD55006CBD5CA68204622F035
:101760004002CA6084F8413000F0B5F8C1E70000DB
:10177000251C000870B5040004D094F84100002531
:1017800010B106E0012070BD84F84050204600F002
:1017900023F8242084F841002068C16821F4005116
:1017A000C160204600F0CEFA2068016921F4904122
:1017B00001612068416921F02A0141612068C16806
:1017C00041F40051C1606564202084F8410084F830
:1017D00042006563002070BDF0B587B00646142155
:1017E0006846FEF739FD344F306800253349022240
:1017F00003230724B8423ED130481430076847F02D
:1018000010070760006800F010000590086840F0BD
:10181000020008600868694600F002000590C020D8
:101820008DE82500CDE903342548FFF7B3F9264CB0
:10183000244820604FF00060C4E901054014C4E969
:10184000035080106561C4E906504FF44030C4E98C
:1018500008052046FFF722F908B1FEF714FEF463ED
:10186000002211462520A663FFF72AFB2520FFF75B
:1018700019FB07B0F0BD154EB042FAD10F48103039
:10188000066846F480260660006800F48020059013
:10189000086840F0080008600868694600F0080021
:1018A00005904FF440708DE82500CDE903340848D9
:1018B000FFF770F9DDE7000000100140303802400A
:1018C00000040240406402405801002000480040EB
:1018D000000C024070477047FEE700007FB500240F
:1018E00015480094019402941249039401604FF446
:1018F0008031C0E901140461047680F820400F496A
:10190000C0E90A140125C561C46080F83040456112
:10191000FEF76EFE08B1FEF7B6FD1120CDE9000519
:10192000694602940448FEF7B1FD002801D0FEF795
:10193000AAFD7FBD00200140100000200100000F23
:101940007FB5002415480094019402941249039431
:1019500001604FF48031C0E901140461047680F81D
:1019600020400F49C0E90A140125C561C46080F810
:1019700030404561FEF73CFE08B1FEF784FD0E20C5
:10198000CDE90005694602940448FEF77FFD002872
:1019900001D0FEF778FD7FBD0022014058000020F5
:1019A0000100000F0F4810B50D490160032141608F
:1019B00000214FF410228160C0E903124FF440125D
:1019C0004261017641768176C17601774177FEF7F3
:1019D00077FE002803D0BDE81040FEF754BD10BDCF
:1019E00000640040A0000020094808B5016841F4E7
:1019F000800101600068002200F480000090114620
:101A00003A20FFF75DFABDE808403A20FFF74ABAEE
:101A1000303802402DE9F04186B014216846FEF7C7
:101A20001BFC2E480024016841F00101016001689F
:101A300001F001010591016841F0020101600168B6
:101A400001F002010591016841F00801016001689F
:101A500001F008010591016841F080010160016811
:101A600001F080010591016841F0200101600168E9
:101A700001F020010591016841F01001016000684A
:101A8000012200F01000164FD50205902946384675
:101A9000FFF7A2F90122DFF84C8096033146404659
:101AA000FFF79AF90420CDE9000469460E48029434
:101AB000FFF770F800950125CDE9015469463846D5
:101AC0000394FFF767F80096CDE901546946404654
:101AD0000394FFF75FF806B0BDE8F08130380240AC
:101AE0000010024000140240000402400E4810B5ED
:101AF0000C4901600D4941604FF480518160002123
:101B00004FF48062C0E903120C22C0E90521C161D3
:101B1000FFF730FE002803D0BDE81040FEF7B3BC4D
:101B200010BD000000100140C8000020A086010088
:101B30000C4810B50A4901604FF4E13141600021C1
:101B400081600C22C160C0E904128161C161FFF7AC
:101B500011FE002803D0BDE81040FEF794BC10BD74
:101B60000048004010010020FEE7FEE77047704784
:101B7000FFF73EB930B593B030216846FEF76CFBF5
:101B800014210CA8FEF768FB20480025016841F0ED
:101B900080510160006800F0805011901C4801687D
:101BA00041F4404101600068022400F4404011907B
:101BB00001200090000401908001CDE9064006203C
:101BC0000890B420CDE9090404200B906846FFF783
:101BD000CDFA08B172B6FEE7FFF7A4F908B172B604
:101BE000FEE70CA90F2081E831004FF4A0500F90C0
:101BF0004FF48050109005210CA8FFF7CBF9002876
:101C000001D072B6FEE713B030BD0000403802408C
:101C1000007000400248016841F4700101607047A3
:101C200088ED00E010B5806B0021C185C184FFF70D
:101C300068FC10BD01680C3151E8002F22F490724D
:101C400041E80023002BF5D10168143151E8002F41
:101C500022F0010241E80023002BF5D1016B01299C
:101C600009D101680C3151E8002F22F0100241E83F
:101C70000023002BF5D1202180F8421000210163C0
:101C8000704708B590F84210222901D0022008BD03
:101C900082684FF480539A4201D1016921B1816A6F
:101CA0009A421BD04AB10AE00268816A5268C2F3C4
:101CB00008020A80816A891C08E0026972B1026820
:101CC000526802F07F020A70816A491C8162C18DEC
:101CD000491E0904090CC18503D01BE00268526843
:101CE000F1E70168CA6822F02002CA600168CA6888
:101CF00022F48072CA6001684A6922F001024A61D6
:101D0000202180F8421000214163026B012A03D098
:101D1000FFF7E0FD002008BD016301680C3151E8C8
:101D2000002F22F0100241E80023002BF5D10168BA
:101D30000A68D20602D50A6849680091818DFFF7CA
:101D4000DFFBE7E770B5044600680169E26821F44B
:101D50004051114301612169A068E269084361694A
:101D6000114308432168CA6849F20C639A4302434D
:101D7000CA6020684169A26921F440711143416140
:101D800031492068884202D03049884202D1FFF7A9
:101D9000ABF901E0FFF798F9E26900231921642506
:101DA0003226B2F5004F626828D0A0FB0101930FE4
:101DB0009200FEF719FA0146B0FBF5F06FF0180239
:101DC000504301EB800006EB0010B0FBF5F000F093
:101DD000F002B1FBF5F002EB0012B1FBF5F06FF091
:101DE0001803584301EB800006EB0010B0FBF5F040
:101DF00000F00F0021681044886070BDA0FB010155
:101E000092185B41FEF7F0F90146B0FBF5F00201D4
:101E1000B1FBF5F06FF01803584301EB800006EBBF
:101E2000C000B0FBF5F000F0F80002EB4002B1FB9F
:101E3000F5F0584301EB800006EBC000B0FBF5F075
:101E400000F00700D6E70000001001400014014038
:101E50000148FFF757BB0000C8000020FEE7090754
:101E6000090E002804DB00F1E02080F80014704720
:101E700000F00F0000F1E02080F8141D704702E030
:101E800008C8121F08C1002AFAD170477047002005
:101E900001E001C1121F002AFBD17047FEF7B0FF1D
:101EA000FFF768FEFFF7B6FDFFF79EFDFFF716FD93
:101EB000FFF746FDFFF71AFEFFF73AFEFFF772FD48
:101EC000064D4FF400644FF47A7621462846FEF71B
:101ED0007BFF3046FEF74CFEF7E7000000100240A3
:101EE000000610160006101600000000000000009A
:101EF00001020304060708090000000001020304B0
:101F0000201F000800000020100000007E1E0008B6
:101F1000301F000810000020A80500008E1E0008D9
:101F20000100000010000000000000000024F40088
:04000005080001AD41
:00000001FF
