:020000040800F2
:10000000C8090020A1010008633000080F2900087A
:1000100061300008D50300088D3900080000000099
:10002000000000000000000000000000B1310008E6
:10003000DD0400080000000065300008B33100084E
:10004000BB010008BB010008BB010008BB010008A0
:10005000BB010008BB010008DF040008BB01000869
:10006000BB010008E5040008BB010008BB01000853
:1000700015040008BB010008BB010008BB01000813
:10008000BB010008BB010008BB010008BB01000860
:10009000D9030008BB010008BB010008BB01000830
:1000A000BB010008BB010008BB010008BB01000840
:1000B000BB010008BB010008BB010008BB01000830
:1000C000BB010008BB010008BB010008BB01000820
:1000D000BB01000869390008BB0100087539000838
:1000E000BB010008BB010008BB010008BB01000800
:1000F000BB010008BB010008BB010008BB010008F0
:10010000BB010008BB010008BB010008BB010008DF
:10011000BB010008BB0100085D320008BB010008FC
:10012000BB010008BB010008210400082D040008E1
:10013000BB010008BB010008BB010008BB010008AF
:10014000BB010008BB010008BB010008BB0100089F
:10015000BB010008BB010008BB010008BB0100088F
:10016000BB010008BB010008BB010008BB0100087F
:10017000BB010008BB010008BB0100080000000033
:10018000BB010008BB010008DFF810D000F07CF8CC
:1001900000480047C93C0008AFF30080C8090020B0
:1001A0000648804706480047FEE7FEE7FEE7FEE711
:1001B000FEE7FEE7FEE7FEE7FEE7FEE74D3200085A
:1001C000890100082DE9F05F0546002092469B4614
:1001D00088460646814640241BE02846414647465D
:1001E000224600F041F853465A46C01A914110D3B6
:1001F00011461846224600F028F82D1A67EB010830
:100200004F4622460120002100F01FF817EB00099D
:100210004E41201EA4F10104DFDC484631462A4647
:100220004346BDE8F09FD2B201E000F8012B491E21
:10023000FBD270470022F6E710B513460A46044683
:100240001946FFF7F0FF204610BD202A04DB203AB4
:1002500000FA02F1002070479140C2F1200320FA19
:1002600003F3194390407047202A04DB203A21FA17
:1002700002F00021704721FA02F3D040C2F12002BF
:100280009140084319467047064C074D06E0E06868
:1002900040F0010394E8070098471034AC42F6D3CD
:1002A000FFF776FF603D0008803D0008464910B525
:1002B0004A6822F440324A604A6843681A434A60F6
:1002C00001684A6822F480724A6001684A680369DA
:1002D00042EA03224A6001684A6822F040724A609A
:1002E00001684A6883681A434A6001688A6822F490
:1002F00000628A6001688A68C3681A438A60816AFA
:100300006FF07062D14201688A6822F070628A6080
:1003100001688A680CD0836A1A438A6001688A6817
:1003200022F040528A6001688A68C36A1A4301E079
:1003300022F040528A6001688A6822F002028A60D4
:1003400001688A68037E42EA43028A6090F82010BE
:10035000002901684A680FD042F400624A600168CF
:100360004A6822F460424A6001684A68174C436A4E
:1003700004EB43331A4301E022F400624A6001684F
:10038000CA6A22F47002CA620168CA6A838B104C7E
:1003900004EB03531A43CA6201688A6822F40072AC
:1003A0008A6001688A6890F8303042EA43228A60A5
:1003B00001688A6822F480628A6001688A684069FC
:1003C00042EA8020886010BD0023014000E0FFFF6A
:1003D0000000F0FFFEE70000014800F01EBA000038
:1003E000AC00002000B58BB000200090019002907E
:1003F00003900490059006900120079008906946AC
:10040000034800F083F9024800F010FC0BB000BD77
:10041000AC000020014800F097BC0000FC04002064
:10042000014800F091BC0000FC010020014800F0F0
:100430008BBC00005C02002001681823CAB2103A8D
:10044000B2FBF3F2054B6FF30901032A9B5CC36512
:1004500000D9091D8165084670470000403D00082D
:1004600010B5014600208B698A6A4FF0C07453B101
:10047000B3F5005F15D072B1012A0CD0022A0AD060
:10048000032A09D104E01AB1012A06D0022A03D1B5
:10049000C96AC90100D5012010BDC96AA142FAD0BC
:1004A00010BD002AF7D0012AF2D0022AF3D0032A85
:1004B000F3D010BD30B50468256825F4802525608B
:1004C000046863608368402B036803D09960006808
:1004D000C26030BD9A600068C16030BD70470120C5
:1004E00000F0B8BD082000F0B5BD72B6FEE7000010
:1004F00078B50024009490F83C20012A19D00122FC
:1005000080F83C200A6807230568092A13D9EE6899
:100510000A3A02EB420293409E43EE600B788A68EF
:100520000A3B03EB43039A400368DD682A43DA6021
:1005300010E0022078BD2E6902EB420293409E43F8
:100540002E610B788A6803EB43039A4003681D69A8
:100550002A431A614A681F23072A13D205686E6B63
:10056000521E02EB820293409E436E630B790A880F
:100570005B1E92B203EB83039A4003685D6B2A43D0
:100580005A6327E005680D2A12D22E6BD21F02EBA8
:10059000820293409E432E630B790A88DB1F92B23E
:1005A00003EB83039A4003681D6B2A431A6311E02F
:1005B000EE6A0D3A02EB820293409E43EE620B79A3
:1005C0000A880D3B92B203EB83039A400368DD6A0D
:1005D0002A43DA62164B0568144A9D4206D10D681B
:1005E000122D03D1556845F48005556005689D427C
:1005F00018D10B68102B01D0112B13D1536843F481
:1006000000035360096810290CD10A490A4A096895
:10061000B1FBF2F101EB8101490000E0491E0091BC
:100620000029FBD180F83C40002078BD0023014028
:10063000002001401400002040420F0070B504006B
:100640004FF0000503D0206C002610B107E0012018
:1006500070BD204600F01CF8666484F83C60206C95
:10066000C00610D4206C20F4885040F002002064B2
:100670002046FFF71BFE6664206C20F0020040F06D
:100680000100206400E0012584F83C60284670BD2C
:1006900010B586B0044614216846FFF7CBFD174B12
:1006A0002268002116489A4209D1016841F48071FC
:1006B0000160006800F48070059006B010BD114B19
:1006C0009A42FAD1026842F480620260006800F443
:1006D000806005900A481438026842F020020260E7
:1006E000006800F020000590181500900320CDE967
:1006F00001016946044800F0B9FCDEE70020014032
:1007000044380240002201400014024010B590F825
:100710002020012A07D0022A05D0416A41F4802115
:100720004162012010BD3B48D0F8002242F0010296
:10073000C0F80022D0F8002222F47C52C0F8002237
:10074000D0F800224B6A42EA0322C0F800220A7D58
:1007500002F01F0301229A40D0F81C329343C0F8E4
:100760001C32CB69B3B9D0F80C329343C0F80C32C9
:100770008C894B6864F31F434C6900EBC404C4F8D4
:1007800040320C890B6864F31F434C6900EBC404CE
:10079000C4F84432CB69012B16D1D0F80C32134384
:1007A000C0F80C320C884B6864F31F434C6900EBB3
:1007B000C404C4F840320C89CB6864F31F434C690D
:1007C00000EBC404C4F844328B69002BD0F8043227
:1007D0000ED01343C0F804320B69002BD0F814324A
:1007E00008D01343C0F81432096A012904D008E084
:1007F0009343EFE79343F5E7D0F81C121143C0F899
:100800001C12D0F8001221F00101C0F800120020E3
:1008100010BD00000064004070472DE9F05F054600
:10082000006800244669D0F804908768D0F80CB0BE
:10083000D0F810A0D0F81880F10748D0F90714D0EC
:1008400001218160B80703D5284600F01CFA0CE0AE
:10085000780702D54FF4006407E0380702D54FF45B
:10086000805402E0284600F00DFAF80516D52968F4
:100870004FF480708860B80503D5284600F005FA6B
:100880000CE0780502D544F4005407E0380502D5A1
:1008900044F4804402E0284600F0F6F9F80316D547
:1008A00029684FF480308860B80303D5284600F0EB
:1008B000EEF90CE0780302D544F4004407E0380375
:1008C00002D544F4803402E0284600F0DFF9300716
:1008D00007D55FEACB6004D52968102044F4007482
:1008E000C86070074FF0080707D55FEA0B7004D5A2
:1008F0002868C760284600F093F9B00706D5286835
:10090000C068800702D0284600F08BF9700607D532
:100910005FEACA6004D52968102044F48064086145
:10092000B00607D55FEA0A7004D528680761284633
:1009300000F078F9F00606D528680069800702D033
:10094000284600F070F9B00308D55FEAC96005D504
:10095000296810204860284600F066F9F00307D5A2
:100960005FEA097004D528684760284600F090F9CE
:10097000300446D55FEA497040D5F00504D55FEAFA
:10098000C87001D044F00104B00504D55FEA887056
:1009900001D544F00204700504D55FEA487001D522
:1009A00044F00404300529D518F0700F26D008F063
:1009B0007000402815D006DC102809D020280AD065
:1009C000302816D10AE050280ED0602811D10EE050
:1009D00044F008040DE044F010040AE044F0200460
:1009E00007E044F0400404E044F0800401E044F4F3
:1009F00080742868816921F0700181612968042070
:100A00004860002C05D0686A204368622846FFF7DA
:100A100003FFBDE8F09F70B5040003D094F82000F8
:100A200010B104E0012070BD204600F081F820687C
:100A3000016841F00101016000F01EFC0546052639
:100A400004E000F019FC401B0A2811D82068406817
:100A5000C007F6D02068016821F00201016000F0B3
:100A60000BFC05460BE000F007FC401B0A2806D9EA
:100A7000606A40F40030606284F82060D2E7206849
:100A800040688007EFD4207E0128206801683DD0AF
:100A900021F080010160607E01282068016838D063
:100AA00021F040010160A07E01282068016833D058
:100AB00021F020010160E07E0128206801682ED02D
:100AC00041F010010160207F01282068016829D0D1
:100AD00021F008010160607F01282068016824D0AE
:100AE00021F004010160D4E902010843D4E90412B1
:100AF000114308436168491E08432168C86100200A
:100B00006062012084F82000002070BD41F0800167
:100B1000C0E741F04001C5E741F02001CAE721F0FC
:100B20001001CFE741F00801D4E741F00401D9E713
:100B3000F0B587B0044614216846FFF77BFB334BC2
:100B40003348DFF8C4E01968D4F800C0304A032500
:100B50000226092710300024491CF44525D11960CC
:100B6000012907D1016841F000710160006800F0BF
:100B700000700590106840F0080010601068CDE922
:100B8000005600F00800CDE9047069462148CDE91F
:100B9000024500F06BFA00221146142000F012FD0D
:100BA000142000F001FD07B0F0BDDFF86CE0F44563
:100BB000F9D1D0F800C04CF0806CC0F800C0D0F87B
:100BC00000C001290CF0806CCDF814C0196007D169
:100BD000016841F000710160006800F0007005904C
:100BE000106840F002001060106802AB00F00200D4
:100BF00005906020CDE9000683E8B000694607480B
:100C000000F034FACFE7000000640040000000204C
:100C100030380240000C02400068004000040240EE
:100C200070477047704770477047000070B50446C2
:100C300090F82000012804D0606A40F4002060622F
:100C400018E0022084F820002068016821F00101EA
:100C5000016000F011FB05460EE000BF00F00CFB48
:100C6000401B0A2808D9606A40F400306062052001
:100C700084F82000012070BD20684068C007EDD1D5
:100C8000606270BD7047704770477047704770472B
:100C900070472DE9F0410446876D00F0EDFA0646F5
:100CA00094F835000025022806D08020606584F87D
:100CB00034500120BDE8F0812068016821F0160160
:100CC00001602068416921F080014161206C08B910
:100CD000A06C20B12068016821F008010160206843
:100CE000016821F0010101600CE000F0C5FA801BF1
:100CF000052807D920206065032084F8350084F892
:100D00003450D7E720680068C007EED194F85C1033
:100D10003F208840B860012084F8350084F83450C2
:100D20000020C7E790F83510022903D080214165E3
:100D300001207047052180F835100068016821F016
:100D400001010160002070472DE9F84304464FF08F
:100D50000009CDF8009063484FF41651A56D006866
:100D6000B0FBF1F72E6894F85C10082000FA01F14E
:100D700031420FD021680A6852070BD50A6822F069
:100D800004020A6094F85C108840A860606D40F02E
:100D90000100606594F85C104FF0010808FA01F05A
:100DA000304208D021684969090604D5A860606D01
:100DB00040F00200606594F85C10042088403042E6
:100DC00008D021680968890704D5A860606D40F0E3
:100DD0000400606594F85C1010208840304218D000
:100DE00021680968090714D5A860206801684903CB
:100DF00004D50068000308D5A16C07E00168C905A7
:100E000003D4016821F008010160216C09B120467A
:100E1000884794F85C1020208840304231D0216807
:100E20000968C9062DD5A86094F835000528206802
:100E3000016806D0490347D5006800031DD4616CE2
:100E40001CE021F0160101602068416921F0800159
:100E50004161206C08B9A06C20B12068016821F0C4
:100E60000801016094F85C103F208840A86084F875
:100E7000358084F83490216D1FE0E16B09B1204684
:100E80008847606D00282BD0606DC00714D0052006
:100E900084F835002068016821F0010101600098A4
:100EA000401C0090B84203D820680068C007F6D103
:100EB00084F8358084F83490E16C002910D001B0BA
:100EC0002046BDE8F04308470168C905D5D401684C
:100ED00021F01001016084F8358084F83490CCE76B
:100EE000BDE8F883140000202DE9F041044600F02D
:100EF000C3F906465CB1022084F83500002584F869
:100F000034502068016821F0010101600DE00120EA
:100F1000BDE8F08100F0B0F9801B052805D920203C
:100F20006065032084F83500F2E720680068C00798
:100F3000F0D12268116820480140D4E90103184328
:100F4000D4E903363343184363691843A36918434C
:100F5000E3691843236A18430843616A042903D1EB
:100F6000D4E90B1319430843106020684069666A8E
:100F700020F0070130460E43012704280CD1A06A57
:100F80000643E06A40B12046FFF76AFA20B14020EC
:100F9000606584F83570BAE7206846612046FFF73F
:100FA0004BFA94F85C203F2191408160656584F89C
:100FB00035700020ACE700003F8010F02DE9F041D3
:100FC0000446866D90F83400002501280DD00120DC
:100FD00084F8340094F835700020012F07D084F88D
:100FE000340002252846BDE8F0810220FBE70227F5
:100FF00084F8357060652046FFF75CFA94F85C1061
:101000003F208840B0602068016841F0160101600F
:10101000206C20B12068016841F00801016020685F
:10102000016841F001010160DCE7000070B5044691
:1010300000F022F90546601C02D004480078044400
:1010400000F01AF9401BA042FAD370BD080000203E
:1010500070470000044910B50A68024202D00860D7
:10106000FFF7F6FF10BD0000143C01402DE9F84FDA
:10107000DFF8BCA10022012503264FF00F090AF179
:10108000040BAAF1040E00BF0B6805FA02F423401A
:10109000A34270D10F7907F00307012F01D0022F6F
:1010A00016D187684FEA420806FA08FC27EA0C07BF
:1010B000D1F80CC00CFA08FC4CEA070CC0F808C0C8
:1010C0004768A7430C79C4F3001494403C43446040
:1010D0000C79E443A4070AD0C4684FEA420C06FA2C
:1010E0000CF7BC438F6807FA0CF72743C7600C79ED
:1010F00004F00304022C12D1D40800EB840CDCF8B9
:1011000020405707FF0E09FA07F824EA0804D1F82F
:10111000108008FA07F848EA0408CCF82080046830
:101120004FEA420C06FA0CF7BC430F7907F00307AD
:1011300007FA0CF7274307604C6814F4403F70D05F
:101140003C4C276847F480472760246822F0030757
:1011500004F480440094384C07EB040CDCF8084895
:1011600097074FEA177809FA08F7BC43334FB8429C
:1011700002D1002724E054E0314FB84201D10127C9
:101180001EE0304FB84201D1022719E02E4FB8427D
:1011900001D1032714E02D4FB84201D104270FE0FD
:1011A0002B4FB84201D105270AE02A4FB84201D19E
:1011B000062705E0284FB84201D1072700E008279D
:1011C00007FA08F72743CCF80878DAF800405746C2
:1011D000D1F804C09C435FEACC2C00D51C433C6092
:1011E000DBF800405F46D1F804C09C435FEA8C2CDA
:1011F00000D51C433C60DEF800407746D1F804C0BF
:101200009C435FEA8C3C00D51C433C60084F083F80
:101210003C68D1F804C09C435FEACC3C00D51C4339
:101220003C60521C102AFFF42FAFBDE8F88F00007D
:10123000083C0140443802400030014000000240B8
:101240000004024000080240000C0240001002406E
:101250000014024000180240001C0240426921EACA
:1012600002030A4043EA0241816170470AB1816189
:1012700070470904FBE700000148806870470000E0
:101280000800002070B5040025D094F83D0000252A
:1012900020B984F83C50204600F0B8F8242084F8A7
:1012A0003D002068016821F00101016020680168AB
:1012B00041F4004101602068016821F400410160AF
:1012C00000F04CFA4D4A6168914201D84C4900E067
:1012D0004C49884201D2012070BD4B492368B0FBC4
:1012E000F1F15E6826F03F060E435E60636893424C
:1012F00006D94FF4967359434FF47A73B1FBF3F167
:101300002368491C1E6A26F03F0631431962616852
:10131000914210D84900401EB0FBF1F2521CC2F3BA
:101320000B02042A01D2042022E0B0FBF1F0401CA1
:10133000C0F30B001CE0A268F2B301EBC10303EBA6
:101340000116431EB3FBF6F35B1C43F480431B05FD
:1013500049D092B301EBC10202EB0111401EB0FB78
:10136000F1F0401CC0F30B0040F4804040F400401A
:101370002168CA694CF6FF739A431043C861D4E9E7
:10138000071001432068026822F0C0021143016087
:10139000D4E9030101432068826848F2FF339A438D
:1013A00011438160D4E9050108432168CA6822F02D
:1013B000FF021043C86001E00EE016E020680168FB
:1013C00041F0010101602564202084F83D0025637F
:1013D00084F83E50002070BD01EB4106431EB3FB74
:1013E000F6F35B1CB3E70120C2E701EB4101401EAD
:1013F000B0FBF1F0401CC0F30B00B7E7A086010082
:1014000080841E0000093D0040420F002DE9F0419C
:1014100086B0044614216846FEF70CFF2F4A216867
:10142000DFF8BC8000252E4803241226042708F18B
:10143000100891421BD1016841F020010160006851
:10144000CDE9004600F02000CDE90470CDE902545A
:1014500069462448FFF70AFED8F8001041F48001DD
:10146000C8F80010D8F8000000F4800031E01E4AEF
:1014700091422FD1016841F004010160016801F03F
:1014800004010591016841F0010101600068CDE9A6
:10149000025400F0010005905015CDE900066946A0
:1014A00004971248FFF7E2FD4FF48070CDE9000683
:1014B000CDE90254694604970D48FFF7D7FDD8F8E7
:1014C000001041F40001C8F80010D8F8000000F442
:1014D0000000059006B0BDE8F08100000058004013
:1014E0003038024000140240005C00400008024016
:1014F0000000024002488168027811448160704710
:10150000080000200B4810B5016841F4007101602B
:10151000016841F480610160016841F480710160FB
:10152000032000F06FF80F2000F006F800F024F818
:10153000002010BD003C024070B50D4D04464FF434
:101540007A712878B1FBF0F00A490968B1FBF0F034
:1015500000F0EAFB48B9102C07D200222146501EA9
:1015600000F030F800206C6070BD012070BD0000FC
:1015700008000020140000200A4808B5016841F462
:1015800080410160006800F4804000900548001F21
:10159000016841F080510160006800F080500090C7
:1015A00008BD000044380240002809DB00F01F029B
:1015B000012191404009800000F1E020C0F80011B5
:1015C00070470000F0B40E4B1B680C46C3F30223B7
:1015D000C3F10705042D00D90425191D072901D2DF
:1015E000002300E0DB1E012606FA05F1491E21401A
:1015F00099409E40761E16403143F0BC02F0D8B9A7
:101600000CED00E0064900F0070208684FF6FF0302
:10161000184040EA0220034A104308607047000067
:101620000CED00E00000FA052DE9F0470E4605003C
:1016300065D0DFF81481D8F80000F7B200F0070099
:10164000B04207D288F80070D8F8000000F0070018
:10165000B04254D128683D4C810712D5400703D5CC
:10166000206840F4E05020602878000703D5206807
:1016700040F4604020602068A96820F0F000084332
:1016800020602878C0072DD03049686808390128C3
:1016900012D0022813D0032811D009688907002925
:1016A0002DDA216821F0030101432160FFF7E4FDF9
:1016B000814641F2883A0EE009688903EFE709683C
:1016C0008901ECE7FFF7D8FDA0EB0901514502D9EC
:1016D0000320BDE8F0872068696800F00C00B0EBDB
:1016E000810FEFD1D8F80010404601F00701B14258
:1016F00007D90770006800F00700B04201D0012050
:10170000E7E72878400705D52068E96820F4E0502D
:10171000084320602878000706D52068296920F44E
:10172000604040EAC100206000F038F82168084AB3
:10173000C1F30311515CC8400649086006480068BF
:10174000FFF7FAFE0020C4E7003C024008380240E0
:10175000483D0008140000200C0000200448054902
:1017600000680968044AC1F38221515CC84070478F
:101770001400002008380240583D0008044805497C
:1017800000680968044AC1F34231515CC84070479F
:101790001400002008380240583D0008154810B5D4
:1017A000006810F00C02144813D01449042A0FD01A
:1017B000082A0ED10F4C241F2268236802F03F0232
:1017C0005B0207D52068C0F38810A0FB010106E08A
:1017D000084610BD2168C1F38811A1FB0001002358
:1017E000FEF7F0FC2168C1F30141491C4900B0FB40
:1017F000F1F010BD083802400024F400001BB700CF
:101800002DE9F84F04006ED02078DFF84C93C00724
:10181000A9F104054AD009F104000168C1F381016E
:10182000012908D00068C0F3810002280AD1D9F844
:101830000000400206D52868800337D5606800287C
:10184000E1D033E06068B0F5803F10D0B0F5A02F54
:10185000286810D020F480302860286820F4802088
:1018600028606068A8B1FFF707FD06460DE028680C
:1018700040F48030F4E740F480202860F7E700BFB0
:10188000FFF7FAFC801B642873D828688003F7D51B
:101890000CE0FFF7F1FC064605E000BFFFF7ECFCAB
:1018A000801B6428F0D828688003F7D42078DFF8FC
:1018B000AC8280074FF0000A3ED5A748001D0168A2
:1018C00011F00C0F08D00068C0F3810002280BD182
:1018D000D9F80000400207D42868800716D5E068D0
:1018E000012800D112E033E1E068B8B10120C8F866
:1018F0000000FFF7C1FC064605E000BFFFF7BCFC97
:10190000801B0228C0D828688007F7D5286821697D
:1019100020F0F80040EAC10028600DE0C8F800A0FF
:10192000FFF7AAFC064604E0FFF7A6FC801B02288E
:101930001FD828688007F7D42078000722D5864F63
:1019400087486169703771B101210160FFF794FC2C
:10195000064604E0FFF790FC801B022809D838688F
:101960008007F7D50EE0C0F800A0FFF785FC06461B
:1019700005E082E0FFF780FC801B02287DD83868F4
:101980008007F7D42078400768D5DFF8CCB100276E
:101990000BF13C0BDBF80000C0000BD4DBF80010AF
:1019A00041F08051CBF80010DBF80000012700F077
:1019B000805000906B4E3068C00510D4306840F401
:1019C00080703060FFF758FC009005E0FFF754FC92
:1019D0000099401A022850D83068C005F6D55E4EEE
:1019E000A0686C3601280FD00528306810D020F090
:1019F00001003060306820F004003060A068B8B1A9
:101A0000FFF73AFC00900FE0306840F00100F4E787
:101A100040F004003060F7E7FFF72EFC0099411A10
:101A200041F28830814266D830688007F4D50EE0F4
:101A3000FFF722FC009007E0FFF71EFC0099411A17
:101A400041F28830814256D830688007F4D42FB1F3
:101A5000DBF8001021F08051CBF80010A069C8B36A
:101A60003D49091D0968C1F3810102294AD00228B4
:101A7000504607D0C8F8600000E03CE0FFF7FCFBF0
:101A800004463BE04746C8F86000FFF7F5FB064612
:101A900005E000BFFFF7F0FB801B02282BD8286869
:101AA0008001F7D4D4E907010843A16A2E4A490806
:101AB00002EB0141626A41EA8211084394F82C105A
:101AC00040EA0161C9F8001001203866FFF7D4FB35
:101AD000044606E03EE000BFFFF7CEFB001B0228F5
:101AE00009D828688001F7D534E000BFFFF7C4FBB0
:101AF000001B022802D90320BDE8F88F2868800166
:101B0000F4D427E00128F7D0D9F80000E26900F406
:101B1000800191421CD1226A00F03F01914217D10D
:101B200047F6C071626A0140B1EB821F10D1A26A10
:101B30004FF0FF3300F4403103EB5202B1EB024FA0
:101B400006D194F82C1000F07060B0EB016F01D05A
:101B50000120D1E70020CFE70438024000004742CF
:101B6000800E4742007000400000FFFF70B5040087
:101B700009D0606A002540B125616561A56294F8CD
:101B8000510040B10CE0012070BD6068B0F5827F6B
:101B9000F4D0E561F2E784F85050204600F044F8B4
:101BA000022084F851002068016821F040010160A2
:101BB000A088218900F4827001F404410843A189BE
:101BC00001F400610843217C01F002010843217DFA
:101BD00001F001010843218B01F400710843217FCA
:101BE00001F03801084394F8201001F08001084307
:101BF000218D01F40051084321680860A069042187
:101C000001EA104094F8241001F010010843216803
:101C100048602068C16921F40061C16165650120E7
:101C200084F85100002070BD2DE9F04186B00646D1
:101C300014216846FEF7FEFA35493068884264D1BF
:101C400034480024016841F480510160006800F4C8
:101C5000805005902F481438016841F0020101605E
:101C6000016801F002010591016841F00101016084
:101C70000068022500F0010005901820CDE900055C
:101C800002AA03274FF0050882E89001694622481E
:101C9000FFF7ECF98020CDE9000502AA694682E849
:101CA00090011E48FFF7E2F91E4D1D487F0628608F
:101CB000C5E901744FF48068C5E903486C61781286
:101CC000AC61C5E9074028466C62FFF70DF908B121
:101CD000FEF70BFCF564AE63124D11486035183009
:101CE000E5E802074020A5E81101C00245F81449C3
:101CF000AC61C5E907400B486C626030FFF7F4F84F
:101D000008B1FEF7F2FBB564AE6306B0BDE8F08142
:101D1000003001404438024000040240000002400C
:101D200040640240FC01002010B5401EB0F1807FED
:101D300001D3012010BD4FF0E02460610F21601736
:101D400001F036FE0020A06107202061002010BDB8
:101D50007047704710B590F83C20012A22D001222C
:101D600080F83C20CA688C6822F4407222434C6898
:101D700022F4806222430C6822F4006222430C6940
:101D800022F4805222434C6922F400522243C96952
:101D9000002322F480420A4301684A6480F83C3000
:101DA000002010BD022010BD70B590F83C20012A23
:101DB00032D0012480F83C40022280F83D200368A4
:101DC0005A689D6822F070060A6832435A60134BC5
:101DD00002689A4214D0B2F1804F11D0104B9A424F
:101DE0000ED0104B9A420BD00F4B9A4208D00F4B9B
:101DF0009A4205D00E4B9A4202D00E4B9A4204D121
:101E0000496825F080031943916080F83D40002126
:101E100080F83C10084670BD022070BD00000140F3
:101E20000004004000080040000C00400004014095
:101E3000004001400018004010B5040003D094F8A1
:101E40003D0010B107E0012010BD002084F83C00E7
:101E5000204600F01FF8022084F83D00211D206874
:101E600001F002FA012084F8460084F83E0084F86C
:101E70003F0084F8400084F8410084F8420084F870
:101E8000430084F8440084F8450084F83D000020B5
:101E900010BD000008B52349026823488A4207D1D3
:101EA000016841F001010160006800F001000BE0F1
:101EB0001D491E4B091F9A4208D1086840F00400D2
:101EC0000860086800F00400009008BD184B9A42B2
:101ED00011D1086840F0100008600868002200F086
:101EE0001000009011463620FFF76CFBBDE808405B
:101EF0003620FFF759BB0F498A4207D1016841F0EC
:101F000002010160006800F00200DDE70A498A4230
:101F1000DBD1016841F400310160006800F4003059
:101F2000D2E70000000001404438024000080040B1
:101F300000100040000401400044014070B5044618
:101F400090F83C000025012817D0012684F83C6059
:101F5000022084F83D002068826822F0770222F493
:101F60007F4282600868502838D00DDC20284FD08E
:101F700005DC90B3102811D14AE0022070BD302852
:101F800046D040280AD13BE060282FD070280DD0E1
:101F9000B0F5805F03D0B0F5005F12D0012584F862
:101FA0003D60002084F83C00284670BDCB68D1E934
:101FB0000121206801F0C4F92068816841F07701AF
:101FC00009E0CB68D1E90121206801F0B9F9206866
:101FD000816841F480418160E1E719E0CA6849689D
:101FE000206801F081FA5021206806E0CA6849683B
:101FF000206801F08AFA6021206801F0ABF9CEE791
:10200000CA684968206801F06FFA40212068F4E747
:10201000226801461046F0E770472DE9F04104467A
:102020000068C66805694FF00007A90713D5B10716
:1020300011D5F91E01610120207720688069800791
:10204000204602D0FFF7E8FF04E000F0D9F8204670
:1020500000F06BF92777680716D5700714D521684B
:102060006FF004000861022020772068806910F476
:10207000407F204602D0FFF7CFFF04E000F0C0F819
:10208000204600F052F92777280715D5300713D5D9
:1020900021686FF008000861042020772068C0697B
:1020A0008007204602D0FFF7B7FF04E000F0A8F851
:1020B000204600F03AF92777E80616D5F00614D541
:1020C00021686FF010000861082020772068C0693F
:1020D00010F4407F204602D0FFF79EFF04E000F09E
:1020E0008FF8204600F021F92777E80708D0F0079D
:1020F00006D021686FF001000861204600F016F953
:10210000280608D5300606D521686FF080000861E2
:102110002046FFF71DFE680608D5700606D5216823
:102120006FF040000861204600F001F9A8060AD5CA
:10213000B00608D521686FF0200008612046BDE890
:10214000F041FFF706BEBDE8F081000030B587B072
:10215000044614216846FEF76DF82368214C0021DF
:1021600021480222A34210D1036843F00803036010
:10217000006800F00800059050030090CDE90121AF
:10218000CDE903126946194813E0194D0324AB4207
:1021900013D1036843F480730360006800F4807017
:1021A000059080200090CDE90121CDE90314694616
:1021B0001048FEF75BFF07B030BD0F498B42FAD1E4
:1021C000016841F020010160006802AB00F02000CE
:1021D00005904020CDE90002012083E81500694602
:1021E0000648E6E70008004030380240000C024094
:1021F000000401400020024000440140001402405D
:10220000704770B5044690F83C0000260D46012842
:102210000FD0012084F83C006AB1042A1DD0082A9E
:102220002FD00C2A3FD00126002084F83C003046F5
:1022300070BD022070BD206801F094F820688169AB
:1022400041F0080181612068816921F00401816108
:10225000206881692A69114311E0206801F0B2F811
:102260002068816941F4006181612068816921F4FD
:1022700080618161206881692A6941EA0221816166
:10228000D2E7206801F0D4F82068C16941F0080164
:10229000C1612068C16921F00401C1612068C16980
:1022A0002A69114311E0206801F0F6F82068C1693D
:1022B00041F40061C1612068C16921F48061C1619C
:1022C0002068C1692A6941EA0221C161ACE710B501
:1022D000040003D094F83D0010B107E0012010BDC8
:1022E000002084F83C00204600F01EF8022084F80C
:1022F0003D00211D206800F0B7FF012084F8460052
:1023000084F83E0084F83F0084F8400084F84100DF
:1023100084F8420084F8430084F8440084F84500BF
:1023200084F83D00002010BD70477047704770472B
:10233000704710B504460068406994F84110C0F336
:10234000C010212911D180B12068143050E8001F3D
:1023500021F0800140E80012002AF5D1A06B08B1FD
:10236000FEF797FC204601F088F92068406994F850
:102370004210C0F38010222911D180B1206814309E
:1023800050E8001F21F0400140E80012002AF5D17A
:10239000E06B08B1FEF77DFC204601F047F9002014
:1023A00010BD7047F8B5016804460868CA684B69F3
:1023B00010F00F0F4FF0000559D003F0010602F4A2
:1023C0009077374365D0C10705D0D10503D5616C3F
:1023D00041F001016164410705D5D90703D0616C63
:1023E00041F002016164810705D5D90703D0616C12
:1023F00041F004016164010707D502F02001314377
:1024000003D0616C41F008016164616C00293AD02D
:10241000800604D5900602D5204601F03CF92068DC
:102420004069616CC0F38010090700D460B3204696
:1024300001F0FCF820684069400621D5206814307E
:1024400050E8001F21F0400140E80012002AF5D1B9
:10245000E06BA8B16E490165E06BFEF763FC0028F4
:1024600011D0E06B016D01B0BDE8F0400847830674
:102470000FD593060DD52046BDE8F84001F00BB905
:102480002046FFF78EFFF8BD2046FFF78AFF656400
:10249000F8BD266B2023012E7DD1C6067BD5D6063E
:1024A00079D508684868009048694FF002064006F0
:1024B00041D5E16B086840680004000CE8D0A28DAB
:1024C0008242E5D9E085C869B0F5807F2DD02068CB
:1024D0000C3050E8001F21F4807140E80012002AFF
:1024E000F5D12068143050E8001F21F0010140E8C8
:1024F0000012002AF5D12068143050E8001F21F0A6
:10250000400140E80012002AF5D184F842302563EA
:1025100020680C3050E8001F21F0100140E8001244
:10252000002AF5D1E06BFEF7B4FB6663A08DE18D68
:10253000401A81B22AE0A08DE18D401A81B2E08D6F
:102540000028A5D00029A3D022680C3252E8000F41
:1025500020F4907042E80007002FF5D12068143075
:1025600050E8002F22F0010240E80027002FF5D1AB
:1025700084F84230256320680C3050E8002F22F0A8
:10258000100240E80023002BF5D166632046FFF7D8
:10259000CFFEF8BDFFE705062BD5150629D594F823
:1025A00041002128F5D1A068B0F5805F01D12069F4
:1025B000B0B1206A411C2162216800784860E08C3B
:1025C000401E0004000CE084E3D12068C16821F0C3
:1025D0008001C1602068C16841F04001C160D8E756
:1025E000206A0088C0F308004860206A801C2062CE
:1025F000E5E74006CDD55006CBD5CA68204622F087
:102600004002CA6084F8413000F080F9C1E7000060
:102610002F35000838B5104800680168C943C9065D
:1026200019D40168406800900B48FFF782FE0B4CFC
:1026300020684068192804D1094800F025FD09499F
:102640000870216832204860BDE8384002460449DD
:10265000014800F0FBB838BD6C040020FC040020E9
:102660005C0500200400002070B5040004D094F83C
:102670004100002510B106E0012070BD84F84050F3
:10268000204600F023F8242084F841002068C16827
:1026900021F40051C160204601F05EF82068016914
:1026A00021F4904101612068416921F02A014161D2
:1026B0002068C16841F40051C1606564202084F83D
:1026C000410084F842006563002070BDF0B587B01A
:1026D000074614216846FDF7ADFD5349DFF844C1B4
:1026E0003B680024504A143902250326072063451D
:1026F00033D1136843F010031360126802F0100224
:1027000005920A6842F002020A600A6802F00202B8
:1027100005920A6842F001020A600968074601F062
:10272000010105918021CDE9001502AB694683E8DE
:10273000D0003E48FEF79AFC2802CDE9000502AB26
:10274000694683E8D0003A48FEF790FC0022114623
:102750002520FEF737FF252040E0DFF8D8C063458D
:1027600040D1314A121F136843F48023136012686A
:1027700002F4802205920A6842F004020A600968A5
:10278000029401F0040105914FF44061CDE9001578
:10279000CDE9036069462848FEF768FC284D2748C4
:1027A00028604FF00060C5E901044014C5E903400A
:1027B00080106C61C5E906404FF44030C5E908045B
:1027C0002846FEF791FB08B1FDF78FFEFD6300225E
:1027D00011462720AF63FEF7F5FE2720FEF7E4FE43
:1027E00007B0F0BD17488342FAD1106840F02000CE
:1027F0001060106800F020000590086840F040006C
:1028000008600868029400F0400005904FF484408E
:10281000CDE900050820CDE9036069460A48FEF7C6
:1028200025FCDDE70010014044380240000402406E
:1028300000000240004800400008024028600240BA
:10284000FC040020001401400018024090F84230BF
:10285000202B01D00220704721B11AB1002303635D
:1028600001F000B801207047704770472DE9F84328
:10287000044690F84100984616460D46202802D09E
:102880000220BDE8F88385B17EB10020606421207C
:1028900084F84100FEF7F0FCA6848146E684A06837
:1028A0002027B0F5805F02D003E00120E9E720692E
:1028B00010B12E4600250EE000260CE080212046B7
:1028C00001F018F8A8B9C6B116F8010B21684860E4
:1028D000E08C401EE084E08C4B464FF00002CDF8C7
:1028E00000800028EAD14FF04001204601F002F8B4
:1028F00040B184F841700320C3E735F8020BC0F300
:102900000800E3E784F841700020BAE77047FEE76B
:102910001FB500211648009101910291134A0391BD
:1029200002604FF48032C0E901210161017680F834
:102930002010104AC0E90A210124C461C16080F856
:1029400030104461FDF77AFE08B1FDF7CEFD11208D
:10295000CDE900040220029069460548FDF7C8FD54
:10296000002801D0FDF7C1FD1FBD0000002001407F
:102970001C0000200100000F1FB500211648009127
:1029800001910291134A039102604FF48032C0E931
:1029900001210161017680F82010104AC0E90A2166
:1029A0000124C461C16080F830104461FDF746FE27
:1029B00008B1FDF79AFD0820CDE900040720029038
:1029C00069460548FDF794FD002801D0FDF78DFD0F
:1029D0001FBD000000220140640000200100000F24
:1029E0000F4810B50D4901600321416000214FF4EB
:1029F00010228160C0E903124FF400124261017697
:102A000041768176C17601774177FEF704F8002898
:102A100003D0BDE81040FDF768BD10BD0064004064
:102A2000AC000020104810B50E4901600321416040
:102A300000214FF410228160C0E903124FF400120C
:102A400042610176012242768176C1760177417733
:102A5000FDF7E1FF002803D0BDE81040FDF745BDBC
:102A600010BD000000680040D4000020154808B5E3
:102A7000016841F400110160016801F40011009146
:102A8000016841F4800101600068002200F48000C8
:102A9000009011460C20FEF795FD0C20FEF784FDFA
:102AA000002211463A20FEF78DFD3A20FEF77CFD0C
:102AB000002211463B20FEF785FDBDE808403B2083
:102AC000FEF772BD303802402DE9F04786B0142180
:102AD0006846FDF7AFFB58480025016841F0020148
:102AE0000160016801F002010591016841F04001B7
:102AF0000160016801F040010591016841F00101A8
:102B00000160016801F001010591016841F00801CF
:102B10000160016801F008010591016841F00401BC
:102B20000160016801F004010591016841F48071C0
:102B30000160016801F480710591016841F0200194
:102B40000160016801F020010591016841F08001F8
:102B500001600068394F00F080000590012240219B
:102B60003846FEF783FBDFF8D8804FF4E0560022AA
:102B700031464046FEF77AFBDFF8C890012210216B
:102B80004846FEF773FBDFF8C0A00122114650460D
:102B9000FEF76CFB01244020CDE900040294694655
:102BA00038460394FEF762FA0096CDE9014569467E
:102BB00040460395FEF75AFA082000904FF488101B
:102BC000CDE9010469463846FEF750FA4FF4041582
:102BD000CDE90045694648460294FEF747FA1020C1
:102BE000CDE900040226CDE9024669464846FEF7D3
:102BF0003DFA3020CDE90005694602941348FEF7FE
:102C000035FACDE902460094694650460194FEF734
:102C10002DFA002211460620FEF7D4FC0620FEF70E
:102C2000C3FC002211460920FEF7CCFC0920FEF768
:102C3000BBFC06B0BDE8F087303802400018024007
:102C4000001C024000000240000402400008024054
:102C50000D4810B50B4901600C49416000214FF44B
:102C600080428160C0E9031241618161C1610162FA
:102C7000FEF708FB002803D0BDE81040FDF735BC87
:102C800010BD000000580040FC000020801A060023
:102C90000D4810B50B4901600C49416000214FF40B
:102CA00080428160C0E9031241618161C1610162BA
:102CB000FEF7E8FA002803D0BDE81040FDF715BC88
:102CC00010BD0000005C004050010020801A06008A
:102CD000104810B50E4901604FF482714160002127
:102CE00002228160C0E90312012242615202826124
:102CF0002022C0E90721416281620A21C162FEF7F8
:102D000035FF002803D0BDE81040FDF7EEBB10BD35
:102D100000300140A401002010B588B01C21684695
:102D2000FDF788FA144813490024C0E9001441F261
:102D30008731C0E9024104618461FFF77DF808B181
:102D4000FDF7D3FB0C48FFF7C2FA08B1FDF7CDFB46
:102D50006020CDE9000402940022694606480494EC
:102D6000FFF74FFA08B1FDF7C0FB0348FFF7EEF994
:102D700008B010BD00440140DC03002010B586B04F
:102D80000024174800940194029403940494134976
:102D900005940160A721C0E9011444F61F61C0E950
:102DA000031444618461FFF747F808B1FDF79DFB08
:102DB0004FF48050009069460948FFF7BFF808B10A
:102DC000FDF793FB049404A905480594FEF7ECFF76
:102DD000002801D0FDF789FB06B010BD00000140BE
:102DE000BC02002010B58EB000240794089409940A
:102DF0000A940B941C2168460C94FDF71BFA1F489B
:102E00001D4901605321C0E9011444F61F61C0E966
:102E100003148461FFF710F808B1FDF766FB4FF467
:102E20008050079007A91548FFF788F808B1FDF70B
:102E30005CFB1248FFF74BFA08B1FDF756FB0B9409
:102E40000BA90E480C94FEF7AFFF08B1FDF74DFB40
:102E5000602000904FF4FA60CDE901040822694631
:102E600006480494FFF7CDF908B1FDF73EFB03488F
:102E7000FFF76CF90EB010BD0008004004030020FD
:102E80001CB500240E4800940C49019401605321A4
:102E9000C0E9011442F20F718461C160FEF7CCFFFA
:102EA00008B1FDF722FB0094694605480194FEF73E
:102EB0007BFF002801D0FDF718FB1CBD001000406F
:102EC0004C03002010B596B000240F941094119478
:102ED000129413941C2108A81494FDF7ABF9202137
:102EE0006846FDF7A7F9294827490160A721C0E9ED
:102EF000011444F61F61C0E9031444618461FEF7C4
:102F00009BFF08B1FDF7F1FA4FF480500F900FA925
:102F10001E48FFF713F808B1FDF7E7FA1B48FFF763
:102F2000D6F908B1FDF7E1FA139413A917481494E0
:102F3000FEF73AFF08B1FDF7D8FA602008904FF489
:102F4000FA60CDE909040B940C940D94082208A9A9
:102F50000E480E94FFF755F908B1FDF7C6FA009434
:102F60004FF40050CDE90440029401940394694663
:102F700006480794FEF7EEFE08B1FDF7B6FA0348DF
:102F8000FFF7E4F816B010BD0004014094030020E0
:102F90000C4810B50A4901604FF4E131416000214D
:102FA00081600C22C160C0E904128161C161FFF738
:102FB0005BFB002803D0BDE81040FDF796BA10BDBA
:102FC00000100140240400200E4810B50C49016097
:102FD0000D4941604FF48051816000214FF48062BF
:102FE000C0E903120C22C0E90521C161FFF73CFBD7
:102FF000002803D0BDE81040FDF777BA10BD0000EF
:10300000004800406C040020A08601000C4810B568
:103010000A4901604FF4E1314160002181600C22D6
:10302000C160C0E904128161C161FFF71DFB002886
:1030300003D0BDE81040FDF758BA10BD00140140A0
:10304000B404002010B54FF400610448FEF706F9FF
:10305000BDE810400A20FDF7E9BF0000001C024057
:10306000FEE7FEE77047000005480068C16841F0D0
:103070001001C160322203490148FFF7E7BB00009D
:103080006C0400205C05002048490022835C21F884
:103090001230521CD2B2192AF8D3C27D0AB10020D4
:1030A0007047B0F80120C2F30A0221F8322F82786B
:1030B000C378D20842EA4312C2F30A024A80C278B5
:1030C0000379920942EA8302437942EA8322C2F3F6
:1030D0000A028A8042798379520842EAC312C2F313
:1030E0000A02CA808279C379120942EA0312C2F342
:1030F0000A020A81C279037AD20942EA4302437A78
:1031000042EA4322C2F30A024A81427A837A92084F
:1031100042EA8312C2F30A028A81827AC37A52098E
:1031200042EAC302CA818289C2F30A020A82427B4E
:10313000837BD20842EA4312C2F30A024A82827BAC
:10314000C37B920942EA8302037C42EA8322C2F3F0
:103150000A028A82027C437C520842EAC312C2F30A
:103160000A02CA82427C837C120942EA0312C2F339
:103170000A020A83827CC37CD20942EA4302037DAD
:1031800042EA4322C2F30A024A83027D437D920847
:1031900042EA8312C2F30A028A83427D807D520989
:1031A00042EAC000C8830120704700007605002075
:1031B0007047FEF79FB9000030B593B030216846E4
:1031C000FDF738F814210CA8FDF734F81D48002548
:1031D000016841F080510160006800F0805011905A
:1031E0001948016841F4804101600068022400F43C
:1031F0008040119001200090000401908001CDE9F1
:10320000064006200890A820CDE9090404200B9070
:103210006846FEF7F5FA08B172B6FEE70CA90F2072
:1032200081E831004FF4A0500F904FF4805010907F
:1032300005210CA8FEF7F8F9002801D072B6FEE7C8
:1032400013B030BD403802400070004002480168B1
:1032500041F470010160704788ED00E00148FEF71D
:10326000DCBE00004C030020F0B50268294C2A4D5A
:103270002A4E2B4F2B4B4FF0804CA04209D060457B
:1032800007D0A84205D0B04203D0B84201D098423E
:1032900004D122F0700E4A6842EA0E02A0421BD00E
:1032A000604519D0A84217D0B04215D0B84213D00B
:1032B000984211D01C4DA8420ED01C4DA8420BD0F4
:1032C0001B4DA84208D01B4DA84205D01A4DA8425C
:1032D00002D01A4DA84203D122F44075CA682A438D
:1032E0004D6922F080022A4302608A68C2620A683D
:1032F0008262A04201D0984201D109690163012193
:1033000041610169C90703D0016921F0010101612F
:10331000F0BD000000000140000400400008004033
:10332000000C004000040140004001400044014006
:103330000048014000180040001C004000200040F0
:1033400010B5846842EA032224F47F440A432243EE
:10335000826010BD826822F070020A4342F00701C9
:1033600081607047F0B5036A026A22F001020262CE
:1033700042688469124E24F073050C682C4323F0D4
:1033800002058B682B430D4DA84201D0B04205D1F8
:1033900023F00807CB683B4323F00403A84201D085
:1033A000B04205D14D6922F4407215438A692A431F
:1033B00042608461496841630362F0BD00000140DE
:1033C00000040140F0B5026A036A23F010030362AF
:1033D000436884690D6824F4E64444EA05248D6852
:1033E00022F0200242EA05120F4D104EA84201D0F1
:1033F000B04206D1CF6822F0800242EA071222F0E2
:103400004002A84201D0B04207D14D6923F4406385
:1034100043EA85038D6943EA850343608461496813
:1034200081630262F0BD0000000001400004014021
:10343000F0B5026A036A23F4807303624368C469C7
:1034400022F4007224F073050C68124E2C438D6830
:1034500042EA05220E4DA84201D0B04206D1CF6803
:1034600022F4006242EA072222F48062A84201D0DC
:10347000B04207D14D6923F4405343EA05138D69E7
:1034800043EA05134360C4614968C1630262F0BD49
:10349000000001400004014030B5046A026A22F4D1
:1034A000805202624268C3690D6823F4E64343EA2E
:1034B00005238D6824F4005444EA0534084DA842DD
:1034C00002D0084DA84204D14D6922F4804242EA5C
:1034D00085124260C36149680164046230BD000026
:1034E000000001400004014010B5036A046A24F0A2
:1034F00001040462846924F0F00444EA021423F015
:103500000A020A438461026210BD10B5036A046AAC
:1035100024F010040462846923F0A00324F47044AE
:1035200044EA023243EA01118261016210BD10B522
:10353000806B0021C185C184FEF733FF10BD70B5DB
:10354000846B2068406994F84110C0F3C0100025D6
:10355000212904D118B1E584204600F08EF82068B6
:10356000406994F84210C0F38010222904D118B1A8
:10357000E585204600F05AF8606C40F01000606469
:103580002046FEF70EFF70BD10B50146806B09683E
:1035900009684FF00002C9052ED4C28501680C31BC
:1035A00051E8003F23F4807341E80034002CF5D14A
:1035B0000168143151E8003F23F0010341E8003471
:1035C000002CF5D10168143151E8003F23F040038D
:1035D00041E80034002CF5D1202180F84210016B25
:1035E000012909D101680C3151E8003F23F0100393
:1035F00041E80034002CF5D14263016B012902D06F
:10360000FFF732F910BD818DFEF792FE10BD10B5A7
:10361000806B01214163016B012902D0FFF725F97D
:1036200010BD818D4908FEF783FE10BD01680C3185
:1036300051E8002F22F4907241E80023002BF5D1CD
:103640000168143151E8002F22F0010241E8002303
:10365000002BF5D1016B012909D101680C3151E82A
:10366000002F22F0100241E80023002BF5D1202189
:1036700080F8421000210163704701680C3151E865
:10368000002F22F0C00241E80023002BF5D12021B9
:1036900080F84110704708B590F84210222901D0F7
:1036A000022008BD82684FF480539A4201D101691B
:1036B00021B1816A9A421BD04AB10AE00268816A4C
:1036C0005268C2F308020A80816A891C08E0026914
:1036D00072B10268526802F07F020A70816A491C66
:1036E0008162C18D491E0904090CC18503D01BE00C
:1036F00002685268F1E70168CA6822F02002CA60D5
:103700000168CA6822F48072CA6001684A6922F0BE
:1037100001024A61202180F8421000214163026BBE
:10372000012A03D0FFF7A0F8002008BD016301685B
:103730000C3151E8002F22F0100241E80023002B49
:10374000F5D101680A68D20602D50A684968009175
:10375000818DFEF7EDFDE7E770B50446006801696D
:10376000E26821F44051114301612169A068E269D6
:1037700008436169114308432168CA6849F20C6330
:103780009A430243CA6020684169A26921F44071EA
:103790001143416131492068884202D03049884252
:1037A00002D1FDF7EBFF01E0FDF7D8FFE26900234E
:1037B000192164253226B2F5004F626828D0A0FB9B
:1037C0000101930F9200FCF7FDFC0146B0FBF5F000
:1037D0006FF01802504301EB800006EB0010B0FBC5
:1037E000F5F000F0F002B1FBF5F002EB0012B1FBD6
:1037F000F5F06FF01803584301EB800006EB001062
:10380000B0FBF5F000F00F0021681044886070BD37
:10381000A0FB010192185B41FCF7D4FC0146B0FB10
:10382000F5F00201B1FBF5F06FF01803584301EB1E
:10383000800006EBC000B0FBF5F000F0F80002EBF2
:103840004002B1FBF5F0584301EB800006EBC000ED
:10385000B0FBF5F000F00700D6E7000000100140D3
:103860000014014038B58162044682850020134669
:103870006064222284F84220E56B1B4AEA63E56B10
:103880001A4A2A64E56B1A4AEA64E26B10650A4632
:103890002168E06B091DFDF791FB20680168406815
:1038A0000090206948B120680C3050E8001F41F4B6
:1038B000807140E80012002AF5D12068143050E8E9
:1038C000001F41F0010140E80012002AF5D12068F4
:1038D000143050E8001F41F0400140E80012002A77
:1038E000F5D1002038BD0000893500080F360008EA
:1038F0003F3500082DE9F843984617460D46044623
:10390000089E24E0701C22D0FDF7B6FCA0EB080056
:10391000B0421AD8CEB12068C168490717D5802DAA
:1039200015D0402D13D00168C94309070FD4016891
:103930000025406800902046FFF778FE082060646C
:1039400084F840500120BDE8F8830320FBE720689D
:10395000006835EA000004D00020B842D2D0002030
:10396000F1E70120F9E700000148FEF71BBD000068
:103970002404002010B50448FEF74CFEBDE81040BA
:103980000148FEF70FBD00006C040020FEE70000B8
:103990000FB4054B10B503A9044A029800F028F8AB
:1039A00010BC5DF814FB0000B13C000818000020BA
:1039B0000907090E002804DB00F1E02080F800145C
:1039C000704700F00F0000F1E02080F8141D7047F0
:1039D00002E008C8121F08C1002AFAD170477047D8
:1039E000002001E001C1121F002AFBD17047000036
:1039F0002DE9FF4F8DB09B460F460446002606E09A
:103A000025280BD05A460F999047641C761C2078C5
:103A10000028F5D111B03046BDE8F08F0025A8464A
:103A20000122984900E0054314F8013F203B02FAC7
:103A300003F00842F7D120782E2817D114F8010F8F
:103A400045F004052A280ED06FF02F022078A0F14F
:103A5000300109290AD808EB880102EB410100EB8B
:103A60000108641CF2E757F8048B641C20786C286A
:103A70000DD004DC4C2812D06A2811D104E074283F
:103A80000DD07A280CD10AE045F4001507E06178E2
:103A900045F48015814202D1641C05F58015641C33
:103AA0002078692844D008DC0028B3D0582867D093
:103AB00063280FD0642808D13AE0702865D07328B5
:103AC00012D075285AD078285AD05A460F99904764
:103AD000761CD5E017F8040B8DF8000000208DF857
:103AE0000100E946012003E057F8049B4FF0FF3046
:103AF00069074FF0000501D40AE06D1C45450DDA59
:103B00008542FADB19F805100029F6D106E06D1C94
:103B10008542FCDB19F805100029F8D12E4404E099
:103B200019F8010B5A460F9990476D1EF8D2A7E07D
:103B30000A200021CDE90801C5F3025002280CD06B
:103B400001CFC117021E71F100020CDA0023D0EB85
:103B5000030063EB01012D2208E0FF1D27F007079A
:103B6000F7E80201EEE72A0504D52B228DF828207C
:103B700001223CE0EA073AD02022F7E70A2000E0E1
:103B800010200021CDE9080107E01020002145F0B8
:103B90000405CDE908014FF00808C5F302500228DA
:103BA00010D001CF00214FF0000A2A0720D522783B
:103BB000702A0DD0DDE908C38CF0100C5CEA030C10
:103BC0000CD015E0FF1D27F00707F7E80201EAE730
:103BD00040228DF828204FF0010A0CE050EA010342
:103BE00006D030238DF828308DF829200222924605
:103BF0002278582A04D024A20DF120090B9209E062
:103C000026A2F9E7DDE90823FCF7DCFA0B9B9B5CB5
:103C100009F8013D50EA0102F4D1ADEB0900203072
:103C20000890680701D44FF001080899884503DD22
:103C30000898A8EB000000E000208046002506E080
:103C40000AA85A46405D0F9990476D1C761C554551
:103C5000F6DB04E030205A460F999047761CB8F105
:103C60000001A8F10108F5DC05E019F8010B5A463E
:103C70000F999047761C0899481E08900029F4DC9B
:103C8000641CC4E60928010030313233343536373C
:103C90003839616263646566000000003031323398
:103CA0003435363738394142434445460000000038
:103CB00013B54FF6FF73012269460248FEF7D6FDA1
:103CC00000981CBD24040020FDF71CFCFFF774FACB
:103CD000FEF7FAFEFEF7CAFEFFF7D2F8FFF782F80A
:103CE000FFF74CF8FFF7EEF8FFF752F9FFF78EF900
:103CF000FFF76AF9FEF774FEFEF794FEFEF7C8FFC1
:103D0000FEF7A6FFFEF7E4FFFEF702FEFEF734FE25
:103D1000FFF702F805A0FFF73BFEFFF7A5F9FCF758
:103D200061FB00BFFFF78EF9FCE7000048656C6C93
:103D30006F2054502D5468726561642100000000AA
:103D4000000610160006101600000000000000001B
:103D50000102030406070809000000000102030431
:103D6000803D0008000000201C000000D039000841
:103D70009C3D00081C000020AC090000E039000850
:103D80000000000000000000010000001000000022
:0C3D9000000000000024F400000000000F
:040000050800018965
:00000001FF
